S01100002E2E2F50726F746575732E73313966
S32D0000C000000000205DC2000011C3000017C300001DC3000023C3000029C3000000000000000000000000000073
S32D0000C028000000002FC3000035C30000000000003BC3000041C3000045D4000051D400005DD4000069D4000052
S32D0000C05075D4000081D400008DD4000099D40000A5D40000B1D40000BDD40000C9D40000D5D40000E1D40000CC
S32D0000C078EDD40000F9D4000005D5000011D500001DD5000029D5000035D5000041D500004DD5000059D50000EC
S32D0000C0A065D5000071D500007DD5000089D5000095D50000A1D50000ADD50000B9D50000C5D50000D1D5000012
S32D0000C0C8DDD50000E9D50000F5D5000001D600000DD6000019D6000025D6000031D600003DD6000049D6000033
S32D0000C0F055D60000492C010061D600006DD6000079D6000085D6000091D600009DD60000A9D60000B5D6000079
S32D0000C118C1D60000CDD60000D9D60000E5D60000F1D60000FDD6000009D7000015D7000021D700002DD70000F3
S32D0000C14039D7000045D7000051D700005DD70000B102010069D7000075D7000081D700008DD7000099D70000DD
S32D0000C168A5D70000B1D70000BDD70000C9D70000D5D70000E1D70000EDD70000F9D7000005D8000011D80000B3
S32D0000C1901DD8000029D8000035D800009DFE00005DFD0000FDFD0000C9D1000041FF000041D800004DD8000077
S32D0000C1B859D80000A4BD010000000020E0160000A4BD01000000FF1F00000000E0160020B80400000000FF1F40
S32D0000C1E00000000080B489B000AFF860B9607A60BB68FB61FB68BB6100237B617A697B689A420BD2BA69131DFB
S32D0000C208BB61FB69191DF96112681A607B6904337B61EFE700BF2437BD4680BC704780B485B000AF786039609E
S32D0000C2307B68FB600023BB60BA683B689A4208D2FB681A1DFA6000221A60BB680433BB60F2E700BF1437BD46FE
S32D0000C25880BC704780B586B000AF72B6234B4CF220521A80214B4DF628121A80204B4FF4E9721A801F4B7B615F
S32D0000C2807B691F4A934214D27B691A1D7A611B683B617B691A1D7A611B68FB607B691A1D7A611B68BB60BA68E9
S32D0000C2A8F9683869FFF79AFFE6E77B69134A93420ED27B691A1D7A611B68FB607B691A1D7A611B68BB60B9688B
S32D0000C2D0F868FFF7A8FFECE70B4B7B600B4A7B681A6008F0EBFD62B601F036F800F0C4FCFEE700BF0E200540AF
S32D0000C2F800200540BCC10000D4C10000E4C1000008ED00E000C0000080B400AFFEE780B400AFFEE780B400AFF4
S32D0000C320FEE780B400AFFEE780B400AFFEE780B400AFFEE780B400AFFEE780B400AFFEE780B400AFFEE780B426
S32D0000C34800AFFEE7FFFFFFFFFFFFFFFFFFFFFFFFFFFFFFFFFFFFFFFFFFFFFFFFFFFFFFFFFFFFFFFFFFFFFFFF57
S32D0000C370FFFFFFFFFFFFFFFFFFFFFFFFFFFFFFFFFFFFFFFFFFFFFFFFFFFFFFFFFFFFFFFFFFFFFFFFFFFFFFFFC7
S32D0000C398FFFFFFFFFFFFFFFFFFFFFFFFFFFFFFFFFFFFFFFFFFFFFFFFFFFFFFFFFFFFFFFFFFFFFFFFFFFFFFFF9F
S32D0000C3C0FFFFFFFFFFFFFFFFFFFFFFFFFFFFFFFFFFFFFFFFFFFFFFFFFFFFFFFFFFFFFFFFFFFFFFFFFFFFFFFF77
S32D0000C3E8FFFFFFFFFFFFFFFFFFFFFFFFFFFFFFFFFFFFFFFFFFFFFFFFFFFFFFFFFFFFFFFFFFFFFFFFFEFFFFFF50
S32D0000C41010B5054C237833B9044B13B10448AFF300800123237010BDE016002000000000A4BD010008B5034BD9
S32D0000C4381BB103490348AFF3008008BD00000000E4160020A4BD010080B500AF40F28A21154804F0F3F840F2E1
S32D0000C4602671134804F00BF91249114804F024F94FF40771104804F0E5F840F607110E4804F0FDF84FF000014E
S32D0000C4880B4804F015F940F2EE210A4804F0D6F840F61511074804F0EEF80749054804F007F900BF80BD00BF0B
S32D0000C4B03C1700200000344348170020541700200000A04280B500AF304B1B68184607F0D5FC4FF000022E4BC6
S32D0000C4D807F028FD02460B461046194607F0BCFF03461946192000F04DFC4FF00000274903F018F9264B1B6859
S32D0000C5002649184608F052F90346184608F014FB03461946192000F025FD4FF000001D4903F004F9194B1B68E0
S32D0000C5281D49184608F03EF90346184608F000FB034619463C2000F025FC4FF00000134903F0F0F8124B1B68ED
S32D0000C5501449184608F02AF90346184608F0ECFA03461946192000F059FD4FF00000094903F0DCF84FF00001A3
S32D0000C5780B4801F0F5F94FF000010A4801F0F0F900BF80BD0000002000802E400000084004000020000030420F
S32D0000C5A00000044200003C422C1700202417002080B582B000AF78608D4B1B688D49184608F0F4F803461846E3
S32D0000C5C808F0B6FA034619466FF0180000F0DAFB7B68002B7BD1864B1B688649184608F0E1F80346184608F06E
S32D0000C5F0A3FA03461946192000F010FD00F066FB034683F00103DBB2002B08D07C497D4801F0AAF97C497D4859
S32D0000C61801F0A6F9EEE77C497C4804F034FE7C4803F00EFD03461946784804F023FF7949764804F028FE784846
S32D0000C64003F002FD03461946724804F017FF7549704804F01CFE744803F0F6FC034619466C4804F00BFF714935
S32D0000C6686A4804F0E1FE5EA1D1E9000103F05AF84FF00001614801F073F94FF00001614801F06EF95A4B1B6871
S32D0000C6906749184608F08AF80346184608F04CFA03461946192000F05DFC514B1B68184607F0E4FB4FF0000251
S32D0000C6B85E4B07F037FC02460B461046194607F0CBFE03461946192000F0DEFBE2E07B68022B40F0B580464B01
S32D0000C6E01B685549184608F061F80346184608F023FA03461946192000F034FC00F0E6FA034683F00103DBB282
S32D0000C708002B08D03C493D4801F02AF93C493D4801F026F9EEE73C493C4804F0B4FD3C4803F08EFC034619469C
S32D0000C730384804F0A3FE3949364804F0A8FD384803F082FC03461946324804F097FE3549304804F09CFD344892
S32D0000C75803F076FC034619462C4804F08BFE31492A4804F061FE4FF00001244801F0F8F84FF00001234801F04D
S32D0000C780F3F81B4B1B68184607F078FB4FF000022A4B07F0CBFB02460B461046194607F05FFE034619461920F9
S32D0000C7A800F072FB4FF00001144801F0D9F84FF00001144801F0D4F80D4B1B681E49184607F0F0FF0346184622
S32D0000C7D008F0B2F903461946192000F01FFC1949192000F02DFB59E0CDCCCCCCCCCCF43F000000200000404024
S32D0000C7F804000020000020420000C8C12C1700200000C84124170020F0B10100401A002000170020FCB101003C
S32D0000C820FC16002008B201000417002054B201000000F8410000024000000C420000F83F000048426666A63F80
S32D0000C848404B1B68184607F015FB4FF000023E4B07F068FB02460B461046194607F0FCFD03461946192000F01C
S32D0000C870D5FB384B1B68184607F000FB4FF00002354B07F053FB02460B461046194607F0E7FD03461946192064
S32D0000C89800F0FAFA2F49304803F00AFF4FF000002E4902F03FFF4FF000002C4902F03AFF264B1B68184607F094
S32D0000C8C0DDFA4FF00002284B07F030FB02460B461046194607F0C4FD034619466FF0180000F054FA21491E486A
S32D0000C8E803F0E6FE4FF000001F4902F01BFF4FF07F51192000F0A0FA4FF00000174902F011FF1A49144803F073
S32D0000C910D3FE4FF00000184902F008FF0D4B1B681649184607F042FF0346184608F004F9034619466FF0180004
S32D0000C93800F028FA1049084803F0BAFE00BF0837BD4680BD0400002000001E4000000020000027400000D24210
S32D0000C9603C1700200000F03F000014400000F0410000104000008C420000E03F0000404000003443FFFFFFFF52
S32D0000C98880B500AFA84B1B68184607F073FA4FF00002A64B07F0C6FA02460B461046194607F05AFD0346194638
S32D0000C9B06FF0180000F0EAF99F4B1B689F49184607F0F4FE0346184608F0B6F803461946192000F0C7FAFFF79E
S32D0000C9D83BFD994802F0C4FF0346002B05D1974802F0BEFF0346002B01D0012300E00023002B38D0914802F021
S32D0000CA00B3FF034683F00103DBB2002B09D08E498E4800F0A9FF4FF000018D4800F0A4FF07E08949894800F09E
S32D0000CA289FFF8A49884800F09BFF4FF00000884902F078FE8749884804F025FC7E4802F08FFF0346194684482E
S32D0000CA5004F027FD8349824804F019FC794802F083FF034619467E4804F01BFDB5E74FF00001764800F078FF51
S32D0000CA784FF00001744800F073FF6B4B1B68184607F0F8F964A3D3E9002307F04BFA02460B461046194607F04C
S32D0000CAA0DFFC034619466FF0180000F0F1F9624B1B686D49184607F079FE0346184608F03BF80346194619202F
S32D0000CAC800F04CFA584B1B686649184607F06AFE0346184608F02CF803461946192000F0D3F9534B1B6860494E
S32D0000CAF0184607F05BFE0346184608F01DF803461946192000F08AFA494B1B681946184607F044FD03461846AE
S32D0000CB1808F00EF803461946192000F0B5F9444B1B685149184607F03DFE0346184607F0FFFF034619461920B9
S32D0000CB4000F010FA3E4802F00FFF0346002B05D13C4802F009FF0346002B01D0012300E00023002B25D0384972
S32D0000CB68384800F0FDFE3949374800F0F9FE4FF00000374902F0D6FD3649374804F083FB2D4802F0EDFE0346BD
S32D0000CB901946334804F085FC3249314804F077FB284802F0E1FE034619462D4804F079FCC8E71F4B1B6818460D
S32D0000CBB807F060F91AA3D3E9002307F0B3F902460B461046194607F047FC034619466FF0180000F0D7F8164BF9
S32D0000CBE01B682349184607F0E1FD0346184607F0A3FF03461946192000F010FA0C4B1B681C49184607F0D2FD87
S32D0000CC080346184607F094FF03461946282000F0B9F800BF80BD00BF9A99999999992B409A9999999999234085
S32D0000CC30000000200000184004000020000011430C170020101700200000B8C12C170020241700200000C8411C
S32D0000CC580000F03F14B20100401A002024B201000000C84200002842000034420000504180B500AF114806F0B9
S32D0000CC80E9FB104806F002FE034619460E4804F0E2FB00F05BF8034683F00103DBB2002B00D0F6E7FFF7D4FB58
S32D0000CCA8FFF70CFC054806F0EDFD03461846FFF77BFCFFF765FE0023184680BDA81A0020401A002080B500AFC8
S32D0000CCD0184803F0B9F90246174B1B681946104607F020FF0346002B19D1144803F0ACF90246134B1B6819465F
S32D0000CCF8104607F013FF0346002B0CD10F4803F09FF902460E4B1B681946104607F006FF0346002B01D001233E
S32D0000CD2000E00023002B01D0012300E00023184680BD00BF0417002008000020FC1600200C000020001700206D
S32D0000CD481000002098B500AF0C4803F079F902460B4B1B6801210C461946104607F0C0FE0346002B01D1002370
S32D0000CD701C46E3B2002B01D0012300E00023184698BD00BF0817002014000020F0B583B000AF78603960264830
S32D0000CD9803F032F9254803F02FF9786807F0AEFC03461946224800F0DBFD7B685B42184607F0A4FC034619464F
S32D0000CDC01E4800F0D1FD1B4803F008F90446184803F004F903462344184607F03DF84FF000024FF0804307F0BC
S32D0000CDE8CBF902460B4614461D46386807F030F802460B4601210E462046294607F004FB0346002B01D1002301
S32D0000CE101E46F3B2002B00D0D5E7074800F062FD064800F05FFD00BF0C37BD46F0BD00BF1C17002020170020E1
S32D0000CE38241700202C17002080B582B000AF78603960786807F05AFC034619460C4800F087FD7B685B4218460C
S32D0000CE6007F050FC03461946084800F07DFD386802F03CFC044800F035FD044800F032FD00BF0837BD4680BD1E
S32D0000CE88241700202C170020F0B583B000AF786039602E4803F0B0F82D4803F0ADF8786807F02CFC0346194601
S32D0000CEB02A4800F059FD7B68002B0CDA7A686FF001039B1A184607F01DFC03461946244800F04AFD0AE07B6828
S32D0000CED8C3F10203184607F011FC034619461E4800F03EFD1A4803F075F80446174803F071F803462344184603
S32D0000CF0006F0AAFF4FF000024FF0804307F038F902460B4614461D46386806F09DFF02460B4601210E462046FC
S32D0000CF28294607F071FA0346002B01D100231E46F3B2002B00D0D5E7064800F0CFFC064800F0CCFC00BF0C37D0
S32D0000CF50BD46F0BD1C17002020170020241700202C170020F0B583B000AF78603960274803F046F8264803F0A2
S32D0000CF7843F87B685B42184607F0C0FB03461946224800F0EDFC7B685B42184607F0B6FB034619461E4800F051
S32D0000CFA0E3FC1B4803F01AF80446184803F016F803462344184606F04FFF4FF000024FF0804307F0DDF80246C8
S32D0000CFC80B4614461D46386806F042FF02460B4601210E462046294607F016FA0346002B01D100231E46F3B2F9
S32D0000CFF0002B00D0D5E7074800F074FC064800F071FC00BF0C37BD46F0BD00BF1C17002020170020241700208C
S32D0000D0182C170020F0B583B000AF78603960254802F0EAFF244802F0E7FF786807F066FB03461946214800F0CA
S32D0000D04093FC786807F05EFB034619461E4800F08BFC1B4802F0C2FF0446184802F0BEFF03462344184606F00B
S32D0000D068F7FE4FF000024FF0804307F085F802460B4614461D46386806F0EAFE02460B4601210E462046294636
S32D0000D09007F0BEF90346002B01D100231E46F3B2002B00D0D5E7074800F01CFC064800F019FC00BF0C37BD46EC
S32D0000D0B8F0BD00BF1C17002020170020241700202C17002080B582B000AF786039607B68012B47D13B684FF6E0
S32D0000D0E0FF72934242D10B21224802F09BFF0D21214802F097FF0F21204802F093FF1F211F4802F08FFF18210C
S32D0000D1081E4802F051FB07211D4802F04DFB19211C4802F049FB01211B4802F045FB08211A4802F0A1FC1021B8
S32D0000D130194802F09DFC194A0021194800F094FB164A0121174800F08FFB144A0221164800F08AFB0321154851
S32D0000D15803F058FA0721144803F054FA0021134803F050FA00BF0837BD4680BDFC160020001700200417002004
S32D0000D180081700200C1700201017002014170020181700201C1700202017002000001041241700202C17002065
S32D0000D1A8341700203C170020481700205417002080B500AF4FF6FF710120FFF783FF80BD80B500AF0F4BD3F8F9
S32D0000D1D0A03003F48053002B14BF01230023DBB2002B10D0094BD3F8A030084A23F48053C2F8A030064806F0C1
S32D0000D1F857FC064B1B68054A23F40053136000BF80BD00BF00C00440C81A0020C0F00F4080B400AF124B4FF473
S32D0000D22080725A63114B5B69104A43F4005353610E4B1B680D4A43F4005313600A4B0C4A1A630C4BD3F8883146
S32D0000D2480A4A43F08063C2F88831084B9B68074A43F08063936000BFBD4680BC704700BF00C00440C0F00F40B4
S32D0000D27003010A0000E100E080B400AF334B00225A70324B98221A70304B9B79DBB203F01003002B14BF01236F
S32D0000D2980023DBB2002B00D0F2E72A4B9B79DBB29B08DBB203F00303022B14BF01230023DBB2002B00D0F0E7FF
S32D0000D2C0224B18221A71214B00225A71204B03F580531A461F4B53641C4B54225A711B4B9B79DBB203F0200339
S32D0000D2E8002B0CBF01230023DBB2002B00D0F2E7144B9B79DBB203F04003002B0CBF01230023DBB2002B00D07F
S32D0000D310F2E70E4B1B78DBB20C4A03F03F03DBB213700A4B9B79DBB29B08DBB203F00303032B14BF012300239B
S32D0000D338DBB2002B00D0F0E700231846BD4680BC704700BF00400640007004400000130180B500AF314B03F58C
S32D0000D36080539B6B2F4A43F4785302F580529363FFF752FFFFF780FF2B4B58221A602A4B1B684FF47A7202FB42
S32D0000D38803F3284A1360274B1B681A46234B03F580535B6C1B0E03F00F030133B2FBF3F31A46214B1A601D4BA4
S32D0000D3B003F58053DB6B1B4A43F0225302F58052D363184B03F580531B6B164A43F0006302F580521363174BE7
S32D0000D3D84FF480721A61642002F05AF8134B5B69124A23F010035361104B00221A600F4B10225A610E4803F0D0
S32D0000D40007FC02F009FF02F067FF0C4802F0A6F80B4806F09DFB4FF4FA6002F051F900BF80BD00BF007004409C
S32D0000D4288C190020881900209019002000D00340401A002084190020381B002080B500AFFEF77DFF00BF80BD79
S32D0000D45080B500AFFEF777FF00BF80BD80B500AFFEF771FF00BF80BD80B500AFFEF76BFF00BF80BD80B500AFFB
S32D0000D478FEF765FF00BF80BD80B500AFFEF75FFF00BF80BD80B500AFFEF759FF00BF80BD80B500AFFEF753FFA6
S32D0000D4A000BF80BD80B500AFFEF74DFF00BF80BD80B500AFFEF747FF00BF80BD80B500AFFEF741FF00BF80BD11
S32D0000D4C880B500AFFEF73BFF00BF80BD80B500AFFEF735FF00BF80BD80B500AFFEF72FFF00BF80BD80B500AF37
S32D0000D4F0FEF729FF00BF80BD80B500AFFEF723FF00BF80BD80B500AFFEF71DFF00BF80BD80B500AFFEF717FF1E
S32D0000D51800BF80BD80B500AFFEF711FF00BF80BD80B500AFFEF70BFF00BF80BD80B500AFFEF705FF00BF80BD4C
S32D0000D54080B500AFFEF7FFFE00BF80BD80B500AFFEF7F9FE00BF80BD80B500AFFEF7F3FE00BF80BD80B500AF75
S32D0000D568FEF7EDFE00BF80BD80B500AFFEF7E7FE00BF80BD80B500AFFEF7E1FE00BF80BD80B500AFFEF7DBFE99
S32D0000D59000BF80BD80B500AFFEF7D5FE00BF80BD80B500AFFEF7CFFE00BF80BD80B500AFFEF7C9FE00BF80BD8B
S32D0000D5B880B500AFFEF7C3FE00BF80BD80B500AFFEF7BDFE00BF80BD80B500AFFEF7B7FE00BF80BD80B500AFB1
S32D0000D5E0FEF7B1FE00BF80BD80B500AFFEF7ABFE00BF80BD80B500AFFEF7A5FE00BF80BD80B500AFFEF79FFE11
S32D0000D60800BF80BD80B500AFFEF799FE00BF80BD80B500AFFEF793FE00BF80BD80B500AFFEF78DFE00BF80BDC6
S32D0000D63080B500AFFEF787FE00BF80BD80B500AFFEF781FE00BF80BD80B500AFFEF77BFE00BF80BD80B500AFEC
S32D0000D658FEF775FE00BF80BD80B500AFFEF76FFE00BF80BD80B500AFFEF769FE00BF80BD80B500AFFEF763FE88
S32D0000D68000BF80BD80B500AFFEF75DFE00BF80BD80B500AFFEF757FE00BF80BD80B500AFFEF751FE00BF80BD02
S32D0000D6A880B500AFFEF74BFE00BF80BD80B500AFFEF745FE00BF80BD80B500AFFEF73FFE00BF80BD80B500AF28
S32D0000D6D0FEF739FE00BF80BD80B500AFFEF733FE00BF80BD80B500AFFEF72DFE00BF80BD80B500AFFEF727FE00
S32D0000D6F800BF80BD80B500AFFEF721FE00BF80BD80B500AFFEF71BFE00BF80BD80B500AFFEF715FE00BF80BD3E
S32D0000D72080B500AFFEF70FFE00BF80BD80B500AFFEF709FE00BF80BD80B500AFFEF703FE00BF80BD80B500AF63
S32D0000D748FEF7FDFD00BF80BD80B500AFFEF7F7FD00BF80BD80B500AFFEF7F1FD00BF80BD80B500AFFEF7EBFD7B
S32D0000D77000BF80BD80B500AFFEF7E5FD00BF80BD80B500AFFEF7DFFD00BF80BD80B500AFFEF7D9FD00BF80BD7C
S32D0000D79880B500AFFEF7D3FD00BF80BD80B500AFFEF7CDFD00BF80BD80B500AFFEF7C7FD00BF80BD80B500AFA2
S32D0000D7C0FEF7C1FD00BF80BD80B500AFFEF7BBFD00BF80BD80B500AFFEF7B5FD00BF80BD80B500AFFEF7AFFDF3
S32D0000D7E800BF80BD80B500AFFEF7A9FD00BF80BD80B500AFFEF7A3FD00BF80BD80B500AFFEF79DFD00BF80BDB8
S32D0000D81080B500AFFEF797FD00BF80BD80B500AFFEF791FD00BF80BD80B500AFFEF78BFD00BF80BD80B500AFDD
S32D0000D838FEF785FD00BF80BD80B500AFFEF77FFD00BF80BD80B500AFFEF779FD00BF80BD80B500AFFEF773FD6A
S32D0000D86000BF80BDFFFFFFFF80B584B000AFF8600B467A60FB72FB68FA7A1A71FB6800225A711749786807F0B1
S32D0000D8884DF90346002B02D0134B7B600AE04FF07E51786807F02EF90346002B02D04FF07E537B60786806F0B0
S32D0000D8B0E5FA09A3D3E9002306F038FB02460B461046194606F014FE0246FB681A60FB6818461037BD4680BDF4
S32D0000D8D8ABAAAAAAAAAA20400000404180B582B000AF78607B685B79002B09D07B6800225A717B6819791E2315
S32D0000D9000022034801F064FE00BF0837BD4680BD8419002080B584B000AF786039603B687F2B02DD7F23FB7379
S32D0000D92808E03B6813F1800F02DA8023FB7301E03B68FB737B685B79FA7B9A4209D07B68FA7B5A717B6819795B
S32D0000D950FA7B1E23034801F03BFE00BF1037BD4680BD00BF84190020B0B584B000AF786039603749386807F0EC
S32D0000D978B7F80346002B02D0334B3B6008E03349386807F0CBF80346002B01D02F4B3B60386806F06FFA044612
S32D0000D9A00D467B681B68184606F068FA4FF00002294B06F0E5FB02460B462046294606F0B5FA02460B4610465D
S32D0000D9C8194606F091FD03463B604FF00001386807F09AF80346002B10D0386806F04AFA17A3D3E9002306F044
S32D0000D9F09DFA02460B461046194606F031FD0346FB6018E0386806F039FA4FF00002134B06F08CFA02460B46E7
S32D0000DA18104619464FF000020D4B06F0ADFB02460B461046194606F017FD0346FB60F9687868FFF76BFF00BF98
S32D0000DA401037BD46B0BD00BF52B81E85EB51F43F0000C8C20000C842000059400000604080B483B000AF0346FA
S32D0000DA680A46FB711346BB71BB79002B03D1134B00221A7002E0114B01221A703823FB710E4B1A78FB791343AB
S32D0000DA90FB710D4B9B78DBB20B4A43F01003DBB29370094B9B78DBB2074A43F02003DBB29370054AFB79137167
S32D0000DAB800BF0C37BD4680BC704700BF601700200060064080B483B000AF01237B607B68312B04DC00BF7B6876
S32D0000DAE001337B60F7E700BF0C37BD4680BC704780B582B000AF03460A46FB711346BB71134B1B780021184623
S32D0000DB08FFF7AAFF00F024F8104AFB79137100F01FF80E4ABB79137100F01AF80B4B9B78DBB20A4A23F0200359
S32D0000DB30DBB29370074B9B78DBB2064A23F01003DBB29370FFF7C2FF00BF0837BD4680BD61170020006006400C
S32D0000DB5880B483B000AF174B1B78002B24D100237B60154BDB78DBB203F00203002B0CBF01230023DBB2002B49
S32D0000DB800DD07B6842F21072934203DD0B4B01221A7004E07B6801337B6000BFE5E7084BDB78DBB2064A43F032
S32D0000DBA80203DBB2D37000E000BF0C37BD4680BC704700BF621700200060064080B582B000AF0346FB71FB7965
S32D0000DBD0184600F05FF800BF0837BD4680BD80B582B000AF03460A46FB711346BB7100F035F8FB795B00DBB22B
S32D0000DBF81846FFF7E3FFBB791846FFF7DFFF00F037F800BF0837BD4680BD80B500AFFF2000F03CF80346184638
S32D0000DC2080BD80B584B000AF0346FB7100F016F8FB795B005BB243F001035BB2DBB21846FFF7C0FFFFF7E5FF34
S32D0000DC480346FB7300F014F8FB7B18461037BD4680BDFFFF80B400AF044B9B68034A43F48013936000BFBD46A1
S32D0000DC7080BC704740F00F4080B400AF044B5B68034A43F48013536000BFBD4680BC704740F00F4080B485B0B8
S32D0000DC9800AF0346FB710023BB73164BDB6A03F00043012B0CBF01230023DBB2002B03D0FB7B0133FB73F0E715
S32D0000DCC00E4BDB6A0D4A43F00043D3620B4AFB7953630A4BDB6A03F40033002B0CBF01230023DBB2002B00D08E
S32D0000DCE8F3E7044B9B6BBB73BB7B18461437BD4680BC704700C00A4080B582B000AF204B03F580531B6B1E4A98
S32D0000DD1043F4805302F5805213631C4B4FF480721A651B4B5B691A4A43F480135361FFF7A3FF164B4FF40072C7
S32D0000DD385A65144B4FF400729A65124B4FF40072DA65124B124A1A60104B124ADA6000237B607B68092B06DC7F
S32D0000DD60FF20FFF72FFF7B6801337B60F5E704A1D1E9000101F0DAFC00BF0837BD4680BD9A9999999999B93F90
S32D0000DD880070044000A0044040F00F4000C00A40000C00800500003E90B486B000AFF860B9607A60FB68534A09
S32D0000DDB093420AD1524B03F580535B6B504A43F4806302F58052536345E0FB684D4A93420AD14B4B03F5805304
S32D0000DDD85B6B494A43F4006302F58052536336E0FB68474A93420AD1434B03F580535B6B414A43F4805302F546
S32D0000DE008052536327E0FB68404A93420AD13C4B03F580535B6B3A4A43F4005302F58052536318E0FB683A4A44
S32D0000DE2893420AD1344B03F580539B6A324A43F4806302F58052936209E02F4B03F580539B6A2D4A43F4006335
S32D0000DE5002F580529362FB68DB78DBB223F00C03DAB2FB68DA70FB6800229A70BB684FF47A7203FB02F27B6892
S32D0000DE781B0192FBF3F39CB2FB681B78DBB223F01F03FB75230A9BB2DBB203F01F03DAB2FB7D1343DAB2FB6812
S32D0000DEA01A70E2B2FB685A70BB684FF4FA4203FB02F27B681B0192FBF3F39AB263019BB2D31A9CB2FB689B7A53
S32D0000DEC8DBB223F01F03FB75E3B203F01F03DAB2FB7D1343DAB2FB689A72FB68DB78DBB243F00C03DAB2FB6887
S32D0000DEF0DA7000BF1837BD4690BC704700A006400070044000B0064000C0064000D0064000A00E4080B483B0A5
S32D0000DF1800AF78607B681B79DBB203F02003002B0CBF01230023DBB2002B00D0F2E77B68DB79DBB218460C3737
S32D0000DF40BD4680BC704780B483B000AF78600B46FB707B681B79DBB25BB2DB43DBB2DB09DBB2002B00D0F4E710
S32D0000DF687B68FA78DA7100BF0C37BD4680BC704780B487B000AFF860B9607A60FB687B617B685A1E7A60002BEF
S32D0000DF9014BF01230023DBB2002B06D07B695A1C7A61BA68D2B21A70EEE700BF1C37BD4680BC704780B584B010
S32D0000DFB800AF786039607B681B6BFB60FA683B689A4252D07B681B79002B35D07B6858787B6803F134010123CA
S32D0000DFE0FA6801F0F7F80346002B14BF01230023DBB2002B01D001233CE07B6800221A717B685A6A7B681B6ADB
S32D0000E0081344FA689A4217D27B68DB78FB72FB7A012B11D97B681B6AFA681344FB607B6858787B6803F1340103
S32D0000E0300123FA6801F0CEF8FB7A013BFB72EAE73B68002B15D07B6858787B6803F1340101233A6800F0DAFF95
S32D0000E0580346002B14BF01230023DBB2002B01D0012303E07B683A681A63002318461037BD4680BD80B584B009
S32D0000E08000AF786000217868FFF794FF0346FB73FB7B002B40F093807B681B78032B7DD17B685B79002B79D0A9
S32D0000E0A87B6800221A637B6834334FF4007200211846FFF75DFF7B68552283F832227B68AA2283F833227B686D
S32D0000E0D0522283F834207B68522283F835207B68612283F836207B68412283F837207B68722283F818227B685A
S32D0000E0F8722283F819227B68412283F81A227B68612283F81B227B681B69DAB27B6883F81C227B681B699BB252
S32D0000E1201B0A9BB2DAB27B6883F81D227B681B691B0CDAB27B6883F81E227B681B691B0EDAB27B6883F81F22C3
S32D0000E1487B68DB68DAB27B6883F820227B68DB689BB21B0A9BB2DAB27B6883F821227B68DB681B0CDAB27B6889
S32D0000E17083F822227B68DB681B0EDAB27B6883F823227B6858787B6803F134017B685A69012301F01FF87B68D0
S32D0000E19800225A717B685B7800220021184601F0E1F80346002B14BF01230023DBB2002B01D00123FB73FB7B2C
S32D0000E1C018461037BD4680BD80B582B000AF78600B467B807B68002B08D07B681B78002B04D07B68DB887A886F
S32D0000E1E89A4201D0092311E07B685B78184601F03BF9034603F00103002B14BF01230023DBB2002B01D00323D2
S32D0000E21000E0002318460837BD4680BD80B586B000AF78607B681A687B689B8819461046FFF7CAFF0346FB7576
S32D0000E238FB7D002B40F0AC807B689B7903F02003002B00F0A5807B689B7903F04003002B1BD07B681B685878F3
S32D0000E2607B6803F128017B689A69012300F0B2FF0346002B14BF01230023DBB2002B01D001238AE07B689B7949
S32D0000E28823F04003DAB27B689A717B681A687B68DB6919461046FFF789FE0346FB75FB7D002B75D17B681B6AD0
S32D0000E2B03B613B690B331A783B690B3342F02002D2B21A707B68DA683B691C33D2B21A707B68DB689BB21B0A2E
S32D0000E2D89AB23B691D33D2B21A707B68DB681A0C3B691E33D2B21A707B68DB681A0E3B691F33D2B21A707B6846
S32D0000E3001A693B691A33D2B21A707B681B699BB21B0A9AB23B691B33D2B21A707B681B691A0C3B691433D2B24C
S32D0000E3281A707B681B691B0C9BB21B0A9AB23B691533D2B21A700023FB603B691633FA68D2B21A70FB689BB26C
S32D0000E3501B0A9AB23B691733D2B21A70FB681A0C3B691833D2B21A70FB681A0E3B691933D2B21A707B689B792C
S32D0000E37823F02003DAB27B689A717B681B6801221A717B681B681846FFF774FE0346FB75FB7D18461837BD46A6
S32D0000E3A080BD80B584B000AF78607868FFF736FF0346FB73FB7B002B02D17B6800221A60FB7B18461037BD464F
S32D0000E3C880BDFFFF80B588B000AF7860396080233B610F23FB604FF0FF337B610223FB61FB69B3F5807F23D8BF
S32D0000E3F00123BB61BB69102B1AD8FB69BA6902FB03F33A6803FB02F27B68D31ABB60BB68002B09DBBB687A693D
S32D0000E4189A4205D9BB687B61FB693B61BB69FB60BB690133BB61E1E7FB695B00FB61D7E71D4BDB6A1C4A23F063
S32D0000E4400803D3621A4BDB6A23F47F2323F47F63BB613B695B081B029AB2FB68013B1B01DBB21A43BB69134367
S32D0000E468114A43F46023D3620F4B5B6A03F00803002B0CBF01230023DBB2002B03D00A2001F01AF9F0E7084BFF
S32D0000E490DB6A074A43F00803D362054B1B6B044A43F48013136300BF2037BD4680BD00BF00100B4080B582B01A
S32D0000E4B800AF786039607B6800221A60414B424ADA62404BDB6A03F08073002B14BF01230023DBB2002B00D0C0
S32D0000E4E0F3E73A4B0022C3F8C020384B4FF481325A60364B28229A62344B4FF001125A643B689B6833491846E9
S32D0000E508FFF760FF2F4B5B6A03F00303002B14BF01230023DBB2002B00D0F3E72C4B40F243421A602A4B40F262
S32D0000E53043425A60284B4FF488629A60264B40F24342DA60244B40F243421A61224B40F243425A61214B03F59E
S32D0000E55880531B6B1F4A43F4003302F580521363184B4FF6FF721A63164B1B4A5A63154BDB6A144A43F0006378
S32D0000E580D362124BDB6A03F00063002B14BF01230023DBB2002B00D0F3E70C4B5B6A03F48033002B14BF0123B1
S32D0000E5A80023DBB2002B02D07B6801221A60054B1B6B044A43F080031363002318460837BD4680BD00100B406D
S32D0000E5D00080000160CC050000D0044000700440B3007F0080B400AF064B5A6A40F207331340002B14BF012398
S32D0000E5F80023DBB21846BD4680BC704700100B4080B485B000AF7860074B1B6B7A681340FB60FB68002B00D1DF
S32D0000E620F6E7FB6818461437BD4680BC704700BF00100B4080B584B000AF78607B681B7803F03F03764A52F82E
S32D0000E6482330FB60FB68002B05D17B681B78002B01D00123DCE0714B1B6B704A43F0800313636E4B5B6A03F0A7
S32D0000E6700103002B14BF01230023DBB2002B00D0F3E7684A7B685B689360FB6823F44003FB607B685B789B0518
S32D0000E69803F44003FA681343FB607B685B78022B03D1FB6843F40013FB607B685B78042B16D1FB6803F44033AF
S32D0000E6C0B3F5003F08D1FB6823F44033FB60FB6843F44033FB6007E0FB6823F44033FB60FB6843F40033FB6065
S32D0000E6E84E4B5B684D4A9BB253607B68DB68002B2AD0FB6803F44033B3F5403F03D0FB6843F40013FB607B6814
S32D0000E7101B7A002B03D0FB6843F01003FB607B68DB68012B03D9FB6843F02003FB607B68DB68B3F1FF3F0BD01F
S32D0000E7383A4B5A687B68DB681B04384913434B60FB6843F00203FB60344B00221A60334AFB68D3603248FFF711
S32D0000E76053FF0346012B14BF01230023DBB2002B09D02C4B1B6B2B4A43F4702343F001031363012348E0274B72
S32D0000E7881B6B03F08003002B14BF01230023DBB2002B07D0214B1B6B204A43F001131363012335E01D4B1B6B53
S32D0000E7B003F48033002B14BF01230023DBB2002B08D0184B1B6B174A43F0011313634FF0FF3321E0FB6803F4E9
S32D0000E7D84033002B15D0114B1A697B681A61FB6803F44033B3F5803F0BD10C4B5A697B685A610A4B9A697B6850
S32D0000E8009A61084BDA697B68DA61064B1B6B054A43F001031363002318461037BD4680BD7CB3010000100B40D5
S32D0000E82801000E0080B592B000AF7860396000237B643B68BB63994B7B637B6B002B02D140F601235FE3964B36
S32D0000E8503B633B6B002B02D140F60B2357E33B6B1B68FB62FB6A002B02D140F60B234EE37B6841F20932934216
S32D0000E87800F23F837B68B3F5985F08D87B68032B00F01A837B68092B00F0098331E37B68A3F59853013B082B42
S32D0000E8A000F22B8301A252F823F000BFD1E80000BDEB000019EE0000D3EB000011EC000037ED00007FED000038
S32D0000E8C8C1EC0000DBEC00007649786BFFF7EEFD78647B6C002B40F01083002387F84330002387F82B30002345
S32D0000E8F087F82A30002387F82930002387F84230002387F8283000233B7200237B720023FB6000233B740023C5
S32D0000E9187B6107F108031846FFF788FE0346002B14BF01230023DBB2002B02D001237B64E8E240F24C4000F085
S32D0000E940BFFE08233B7200237B724FF4D573FB6000233B7400237B6107F108031846FFF769FEF863FB6B002BA3
S32D0000E96809D1BA69FB689A4202D001237B64C9E2012387F84230012387F8283097F82830002B00F0A580372334
S32D0000E9903B7200237B720023FB6000233B7400237B6107F108031846FFF744FEF863FB6B002B02D001237B64F3
S32D0000E9B8A8E269233B7200237B720023FB6000233B7400237B6107F108031846FFF72EFE0346002B14BF012321
S32D0000E9E00023DBB2002B02D001237B648EE2BB6903F44013002B6FD00023FB630A2000F05FFEFB6B0133FB6321
S32D0000EA0837233B7200237B720023FB6000233B7400237B6107F108031846FFF707FE0346002B14BF0123002390
S32D0000EA30DBB2002B02D001237B6428E069233B7200237B7297F84230002B02D0184BFB6002E04FF44013FB604B
S32D0000EA5800233B7400237B6107F108031846FFF7E5FD0346002B14BF01230023DBB2002B02D001237B6406E085
S32D0000EA80BB69002B03DBFB6B632B00D8B6E77B6C002B40F03882FB6B632B0BD9002387F8423019E07817002042
S32D0000EAA87C19002070B3010000003040012387F8433097F84230002B0AD0002387F84230BB6903F08043002BC2
S32D0000EAD002D0012387F8423097F82A30002B02D07B6B07221A6097F82930002B02D07B6B08221A6097F82B3069
S32D0000EAF8002B02D07B6B04221A6097F84330002B09D07B6B02221A6097F84230002B02D07B6B03221A6097F8D1
S32D0000EB202B30002B0DD097F84330002B09D07B6B05221A6097F84230002B02D07B6B06221A60924B00221A60D8
S32D0000EB48904B00225A608F4B00229A608D4B0022DA608C4B00221A618A4B00225A61FB6A9A68FB6A5B681946AA
S32D0000EB701046FFF72BFC854B40F243421A60834B40F243425A60814B4FF488629A607F4B40F24342DA607D4B4E
S32D0000EB9840F243421A617B4B40F243425A617A4B03F580531B6B784A43F4003302F580521363A7E1B86BFFF7C3
S32D0000EBC039FDF863FB6B002B00F09F8102237B649BE1BB6B002B02D10C237B6496E16D4BDB6A1B0A5B0003F458
S32D0000EBE8FF73FB63694BDB6A1B0903F00F035A1CFB6B02FB03F3FB63FB6A9A68FB6BB2FBF3F2BB6B1A607DE183
S32D0000EC10BB6B002B02D10C237B6477E1BB6B1B68002B02D10C237B6470E1FFF7DBFC0346002B0CBF01230023F3
S32D0000EC38DBB2002B3CD0534B00221A60514B00225A60504B00229A604E4B0022DA604D4B00221A614B4B00229F
S32D0000EC605A61FB6A9A68BB6B1B6819461046FFF7ADFB464B40F243421A60444B40F243425A60424B4FF48862EC
S32D0000EC889A60404B40F24342DA603E4B40F243421A613C4B40F243425A613B4B03F580531B6B394A43F4003370
S32D0000ECB002F58052136329E140F60A237B6425E1BB6B002B02D10C237B641FE1314B5B68C3F30C02BB6B1A60D0
S32D0000ECD818E1BB6B002B02D10C237B6412E1FFF77DFC0346002B0CBF01230023DBB2002B19D0BB6B1B68B3F509
S32D0000ED00805F02D30C237B6400E1224B5B68214A23F4FF5323F01F0353601E4B5A68BB6B1B68C3F30C031B4959
S32D0000ED2813434B60EEE040F60A237B64EAE0BB6B002B02D10C237B64E4E0144B9B6A5B0803F00303FB63FB6B68
S32D0000ED50002B03D1BB6B00221A60D7E0FB6B012B03D1BB6B01221A60D0E0FB6B102B03D1BB6B02221A60C9E062
S32D0000ED7805237B64C6E0BB6B002B09D10C237B64C0E000BF00D004400070044000100B40FFF724FC0346002B7B
S32D0000EDA00CBF01230023DBB2002B31D0BB6B1B68002B0AD1584B9B6A574A23F006039362554B554A9B6A936238
S32D0000EDC8A0E0BB6B1B68012B0CD1514B9B6A504A23F0060393624E4B9B6A4D4A43F0020393628FE0BB6B1B6825
S32D0000EDF0022B0AD1484B9B6A474A23F006039362454B454A9B6A936280E005237B647DE040F60A237B6479E03B
S32D0000EE18BB6B002B02D10C237B6473E03C4BDB6A3B4A43F00063D362394BDB6A03F00063002B14BF01230023C7
S32D0000EE40DBB2002B00D0F3E7334B1B6B03F08003002B14BF01230023DBB2002B08D02E4B1B6B2D4A43F08003C7
S32D0000EE6813637B6B00221A60294B5B6A03F48033002B14BF01230023DBB2002B07D07B6B1B68002B06D17B6B7C
S32D0000EE9001221A6002E07B6B00221A607B6B1A68BB6B1A6032E0BB6B1C221A60BB6B043304221A60BB6B0833FD
S32D0000EEB84FF41E721A6025E00220FFF7A1FB144B1B6B03F4E003002B14BF01230023DBB2002B07D00E4B1B6BB4
S32D0000EEE00D4A43F4E003136304237B640A4B1B6B094A43F03203136308E040F609237B6404E000BF02E000BF9E
S32D0000EF0800E000BF7B6C18464837BD4680BD00BF00100B4080B489B000AF786039607B687B61364B3B613B6911
S32D0000EF30002B01D100235FE03B691B68022B0BD03B691B68032B07D03B691B68072B03D03B691B68082B0BD197
S32D0000EF582B4B5B6A03F00403002B14BF01230023DBB2002B00D0F3E73B68FB61FB69002B3DD0FB69B3F5007F89
S32D0000EF8028BF4FF40073FB60FB6803339B08BB61BB69002B2AD01C4B1B6B03F4E003002B14BF01230023DBB231
S32D0000EFA8002B09D0164B1B6B154A43F4E00343F02003136300231BE0114B5B6A03F40063002B0CBF0123002335
S32D0000EFD0DBB2002B00D0F3E70B497B691A1D7A610A6A1A60BB69013BBB61D1E7FA69FB68D31AFB61BEE701236D
S32D0000EFF818462437BD4680BC704700BF7817002000100B4080B58EB000AFB9607A601A460346FB731346BB73C0
S32D0000F020414B7B63FB7B002B02D1BB7B002B01D1042375E03D4B1B78DBB203F00103002B14BF01230023DBB2C4
S32D0000F048002B01D0032367E0BB68002B01D1002362E07B6B1B7B002B02D17B685B027B60BB7B012B28D1112388
S32D0000F0703B7500237B757B68BB6101233B77BB7B3B6207F11403194641F20230FFF7CEFB0346002B0CBF012312
S32D0000F0980023DBB2002B38D04FF40071B868FFF739FF0346002B14BF01230023DBB2002B2BD00023BB7328E0CB
S32D0000F0C012233B7500237B757B68BB6101233B77BB7B3B6207F11403194641F20230FFF7A5FB0346002B0CBFDA
S32D0000F0E801230023DBB2002B0FD0BB7B5B021946B868FFF70FFF0346002B14BF01230023DBB2002B01D00023CC
S32D0000F110BB73BB7B002B01D0012300E0002300BF18463837BD4680BD641700201800002080B487B000AF7860B9
S32D0000F13839607B68FB603B687B617B69002B3DD07B69B3F5007F28BF4FF400733B617A693B69D31A7B613B69FF
S32D0000F16003339B083B613B69002BEAD0184B1B6B03F4E003002B14BF01230023DBB2002B0AD0134B1B6B124AA9
S32D0000F18843F4E00343F0100313634FF0FF3316E00D4B5B6A03F48063002B0CBF01230023DBB2002B00D0F3E786
S32D0000F1B0FB681A1DFA60064A1B6813623B69013B3B61D0E7012318461C37BD4680BC704700100B4080B58EB029
S32D0000F1D800AFB9607A601A460346FB731346BB735D4B7B63FB7B002B02D1BB7B002B01D10423ADE0594B1B78B1
S32D0000F200DBB203F00103002B14BF01230023DBB2002B01D003239FE0524B1B78DBB203F00403002B14BF012310
S32D0000F2280023DBB2002B01D0022391E0BB68002B01D100238CE07B6B1B7B002B02D17B685B027B60BB7B012BD0
S32D0000F25028D118233B7500237B757B68BB6100233B77BB7B3B6207F11403194641F20230FFF7DCFA0346002BDF
S32D0000F2780CBF01230023DBB2002B38D04FF40071B868FFF751FF0346002B14BF01230023DBB2002B2BD0002318
S32D0000F2A0BB7328E019233B7500237B757B68BB6100233B77BB7B3B6207F11403194641F20230FFF7B3FA0346A5
S32D0000F2C8002B0CBF01230023DBB2002B0FD0BB7B5B021946B868FFF727FF0346002B14BF01230023DBB2002BD0
S32D0000F2F001D00023BB730D233B7500237B757B6B1B69BB6100233B7700233B6207F11403194641F20230FFF7F7
S32D0000F31889FA0346002B14BF01230023DBB2002B01D0012314E07A6A0D4B1340002B01D001230DE07B6A03F49D
S32D0000F340F853B3F5106F00D0D5E7BB7B002B01D0012300E0002300BF18463837BD4680BD6417002018000020A9
S32D0000F3680880D9FF80B58CB000AF03463A60FB710B46BB713A4BBB62FB79002B01D0042369E0012387F82F30A7
S32D0000F390364B1B78DBB203F00103002B14BF01230023DBB2002B01D0032358E0BB79032B50D801A252F823F001
S32D0000F3B8C9F30000D1F30000E1F30000F1F30000002387F82F3044E0BB6A9A683B681A60002387F82F303CE069
S32D0000F3E03B684FF400721A80002387F82F3034E009233B7200237B72BB6A1B69FB6000233B7400237B6107F142
S32D0000F4080803194641F20230FFF70CFA0346002B14BF01230023DBB2002B01D001231AE07B6A03F44003002B8C
S32D0000F4300CD13B6A9B0C03F07F035A1C7B6A1B0A03F00303013B9A403B681A60002387F82F3002E0042387F8DB
S32D0000F4582F3097F82F3018463037BD4680BD00BF641700201800002080B483B000AF0346FB71FB79002B01D067
S32D0000F480012302E0034B1B78DBB218460C37BD4680BC70471800002080B483B000AF7860164B03F580539B6BFB
S32D0000F4A8144A43F0010302F580529363124A7B689360114B05225A600F4B1B680E4A43F0010313600C4B1B68BA
S32D0000F4D003F08003002B0CBF01230023DBB2002B00D0F3E7064B1B68054A23F00103136000BF0C37BD4680BC0B
S32D0000F4F8704700BF007004400000044080B582B000AF786039607B68012B07D13B684FF6FF72934202D10348BE
S32D0000F52000F00EF800BF0837BD4680BD8419002080B500AF4FF6FF710120FFF7E3FF80BD80B483B000AF78600F
S32D0000F5487B6800221A707B6818460C37BD4680BC7047FFFF80B582B000AF78607B681B7883F00103DBB2002BFB
S32D0000F57021D0134B03F580531A464FF400639362104B4FF440721A620E4B4FF440725A620D4B1B68DA0F134467
S32D0000F5985B104FF4614219460A48FEF7FDFB642000F08AF87B6801221A70012300E0002318460837BD4680BDCC
S32D0000F5C00070044000D004408819002000B00E4080B582B000AF7860084611461A460346FB700B46BB7013461A
S32D0000F5E87B707F210E48FEF7AAFC08210C48FEF7A6FCFB7819460A48FEF7A1FCBB7819460748FEF79CFC7B784E
S32D0000F61019460548FEF797FCFF210348FEF793FC00BF0837BD4680BD00B00E4080B487B000AFF860B9607A6008
S32D0000F638FB681F4AA2FB03239B09BA6813447B61FB681B4AA2FB031292094FF47A7101FB02F29B1AFB60FB6876
S32D0000F660DB03154AA2FB03239B097A6813443B613B69DB0B7A6913447B613B69C3F30E033B610E4B1B687A699D
S32D0000F6889A4209D80B4B1B687A699A4206D1094B5B683A699A4201D9012300E00023002B00D0EAE700BF1C37B3
S32D0000F6B0BD4680BC704700BFD34D621000D0034080B584B000AF7860074B1B68FB60064B5B68BB607B68BA687E
S32D0000F6D8F9681846FFF7A6FF00BF1037BD4680BD00D0034080B584B000AF78600B4B1B68FB600A4B5B68BB60FA
S32D0000F7000949786805F052F80346184605F03AFA0346BA68F9681846FFF788FF00BF1037BD4680BD00D003409A
S32D0000F72800007A4480B584B000AFC7E900010E4B1B68FB600C4B5B68BB604FF000020B4BD7E9000104F0EEFB8B
S32D0000F75002460B461046194604F0AAFE0346BA68F9681846FFF762FF00BF1037BD4680BD00D0034000408F40B8
S32D0000F77880B483B000AF0B4B1B684FF47A7202FB03F37B60074B5B684FF47A7202FB03F3DB0B7A6813447B6046
S32D0000F7A07B6818460C37BD4680BC704700D0034080B582B000AF78600B46FB70FB781946786800F005F87B6882
S32D0000F7C818460837BD4680BD80B483B000AF78600B46FB707B68FA781A707B681B781A46534B9B5C042B00F221
S32D0000F7F09E8001A252F823F00DF8000047F8000081F80000BBF80000F5F800004B4A7B681B7819464A4B53F826
S32D0000F818213040F2031142F82310484B5A697B681B781946444B53F8213003F01F03012101FA03F3DB43414998
S32D0000F84013404B6173E0404A7B681B7819463C4B53F8213040F2031142F823103B4B5A697B681B781946364B74
S32D0000F86853F8213003F01F03012101FA03F3DB43344913404B6156E0334A7B681B7819462D4B53F8213040F246
S32D0000F890031142F823102F4B5A697B681B781946274B53F8213003F01F03012101FA03F3DB43284913404B61F3
S32D0000F8B839E0274A7B681B7819461F4B53F8213040F2031142F82310224B5A697B681B781946194B53F8213005
S32D0000F8E003F01F03012101FA03F3DB431B4913404B611CE01A4A7B681B781946104B53F8213040F2031142F8A5
S32D0000F9082310164B5A697B681B7819460A4B53F8213003F01F03012101FA03F3DB430F4913404B6100BF00BF99
S32D0000F9300C37BD4680BC70477CB4010000900440C0B4010000F00F4000A0044040F00F4000B0044080F00F40A1
S32D0000F95800C00440C0F00F4000D0044000F10F4080B485B000AF78600023FB607B681B781A46364B9B5C042B3F
S32D0000F9805CD801A252F823F09DF90000BDF90000DDF90000FDF900001DFA00002E4B1B697A68127811462D4ABF
S32D0000F9A852F8212002F01F02012101FA02F21340FB603FE0284B1B697A6812781146254A52F8212002F01F02EE
S32D0000F9D0012101FA02F21340FB602FE0214B1B697A68127811461D4A52F8212002F01F02012101FA02F213401F
S32D0000F9F8FB601FE01A4B1B697A6812781146154A52F8212002F01F02012101FA02F21340FB600FE0134B1B694E
S32D0000FA207A68127811460D4A52F8212002F01F02012101FA02F21340FB6000BFFB68002B14BF01230023DBB24D
S32D0000FA4818461437BD4680BC704700BF7CB4010000F00F40C0B4010040F00F4080F00F40C0F00F4000F10F40D0
S32D0000FA7080B584B000AF78600B46FB700B23FB73FA7BFB781946786800F094F87B6818461037BD4680BDFFFFB7
S32D0000FA9880B485B000AF78607B68103B002B00DA1F335B11FB60FB68022B53D0FB68022B75DCFB68002B03D00F
S32D0000FAC0FB68012B25D06EE0394BD3F880217B68103B594203F01F0301F01F0158BF4B42012101FA03F3324935
S32D0000FAE81343C1F88031304B1A687B68103B594203F01F0301F01F0158BF4B42012101FA03F3294913430B605A
S32D0000FB1049E0274BD3F884217B68103B594203F01F0301F01F0158BF4B42012101FA03F31F491343C1F88431EA
S32D0000FB381D4B5A687B68103B594203F01F0301F01F0158BF4B42012101FA03F3164913434B6024E0144BD3F841
S32D0000FB6088217B68103B594203F01F0301F01F0158BF4B42012101FA03F30D491343C1F888310B4B9A687B68CF
S32D0000FB88103B594203F01F0301F01F0158BF4B42012101FA03F3044913438B6000BF00BF1437BD4680BC70473F
S32D0000FBB000E100E080B584B000AF78600B46FB701346BB707B68FA781A70BB78FB737B681B781A46574B9B5C47
S32D0000FBD8042B00F2A68001A252F823F0F9FB000045FC000091FC000029FD0000DDFC0000FB7B1B0403F47023D8
S32D0000FC004D497A68127810464C4A52F8202043F4897343F0010341F82230494B5A697B681B781946454B53F862
S32D0000FC28213003F01F03012101FA03F3DB43424913404B616720FFF72BFF72E0FB7B1B0403F470233D497A680D
S32D0000FC5012781046394A52F8202043F4897343F0010341F82230384B5A697B681B781946324B53F8213003F07D
S32D0000FC781F03012101FA03F3DB43314913404B616820FFF705FF4CE0FB7B1B0403F470232C497A68127810468E
S32D0000FCA0264A52F8202043F4897343F0010341F82230274B5A697B681B7819461F4B53F8213003F01F03012100
S32D0000FCC801FA03F3DB43204913404B616920FFF7DFFE26E0FB7B1B0403F470231B497A6812781046134A52F849
S32D0000FCF0202043F4897343F0010341F82230164B5A697B681B7819460C4B53F8213003F01F03012101FA03F39D
S32D0000FD18DB430F4913404B616B20FFF7B9FE00E000BF00BF1037BD4680BD00BF7CB4010000900440C0B40100F2
S32D0000FD4000F00F4000A0044040F00F4000B0044080F00F4000D0044000F10F40B0B48BB000AF234B3C1D1D4674
S32D0000FD680FCD0FC495E80F0084E80F0000237B627B6A072B32DC1D4BD3F8A0207B6A9B0007F128010B4453F864
S32D0000FD90243C012101FA03F31340002B14BF01230023DBB2002B19D0134A7B6A52F823305A1C11497B6A41F8CC
S32D0000FDB823200E4BD3F8A0207B6A9B0007F128010B4453F8243C012101FA03F307491340C1F8A0307B6A013303
S32D0000FDE07B62C9E700BF2C37BD46B0BC704700BFC4B5010000A00440B4190020B0B489B000AF234B3C1D1D46A0
S32D0000FE080FCD0FC495E8030084E803000023FB61FB69052B32DC1D4BD3F8A020FB699B0007F120010B4453F868
S32D0000FE301C3C012101FA03F31340002B14BF01230023DBB2002B19D0FB690833124A52F823200132104941F8B3
S32D0000FE5823200E4BD3F8A020FB699B0007F120010B4453F81C3C012101FA03F307491340C1F8A030FB69013374
S32D0000FE80FB61C9E700BF2437BD46B0BC704700BFE4B5010000B00440B4190020B0B48DB000AF244B3C461D462A
S32D0000FEA80FCD0FC40FCD0FC495E8070084E807000023FB62FB6A0A2B32DC1D4BD3F8A020FB6A9B0007F1300193
S32D0000FED00B4453F8303C012101FA03F31340002B14BF01230023DBB2002B19D0FB6A0E33124A52F823200132F0
S32D0000FEF8104941F823200E4BD3F8A020FB6A9B0007F130010B4453F8303C012101FA03F307491340C1F8A030B5
S32D0000FF20FB6A0133FB62C9E700BF3437BD46B0BC704700BFFCB5010000900440B4190020B0B487B000AF224BD4
S32D0000FF483C461D460FCD0FC42B68236000237B617B69042B32DC1D4BD3F8A0207B699B0007F118010B4453F8A4
S32D0000FF70183C012101FA03F31340002B14BF01230023DBB2002B19D07B691933124A52F823200132104941F8E5
S32D0000FF9823200E4BD3F8A0207B699B0007F118010B4453F8183C012101FA03F307491340C1F8A0307B6901333F
S32D0000FFC07B61C9E700BF1C37BD46B0BC704700BF28B6010000D00440B419002080B483B000AF78607B681B784C
S32D0000FFE81A46044B53F8223018460C37BD4680BC704700BFB419002080B483B000AF78607B681B781946044B4A
S32D00010010002243F8212000BF0C37BD4680BC7047B419002080B483B000AF78600B46FB707B68FA781A707B68D2
S32D0001003818460C37BD4680BC7047FFFFFFFFFFFF80B586B000AF78607B681B781A463E4B53F822303B617B689B
S32D000100601B781A463B4B9B5CFB733B69DBB203F01F03DAB2384B1A723B69DBB203F01F03DAB2354B5A72354B14
S32D000100881022C3F88820FB7B002B13D13049324800F05AFA304B1B6803F08003802B14BF01230023DBB2002B07
S32D000100B000D0F3E72A4B1B697B6112E02649294800F046FA274B1B6803F08003802B14BF01230023DBB2002BB8
S32D000100D800D0F3E7214B1B697B611E4BD3F888311C4A43F01003C2F888311A4B9B68194A43F0100393607B698F
S32D000101009BB2184603F098FE0DA3D3E9002303F00DFF02460B46104619460BA3D3E9002304F02EF802460B4680
S32D000101281046194604F0E0F90346BB60BB6818461837BD4680BD00BFA4703D0AD7A30A4000000000E0FFEF40C6
S32D0001015040B501009CB401009419002000E100E000B0034000B00B4080B586B000AF78607B681B781A46234B87
S32D0001017853F822303B617B681B781A46204B9B5CFB733B69DBB203F01F03DAB21D4B1A723B69DBB203F01F036D
S32D000101A0DAB21A4B5A72FB7B002B13D11749184800F0CEF9164B1B6803F08003802B14BF01230023DBB2002BA0
S32D000101C800D0F3E7104B1B697B6112E00D490F4800F0BAF90D4B1B6803F08003802B14BF01230023DBB2002B93
S32D000101F000D0F3E7074B1B697B617B6918461837BD4680BD40B501009CB40100A419002000B0034000B00B40A1
S32D0001021898B500AF204B5C221A701F4B10225A701D4B41F234225A801B4B45F278629A80194B10229A71184B82
S32D000102400722DA71164B4FF4C022DA60144B1F221A72134B1F225A721149124800F078F90F49114800F074F9A1
S32D000102680F4800F0D2F80D4800F0CFF80A490C4800F06AF90849094800F066F9094A064B14460FCB84E80F000C
S32D00010290064B5C221A70054B0422DA7100BF98BD9419002000B0034000B00B40A419002080B500AF064B1B68C1
S32D000102B80133054A136000F03DF8044B0122C3F80C2100BF80BD00BF381A00200070034080B500AF0C4B012264
S32D000102E01A600C4800F01AF8094B0322C3F80821094BD3F88831084A43F01003C2F88831054B9B68044A43F00B
S32D000103081003936000BF80BD00700340A086010000E100E080B483B000AF7860044A7B68C2F8003100BF0C371D
S32D00010330BD4680BC704700BF0070034080B584B000AF174B1B68FB60FB68002B24D0FB685B78FB71FB689B6854
S32D00010358184600F023F80346BB71BB79002B13D0FB685B68012B0FDDFB689B681B69BB60BB68002B08D0BB68CA
S32D000103805B685A1CBB685A60BB681B69BB60F3E7FB68DB68FB60D7E700BF1037BD4680BD341A002080B584B0C0
S32D000103A800AF78607868FFF7DBFEF8607B689B695B78FB72FB7A002B0FD17B68DB68FA689A420ADD7B689B69BF
S32D000103D001225A707B685B685A1C7B685A60012313E0FB7A012B0FD17B689B68FA689A420ADA7B689B690022AF
S32D000103F85A707B685B685A1C7B685A60012300E0002318461037BD4680BD80B485B000AF78607B681B6A23F0DC
S32D0001042040027B681A627B685B6A23F00B027B685A627B685B6A43F007027B685A627B685B6A43F080027B68E2
S32D000104485A627B681B6803F08003002B0CBF01230023DBB2002B00D0F3E77B685B6A03F04003402B0CBF012316
S32D000104700023DBB2002B01D0012364E00023FB817B68DB6CFB817B689B6C9AB2FB891344FB817B685B6C9AB281
S32D00010498FB891344FB817B681B6C9AB2FB891344FB817B68DB6B9AB2FB891344FB817B689B6B9AB2FB891344F5
S32D000104C0FB81FB895B08FB81FB896FEA43436FEA5343FB81FA897B68DA620023FB817B68DB6EFB817B689B6E8B
S32D000104E89AB2FB891344FB817B685B6E9AB2FB891344FB817B681B6E9AB2FB891344FB817B68DB6D9AB2FB89E9
S32D000105101344FB817B689B6D9AB2FB891344FB81FB895B08FB81FB896FEA43436FEA5343FB81FA897B681A6347
S32D000105387B685B6A23F080027B685A62002318461437BD4680BC704780B483B000AF786039603B681B781A46D9
S32D000105607B689A603B685B781A467B68DA603B685B881A467B689A613B689B881A467B68DA613B689B791A467D
S32D000105887B681A623B68DB791A467B685A623B68DA687B681A653B681B7A1A467B681A603B685B7A1A467B68F8
S32D000105B05A6000BF0C37BD4680BC704780B483B000AF78607B6818460C37BD4680BC704780B582B000AF786014
S32D000105D839607B68012B07D13B684FF6FF72934202D10348FFF7E6FF00BF0837BD4680BD3C1A002080B500AFB5
S32D000106004FF6FF710120FFF7E3FF80BD80B483B000AF78600B46FB707B68FA781A707B684FF4FA725A807B6808
S32D0001062840F6C4129A807B68034A9A607B6818460C37BD4680BC7047000080BF80B483B000AF786039603B6870
S32D00010650B3F5FA7F04DB3B6840F6C412934204DD7B684FF4FA725A8004E03B689AB27B685A8000BF00BF0C3759
S32D00010678BD4680BC704780B483B000AF786039603B68B3F5FA7F04DB3B6840F6C412934204DD7B6840F6C412DF
S32D000106A09A8004E03B689AB27B689A8000BF00BF0C37BD4680BC70472DE9904385B000AF786039604FF000010C
S32D000106C8386804F00DFA0346002B02D04FF000033B603249386804F021FA0346002B01D02E4B3B607B689B68DC
S32D000106F01946386804F0EEF90346002B00D04BE07B683A689A607B685C887B689B881A467B685B88D31A1846D5
S32D0001071803F09EFB4FF00002214B03F02DFD02460B4690469946386803F0A4FB02460B464046494603F0F6FB4A
S32D0001074002460B461046194603F0B2FE03469BB22344FB81FB897B73FB891B0A9BB23B737F211248FDF7EFFB32
S32D0001076805211048FDF7EBFB7B681B7819460D48FDF7E5FB3B7B19460A48FDF7E0FB7B7B19460848FDF7DBFB67
S32D00010790FF210648FDF7D7FB00BF1437BD46BDE8908300BF000034430080664000B00E4080B582B000AF7860F9
S32D000107B8B84B4FF48072DA60B74B4FF480729A64B54B4FF480721A64B34B4FF480725A64B14B4FF48072DA605C
S32D000107E0B04B5B69AF4A43F008035361AE4B5B69AD4A43F480235361AB4B5B69AA4A43F480335361A84B5B69FB
S32D00010808A74A43F400335361A54B1B68A44A43F008031360A24B5B69A14A43F0080353619E4B1B689D4A43F08C
S32D00010830080313609A4B4FF480725A62984B4FF480721A62954B4FF480721A61934B4FF480725A61914B4FF434
S32D0001085880729A618F4B4FF48072DA618D4B4FF480721A638B4B4FF480725A63894B4FF480729A63874B4FF4CD
S32D000108808072DA63854B4FF480721A64834B4FF480725A64814B4FF480729A647F4B4FF48072DA64814B4FF48B
S32D000108A880721A607F4B4FF480729A607D4B4FF48072DA607B4B4FF480721A61784B5B69774A43F44073536129
S32D000108D0744B5B69734A43F47F2343F0F0035361734B5B69724A43F01D035361E221786800F002FE1D217868D0
S32D000108F800F0A4FE0221786800F0A0FE0421786800F09CFEE021786800F0F2FD0121786800F094FE6420FEF762
S32D00010920CFFEE021786800F0E7FD0321786800F089FE0121786800F0DFFD0120FEF7C0FEE621786800F0D8FD5D
S32D000109480121786800F07AFEA021786800F076FEFF21786800F072FEB021786800F0C8FD1C21786800F06AFED6
S32D000109700F21786800F066FE0121786800F062FE3F21786800F05EFE0021786800F05AFEEF21786800F056FE99
S32D000109980021786800F052FEB421786800F0A8FD0121786800F04AFE9921786800F046FE0021786800F042FE6C
S32D000109C04521786800F03EFE0221786800F03AFE0021786800F036FE0021786800F032FE0021786800F02EFE08
S32D000109E8B621786800F084FD0121786800F026FE0921786800F022FE0021786800F01EFE0E21786800F01AFE64
S32D00010A100221786800F016FE0021786800F012FE0021786800F00EFEBA21786800F064FD0F21786800F006FEA2
S32D00010A386420FEF741FE3A21786800F059FD6021786800F0FBFD2A21786800F051FD0021786800F0F3FD0021A2
S32D00010A60786800F0EFFD0121786800F0EBFD3F21786800F0E7FD2B21786800F03DFD0021786800F0DFFD002179
S32D00010A88786800F0DBFD0021786800F0D7FDEF2178680BE000B0044000A0044080F00F4040F00F4000C00440DD
S32D00010AB0C0F00F4000F0C6FD3621786800F01CFD0021786800F0BEFDF021786800F014FD0421786800F0B6FDDF
S32D00010AD8B821786800F00CFD0F21786800F0AEFD0121786800F0AAFD314B1B68304A43F0080313606420FEF756
S32D00010B00DFFD3621786800F0F7FC0021786800F099FDF021786800F0EFFC0421786800F091FD0121786800F008
S32D00010B28BCF91E226F21786800F082F8AF225621786800F0DBF80021786800F00AFA012301221C49786800F073
S32D00010B502BFA2921786800F0CFFC6420FEF7B0FDBE21786800F0C8FC0E21786800F06AFDF021786800F066FD29
S32D00010B780121786800F062FD0021786800F05EFD0021786800F05AFD0F21786800F056FD786800F028FA012102
S32D00010BA0786800F0DAF90021786800F0AFF900BF0837BD4680BD00BF40F00F403CB6010080B582B000AF78608D
S32D00010BC87B680022DA617B6801221A627B680E225A607B681A229A607B6800225A617B6800229A617B684FF470
S32D00010BF0A072DA607B68F0221A617B6800221A70786801F053FA7B6818460837BD4680BD80B582B000AF7860BF
S32D00010C18064B1B78002B05D1044B01221A707868FFF7C2FD00BF0837BD4680BD841A002080B58AB002AFF860C3
S32D00010C40B9607A607E23009362237A68B968F86800F0E7FE40F24E733B610023FB61FA693B699A4240DA002373
S32D00010C68BB61214AFB6913441B781A46BB69934232DAFB6901331C4AD35C002B06D1FF23FB75FF23BB75FF23EE
S32D00010C907B7512E0FB690133154AD35C012B06D1D423FB750023BB7526237B7505E0B523FB75BA23BB75B0232A
S32D00010CB87B757B7DBA7DF97DF86800F0C9F80246FB68DA61F86801F0EDF9F86801F026F9BB690133BB61C4E7BB
S32D00010CE0FB690233FB61BAE700BF2037BD4680BD1C00002080B58AB002AFF860B9607A602723009395237A68DB
S32D00010D08B968F86800F089FE40F2E6333B610023FB61FA693B699A4240DA0023BB61214AFB6913441B781A4609
S32D00010D30BB69934232DAFB6901331C4AD35C002B06D1FF23FB75FF23BB75FF237B7512E0FB690133154AD35C52
S32D00010D58012B06D10023FB750023BB7500237B7505E0D423FB750023BB7526237B757B7DBA7DF97DF86800F0A3
S32D00010D806BF80246FB68DA61F86801F08FF9F86801F0C8F8BB690133BB61C4E7FB690233FB61BAE700BF203746
S32D00010DA8BD4680BD6C07002080B485B000AF78600B46FB70FB78062B29D801A252F823F0ED0D0100E50D01000A
S32D00010DD0F30D0100FB0D0100030E0100090E0100110E01006FF07F43FB6014E00023FB6011E04FF47F03FB60A1
S32D00010DF80DE04FF47F43FB6009E0FF23FB6006E04FF41903FB6002E0044BFB6000BFFB6818461437BD4680BCE3
S32D00010E20704700BF9999990080B584B000AF786039603B681B0CFB733B681B0ABB733B687B737B7BBA7BF97B7B
S32D00010E48786800F005F8034618461037BD4680BD80B487B000AF7860084611461A460346FB700B46BB70134600
S32D00010E707B70FB789B08DBB27B61BB789B08DBB23B617B789B08DBB2FB607B691A033B699B011A43FB68134315
S32D00010E9818461C37BD4680BC704780B582B000AF78600B46FB70FB7819467868FFF77CFF03461946786800F03F
S32D00010EC004F800BF0837BD4680BD80B582B000AF7860396039687868FFF7A6FF02467B681A62786801F0E2F8D4
S32D00010EE8786800F043FC00BF0837BD4680BD80B582B000AF7860786800F038FC00BF0837BD4680BD80B582B0F7
S32D00010F1000AF78600B46FB70FB7819467868FFF747FF03461946786800F004F800BF0837BD4680BD80B582B068
S32D00010F3800AF7860396039687868FFF771FF02467B681A62786801F0ADF800BF0837BD4680BD80B582B000AF12
S32D00010F6078600B46FB70FB7819467868FFF720FF03461946786800F004F800BF0837BD4680BD80B582B000AF3F
S32D00010F887860396039687868FFF74AFF02467B68DA61786801F086F800BF0837BD4680BD80B586B000AFF860A4
S32D00010FB0B9607A603B6000237B617B69BA6813441B78002B0FD07B69BA6813441B783A687968F86800F064FE66
S32D00010FD87B680C337B607B6901337B61E9E700BF1837BD4680BD80B582B000AF7860FCF783FE67210120FCF7DD
S32D00011000EEFD00210220FCF7EAFDA0210320FCF7E6FD50210420FCF7E2FD20210520FCF7DEFD20210620FCF70A
S32D00011028DAFD77210720FCF7D6FD00210820FCF7D2FD00210920FCF7CEFD00210A20FCF7CAFD04210B20FCF7E2
S32D00011050C6FD7B684FF0FF32DA637B684FF0FF321A6400BF0837BD4680BDFFFFFFFFFFFF80B586B000AFF860A3
S32D00011078B9607A600020FCF7D0FD0346FB75FB7D03F00203002B00F0CE80FCF7E3FDE020FCF794FD0220FEF776
S32D000110A00FFBFCF7E9FD0120FEF70AFBFCF7D6FDA520FCF787FD0120FEF702FBFCF7A9FD03469BB21B02BB8285
S32D000110C8FCF7A3FD03469AB2BB8A1343BB82FCF79CFD03469BB21B027B82FCF796FD03469AB27B8A13437B824A
S32D000110F0BB8A1B09BB827B8A1B097B82FCF7BCFDFB68DB6BB3F1FF3F34D1FB681B6CB3F1FF3F2FD1BA8AFB6856
S32D00011118DA637A8AFB681A647B8AC3F57F630F337B82BB8A184602F093FE49A3D3E9002302F0F8FE02460B4636
S32D000111401046194603F0D4F90246BB681A607B8A184602F081FE42A3D3E9002302F0E6FE02460B46104619466A
S32D0001116803F0C2F902467B681A605AE0FB68DA6BBB8AD31A1946F86800F074F80346632B0CDCFB681A6C7B8A29
S32D00011190D31A1946F86800F069F80346632B01DC012300E00023002B2FD0BA8AFB68DA637A8AFB681A647B8A60
S32D000111B8C3F57F630F337B82BB8A184602F048FE23A3D3E9002302F0ADFE02460B461046194603F089F9024607
S32D000111E0BB681A607B8A184602F036FE1CA3D3E9002302F09BFE02460B461046194603F077F902467B681A603B
S32D000112080FE0BB68164A1A607B68154A1A60FB684FF0FF32DA63FB684FF0FF321A64002310E001230EE0BB6866
S32D000112300D4A1A607B680C4A1A60FB684FF0FF32DA63FB684FF0FF321A64002318461837BD4680BDAFF3008078
S32D00011258144001144001B43F1EE0011EE001AE3F000080BF80B483B000AF786039603B68002B02DA3B685B422F
S32D000112803B603B6818460C37BD4680BC704780B584B000AF786039600023FB60786800F02CFBFB683A68134410
S32D000112A81B78002B12D07B6859697B689869FB683A6813441B780246786800F0D3FC786800F02BFBFB6801338B
S32D000112D0FB60E6E700BF1037BD4680BD80B590B000AF7860396007F10C033A680649184604F0D6FC07F10C03C9
S32D000112F819467868FFF7C7FF00BF4037BD4680BD48B6010080B592B000AF786039604FF00001386803F0F8FBFA
S32D000113200346002B1FD0386803F006FC03467B64786C03F0E7F903461946386803F02CF903461F49184603F065
S32D0001134831FA0346184603F0F3FB03463B6407F10C003B6C7A6C194904F09EFC22E03B6883F000433B603868C4
S32D0001137003F0E2FB03467B64786C03F0C3F903461946386803F008F903460D49184603F00DFA0346184603F0F6
S32D00011398CFFB03463B6407F10C003B6C7A6C084904F07AFC07F10C0319467868FFF76BFF00BF4837BD4680BD04
S32D000113C000007A4458B601004CB6010080B582B000AF78600B46FB70FB78002B04D006497868FFF754FF03E0B7
S32D000113E804497868FFF74FFF00BF0837BD4680BD60B6010068B6010080B582B000AF78600B46FB70786800F077
S32D0001141074FA7B6859697B689A69FB78786800F025FC786800F07DFA00BF0837BD4680BD80B582B000AF7860DD
S32D000114383960786800F05DFA39687868FFF723FF786800F041FA00BF0837BD4680BD80B582B000AF786039605C
S32D00011460786800F04AFA39687868FFF737FF786800F02EFA00BF0837BD4680BD80B582B000AF786039607868FF
S32D0001148800F037FA39687868FFF73CFF786800F01BFA00BF0837BD4680BD80B582B000AF78600B46FB707868B5
S32D000114B000F023FAFB7819467868FFF787FF786800F006FA00BF0837BD4680BD80B582B000AF78600B46FB701A
S32D000114D8786800F00EFAFB7819467868FFF78CFF786800F0F1F900BF0837BD4680BDFFFF80B483B000AF7860F6
S32D000115000B46FB704D4B1B684C4A23F0080313604B4B1B684A4A23F480231360484B1B68474A43F480331360E0
S32D00011528454B1B68444A23F440731360414B1B68404A23F4435323F0300313603E4B1A68FB785B0203F4007372
S32D000115503B4913430B603A4B1A68FB785B101B0203F48073364913430B60344B1A68FB789B101B0103F01003BA
S32D00011578304913430B602F4B1A68FB78DB105B0103F020032B4913430B602A4B1A68FB781B119B0103F04003A1
S32D000115A0264913430B60254B1A68FB785B11DB01DBB2224913430B60204B1A68FB789B111B0303F480531D492C
S32D000115C813430B601B4B1A6897F90330DB115BB25B0303F40053174913430B60164B1B68154A23F400331360C6
S32D000115F0134B1B68124A43F4003313600F4B1B680E4A43F0080313600D4B1B680C4A43F440731360094B1B6867
S32D00011618084A43F4435343F030031360064B1B68054A43F48023136000BF0C37BD4680BC704700BF80F00F40C5
S32D0001164040F00F4080B483B000AF78600B46FB70464B1B68454A23F008031360444B1B68434A43F48033136022
S32D00011668414B1B68404A43F4802313603E4B1B683D4A23F4407313603A4B1B68394A23F4435323F030031360AC
S32D00011690374B1A68FB785B0203F40073344913430B60334B1A68FB785B101B0203F480732F4913430B602D4B19
S32D000116B81A68FB789B101B0103F01003294913430B60284B1A68FB78DB105B0103F02003244913430B60234BAD
S32D000116E01A68FB781B119B0103F040031F4913430B601E4B1A68FB785B11DB01DBB21B4913430B60194B1A6881
S32D00011708FB789B111B0303F48053164913430B60144B1A6897F90330DB115BB25B0303F40053104913430B602C
S32D000117300F4B1B680E4A23F4003313600C4B1B680B4A43F400331360084B1B68074A43F008031360064B1B68E0
S32D00011758054A23F48023136000BF0C37BD4680BC704700BF80F00F4040F00F4080B586B000AF78607B680022FA
S32D000117805A617B6800229A617B681B6AFB60FB68FB72FB681B0ABB72FB681B0CDBB203F003037B722A2178680F
S32D000117A8FFF7A6FE00217868FFF748FF00217868FFF744FF01217868FFF740FF3F217868FFF73CFF2B2178682C
S32D000117D0FFF792FE00217868FFF734FF00217868FFF730FF00217868FFF72CFFEF217868FFF728FF2C217868B8
S32D000117F8FFF77EFE314B1B68304A23F4407313602F4B1B682E4A23F47F2323F0F00313602C4B1B682B4A23F071
S32D000118201D031360274B1A687B681B6B254913430B60254B1A687B685B6B234913430B60224B1A687B689B6BDA
S32D00011848204913430B601E4B1B681D4A23F0080313601A4B1B68194A43F48023136000237B617B69EF2B19D8DD
S32D0001187000233B613B69B3F5A07F0FD2114B1B68104A23F4003313600E4B1B680D4A43F4003313603B69013360
S32D000118983B61EBE77B6901337B61E2E7084B1B68074A43F008031360044B1B68034A23F48023136000BF1837C4
S32D000118C0BD4680BD40F00F4080F00F40C0F00F4080B483B000AF78607B689B69002B07DD7B685B695A1C7B6898
S32D000118E85A617B6800229A6100BF0C37BD4680BC704780B582B000AF78607B685A697B685B689A4205DB7B6845
S32D0001191000225A617868FFF72DFF00BF0837BD4680BD80B582B000AF78607B689B695A1C7B689A617B689A697C
S32D000119387B689B689A4205D17868FFF7C5FF7868FFF7D7FF00BF0837BD4680BD80B586B002AFF860B9607A60FD
S32D000119600123009301237A68B968F86800F059F8F86800F0D7FA00BF1037BD4680BD80B485B000AF78603960E9
S32D000119887B681B68FB603B681A687B681A603B68FA681A6000BF1437BD4680BC704780B586B002AFF860B960E1
S32D000119B07A603B60BA683B681A447B68009313467A68B968F86800F0ABF8BA683B68D118BA683B68D0187A686E
S32D000119D8BB691344009303467A68F86800F09CF8BA683B68D1187A68BB69D0187A68BB6913440093BB680246CC
S32D00011A00F86800F08DF87A68BB691A447B680093BB68B968F86800F083F800BF1037BD4680BD80B588B000AF97
S32D00011A28F860B9607A603B60FB681B78022B03D0FB681B78032B11D17B68FB61BA6AFB691344013BBB61FB68D4
S32D00011A50DA68BB68D31A3B613B683A69D31A01337B610DE0BB68FB613A68FB691344013BBB617B687B61BA6A32
S32D00011A787B691344013B3B612A21F868FFF738FDFB691B0ADBB203F00F03DBB21946F868FFF7D4FDFB69DBB237
S32D00011AA01946F868FFF7CEFDBB691B0ADBB203F00F03DBB21946F868FFF7C4FDBB69DBB21946F868FFF7BEFD98
S32D00011AC82B21F868FFF714FD7B691B0ADBB203F00F03DBB21946F868FFF7B0FD7B69DBB21946F868FFF7AAFDE5
S32D00011AF03B691B0ADBB203F00F03DBB21946F868FFF7A0FD3B69DBB21946F868FFF79AFD2C21F868FFF7F0FC81
S32D00011B1800BF2037BD4680BD90B58BB000AFF860B9607A603B603A68BB68D31A1946F868FFF798FBF861BA6BBB
S32D00011B407B68D31A1946F868FFF790FBB861BA69FB699A42CCBF01230023FB75FB7D002B0CD03A1D07F10803CF
S32D00011B6811461846FFF707FF3B4607F138011846FFF701FFBA683B689A420CDD3A4607F1080311461846FFF7DF
S32D00011B90F6FE3B1D07F138011846FFF7F0FE3A68BB689A4206D1BB687A681946F868FFF7D1FE55E0BA6B7B6829
S32D00011BB8D31A184602F0A2FD04463A68BB68D31A184602F09BFD03461946204602F09EFE03463B617B6818467C
S32D00011BE002F090FD03467B62BB683B623B683A6A9A4235DCFB7D002B14D0786A02F03EF94FF00002184B01F016
S32D00011C08DBFF02460B461046194602F025FC03463A6A1946F868FFF799FE13E0786A02F029F94FF000020E4BB6
S32D00011C3001F0C6FF02460B461046194602F010FC03461A46396AF868FFF784FE3969786A02F0A4FC03467B6223
S32D00011C583B6A01333B62C5E72C37BD4690BD00BF0000E03F80B584B000AFF860B9607A60FB707A6813465B0046
S32D00011C8013449B00991CBA6813461B011344DA1CFB78F86800F004F800BF1037BD4680BD80B58EB002AFF86029
S32D00011CA8B9607A60FB70FB780A2B06D1F868FFF720FEF868FFF708FEF2E0FB787D2B02D8FB781F2B01D82023C0
S32D00011CD0FB70FB78203BFB70112300930C237A68B968F868FFF79DFEFA7813469B0013446F4AD35C3B75FA7890
S32D00011CF813469B00134401336B4AD35C7B75FA7813469B0013440233674AD35CBB75FA7813469B001344033375
S32D00011D20634AD35CFB75FA7813469B00134404335F4AD35C3B760023BB62BB6A062B00F3A180F86800F050F988
S32D00011D48F86800F0B3F8002387F82F3000237B627B6A042B35DC07F114027B6A13441B7803F00103002B14BF79
S32D00011D7001230023FB76FB7E002B11D097F82F3083F00103DBB2002B03D0F86800F0CAF802E0F86800F08EF84D
S32D00011D98F86800F08BF80DE097F82F30002B03D0F86800F01DF902E0F86800F07FF8F86800F07CF8FB7E87F8A5
S32D00011DC02F307B6A01337B62C6E797F82F30002B03D0F86800F008F902E0F86800F06AF8F86800F067F800234F
S32D00011DE887F82F3000233B623B6A042B42DC07F114023B6A13441B7803F00103002B14BF01230023BB76BB7EF9
S32D00011E10002B11D097F82F3083F00103DBB2002B03D0F86800F07EF802E0F86800F042F8F86800F03FF80DE001
S32D00011E3897F82F30002B03D0F86800F0D1F802E0F86800F033F8F86800F030F8BB7E87F82F3007F114023B6AD7
S32D00011E6013441B785B08D9B207F114023B6A13440A461A703B6A01333B62B9E7BB6A0133BB625AE7F86800F07A
S32D00011E88AFF8002387F82F300123FB61FB69232B06DCF86800F00AF8FB690133FB61F5E73037BD4680BD00BFE7
S32D00011EB0540B002080B483B000AF7860174B1B68164A43F480331360154B1B68144A23F008031360114B1B6843
S32D00011ED8104A43F4802313600E4B1B680D4A23F4003313600B4B1B680A4A43F400331360094B1B68084A43F0DE
S32D00011F0008031360054B1B68044A23F48023136000BF0C37BD4680BC704700BF40F00F4080F00F4080B483B08A
S32D00011F2800AF78602B4B1B682A4A43F480331360294B1B68284A23F008031360254B1B68244A43F48023136091
S32D00011F50224B1B68214A23F440731360204B1B681F4A23F47F2323F0F00313601D4B1B681C4A23F01D0313604A
S32D00011F78184B1A687B685B6A164913430B60164B1A687B689B6A144913430B60134B1A687B68DB6A11491343EC
S32D00011FA00B600E4B1B680D4A23F4003313600B4B1B680A4A43F400331360094B1B68084A43F008031360054B83
S32D00011FC81B68044A23F48023136000BF0C37BD4680BC704740F00F4080F00F40C0F00F4080B483B000AF7860C9
S32D00011FF02B4B1B682A4A43F480331360294B1B68284A23F008031360254B1B68244A43F480231360224B1B6860
S32D00012018214A23F440731360204B1B681F4A23F47F2323F0F00313601D4B1B681C4A23F01D031360184B1A688C
S32D000120407B681B6B164913430B60164B1A687B685B6B144913430B60134B1A687B689B6B114913430B600E4B01
S32D000120681B680D4A23F4003313600B4B1B680A4A43F400331360094B1B68084A43F008031360054B1B68044AAD
S32D0001209023F48023136000BF0C37BD4680BC704740F00F4080F00F40C0F00F4080B485B000AF78607B681B6A67
S32D000120B8FB60FB68FB72FB681B0ABB72FB681B0CDBB203F003037B727B6800225A627B6800229A627B68002255
S32D000120E0DA627B6800221A637B6800225A637B6800229A637B681A6BFB7A5B0203F400731A437B681A637B680B
S32D000121081A6BFB7A5B101B0203F480731A437B681A637B685A6BFB7A9B101B0103F010031A437B685A637B68B5
S32D000121305A6BFB7ADB105B0103F020031A437B685A637B685A6BFB7A1B119B0103F040031A437B685A637B68F1
S32D000121585A6BFB7A5B11DB01DBB21A437B685A637B685A6BFB7A9B111B0303F480531A437B685A637B685A6BF6
S32D0001218097F90B30DB115BB25B0303F400531A437B685A637B685A6BBB7A9B0303F480431A437B685A637B68B2
S32D000121A85A6BBB7A5B10DB039BB21A437B685A637B685A6BBB7A9B101B0403F480331A437B685A637B685A6B85
S32D000121D0BB7ADB105B0403F400331A437B685A637B685A6BBB7A1B119B0403F480231A437B685A637B685A6B53
S32D000121F8BB7A5B11DB0403F400231A437B685A637B689A6BBB7A9B1103F001031A437B689A637B689A6B97F9AC
S32D000122200A30DB115BB29B0003F004031A437B689A637B689A6B7B7ADB0003F008031A437B689A637B689A6BAF
S32D000122487B7A5B101B0103F010031A437B689A637B68DB69FB60FB68FB72FB681B0ABB72FB681B0CDBB203F097
S32D0001227003037B727B685A6AFB7A5B0203F400731A437B685A627B685A6AFB7A5B101B0203F480731A437B689F
S32D000122985A627B689A6AFB7A9B101B0103F010031A437B689A627B689A6AFB7ADB105B0103F020031A437B68FD
S32D000122C09A627B689A6AFB7A1B119B0103F040031A437B689A627B689A6AFB7A5B11DB01DBB21A437B689A62F0
S32D000122E87B689A6AFB7A9B111B0303F480531A437B689A627B689A6A97F90B30DB115BB25B0303F400531A43EB
S32D000123107B689A627B689A6ABB7A9B0303F480431A437B689A627B689A6ABB7A5B10DB039BB21A437B689A6221
S32D000123387B689A6ABB7A9B101B0403F480331A437B689A627B689A6ABB7ADB105B0403F400331A437B689A62DE
S32D000123607B689A6ABB7A1B119B0403F480231A437B689A627B689A6ABB7A5B11DB0403F400231A437B689A62D4
S32D000123887B68DA6ABB7A9B1103F001031A437B68DA627B68DA6A97F90A30DB115BB29B0003F004031A437B68EC
S32D000123B0DA627B68DA6A7B7ADB0003F008031A437B68DA627B68DA6A7B7A5B101B0103F010031A437B68DA622C
S32D000123D800BF1437BD4680BC704780B483B000AF78607B6818460C37BD4680BC704780B584B000AFF860B960E5
S32D000124007A603B60FB682033B968184603F068FCFB687A681A60FB683A689A60FB68BA691A61FB68FA695A616C
S32D00012428FB681A68FB681B691A44FB685A60FB689A68FB685B691A44FB68DA60FB683A6A9A61FB687A6ADA6133
S32D00012450FB680022C3F8E82000BF1037BD4680BDF0B585B002AF78607B689B6919461F48FEF787FD7B681968E2
S32D000124787B689A687B6818697B685B69009303461848FFF78CFA7B68DB6919461548FEF774FD7B6803F1200449
S32D000124A07B681B681D467B681B691E467B682033184603F085FC024613465B0013449B00F31A5B082B44184646
S32D000124C87B689A687B685B69113BD90F0B445B101344024621460348FEF762FD00BF0C37BD46F0BD401A00209A
S32D000124F080B584B002AF78607B689B6919461F48FEF73FFD7B681B68591C7B689B685A1C7B681B69981E7B68B6
S32D000125185B69023B009303461648FFF740FA7B681B68991C7B689B689A1C7B681B69181F7B685B69043B00935B
S32D0001254003460E48FFF72FFA7B681B68D91C7B689B68DA1C7B681B69981F7B685B69063B009303460548FFF752
S32D000125681EFA7B680122C3F8E82000BF0837BD4680BD00BF401A002080B584B002AF786000211F48FEF7F9FC88
S32D000125907B681B68D91C7B689B68DA1C7B681B69981F7B685B69063B009303461648FFF7FAF97B681B68991CA1
S32D000125B87B689B689A1C7B681B69181F7B685B69043B009303460E48FFF7E9F97B681B68591C7B689B685A1C93
S32D000125E07B681B69981E7B685B69023B009303460548FFF7D8F97B680022C3F8E82000BF0837BD4680BD00BF16
S32D00012608401A002080B584B000AFF860B9607A603B60FB681B68184602F070F80246BB681946104602F066FA1B
S32D000126300346002B00F08180FB685B68184602F061F80246BB681946104602F061FA0346002B72D0FB689B68BE
S32D00012658184602F053F802467B681946104602F049FA0346002B64D0FB68DB68184602F045F802467B6819463E
S32D00012680104602F045FA0346002B56D03A1D07F1080319462B48FEF7EBFCFB681B68184602F030F80246BB6839
S32D000126A81946104602F026FA0346002B3FD0FB685B68184602F022F80246BB681946104602F022FA0346002B87
S32D000126D031D0FB689B68184602F014F802467B681946104602F00AFA0346002B23D0FB68DB68184602F006F8E7
S32D000126F802467B681946104602F006FA0346002B15D03B68002B10D1FB68D3F8E830002B03D1F868FFF7E8FE58
S32D0001272007E0FB68D3F8E830002B02D0F868FFF727FF012302E0002300E0002318461037BD4680BD401A002059
S32D0001274880B586B000AFF860B9607A60BB687B617B683B6179693A690123F868FFF752FF0346002B14BF0123C4
S32D000127700023DBB2002B08D007F1100207F1140319460448FEF774FCE8E700BF1837BD4680BD00BF401A002008
S32D00012798B0B592B004AFF860B9607A603B60FB6C7B633B683B63F86C01F052FB02460B464FF000004E4901F04A
S32D000127C0FDF902460B4614461D46386D01F044FB02460B462046294601F0F0F902460B461046194601F084FEC0
S32D000127E803463B62386801F033FB02460B464FF00000404901F0DEF902460B4614461D46B86C01F025FB024621
S32D000128100B462046294601F0D1F902460B461046194601F065FE0346FB61786801F06AFF03461946386A02F0FB
S32D000128386DF80346184602F07BF90346BB61B86801F05CFF03461946F86902F05FF80346184602F06DF9034694
S32D000128607B6100237B620123BB62BA6ABB689A423DDC0123FB62FA6A7B689A422DDC7B6AEC2202FB03F3FA68FB
S32D00012888D0187A6A13469B0013449B001A467B6D9918FB6D0393BB6D02937B690193BB6900933B6B7A6BFFF70B
S32D000128B0A2FD7B6AEC2202FB03F3FA6813441846FFF7CEFD7B6A01337B627A6BBB6913447B63FB6A0133FB6272
S32D000128D8CDE73A6B7B6913443B63FB6C7B63BB6A0133BB62BDE700BF3837BD46B0BD00BF0000744000006E4081
S32D0001290080B582B000AF786039607B68012B07D13B684FF6FF72934202D10348FEF750F900BF0837BD4680BD72
