S01100002E2E2F50726F746575732E73313966
S32D0000C000000000205DC2000011C3000017C300001DC3000023C3000029C3000000000000000000000000000073
S32D0000C028000000002FC3000035C30000000000003BC3000041C3000045E1000051E100005DE1000069E100001E
S32D0000C05075E1000081E100008DE1000099E10000A5E10000B1E10000BDE10000C9E10000D5E10000E1E100004A
S32D0000C078EDE10000F9E1000005E2000011E200001DE2000029E2000035E2000041E200004DE2000059E200006A
S32D0000C0A065E2000071E200007DE2000089E2000095E20000A1E20000ADE20000B9E20000C5E20000D1E2000090
S32D0000C0C8DDE20000E9E20000F5E2000001E300000DE3000019E3000025E3000031E300003DE3000049E30000B1
S32D0000C0F055E30000616B010061E300006DE3000079E3000085E3000091E300009DE30000A9E30000B5E30000AD
S32D0000C118C1E30000CDE30000D9E30000E5E30000F1E30000FDE3000009E4000015E4000021E400002DE4000071
S32D0000C14039E4000045E4000051E400005DE400001938010069E4000075E4000081E400008DE4000099E40000CA
S32D0000C168A5E40000B1E40000BDE40000C9E40000D5E40000E1E40000EDE40000F9E4000005E5000011E5000031
S32D0000C1901DE5000029E5000035E5000005340100C532010065330100C9DE0000A934010041E500004DE50000AF
S32D0000C1B859E50000B0DC020000000020FC160000B0DC02000000FF1F00000000FC160020100700000000FF1F48
S32D0000C1E00000000080B489B000AFF860B9607A60BB68FB61FB68BB6100237B617A697B689A420BD2BA69131DFB
S32D0000C208BB61FB69191DF96112681A607B6904337B61EFE700BF2437BD4680BC704780B485B000AF786039609E
S32D0000C2307B68FB600023BB60BA683B689A4208D2FB681A1DFA6000221A60BB680433BB60F2E700BF1437BD46FE
S32D0000C25880BC704780B586B000AF72B6234B4CF220521A80214B4DF628121A80204B4FF4E9721A801F4B7B615F
S32D0000C2807B691F4A934214D27B691A1D7A611B683B617B691A1D7A611B68FB607B691A1D7A611B68BB60BA68E9
S32D0000C2A8F9683869FFF79AFFE6E77B69134A93420ED27B691A1D7A611B68FB607B691A1D7A611B68BB60B9688B
S32D0000C2D0F868FFF7A8FFECE70B4B7B600B4A7B681A6015F0A3F862B601F0B6FE01F03EFDFEE700BF0E200540ED
S32D0000C2F800200540BCC10000D4C10000E4C1000008ED00E000C0000080B400AFFEE780B400AFFEE780B400AFF4
S32D0000C320FEE780B400AFFEE780B400AFFEE780B400AFFEE780B400AFFEE780B400AFFEE780B400AFFEE780B426
S32D0000C34800AFFEE7FFFFFFFFFFFFFFFFFFFFFFFFFFFFFFFFFFFFFFFFFFFFFFFFFFFFFFFFFFFFFFFFFFFFFFFF57
S32D0000C370FFFFFFFFFFFFFFFFFFFFFFFFFFFFFFFFFFFFFFFFFFFFFFFFFFFFFFFFFFFFFFFFFFFFFFFFFFFFFFFFC7
S32D0000C398FFFFFFFFFFFFFFFFFFFFFFFFFFFFFFFFFFFFFFFFFFFFFFFFFFFFFFFFFFFFFFFFFFFFFFFFFFFFFFFF9F
S32D0000C3C0FFFFFFFFFFFFFFFFFFFFFFFFFFFFFFFFFFFFFFFFFFFFFFFFFFFFFFFFFFFFFFFFFFFFFFFFFFFFFFFF77
S32D0000C3E8FFFFFFFFFFFFFFFFFFFFFFFFFFFFFFFFFFFFFFFFFFFFFFFFFFFFFFFFFFFFFFFFFFFFFFFFFEFFFFFF50
S32D0000C41010B5054C237833B9044B13B10448AFF300800123237010BDFC1600200000000020DB020008B5034B22
S32D0000C4381BB103490348AFF3008008BD000000000017002020DB0200B0B588B002AF7A480AF088FF78480BF00C
S32D0000C460A1F903461946774808F0EDFE764A774977480BF0E5FA386100237B617B69022B50DC74496F4808F070
S32D0000C488CBFE73496D4808F0C7FE3A463B1D19466A4808F0E1FC034683F00103DBB2002B11D06C49654808F01E
S32D0000C4B0E6FD63480BF0CCF903461946614808F0D5FE4FF00000664906F0B6FBE1E73A463B1D19465B4808F0C5
S32D0000C4D8C3FC0346002B00D0F5E757480BF0B4F90346184612F02EFF02460B46CDE900235A4A396954480BF0EB
S32D0000C500FBFB59494F4808F08BFE4FF00000574906F092FB00214B4808F006FC7B6901337B61ABE739694A4893
S32D0000C5280BF056FB504A474947480BF085FAF8604E4B4F4AF96844480BF006FC4D4B4C4AF96841480BF000FCE3
S32D0000C5504B4B494AF9683E480BF0FAFBF9683C480BF03AFB4749374808F089FD414B1B681946344808F07AFEC1
S32D0000C5784349324808F07FFD3E4B1B6819462F4808F070FE3F492D4808F075FD3A4B1B6819462A4808F066FE37
S32D0000C5A03A463B1D1946274808F05AFC034683F00103DBB2002B09D03549224808F030FE4FF00000264906F076
S32D0000C5C837FBE9E700211D4808F0AAFB06F056FB02460B461046194613F0EEF90346BB6000F0E8FF034683F0AA
S32D0000C5F00103DBB2002B1AD006F044FB04460D46B86812F0A3FE02460B462046294612F03DFD02460B46104649
S32D0000C61819464FF000021D4B13F05EF90346002B01D0012300E00023002B00D0D8E700BF1837BD46B0BD00BF2F
S32D0000C640D01A0020681A0020BCB50200C0B50200F01A0020D0B50200ECB50200F0B502000000F83F00B602004C
S32D0000C66804B602000000144018B60200140000201CB602001C0000201800002020B602002CB6020038B602009C
S32D0000C69044B6020000003E4080B500AF40F28A21154807F083FA40F22671134807F09BFA1249114807F0B4FA67
S32D0000C6B84FF40771104807F075FA40F607110E4807F08DFA4FF000010B4807F0A5FA40F2EE210A4807F066FAA6
S32D0000C6E040F61511074807F07EFA0749054807F097FA00BF80BD00BF58170020000034436417002070170020EA
S32D0000C7080000A042FFFFFFFF80B500AF3249334807F082FA002000F09DFF314B1B68184612F010FE4FF000027E
S32D0000C7302E4B12F063FE02460B461046194613F0F7F8034619466FF02C0001F011F9284B1B682849184613F0C9
S32D0000C75891FA0346184613F053FC03461946142001F0C8F91AA1D1E9000106F061FA4FF000011A4807F050FAF7
S32D0000C780002000F06BFF1C491C4808F078FC1C4806F09EFB03461946184808F07AFD1949164808F06CFC1848F2
S32D0000C7A806F092FB03461946124808F06EFD1549154807F031FA4FF00000144906F038FA1349114807F028FA0C
S32D0000C7D000BF80BDAFF30080333333333333D33F00003443641700200000002000000840040000200000C84231
S32D0000C7F894B60200681A002028170020A8B602002C17002000004842581700200000F03F00002A43FFFFFFFF52
S32D0000C82080B582B000AF78603F4B1B683F49184613F024FA0346184613F0E6FB034619466FF0220001F094F8B7
S32D0000C848394B1B683949184613F014FA0346184613F0D6FB03461946232001F04BF9304B1B683349184613F054
S32D0000C87005FA0346184613F0C7FB03461946232001F076F82D492E4807F0CAF9284B1B682949184613F0F2F98B
S32D0000C8980346184613F0B4FB03461946192001F029F94FF07C51192001F01CF8786801F07BF9002000F0CEFEBA
S32D0000C8C020491F4807F0ACF915A1D1E9000106F0B3F9154B1B681C49184613F0CFF90346184613F091FB0346DB
S32D0000C8E819466FF0270001F03FF81649164801F0B7FE1449154801F0B3FE4FF00000144906F096F9104801F0EC
S32D0000C91069FE104801F066FE00BF0837BD4680BD9A9999999999C93F00000020000010410400002000003C42F5
S32D0000C9380000A04100003443641700200000BE420000A040000020C248170020401700200000F03F80B582B090
S32D0000C96000AF78602249234807F05AF9224B1B68184612F0EBFC4FF00002204B12F03EFD02460B461046194694
S32D0000C98812F0D2FF034619466FF0180000F0ECFF194B1B681949184613F06CF90346184613F02EFB034619462A
S32D0000C9B0192001F0A3F8FFF76FFE00F01FFE104B1B681149184613F059F90346184613F01BFB03461946192098
S32D0000C9D801F034F8002000F03DFE786800F0C2F800BF0837BD4680BD000034436417002000000020000012407D
S32D0000CA000400002000000C430000C842FFFFFFFF80B582B000AF7860494B1B68184612F095FC4FF00002474BC6
S32D0000CA2812F0E8FC02460B461046194612F07CFF034619462D2000F097FF4FF00000404906F0F6F83F4B1B68FB
S32D0000CA503F49184613F012F90346184613F0D4FA03461946192000F0EDFF4FF00000364906F0E2F8324B1B6801
S32D0000CA78184612F067FC2EA3D3E9002312F0BAFC02460B461046194612F04EFF034619463C2000F069FF4FF02D
S32D0000CAA00000294906F0C8F8284B1B682949184613F0E4F80346184613F0A6FA03461946192001F01BF84FF02D
S32D0000CAC800001F4906F0B4F821480AF0AFFE03464FF00001184613F089FA0346002B0DD01B480AF095FE03462F
S32D0000CAF04FF00001184613F07DFA0346002B01D0012300E00023002B02D0786801F050F81249134808F084FB51
S32D0000CB184FF00001114801F0A3FD4FF00001104801F09EFD00BF0837BD4680BDAFF300800000000000E04240DF
S32D0000CB400000002000002F400000E03F0400002000005C420000D242D01A002000B70200681A0020481700205F
S32D0000CB684017002080B582B000AF7860254B1B68184612F0E7FB4FF00002234B12F03AFC02460B4610461946D0
S32D0000CB9012F0CEFE034619466FF0180000F0E8FE1C4B1B681C49184613F068F80346184613F02AFA034619462E
S32D0000CBB8192000F043FF786800F0F6FF4FF07E516FF0180000F08EFE786800F0EDFF4FF07F516FF0180000F0EC
S32D0000CBE085FE0E490E4807F01BF84FF000004FF0804106F021F80B49094807F011F80A4B01221A7000BF0837FA
S32D0000CC08BD4680BD0000002000000440040000200000DC420000344370170020000070427C17002080B582B02E
S32D0000CC3000AF78604FF00000924905F0FDFF924B1B689249184613F019F80346184613F0DBF9034619466FF012
S32D0000CC58180000F089FE7B68002B0FD18A4B1B688A49184613F006F80346184613F0C8F903461946192000F06B
S32D0000CC803DFF11E07B68022B0ED1814B1B688149184612F0F3FF0346184613F0B5F903461946192000F0CEFE0A
S32D0000CCA87B68002B21D100F0A5FC754B1B684FF08141184612F0DEFF0346184613F0A0F903461946192000F038
S32D0000CCD04FFE6F4B1B687049184612F0CFFF0346184613F091F903461946192000F0AAFE44E07B68022B31D1E2
S32D0000CCF800F080FC624B1B684FF08141184612F0B9FF0346184613F07BF903461946192000F02AFE5C4B1B6818
S32D0000CD205C49184612F0AAFF0346184613F06CF903461946192000F0E1FE534B1B685349184612F09BFF034678
S32D0000CD48184613F05DF9034619466FF0220000F00BFE0FE04A4B1B684FF08141184612F089FF0346184613F04A
S32D0000CD704BF903461946232000F0FAFD4749484808F04EFA404B1B68184612F0DFFA4FF00002444B12F032FBD9
S32D0000CD9802460B461046194612F0C6FD03461946192000F0E1FD3E493E4806F035FF4FF00000324905F03CFF8A
S32D0000CDC0314B1B68184612F0C1FA4FF00002354B12F014FB02460B461046194612F0A8FD034619466FF0180045
S32D0000CDE800F0C2FD4FF000012E4806F015FF4FF00000224905F01CFF214B1B68184612F0A1FA4FF00002254B59
S32D0000CE1012F0F4FA02460B461046194612F088FD03461946192000F0A3FD4FF00000204905F002FF1F491D4853
S32D0000CE3806F0F2FE4FF000001D4905F0F9FE104B1B68184612F07EFA4FF00002194B12F0D1FA02460B4610463E
S32D0000CE60194612F065FD034619466FF0180000F07FFD13490D4806F0D3FE00BF0837BD4680BD00BF0000E03FC2
S32D0000CE8800000020000040400400002000000C420000F04110B70200681A0020000016400000BE4258170020E9
S32D0000CEB00000104000008C420000F03F00000C400000344380B500AF3B4B1B78002B0FD03A4B1B683A49184654
S32D0000CED812F0D0FE0346184613F092F8034619462D2000F041FD14E0324B1B68184612F029FA4FF00002314BD1
S32D0000CF0012F07CFA02460B461046194612F010FD034619462D2000F02BFD2B4B1B682B49184612F0ABFE034662
S32D0000CF28184613F06DF8034619462D2000F086FD012000F08FFB1F4B1B682349184612F099FE0346184613F018
S32D0000CF505BF8034619462D2000F00AFD1A4B1B681C49184612F08AFE0346184613F04CF8034619462D2000F06C
S32D0000CF7865FD104B1B68184612F0E4F94FF00002134B12F037FA02460B461046194612F0CBFC034619466FF01E
S32D0000CFA02C0000F0E5FC0D480AF0FCFB03461846FFF73CFE00BF80BD7C170020000000200000204100002340B6
S32D0000CFC8040000200000B4420000904100005C4200000C40D01A002080B582B000AF7860674B1B68184612F0D9
S32D0000CFF0ADF94FF00002654B12F000FA02460B461046194612F094FC034619466FF0220000F0AEFC5E4B1B68B1
S32D0000D0185E49184612F02EFE0346184612F0F0FF03461946192000F065FDFFF731FB012000F010FB56480AF016
S32D0000D040B1FB0346002B0CBF01230023DBB2002B15D04D4B1B68184612F078F94FF000024E4B12F0CBF902461F
S32D0000D0680B461046194612F05FFC034619462D2000F07AFC2FE046480AF090FB0346012B0CBF01230023DBB2A6
S32D0000D090002B0FD03C4B1B684149184612F0EEFD0346184612F0B0FF034619462D2000F05FFC14E0344B1B68FB
S32D0000D0B8184612F047F94FF00002384B12F09AF902460B461046194612F02EFC034619462D2000F049FC2C4B36
S32D0000D0E01B683149184612F0C9FD0346184612F08BFF03461946192000F000FD786800F057FD214B1B68294979
S32D0000D108184612F0B7FD0346184612F079FF03461946232000F028FC1B4B1B681B49184612F0A8FD03461846CC
S32D0000D13012F06AFF03461946192000F0DFFC124B1B681946184612F091FC0346184612F05BFF034619462320A0
S32D0000D15800F00AFC0C4B1B680C49184612F08AFD0346184612F04CFF03461946192000F065FC002000F06EFAFF
S32D0000D18000BF0837BD4680BD00000020000018400400002000003442D01A002000002D400000704100002F409A
S32D0000D1A80000DC420000144290B583B000AF4FF000033B60844B1B68184612F0C3F84FF00002824B12F016F955
S32D0000D1D002460B461046194612F0AAFB034619466FF0220000F0C4FB7B4B1B687B49184612F044FD034618460F
S32D0000D1F812F006FF03461946192000F01FFC002000F028FA704B1B68184612F09BF84FF00002714B12F0EEF8CE
S32D0000D22002460B461046194612F082FB034619466FF0220000F09CFB674B1B686949184612F01CFD034618465C
S32D0000D24812F0DEFE03461946192000F053FC5E4B1B68184612F0D4FE03461946192000F083FB4FF000005E4927
S32D0000D27005F0E2FC0023FB715C495D4807F0FFFE5C4806F095F903461946594807F0EEFF584806F08DF9024637
S32D0000D298574B1B6801210C461946104612F088FE0346002B01D100231C46E3B2002B01D00123FB714B494C487E
S32D0000D2C007F0DDFEFB791946494807F0E2FFFB79002B2DD0404B1B684849184612F0CEFC0346184612F090FE96
S32D0000D2E803461946192000F0A9FB374B1B681946184612F0B7FB0346184612F081FE03461946192000F030FB09
S32D0000D310314B1B683949184612F0B0FC0346184612F072FE03461946192000F0E7FB2CE0294B1B6831491846BB
S32D0000D33812F0A0FC0346184612F062FE03461946192000F0D7FB204B1B681946184612F089FB0346184612F0A3
S32D0000D36053FE03461946192000F002FB1A4B1B682249184612F082FC0346184612F044FE03461946192000F093
S32D0000D3885DFB114B1B681C49184612F073FC0346184612F035FE034619466FF0180000F0E3FA1649164806F091
S32D0000D3B037FC4FF000000C4905F03EFC4FF08041192000F093FA00BF0C37BD4690BD00BF0000002000002B4007
S32D0000D3D8040000200000E64200000C400000D2420000E03F84B70200681A0020241700202400002000005C4240
S32D0000D40000004040000048425817002080B500AFFFF742F9214B1B681946184612F026FB0346184612F0F0FDEB
S32D0000D428034619466FF0180000F09EFA1A4B1B681A49184612F01EFC0346184612F0E0FD03461946372000F0F5
S32D0000D45055FB124B1B681449184612F00FFC0346184612F0D1FD034619462D2000F080FA0B4B1B680D49184653
S32D0000D47812F000FC0346184612F0C2FD034619462D2000F0DBFA08492D2000F02BFA00BF80BD00BF00000020D8
S32D0000D4A0040000200000C84200001041000034420000204180B500AF354806F079F80246344B1B681946104641
S32D0000D4C812F094FD0346002B19D1314806F06CF80246304B1B681946104612F087FD0346002B0CD12C4806F036
S32D0000D4F05FF802462B4B1B681946104612F07AFD0346002B01D0012300E00023002B3BD02549264807F084FE51
S32D0000D5182549244807F0AFFD1F4806F045F803461946204807F09EFE1C4B1B6819461D4807F098FE1D491B4827
S32D0000D54007F09DFD144806F033F803461946174807F08CFE114B1B681946144807F086FE1549124807F08BFDDB
S32D0000D568094806F021F8034619460E4807F07AFE064B1B6819460B4807F074FE012300E00023184680BD00BF58
S32D0000D5902017002008000020181700200C0000201C170020100000208CB70200681A002070B602007CB60200AD
S32D0000D5B888B6020098B500AF0C4805F0F5FF02460B4B1B6801210C461946104612F0F0FC0346002B01D100232B
S32D0000D5E01C46E3B2002B01D0012300E00023184698BD00BF241700202000002080B582B000AF19237B60FFF7D3
S32D0000D60855FF034683F00103DBB2002B13D07B68C3F10203184612F0D9FA034619460B4801F01EF8786812F092
S32D0000D630D1FA03461946084801F016F8E3E7054800F0D0FF044800F0CDFF00BF0837BD4680BD00BF48170020B0
S32D0000D65840170020B0B584B000AF78607B68012B40F08E80904805F02FFC0346002B07D08E4805F029FC034644
S32D0000D680002B01D0012300E00023002B08D08A498A4800F0E9FF8A498A4800F0E5FFE5E7834805F015FC03467A
S32D0000D6A8002B0CBF01230023DBB2002B05D04FF00001804800F0D4FF0FE07C4805F004FC0346002B0CBF0123B4
S32D0000D6D00023DBB2002B04D04FF00001794800F0C3FF05F0CFFA02460B461046194612F067F90346FB606E4802
S32D0000D6F805F0EAFB0346002B05D16C4805F0E4FB0346002B1AD005F0B9FA04460D46F86811F018FE02460B46A5
S32D0000D7202046294611F0B2FC02460B46104619464FF00002644B12F0D3F80346002B01D0012300E00023002BB5
S32D0000D74800F0A7805F49604807F095FC5F4805F0BBFB034619465C4807F097FD5C495A4807F089FC5B4805F040
S32D0000D770AFFB03461946564807F08BFD4FF00000574905F059FAB6E7524805F0A1FB0346002B07D0514805F054
S32D0000D7989BFB0346002B01D0012300E00023002B08D04E49434800F05BFF4D49434800F057FFE5E7454805F03D
S32D0000D7C087FB034683F00103DBB2002B05D04FF000013A4800F048FF0DE0404805F078FB034683F00103DBB249
S32D0000D7E8002B04D04FF00001344800F039FF05F045FA02460B461046194612F0DDF80346FB60324805F060FB69
S32D0000D8100346002B05D1314805F05AFB0346002B1AD005F02FFA04460D46F86811F08EFD02460B46204629466A
S32D0000D83811F028FC02460B46104619464FF000021F4B12F049F80346002B01D0012300E00023002B1DD01B4979
S32D0000D8601B4807F00CFC1B4805F032FB03461946174807F00EFD1849154807F000FC174805F026FB03461946DC
S32D0000D888114807F002FD4FF00000134905F0D0F9B7E7084800F0A2FE084800F09FFE00BF1037BD46B0BD00BF3A
S32D0000D8B030170020341700200000B841481700200000C8C14017002000000840A8B70200681A00202817002056
S32D0000D8D8B8B702002C1700200000F03F0000B8C10000C84180B582B000AF786039607B68002B14DA786812F038
S32D0000D90069F903461946184800F0AEFE7A686FF001039B1A184612F05DF903461946134800F0A2FE12E07868DE
S32D0000D92812F054F9034619460D4800F099FE7B68C3F10203184612F049F903461946094800F08EFE386805F0B6
S32D0000D95053F9054800F046FE044800F043FE00BF0837BD4680BD00BF4017002048170020F0B583B000AF78600D
S32D0000D97839602E4805F0F4FD2D4805F0F1FD786812F024F9034619462A4800F069FE7B68002B0CDA7A686FF08F
S32D0000D9A001039B1A184612F015F903461946244800F05AFE0AE07B68C3F10203184612F009F9034619461E48E0
S32D0000D9C800F04EFE1A4805F0B9FD0446174805F0B5FD03462344184611F0A2FC4FF000024FF0804311F030FE79
S32D0000D9F002460B4614461D46386811F095FC02460B4601210E462046294611F069FF0346002B01D100231E4667
S32D0000DA18F3B2002B00D0D5E7064800F0DFFD064800F0DCFD00BF0C37BD46F0BD381700203C1700204017002048
S32D0000DA4048170020F0B583B000AF78603960274805F08AFD264805F087FD7B685B42184612F0B8F80346194637
S32D0000DA68224800F0FDFD7B685B42184612F0AEF8034619461E4800F0F3FD1B4805F05EFD0446184805F05AFD1F
S32D0000DA9003462344184611F047FC4FF000024FF0804311F0D5FD02460B4614461D46386811F03AFC02460B463A
S32D0000DAB801210E462046294611F00EFF0346002B01D100231E46F3B2002B00D0D5E7074800F084FD064800F0C0
S32D0000DAE081FD00BF0C37BD46F0BD00BF381700203C1700204017002048170020F0B583B000AF786039602548EC
S32D0000DB0805F02EFD244805F02BFD786812F05EF803461946214800F0A3FD786812F056F8034619461E4800F03F
S32D0000DB309BFD1B4805F006FD0446184805F002FD03462344184611F0EFFB4FF000024FF0804311F07DFD024637
S32D0000DB580B4614461D46386811F0E2FB02460B4601210E462046294611F0B6FE0346002B01D100231E46F3B208
S32D0000DB80002B00D0D5E7074800F02CFD064800F029FD00BF0C37BD46F0BD00BF381700203C170020401700202A
S32D0000DBA848170020FFFFFFFFB0B584B000AF786005F064F802460B461046194611F0FCFE0346FB604E4809F0E7
S32D0000DBD03FFE03464FF00001184612F001FA0346002B3AD0484809F033FE04464749786811F03AFF0346194632
S32D0000DBF8204612F0DDF90346002B0FD1404809F023FE04463F49786811F02CFF03461946204612F0EBF90346B0
S32D0000DC20002B1AD005F02EF804460D46F86811F08DFB02460B462046294611F027FA02460B46104619464FF003
S32D0000DC480002314B11F048FE0346002B01D0012300E00023002B3FD02C492D4807F00BFA274809F0F1FD0346BE
S32D0000DC701946294807F0FAFA234809F0E9FD0346012214461946786812F096F90346002B01D100231C46E3B28B
S32D0000DC98002B05D01F496FF0180000F03DF815E0174809F0D1FD0346012214461946786812F09CF90346002B2F
S32D0000DCC001D100231C46E3B2002B03D01349192000F026F80AA1D1E9000104F0ADFF75E70C490D4807F0CBF9E2
S32D0000DCE8074809F0B1FD03461946094807F0BAFA00BF1037BD46B0BD666666666666D63FD01A002000004040FB
S32D0000DD1000001440C8B70200681A0020CDCCCC3D80B582B000AF78603960786811F052FF034619460B4800F028
S32D0000DD3897FC786811F04AFF03461946084800F08FFC386804F054FF044800F047FC044800F044FC00BF0837AD
S32D0000DD60BD4680BD401700204817002080B500AF124805F0D1FFFEF76BFBFEF78DFC104B1B681846FEF744FE10
S32D0000DD88FEF7C2FC0D4B1B681846FEF745FD0C4B1B681846FEF7DEFDFFF790F8084B1B681846FFF719F9FFF792
S32D0000DDB0FFF9FFF72BFB0023184680BD58170020140000201C0000201800002080B582B000AF786039607B68D2
S32D0000DDD8012B47D13B684FF6FF72934242D10B21224805F0CFFB0D21214805F0CBFB0F21204805F0C7FB1F2162
S32D0000DE001F4805F0C3FB18211E4804F085FF07211D4804F081FF1B211C4804F07DFF01211B4804F079FF082198
S32D0000DE281A4805F0D5F81021194805F0D1F8194A0021194800F094FB164A0121174800F08FFB144A02211648BA
S32D0000DE5000F08AFB0321154805F08CFE0721144805F088FE0021134805F084FE00BF0837BD4680BD18170020B0
S32D0000DE781C1700202017002024170020281700202C1700203017002034170020381700203C17002000001041B0
S32D0000DEA040170020481700205017002058170020641700207017002080B500AF4FF6FF710120FFF783FF80BD97
S32D0000DEC880B500AF0F4BD3F8A03003F48053002B14BF01230023DBB2002B10D0094BD3F8A030084A23F4805381
S32D0000DEF0C2F8A030064809F0C9FE064B1B68054A23F40053136000BF80BD00BF00C00440F01A0020C0F00F4084
S32D0000DF1880B400AF124B4FF480725A63114B5B69104A43F4005353610E4B1B680D4A43F4005313600A4B0C4A16
S32D0000DF401A630C4BD3F888310A4A43F08063C2F88831084B9B68074A43F08063936000BFBD4680BC704700BF5A
S32D0000DF6800C00440C0F00F4003010A0000E100E080B400AF334B00225A70324B98221A70304B9B79DBB203F09C
S32D0000DF901003002B14BF01230023DBB2002B00D0F2E72A4B9B79DBB29B08DBB203F00303022B14BF0123002324
S32D0000DFB8DBB2002B00D0F0E7224B18221A71214B00225A71204B03F580531A461F4B53641C4B54225A711B4B8C
S32D0000DFE09B79DBB203F02003002B0CBF01230023DBB2002B00D0F2E7144B9B79DBB203F04003002B0CBF01236E
S32D0000E0080023DBB2002B00D0F2E70E4B1B78DBB20C4A03F03F03DBB213700A4B9B79DBB29B08DBB203F0030333
S32D0000E030032B14BF01230023DBB2002B00D0F0E700231846BD4680BC704700BF00400640007004400000130197
S32D0000E05880B500AF314B03F580539B6B2F4A43F4785302F580529363FFF752FFFFF780FF2B4B58221A602A4B94
S32D0000E0801B684FF47A7202FB03F3284A1360274B1B681A46234B03F580535B6C1B0E03F00F030133B2FBF3F39E
S32D0000E0A81A46214B1A601D4B03F58053DB6B1B4A43F0225302F58052D363184B03F580531B6B164A43F00063D5
S32D0000E0D002F580521363174B4FF480721A61642004F060FC134B5B69124A23F010035361104B00221A600F4B54
S32D0000E0F810225A610E4806F081FC05F03DFB05F09BFB0C4804F0ACFC0B4809F015FF4FF4FA6004F057FD00BF98
S32D0000E12080BD00BF00700440B4190020B0190020B819002000D00340681A0020AC190020981D002080B500AF07
S32D0000E148FEF7FDF800BF80BD80B500AFFEF7F7F800BF80BD80B500AFFEF7F1F800BF80BD80B500AFFEF7EBF885
S32D0000E17000BF80BD80B500AFFEF7E5F800BF80BD80B500AFFEF7DFF800BF80BD80B500AFFEF7D9F800BF80BD81
S32D0000E19880B500AFFEF7D3F800BF80BD80B500AFFEF7CDF800BF80BD80B500AFFEF7C7F800BF80BD80B500AFA7
S32D0000E1C0FEF7C1F800BF80BD80B500AFFEF7BBF800BF80BD80B500AFFEF7B5F800BF80BD80B500AFFEF7AFF8FD
S32D0000E1E800BF80BD80B500AFFEF7A9F800BF80BD80B500AFFEF7A3F800BF80BD80B500AFFEF79DF800BF80BDBD
S32D0000E21080B500AFFEF797F800BF80BD80B500AFFEF791F800BF80BD80B500AFFEF78BF800BF80BD80B500AFE2
S32D0000E238FEF785F800BF80BD80B500AFFEF77FF800BF80BD80B500AFFEF779F800BF80BD80B500AFFEF773F874
S32D0000E26000BF80BD80B500AFFEF76DF800BF80BD80B500AFFEF767F800BF80BD80B500AFFEF761F800BF80BDF8
S32D0000E28880B500AFFEF75BF800BF80BD80B500AFFEF755F800BF80BD80B500AFFEF74FF800BF80BD80B500AF1E
S32D0000E2B0FEF749F800BF80BD80B500AFFEF743F800BF80BD80B500AFFEF73DF800BF80BD80B500AFFEF737F8EC
S32D0000E2D800BF80BD80B500AFFEF731F800BF80BD80B500AFFEF72BF800BF80BD80B500AFFEF725F800BF80BD34
S32D0000E30080B500AFFEF71FF800BF80BD80B500AFFEF719F800BF80BD80B500AFFEF713F800BF80BD80B500AF59
S32D0000E328FEF70DF800BF80BD80B500AFFEF707F800BF80BD80B500AFFEF701F800BF80BD80B500AFFDF7FBFF5D
S32D0000E35000BF80BD80B500AFFDF7F5FF00BF80BD80B500AFFDF7EFFF00BF80BD80B500AFFDF7E9FF00BF80BD5D
S32D0000E37880B500AFFDF7E3FF00BF80BD80B500AFFDF7DDFF00BF80BD80B500AFFDF7D7FF00BF80BD80B500AF83
S32D0000E3A0FDF7D1FF00BF80BD80B500AFFDF7CBFF00BF80BD80B500AFFDF7C5FF00BF80BD80B500AFFDF7BFFFC3
S32D0000E3C800BF80BD80B500AFFDF7B9FF00BF80BD80B500AFFDF7B3FF00BF80BD80B500AFFDF7ADFF00BF80BD99
S32D0000E3F080B500AFFDF7A7FF00BF80BD80B500AFFDF7A1FF00BF80BD80B500AFFDF79BFF00BF80BD80B500AFBF
S32D0000E418FDF795FF00BF80BD80B500AFFDF78FFF00BF80BD80B500AFFDF789FF00BF80BD80B500AFFDF783FF3A
S32D0000E44000BF80BD80B500AFFDF77DFF00BF80BD80B500AFFDF777FF00BF80BD80B500AFFDF771FF00BF80BDD4
S32D0000E46880B500AFFDF76BFF00BF80BD80B500AFFDF765FF00BF80BD80B500AFFDF75FFF00BF80BD80B500AFFA
S32D0000E490FDF759FF00BF80BD80B500AFFDF753FF00BF80BD80B500AFFDF74DFF00BF80BD80B500AFFDF747FFB2
S32D0000E4B800BF80BD80B500AFFDF741FF00BF80BD80B500AFFDF73BFF00BF80BD80B500AFFDF735FF00BF80BD10
S32D0000E4E080B500AFFDF72FFF00BF80BD80B500AFFDF729FF00BF80BD80B500AFFDF723FF00BF80BD80B500AF36
S32D0000E508FDF71DFF00BF80BD80B500AFFDF717FF00BF80BD80B500AFFDF711FF00BF80BD80B500AFFDF70BFF29
S32D0000E53000BF80BD80B500AFFDF705FF00BF80BD80B500AFFDF7FFFE00BF80BD80B500AFFDF7F9FE00BF80BD4D
S32D0000E55880B500AFFDF7F3FE00BF80BDFFFFFFFF80B584B000AFF8600B467A60FB72FB68FA7A1A71FB680022E5
S32D0000E5805A711749786811F035FD0346002B02D0134B7B600AE04FF07E51786811F016FD0346002B02D04FF03F
S32D0000E5A87E537B60786810F0CDFE09A3D3E9002310F020FF02460B461046194611F0FCF90246FB681A60FB6878
S32D0000E5D018461037BD4680BDABAAAAAAAAAA20400000404180B582B000AF78607B685B79002B09D07B680022AC
S32D0000E5F85A717B6819791E230022034804F06AFA00BF0837BD4680BDAC19002080B584B000AF786039603B6860
S32D0000E6207F2B02DD7F23FB7308E03B6813F1800F02DA8023FB7301E03B68FB737B685B79FA7B9A4209D07B6872
S32D0000E648FA7B5A717B681979FA7B1E23034804F041FA00BF1037BD4680BD00BFAC190020B0B584B000AF7860B5
S32D0000E67039603749386811F09FFC0346002B02D0334B3B6008E03349386811F0B3FC0346002B01D02F4B3B60BA
S32D0000E698386810F057FE04460D467B681B68184610F050FE4FF00002294B10F0CDFF02460B462046294610F0C1
S32D0000E6C09DFE02460B461046194611F079F903463B604FF00001386811F082FC0346002B10D0386810F032FE69
S32D0000E6E817A3D3E9002310F085FE02460B461046194611F019F90346FB6018E0386810F021FE4FF00002134B8D
S32D0000E71010F074FE02460B46104619464FF000020D4B10F095FF02460B461046194611F0FFF80346FB60F968A3
S32D0000E7387868FFF76BFF00BF1037BD46B0BD00BF52B81E85EB51F43F0000C8C20000C842000059400000604055
S32D0000E76080B483B000AF03460A46FB711346BB71BB79002B03D1134B00221A7002E0114B01221A703823FB71FC
S32D0000E7880E4B1A78FB791343FB710D4B9B78DBB20B4A43F01003DBB29370094B9B78DBB2074A43F02003DBB2F7
S32D0000E7B09370054AFB79137100BF0C37BD4680BC704700BF7D1700200060064080B483B000AF01237B607B68E8
S32D0000E7D8312B04DC00BF7B6801337B60F7E700BF0C37BD4680BC704780B582B000AF03460A46FB711346BB71B0
S32D0000E800134B1B7800211846FFF7AAFF00F024F8104AFB79137100F01FF80E4ABB79137100F01AF80B4B9B78FB
S32D0000E828DBB20A4A23F02003DBB29370074B9B78DBB2064A23F01003DBB29370FFF7C2FF00BF0837BD4680BD2E
S32D0000E8507E1700200060064080B483B000AF174B1B78002B24D100237B60154BDB78DBB203F00203002B0CBFE8
S32D0000E87801230023DBB2002B0DD07B6842F21072934203DD0B4B01221A7004E07B6801337B6000BFE5E7084B91
S32D0000E8A0DB78DBB2064A43F00203DBB2D37000E000BF0C37BD4680BC704700BF7F1700200060064080B582B0B8
S32D0000E8C800AF0346FB71FB79184600F05FF800BF0837BD4680BD80B582B000AF03460A46FB711346BB7100F0D7
S32D0000E8F035F8FB795B00DBB21846FFF7E3FFBB791846FFF7DFFF00F037F800BF0837BD4680BD80B500AFFF2075
S32D0000E91800F03CF80346184680BD80B584B000AF0346FB7100F016F8FB795B005BB243F001035BB2DBB21846F3
S32D0000E940FFF7C0FFFFF7E5FF0346FB7300F014F8FB7B18461037BD4680BDFFFF80B400AF044B9B68034A43F455
S32D0000E9688013936000BFBD4680BC704740F00F4080B400AF044B5B68034A43F48013536000BFBD4680BC704753
S32D0000E99040F00F4080B485B000AF0346FB710023BB73164BDB6A03F00043012B0CBF01230023DBB2002B03D017
S32D0000E9B8FB7B0133FB73F0E70E4BDB6A0D4A43F00043D3620B4AFB7953630A4BDB6A03F40033002B0CBF012345
S32D0000E9E00023DBB2002B00D0F3E7044B9B6BBB73BB7B18461437BD4680BC704700C00A4080B582B000AF204BA1
S32D0000EA0803F580531B6B1E4A43F4805302F5805213631C4B4FF480721A651B4B5B691A4A43F480135361FFF7C1
S32D0000EA30A3FF164B4FF400725A65144B4FF400729A65124B4FF40072DA65124B124A1A60104B124ADA60002396
S32D0000EA587B607B68092B06DCFF20FFF72FFF7B6801337B60F5E704A1D1E9000104F0E0F800BF0837BD4680BD41
S32D0000EA809A9999999999B93F0070044000A0044040F00F4000C00A40000C00800500003E90B486B000AFF86068
S32D0000EAA8B9607A60FB68534A93420AD1524B03F580535B6B504A43F4806302F58052536345E0FB684D4A934248
S32D0000EAD00AD14B4B03F580535B6B494A43F4006302F58052536336E0FB68474A93420AD1434B03F580535B6B91
S32D0000EAF8414A43F4805302F58052536327E0FB68404A93420AD13C4B03F580535B6B3A4A43F4005302F5805249
S32D0000EB20536318E0FB683A4A93420AD1344B03F580539B6A324A43F4806302F58052936209E02F4B03F58053B1
S32D0000EB489B6A2D4A43F4006302F580529362FB68DB78DBB223F00C03DAB2FB68DA70FB6800229A70BB684FF438
S32D0000EB707A7203FB02F27B681B0192FBF3F39CB2FB681B78DBB223F01F03FB75230A9BB2DBB203F01F03DAB209
S32D0000EB98FB7D1343DAB2FB681A70E2B2FB685A70BB684FF4FA4203FB02F27B681B0192FBF3F39AB263019BB244
S32D0000EBC0D31A9CB2FB689B7ADBB223F01F03FB75E3B203F01F03DAB2FB7D1343DAB2FB689A72FB68DB78DBB200
S32D0000EBE843F00C03DAB2FB68DA7000BF1837BD4690BC704700A006400070044000B0064000C0064000D00640C4
S32D0000EC1000A00E4080B483B000AF78607B681B79DBB203F02003002B0CBF01230023DBB2002B00D0F2E77B685F
S32D0000EC38DB79DBB218460C37BD4680BC704780B483B000AF78600B46FB707B681B79DBB25BB2DB43DBB2DB09EC
S32D0000EC60DBB2002B00D0F4E77B68FA78DA7100BF0C37BD4680BC704780B487B000AFF860B9607A60FB687B61E7
S32D0000EC88BB683B617B685A1E7A60002B14BF01230023DBB2002B08D03A69531C3B617B69591C796112781A70A0
S32D0000ECB0ECE700BF1C37BD4680BC704780B487B000AFF860B9607A60FB687B617B685A1E7A60002B14BF012360
S32D0000ECD80023DBB2002B06D07B695A1C7A61BA68D2B21A70EEE700BF1C37BD4680BC704780B489B000AFF860A7
S32D0000ED00B9607A60FB68FB61BB68BB6100237B617B685A1E7A60002B0FD0FB695A1CFA611B781946BB695A1CF5
S32D0000ED28BA611B78CB1A7B617B69002B01D1012300E00023002B00D0E6E77B6918462437BD4680BC704780B4B7
S32D0000ED5083B000AF786039607B681B78002B09D07B681B781A463B68934203D07B6801337B60F1E77B681B7867
S32D0000ED7818460C37BD4680BC704780B584B000AF786039607B681B6BFB60FA683B689A4252D07B681B79002BE4
S32D0000EDA035D07B6858787B6803F134010123FA6803F096FC0346002B14BF01230023DBB2002B01D001233CE01F
S32D0000EDC87B6800221A717B685A6A7B681B6A1344FA689A4217D27B68DB78FB72FB7A012B11D97B681B6AFA6808
S32D0000EDF01344FB607B6858787B6803F134010123FA6803F06DFCFB7A013BFB72EAE73B68002B15D07B6858784D
S32D0000EE187B6803F1340101233A6803F079FB0346002B14BF01230023DBB2002B01D0012303E07B683A681A6373
S32D0000EE40002318461037BD4680BD80B584B000AF786000217868FFF794FF0346FB73FB7B002B40F093807B68A4
S32D0000EE681B78032B7DD17B685B79002B79D07B6800221A637B6834334FF4007200211846FFF718FF7B685522DB
S32D0000EE9083F832227B68AA2283F833227B68522283F834207B68522283F835207B68612283F836207B6841223C
S32D0000EEB883F837207B68722283F818227B68722283F819227B68412283F81A227B68612283F81B227B681B697F
S32D0000EEE0DAB27B6883F81C227B681B699BB21B0A9BB2DAB27B6883F81D227B681B691B0CDAB27B6883F81E22D5
S32D0000EF087B681B691B0EDAB27B6883F81F227B68DB68DAB27B6883F820227B68DB689BB21B0A9BB2DAB27B687A
S32D0000EF3083F821227B68DB681B0CDAB27B6883F822227B68DB681B0EDAB27B6883F823227B6858787B6803F172
S32D0000EF5834017B685A69012303F0BEFB7B6800225A717B685B7800220021184603F080FC0346002B14BF0123DF
S32D0000EF800023DBB2002B01D00123FB73FB7B18461037BD4680BD80B483B000AF786039603B68023B3B607B68E5
S32D0000EFA8DB69023B3A689A4201D3002308E07B689B781A463B6803FB02F27B68DB6A134418460C37BD4680BC13
S32D0000EFD0704780B586B000AF786039603B68012B04D97B68DB693A689A4201D30123B5E07B681B78032B7AD005
S32D0000EFF8032B00F3AD80012B02D0022B4DD0A7E03B683B613B695B083A6913443B617B685A6A3B695B0A1344EB
S32D0000F02019467868FFF7ADFE0346002B14BF01230023DBB2002B40F088803B69C3F308037A68134493F83430D7
S32D0000F048FB603B6901333B617B685A6A3B695B0A134419467868FFF790FE0346002B14BF01230023DBB2002BBB
S32D0000F0706DD13B69C3F308037A68134493F834301B021A46FB681343FB603B6803F00103002B02D0FB681B09F8
S32D0000F09860E0FB68C3F30B035CE07B685A6A3B681B0A134419467868FFF767FE0346002B14BF01230023DBB22C
S32D0000F0C0002B46D13B685B0003F4FF7330337A68134404337B617B6901331B781B021AB27B691B781BB213439C
S32D0000F0E81BB29BB236E07B685A6A3B68DB09134419467868FFF741FE0346002B14BF01230023DBB2002B22D198
S32D0000F1103B689B0003F4FE7330337A68134404337B617B6903331B781A067B6902331B781B0413437A69013278
S32D0000F1381278120213437A691278134323F0704308E000BF04E000BF02E000BF00E000BF4FF0FF331846183784
S32D0000F160BD4680BD80B588B000AFF860B9607A60BB68012B04D9FB68DB69BA689A4202D30223FB77EEE0FB686C
S32D0000F1881B78032B00F09780032B00F3DA80012B02D0022B6BD0D4E0BB687B617B695B087A6913447B61FB683D
S32D0000F1B05A6A7B695B0A13441946F868FFF7E1FD0346FB77FB7F002B40F0C2807B69C3F308033033FA681344A7
S32D0000F1D80433BB61BB6803F00103002B0DD0BB691B785BB203F00F035AB27B68DBB21B015BB213435BB2DBB236
S32D0000F20001E07B68DBB2BA6913707B6901337B61FB6801221A71FB685A6A7B695B0A13441946F868FFF7ADFDBE
S32D0000F2280346FB77FB7F002B40F090807B69C3F308033033FA6813440433BB61BB6803F00103002B03D07B6809
S32D0000F2501B09DBB20CE0BB691B7823F00F03DAB27B681B0ADBB203F00F03DBB21343DBB2BA69137073E0FB6825
S32D0000F2785A6ABB681B0A13441946F868FFF77DFD0346FB77FB7F002B62D1BB685B0003F4FF733033FA68134440
S32D0000F2A00433BB617B68DAB2BB691A707B689BB21B0A9AB2BB690133D2B21A704FE0FB685A6ABB68DB09134415
S32D0000F2C81946F868FFF759FD0346FB77FB7F002B40D1BB689B0003F4FE733033FA6813440433BB61BB690333AD
S32D0000F2F01B781A06BB6902331B781B041343BA690132127812021343BA691278134303F070437A6813437B60D6
S32D0000F3187B68DAB2BB691A707B689BB21B0A9AB2BB690133D2B21A707B681A0CBB690233D2B21A707B681A0E28
S32D0000F340BB690333D2B21A7009E00223FB7706E000BF04E000BF02E000BF00E000BFFB6801221A71FB7F184646
S32D0000F3682037BD4680BD80B584B000AF786039603B68012B04D97B68DB693A689A4202D30223FB7338E0002363
S32D0000F390FB737B68DB693A689A4231D239687868FFF717FEB860BB68002B26D0BB68012B02D10223FB7323E099
S32D0000F3B8BB68B3F1FF3F02D10123FB731CE0002239687868FFF7CAFE0346FB73FB7B002B11D17B681B69B3F11B
S32D0000F3E0FF3F07D07B681B695A1C7B681A617B6801225A71BB683B60CBE700BF00E000BFFB7B18461037BD46F2
S32D0000F40880BD80B586B000AF786039603B68002B0DD17B68DB683B613B69002B04D07B68DB693A699A4215D36F
S32D0000F43001233B6112E039687868FFF7CAFDB860BB68012B01D8012364E07B68DB69BA689A4201D2BB685DE0BE
S32D0000F4583B683B613B697B617B6901337B617B68DB697A699A4207D302237B617A693B699A4201D9002349E089
S32D0000F48079697868FFF7A5FDB860BB68002B0ED0BB68B3F1FF3F02D0BB68012B01D1BB6838E07A693B699A422A
S32D0000F4A8DAD1002332E000BF6FF0704279697868FFF754FE0346FB73FB7B002B09D13B68002B06D07A69396822
S32D0000F4D07868FFF747FE0346FB73FB7B002B10D17B687A69DA607B681B69B3F1FF3F10D07B681B695A1E7B68CF
S32D0000F4F81A617B6801225A7107E0FB7B012B02D14FF0FF3300E001237B617B6918461837BD4680BD80B487B0B1
S32D0000F52000AF786039607B685B6A04333B613B685B0A7A6812689278B3FBF2F37B613B691A1D3A611B68FB60F1
S32D0000F548FB68002B01D1002310E07A69FB689A4207D37A69FB68D31A7B613B6904333B61E9E700BF3B691A68EB
S32D0000F5707B69134418461C37BD4680BC704780B584B000AF78600B467B807B687A88DA807B689B68FB60FB686C
S32D0000F598012B05D07B681B68DB69FA689A4201D3022364E0FB68002B08D17B681B681B78032B03D17B681B6857
S32D0000F5C09B6AFB60FB68002B13D17B68FA68DA607B681B681B897A889A4201D302234AE07B681B689A6A7B8854
S32D0000F5E81B091A447B681A6135E07B681B689B789BB21B017B817A887B899A421CD37B681B68F9681846FFF736
S32D0000F610E0FCF860FB68B3F1FF3F01D101232AE0FB68012B05D97B681B68DB69FA689A4201D302231FE07A8804
S32D0000F6387B89D31A7B80DEE77B68FA68DA607B681B68F9681846FFF7A2FC02467B881B091A447B681A617B68AD
S32D0000F6601B6803F134027B8803F00F035B011A447B685A61002318461037BD4680BD90B585B000AF78603960CD
S32D0000F6887B68DB8801333B813B89002B03D07B681B69002B01D10423C4E03B8903F00F03002B40F0B0807B68F6
S32D0000F6B01B695A1C7B681A617B68DB68002B08D17B681B681B893A899A42C0F0A0800423ACE03B891B097A68B4
S32D0000F6D812689278013A1340002B40F094807B681A687B68DB6819461046FFF76EFCF860FB68012B01D80223FE
S32D0000F70094E0FB68B3F1FF3F01D101238EE07B681B68DB69FA689A426DD33B68002B01D1042383E07B681A6807
S32D0000F7287B68DB6819461046FFF76BFEF860FB68002B01D1072375E0FB68012B01D1022370E0FB68B3F1FF3F27
S32D0000F75001D101236AE07B681B6800211846FFF710FB0346002B14BF01230023DBB2002B01D001235AE07B680D
S32D0000F7781B6834334FF4007200211846FFF79AFA7B681A687B681C68F9681046FFF7FFFB034623630023FB72E9
S32D0000F7A07B681B689B78FA7A9A421CD27B681B6801221A717B681B6800211846FFF7E1FA0346002B14BF01234F
S32D0000F7C80023DBB2002B01D001232BE07B681B681A6B01321A63FB7A0133FB72DCE77B681B68196BFA7A7B6883
S32D0000F7F01B688A1A1A637B68FA68DA607B681B68F9681846FFF7C7FB02467B681A617B683A89DA807B681B68DF
S32D0000F81803F134023B8903F00F035B011A447B685A61002318461437BD4690BD80B586B000AF78600021786868
S32D0000F840FFF79DFE0346FB75FB7D002B01D0FB7D3CE07B681A687B681B6919461046FFF790FA0346FB75FB7D16
S32D0000F868002B2BD17B685B693B613B691B78FB73FB7B002B02D10423FB7522E03B690B331B7803F00803002BB8
S32D0000F8900BD17B689B690B2219463869FFF72CFA0346002B01D1012300E00023002B0BD100217868FFF7E3FEF2
S32D0000F8B80346FB75FB7D002B03D1C6E700BF00E000BFFB7D18461837BD4680BD80B584B000AF78600021786891
S32D0000F8E0FFF74DFE0346FB73FB7B002B21D17B681A687B681B6919461046FFF742FA0346FB73FB7B002B13D180
S32D0000F9087B685B691B78BB73BB7BE52B0DD0BB7B002B0AD001217868FFF7ADFE0346FB73FB7B002B01D1DEE779
S32D0000F93000BFFB7B002B1FD17B681A687B681B6919461046FFF71DFA0346FB73FB7B002B12D17B685B69BB60CE
S32D0000F95820220021B868FFF7ADF97B689B690B221946B868FFF784F97B681B6801221A71FB7B18461037BD462A
S32D0000F98080BDFFFF80B588B000AF786039603B681B68FB60FB681B782F2B03D0FB681B785C2B03D1FB68013305
S32D0000F9A8FB60F3E77B689B69BB600B222021B868FFF780F90023FB7700233B613B697B610823BB61FA687B699C
S32D0000F9D013441B782E2B2FD17B695A1C7A61FA6813441B78BB77BB7F2E2B0AD17B69022B07D83B695A1C3A6100
S32D0000F9F8BA681344BA7F1A70EAE7BB7F2F2B07D0BB7F5C2B04D0BB7F202B01D90623A7E0FA687B691A443B687E
S32D0000FA201A60BB7F202B01D8242200E02022BB680B331A70002397E07B695A1C7A61FA6813441B78BB77BB7F06
S32D0000FA48202B58D9BB7F2F2B55D0BB7F5C2B52D0BB7F2E2B03D03A69BB699A420FD3BB69082B02D1BB7F2E2BD0
S32D0000FA7001D0062378E008233B610B23BB61FB7F9B00FB773AE097F91E30002B08DAFB7F43F00303FB77BB7F1A
S32D0000FA98803B354AD35CBB77BB7F19463348FFF752F90346002B14BF01230023DBB2002B01D0062354E0BB7FA2
S32D0000FAC0402B07D9BB7F5A2B04D8FB7F43F00203FB770CE0BB7F602B09D9BB7F7A2B06D8FB7F43F00103FB779B
S32D0000FAE8BB7F203BBB773B695A1C3A61BA681344BA7F1A709CE7FA687B691A443B681A60BB7F202B01D804236F
S32D0000FB1000E00023BB773B69002B01D1062323E0BB681B78E52B02D1BB6805221A70BB69082B02D1FB7F9B0019
S32D0000FB38FB77FB7F03F00303012B03D1BB7F43F01003BB77FB7F03F00C03042B03D1BB7F43F00803BB77BB68BC
S32D0000FB600B33BA7F1A70002318462037BD4680BDD4B7020054B8020080B584B000AF786039603B681B782F2BAA
S32D0000FB8803D03B681B785C2B06D13B6801333B607B6800229A6004E07B681B689A697B689A603B681B781F2BCD
S32D0000FBB009D800217868FFF7E2FC0346FB737B6800225A6169E03B4619467868FFF7DAFE0346FB73FB7B002BCB
S32D0000FBD858D17868FFF72AFE0346FB737B689B69DB7ABB73FB7B002B1DD0FB7B042B4BD1BB7B03F02003002BF1
S32D0000FC000DD07B6800229A607B6800225A610023FB73BB7B03F00403002B3BD135E0BB7B03F00403002B35D1CC
S32D0000FC280523FB7332E0BB7B03F00403002B2FD17B685B69BB60BB680B331B7803F01003002B02D10523FB735B
S32D0000FC5023E0BB6815331B781B021AB2BB6814331B781BB213431BB29BB21B04BA681B321278120211B2BA6851
S32D0000FC781A32127812B20A4312B292B21A437B689A609CE700BF04E000BF02E000BF00E000BFFB7B18461037F5
S32D0000FCA0BD4680BD80B582B000AF786039607B6858787B6803F1340101233A6802F02CFC0346002B14BF012365
S32D0000FCC80023DBB2002B01D003234AE07B6803F2322301331B781B021AB27B6893F832321BB213431BB2214A08
S32D0000FCF0934201D0022338E07B686A3303331B781A067B686A3302331B781B0413437A686A320132127812028E
S32D0000FD1813437A6892F86A20134323F07F43144A934201D100231CE07B68863303331B781A067B6886330233CC
S32D0000FD401B781B0413437A68863201321278120213437A6892F88620134323F07F43064A934201D1002300E095
S32D0000FD68012318460837BD4680BD00BF55AAFFFF4641540080B592B000AFF860B9601346FB71FB681B68FB6236
S32D0000FD90FB6A1B78303B3B643B6C092B0BD8FB6A01331B783A2B06D1FB6A0233FB62FB68FA6A1A6002E0A34B15
S32D0000FDB81B783B643B6C002B01D00B2367E2A04A3B6C52F82330BB62BB68BA6A1A60BB6A002B01D10C235AE238
S32D0000FDE0BB6A1B78002B1AD0BB6A5B78184602F0C5FD034687F8273097F8273003F00103002B0CD1FB79002B7B
S32D0000FE0807D097F8273003F00403002B01D00A233DE200233BE2BB6A00221A703B6CDAB2BB6A5A70BB6A5B78A2
S32D0000FE30184602F037F9034687F8273097F8273003F00103002B01D0032324E2FB79002B07D097F8273003F0B1
S32D0000FE580403002B01D00A2319E20023FB63F96BB86AFFF71BFF034687F8473097F84730012B22D1BB6A03F5B9
S32D0000FE80F9733B623B6A04331B78002B19D03B6A0B331B781A063B6A0A331B781B0413433A6A093212781202CB
S32D0000FEA813433A6A083212781343FB63F96BB86AFFF7F4FE034687F8473097F84730032B01D10123E3E197F890
S32D0000FED04730002B01D00D23DDE1BB6A93F840301B021AB2BB6A93F83F301BB213431BB2B3F5007F01D00D2363
S32D0000FEF8CDE1BB6A93F84B301B021AB2BB6A93F84A301BB213431BB29BB2BB63BB6B002B12D1BB6A93F85B3026
S32D0000FF201A06BB6A93F85A301B041343BA6A92F8592012021343BA6A92F858201343BB63BB6ABA6B1A62BB6ACE
S32D0000FF4893F84430FB77BB6AFA7FDA70FB7F012B04D0FB7F022B01D00D2398E1FA7FBB6B02FB03F3BB63BB6AC2
S32D0000FF7093F84130FB77BB6AFA7F9A70FB7F002B05D0FA7FFB7F013B1340002B01D00D2381E1BB6A93F846309D
S32D0000FF981B021AB2BB6A93F845301BB213431BB29AB2BB6A1A81BB6A1B8903F00F03002B01D00D236BE1BB6AC6
S32D0000FFC093F848301B021AB2BB6A93F847301BB213431BB29BB27B637B6B002B12D1BB6A93F857301A06BB6A75
S32D0000FFE893F856301B041343BA6A92F8552012021343BA6A92F8542013437B63BB6A93F843301B021AB2BB6A51
S32D0001001093F842301BB213431BB2BB83BB8B002B01D10D2337E1BA8BBB6B1A44BB6A1B891B091344BB617A6BFD
S32D00010038BB699A4206D20D2329E100BF86170020801700207A6BBB69D31ABA6A9278B3FBF2F37B617B69002BB2
S32D0001006001D10D2317E1012387F847307B6940F6F572934202D9022387F847307B694FF6F572934202D90323AB
S32D0001008887F847307B699A1CBB6ADA61FA6BBB691A44BB6ADA62BA8BFB6B1A44BB6A5A6297F84730032B1ED104
S32D000100B0BB6A1B89002B01D00D23ECE0BB6A93F863301A06BB6A93F862301B041343BA6A92F8612012021343AD
S32D000100D8BA6A92F860201A43BB6A9A62BB6ADB699B003B631FE0BB6A1B89002B01D10D23CDE0BB6A5A6ABB6BFA
S32D000101001A44BB6A9A6297F84730022B03D1BB6ADB695B000AE0BB6ADA6913465B0013445A08BB6ADB6903F06B
S32D00010128010313443B63BB6A1A6A3B6B03F2FF135B0A9A4201D20D23A9E0BB6A4FF0FF321A61BB6A0022DA60FB
S32D0001015097F84730032B40F08680BB6A00225A71BB6A93F865301B021AB2BB6A93F864301BB213431BB29BB255
S32D000101781A46FB6B1A44BB6A5A61BB6A5878BB6A03F13401BB6A5A69012302F0C1F90346002B39D1BB6A93F82B
S32D000101A033321B021AB2BB6A93F832321BB213431BB23B4A93422BD1BB6A93F837301A06BB6A93F836301B041C
S32D000101C81343BA6A92F8352012021343BA6A92F834201343314A934216D1BB6A93F81B321A06BB6A93F81A329D
S32D000101F01B041343BA6A92F8192212021343BA6A92F818221343284A934201D1012300E00023002B27D0BB6A53
S32D0001021893F823321A06BB6A93F822321B041343BA6A92F8212212021343BA6A92F820221A43BB6ADA60BB6A12
S32D0001024093F81F321A06BB6A93F81E321B041343BA6A92F81D2212021343BA6A92F81C221A43BB6A1A61BB6AB9
S32D0001026897F847201A700F4B1B8801339AB20D4B1A800C4B1A88BB6ADA80BB6A00221A63BB6A00221A71BB6A45
S32D0001029000229A61002318464837BD4680BD00BF55AAFFFF52526141727241618417002080B582B000AF7860B1
S32D000102B80B467B807B68002B08D07B681B78002B04D07B68DB887A889A4201D0092311E07B685B78184602F058
S32D000102E04DFB034603F00103002B14BF01230023DBB2002B01D0032300E0002318460837BD4680BD80B485B02A
S32D0001030800AF03463960FB71FB79002B01D00B2316E0FB790D4A52F82330FB60FB68002B02D0FB6800221A7003
S32D000103303B68002B02D03B6800221A70FB7905493A6841F82320002318461437BD4680BC704700BF8017002097
S32D0001035880B592B000AFF860B9601346FB71FB6800221A60FB7903F01F03FB71FB7923F00103DAB207F11C01FA
S32D0001038007F108031846FFF7F9FC034687F8473007F110037B6397F84730002B09D1BA6807F11C0311461846E1
S32D000103A8FFF7E6FB034687F847303B6B3B6497F84730002B05D13B6C002B02D1062387F84730FB7903F01C037A
S32D000103D0002B00F0B18097F84730002B12D097F84730042B07D107F11C031846FFF772FA034687F84730FB7908
S32D000103F843F00803FB713B6B3B6412E03B6C0B331B7803F01103002B03D0072387F8473007E0FB7903F0040303
S32D00010420002B02D0082387F8473097F84730002B40F0A080FB7903F00803002B00F09A800023FB633B6C0E33FE
S32D00010448FA6BD2B21A70FB6B9BB21B0A9AB23B6C0F33D2B21A70FB6B1A0C3B6C1033D2B21A70FB6B1A0E3B6C3E
S32D000104701133D2B21A703B6C0B3300221A703B6C1C3300221A703B6C1D3300221A703B6C1E3300221A703B6CEA
S32D000104981F3300221A703B6C15331B781B021AB23B6C14331B781BB213431BB29BB21B043A6C1B32127812025E
S32D000104C011B23A6C1A32127812B20A4312B292B21343BB633B6C1A3300221A703B6C1B3300221A703B6C143312
S32D000104E800221A703B6C153300221A70FB6901221A71BB6B002B39D0FB691B6BFB63FB69B96B1846FEF72FFFE1
S32D00010510034687F8473097F84730002B2AD1FB69BA6B013ADA60FB69F96B1846FEF729FC034687F847301DE0D7
S32D0001053897F84730002B19D13B6C0B331B7803F01003002B03D0042387F847300EE0FB7903F00203002B09D082
S32D000105603B6C0B331B7803F00103002B02D0072387F8473097F84730002B0FD1FB7903F00803002B03D0FB79EB
S32D0001058843F02003FB71FB691A6BFB68DA61FB683A6C1A6297F84730002B42D1FB68FA799A713B6C15331B78CF
S32D000105B01B021AB23B6C14331B781BB213431BB29BB21B043A6C1B321278120211B23A6C1A32127812B20A4375
S32D000105D812B292B21A43FB681A613B6C1F331B781A063B6C1E331B781B0413433A6C1D321278120213433A6C76
S32D000106001C3212781A43FB68DA60FB6800229A60FB6800229A61FB6800225A62FA69FB681A60FB69DA88FB6850
S32D000106289A8097F8473018464837BD4680BD80B58CB000AFF860B9607A603B60BB683B623B6800221A60FB68FE
S32D000106501A68FB689B8819461046FFF729FE0346FB77FB7F002B01D0FB7F4EE1FB689B795BB2002B01DA022318
S32D0001067847E1FB689B7903F00103002B01D107233FE1FB68DA68FB689B68D31ABB617A68BB699A4201D9BB6982
S32D000106A07B607B68002B00F02F81FB689B68C3F30803002B40F0FA80FB689B685B0ADAB2FB681B689B78013B1A
S32D000106C8DBB21340FB75FB7D002B38D1FB689B68002B03D1FB681B69FB6214E0FB685B6A002B07D0FB689B68DA
S32D000106F01946F868FEF712FFF86208E0FB681A68FB685B6919461046FEF763FCF862FB6A012B08D8FB689B797D
S32D0001071863F07F03DAB2FB689A710223F1E0FB6AB3F1FF3F08D1FB689B7963F07F03DAB2FB689A710123E4E09F
S32D00010740FB68FA6A5A61FB681A68FB685B6919461046FEF720FC38613B69002B08D1FB689B7963F07F03DAB21D
S32D00010768FB689A710223CCE0FB7D3A6913443B617B685B0A7B627B6A002B47D0FA7D7B6A1344FA681268927830
S32D00010790934206D9FB681B689B781A46FB7DD31A7B62FB681B6858787B6ADBB23A69396A01F0B2FE0346002B68
S32D000107B814BF01230023DBB2002B08D0FB689B7963F07F03DAB2FB689A71012399E0FB689B7903F04003002BAD
S32D000107E014D0FB689A693B69D31A7A6A9A420DD9FB689A693B69D31A5B023A6AD018FB6828334FF400721946B7
S32D00010808FEF736FA7B6A5B02BB6264E0FB689B693A699A4243D0FB689B7903F04003002B22D0FB681B68587880
S32D00010830FB6803F12801FB689A69012301F050FF0346002B14BF01230023DBB2002B08D0FB689B7963F07F03E5
S32D00010858DAB2FB689A71012353E0FB689B7923F04003DAB2FB689A71FB681B685878FB6803F1280101233A695C
S32D0001088001F04AFE0346002B14BF01230023DBB2002B08D0FB689B7963F07F03DAB2FB689A71012331E0FB6814
S32D000108A83A699A61FB689B68C3F30803C3F50073BB62BA6A7B689A4201D97B68BB62FB689B68C3F308032833D5
S32D000108D0FA681344BA6A1946386AFEF7CDF93A6ABB6A13443B62FB689A68BB6A1A44FB689A603B681A68BB6A14
S32D000108F81A443B681A607A68BB6AD31A7B60CCE6002318463037BD4680BD80B58AB000AFF860B9607A603B60A9
S32D00010920BB68BB613B6800221A60FB681A68FB689B8819461046FFF7BBFC0346FB75FB7D002B01D0FB7D7EE159
S32D00010948FB689B795BB2002B01DA022377E1FB689B7903F00203002B01D107236FE1FB68DA687B681A44FB684A
S32D00010970DB689A4201D200237B607B68002B00F05081FB689B68C3F30803002B40F01381FB689B685B0ADAB22C
S32D00010998FB681B689B78013BDBB21340BB75BB7D002B49D1FB689B68002B10D1FB681B697B627B6A002B1FD138
S32D000109C0FB681B6800211846FEF71FFD7862FB687A6A1A6114E0FB685B6A002B07D0FB689B681946F868FEF7BE
S32D000109E899FD786208E0FB681A68FB685B6919461046FEF706FD78627B6A002B00F00C817B6A012B08D1FB681B
S32D00010A109B7963F07F03DAB2FB689A71022312E17B6AB3F1FF3F08D1FB689B7963F07F03DAB2FB689A710123B2
S32D00010A3805E1FB687A6A5A61FB689B7903F04003002B22D0FB681B685878FB6803F12801FB689A69012301F02C
S32D00010A603FFE0346002B14BF01230023DBB2002B08D0FB689B7963F07F03DAB2FB689A710123E0E0FB689B796B
S32D00010A8823F04003DAB2FB689A71FB681A68FB685B6919461046FEF77AFA38613B69002B08D1FB689B7963F0BA
S32D00010AB07F03DAB2FB689A710223C4E0BB7D3A6913443B617B685B0AFB61FB69002B49D0BA7DFB691344FA6864
S32D00010AD812689278934206D9FB681B689B781A46BB7DD31AFB61FB681B685878FB69DBB23A69B96901F0F0FD93
S32D00010B000346002B14BF01230023DBB2002B08D0FB689B7963F07F03DAB2FB689A71012391E0FB689A693B69C3
S32D00010B28D31AFA699A4215D9FB6803F12800FB689A693B69D31A5B02BA6913444FF400721946FEF795F8FB683E
S32D00010B509B7923F04003DAB2FB689A71FB695B023B6248E0FB689B693A699A4220D0FB689A68FB68DB689A42CF
S32D00010B780ED2FB681B685878FB6803F1280101233A6901F0C5FC0346002B01D0012300E00023002B08D0FB68ED
S32D00010BA09B7963F07F03DAB2FB689A7101234AE0FB683A699A61FB689B68C3F30803C3F500733B623A6A7B687E
S32D00010BC89A4201D97B683B62FB689B68C3F308032833FA6813443A6AB9691846FEF748F8FB689B7943F0400347
S32D00010BF0DAB2FB689A71BA693B6A1344BB61FB689A683B6A1A44FB689A603B681A683B6A1A443B681A607A68B5
S32D00010C183B6AD31A7B60ACE600BFFB689A68FB68DB689A4203D9FB689A68FB68DA60FB689B7943F02003DAB2D1
S32D00010C40FB689A71002318462837BD4680BD80B586B000AF78607B681A687B689B8819461046FFF725FB034686
S32D00010C68FB75FB7D002B40F0AC807B689B7903F02003002B00F0A5807B689B7903F04003002B1BD07B681B68F8
S32D00010C9058787B6803F128017B689A69012301F01FFD0346002B14BF01230023DBB2002B01D001238AE07B68C6
S32D00010CB89B7923F04003DAB27B689A717B681A687B68DB6919461046FEF757F80346FB75FB7D002B75D17B681F
S32D00010CE01B6A3B613B690B331A783B690B3342F02002D2B21A707B68DA683B691C33D2B21A707B68DB689BB273
S32D00010D081B0A9AB23B691D33D2B21A707B68DB681A0C3B691E33D2B21A707B68DB681A0E3B691F33D2B21A70A8
S32D00010D307B681A693B691A33D2B21A707B681B699BB21B0A9AB23B691B33D2B21A707B681B691A0C3B69143392
S32D00010D58D2B21A707B681B691B0C9BB21B0A9AB23B691533D2B21A700023FB603B691633FA68D2B21A70FB68DA
S32D00010D809BB21B0A9AB23B691733D2B21A70FB681A0C3B691833D2B21A70FB681A0E3B691933D2B21A707B6898
S32D00010DA89B7923F02003DAB27B689A717B681B6801221A717B681B681846FEF742F80346FB75FB7D1846183773
S32D00010DD0BD4680BD80B584B000AF78607868FFF736FF0346FB73FB7B002B02D17B6800221A60FB7B18461037F4
S32D00010DF8BD4680BD80B588B000AFF860B9607A600023FB61FB68BB61BB68013BFA699A421BDA07F1100307F191
S32D00010E20140101227868FFF706FC3B69012B0DD13B7DFB75BB695A1CBA61FA7D1A70FB690133FB61FB7D0A2B66
S32D00010E4802D0E1E700BF00E000BFBB6900221A70FB69002B01D0FB6800E0002318462037BD4680BD80B586B08D
S32D00010E7000AF03463960FB71FB793B7301237B6107F1100307F10C017A693868FFF741FD3B697A699A4201D138
S32D00010E98012301E04FF0FF3318461837BD4680BD80B584B000AF786039600023FB607B681B78002B18D07B6855
S32D00010EC01B7839681846FFF7D1FF0346B3F1FF3F0CBF01230023DBB2002B02D04FF0FF3307E07B6801337B609A
S32D00010EE8FB680133FB60E2E7FB6818461037BD4680BD80B485B000AF786039600123FB600023BB600023BB6054
S32D00010F10BA683B689A4208DAFB687A6802FB03F3FB60BB680133BB60F2E7FB6818461437BD4680BC7047FFFF51
S32D00010F38B0B59AB000AF78613961FA600023BB64BB6C7B647B6CB3F1FF3F00F0F3823B695A1C3A611B7887F822
S32D00010F604F3097F84F30002B00F0E58297F84F30252B0ED097F84F3079691846FFF776FF78647B6CB3F1FF3FB9
S32D00010F8800F0CB8201237B64C7E2002387F867300023BB653B695A1C3A611B7887F84F3097F84F30302B09D14C
S32D00010FB0012387F867303B695A1C3A611B7887F84F300CE097F84F302D2B08D1022387F867303B695A1C3A6177
S32D00010FD81B7887F84F3097F84F302E2B05D13B695A1C3A611B7887F84F3097F84F302F2B15D997F84F30392B0E
S32D0001100011D8BA6D13469B0013445B001A4697F84F301344303BBB653B695A1C3A611B7887F84F30E5E797F81A
S32D000110284F306C2B03D097F84F304C2B0BD197F8673043F0040387F867303B695A1C3A611B7887F84F3097F804
S32D000110504F30002B00F0718297F84F3087F84E3097F84E30602B08D997F84E307A2B04D897F84E30203B87F8EB
S32D000110784E3097F84E30423B162B00F2788101A252F823F05713010041130100671301007713010091110100AC
S32D000110A077130100771301007713010077130100771301007713010077130100771301005F13010077130100CB
S32D000110C87713010077130100E9100100771301006713010077130100771301006F130100FB681A1DFA601B68D3
S32D000110F0FB620023FB65FA6AFB6D13441B78002B03D0FB6D0133FB65F5E70023BB6497F8673003F00203002BDA
S32D0001111807D1FB6D5A1CFA65BA6D9A4201D9012300E00023002B09D079692020FFF79AFE78647B6CBA6C13449B
S32D00011140BB64E4E77969F86AFFF7AEFE78647B6CBA6C1344BB64FB6D5A1CFA65BA6D9A428CBF01230023DBB2F2
S32D00011168002B09D079692020FFF77CFE78647B6CBA6C1344BB64EAE77B6CB3F1FF3F00F0CE81BB6C7B64CAE1D9
S32D00011190FB68073323F0070303F10802FA60D3E90023C7E90E23D7E90E23C7E90C2300237B654FF000024FF00B
S32D000111B80003D7E90E010EF08FFB0346002B18D079692D20FFF74EFE78647B6CBA6C1344BB64BC6BFB6B83F082
S32D000111E00045C7E90E453B6B3B607B6B83F000437B60D7E90023C7E90C23D7E90C010EF097FB0346002B0ED06F
S32D000112084FF00002AA4BD7E90C010EF01DFA02460B46C7E90C237B6D01337B65E9E77B6D013BFB65FB6DB3F1CB
S32D00011230FF3F35D0FB6D19460A20FFF75EFE034618460EF071F802460B46D7E90E010EF0FFF902460B461046AE
S32D0001125819460EF069FB0346BB62BA6A954B83FB02139910D317C91A0B469B000B445B00D31ABB62BB6A30330B
S32D00011280BB62BB6ADBB279691846FFF7EFFD78647B6CBA6C1344BB64FB6D013BFB65C5E779692E20FFF7E2FD3A
S32D000112A878647B6CBA6C1344BB64BB6D002B01D10323BB6501233B663A6EBB6D9A4233D83B6E19460A20FFF7A9
S32D000112D014FE034618460EF027F8D7E90E230EF08DF802460B46104619460EF021FB0346BB62BA6A714B83FB79
S32D000112F802139910D317C91A0B469B000B445B00D31ABB62BB6A3033BB62BB6ADBB279691846FFF7A7FD78648F
S32D000113207B6CBA6C1344BB643B6E01333B66C7E77B6CB3F1FF3F00F0F880BB6C7B64F4E0FB681A1DFA601B686D
S32D00011348DBB279691846FFF78DFD7864EAE0022387F8663013E0082387F866300FE00A2387F866300BE01023C7
S32D0001137087F8663007E097F84F3079691846FFF775FD7864D2E097F8673003F00403002B04D0FB681A1DFA60FB
S32D000113981B680CE097F84E30442B04D1FB681A1DFA601B6803E0FB681A1DFA601B683B6597F84E30442B0BD19D
S32D000113C03B6D002B08DA3B6D5B423B6597F8673043F0080387F8673000233B6697F866203B6DB3FBF2F101FBDC
S32D000113E802F29B1A87F84E3097F866303A6DB2FBF3F33B6597F84E30092B0BD997F84F30782B01D1272200E060
S32D00011410072297F84E30134487F84E303B6E5A1C3A6697F84E203032D2B207F168010B4403F8502C3B6D002B87
S32D0001143803D03B6E0F2B00D8CCE797F8673003F00803002B08D03B6E5A1C3A6607F1680213442D2203F8502CDF
S32D000114603B6EFB6597F8673003F00103002B01D0302300E0202387F84E300023BB6497F8673003F00203002B3D
S32D0001148807D1FB6D5A1CFA65BA6D9A4201D9012300E00023002B0FD097F84E3079691846FFF7E0FC78647B6C30
S32D000114B0BA6C1344BB64E2E700002440676666663B6E013B3B6607F118023B6E13441B7879691846FFF7CAFC84
S32D000114D878647B6CBA6C1344BB643B6E002B00D0EAE7FB6D5A1CFA65BA6D9A428CBF01230023DBB2002B09D0AE
S32D0001150079692020FFF7B2FC78647B6CBA6C1344BB64EAE77B6CB3F1FF3F07D0BB6C7B6404E000BF02E000BFDC
S32D0001152800E000BFBA6C7B6C1344BB640AE500BF00E000BF7B6CB3F1FF3F01D17B6C00E0BB6C18466837BD469C
S32D00011550B0BD00BF80B588B000AF7860396080233B610F23FB604FF0FF337B610223FB61FB69B3F5807F23D813
S32D000115780123BB61BB69102B1AD8FB69BA6902FB03F33A6803FB02F27B68D31ABB60BB68002B09DBBB687A6982
S32D000115A09A4205D9BB687B61FB693B61BB69FB60BB690133BB61E1E7FB695B00FB61D7E71D4BDB6A1C4A23F0A9
S32D000115C80803D3621A4BDB6A23F47F2323F47F63BB613B695B081B029AB2FB68013B1B01DBB21A43BB691343AD
S32D000115F0114A43F46023D3620F4B5B6A03F00803002B0CBF01230023DBB2002B03D00A2001F0DCFAF0E7084B82
S32D00011618DB6A074A43F00803D362054B1B6B044A43F48013136300BF2037BD4680BD00BF00100B4080B582B05F
S32D0001164000AF786039607B6800221A60414B424ADA62404BDB6A03F08073002B14BF01230023DBB2002B00D005
S32D00011668F3E73A4B0022C3F8C020384B4FF481325A60364B28229A62344B4FF001125A643B689B68334918462E
S32D00011690FFF760FF2F4B5B6A03F00303002B14BF01230023DBB2002B00D0F3E72C4B40F243421A602A4B40F2A8
S32D000116B843425A60284B4FF488629A60264B40F24342DA60244B40F243421A61224B40F243425A61214B03F5E4
S32D000116E080531B6B1F4A43F4003302F580521363184B4FF6FF721A63164B1B4A5A63154BDB6A144A43F00063BE
S32D00011708D362124BDB6A03F00063002B14BF01230023DBB2002B00D0F3E70C4B5B6A03F48033002B14BF0123F6
S32D000117300023DBB2002B02D07B6801221A60054B1B6B044A43F080031363002318460837BD4680BD00100B40B2
S32D000117580080000160CC050000D0044000700440B3007F0080B400AF064B5A6A40F207331340002B14BF0123DD
S32D000117800023DBB21846BD4680BC704700100B4080B485B000AF7860074B1B6B7A681340FB60FB68002B00D124
S32D000117A8F6E7FB6818461437BD4680BC704700BF00100B4080B584B000AF78607B681B7803F03F03764A52F874
S32D000117D02330FB60FB68002B05D17B681B78002B01D00123DCE0714B1B6B704A43F0800313636E4B5B6A03F0ED
S32D000117F80103002B14BF01230023DBB2002B00D0F3E7684A7B685B689360FB6823F44003FB607B685B789B055E
S32D0001182003F44003FA681343FB607B685B78022B03D1FB6843F40013FB607B685B78042B16D1FB6803F44033F4
S32D00011848B3F5003F08D1FB6823F44033FB60FB6843F44033FB6007E0FB6823F44033FB60FB6843F40033FB60AA
S32D000118704E4B5B684D4A9BB253607B68DB68002B2AD0FB6803F44033B3F5403F03D0FB6843F40013FB607B6859
S32D000118981B7A002B03D0FB6843F01003FB607B68DB68012B03D9FB6843F02003FB607B68DB68B3F1FF3F0BD065
S32D000118C03A4B5A687B68DB681B04384913434B60FB6843F00203FB60344B00221A60334AFB68D3603248FFF757
S32D000118E853FF0346012B14BF01230023DBB2002B09D02C4B1B6B2B4A43F4702343F001031363012348E0274BB8
S32D000119101B6B03F08003002B14BF01230023DBB2002B07D0214B1B6B204A43F001131363012335E01D4B1B6B98
S32D0001193803F48033002B14BF01230023DBB2002B08D0184B1B6B174A43F0011313634FF0FF3321E0FB6803F42E
S32D000119604033002B15D0114B1A697B681A61FB6803F44033B3F5803F0BD10C4B5A697B685A610A4B9A697B6895
S32D000119889A61084BDA697B68DA61064B1B6B054A43F001031363002318461037BD4680BD70B8020000100B4021
S32D000119B001000E0080B592B000AF7860396000237B643B68BB63994B7B637B6B002B02D140F601235FE3964B7C
S32D000119D83B633B6B002B02D140F60B2357E33B6B1B68FB62FB6A002B02D140F60B234EE37B6841F2093293425C
S32D00011A0000F23F837B68B3F5985F08D87B68032B00F01A837B68092B00F0098331E37B68A3F59853013B082B87
S32D00011A2800F22B8301A252F823F000BF591A0100451D0100A11F01005B1D0100991D0100BF1E0100071F010063
S32D00011A50491E0100631E01007649786BFFF7EEFD78647B6C002B40F01083002387F84330002387F82B30002314
S32D00011A7887F82A30002387F82930002387F84230002387F8283000233B7200237B720023FB6000233B7400230A
S32D00011AA07B6107F108031846FFF788FE0346002B14BF01230023DBB2002B02D001237B64E8E240F24C4001F0CA
S32D00011AC881F808233B7200237B724FF4D573FB6000233B7400237B6107F108031846FFF769FEF863FB6B002B2D
S32D00011AF009D1BA69FB689A4202D001237B64C9E2012387F84230012387F8283097F82830002B00F0A58037237A
S32D00011B183B7200237B720023FB6000233B7400237B6107F108031846FFF744FEF863FB6B002B02D001237B6438
S32D00011B40A8E269233B7200237B720023FB6000233B7400237B6107F108031846FFF72EFE0346002B14BF012366
S32D00011B680023DBB2002B02D001237B648EE2BB6903F44013002B6FD00023FB630A2001F021F8FB6B0133FB63A9
S32D00011B9037233B7200237B720023FB6000233B7400237B6107F108031846FFF707FE0346002B14BF01230023D6
S32D00011BB8DBB2002B02D001237B6428E069233B7200237B7297F84230002B02D0184BFB6002E04FF44013FB6091
S32D00011BE000233B7400237B6107F108031846FFF7E5FD0346002B14BF01230023DBB2002B02D001237B6406E0CB
S32D00011C08BB69002B03DBFB6B632B00D8B6E77B6C002B40F03882FB6B632B0BD9002387F8423019E0A01700205F
S32D00011C30A419002064B8020000003040012387F8433097F84230002B0AD0002387F84230BB6903F08043002BE5
S32D00011C5802D0012387F8423097F82A30002B02D07B6B07221A6097F82930002B02D07B6B08221A6097F82B30AE
S32D00011C80002B02D07B6B04221A6097F84330002B09D07B6B02221A6097F84230002B02D07B6B03221A6097F816
S32D00011CA82B30002B0DD097F84330002B09D07B6B05221A6097F84230002B02D07B6B06221A60924B00221A601E
S32D00011CD0904B00225A608F4B00229A608D4B0022DA608C4B00221A618A4B00225A61FB6A9A68FB6A5B681946F0
S32D00011CF81046FFF72BFC854B40F243421A60834B40F243425A60814B4FF488629A607F4B40F24342DA607D4B94
S32D00011D2040F243421A617B4B40F243425A617A4B03F580531B6B784A43F4003302F580521363A7E1B86BFFF708
S32D00011D4839FDF863FB6B002B00F09F8102237B649BE1BB6B002B02D10C237B6496E16D4BDB6A1B0A5B0003F49D
S32D00011D70FF73FB63694BDB6A1B0903F00F035A1CFB6B02FB03F3FB63FB6A9A68FB6BB2FBF3F2BB6B1A607DE1C8
S32D00011D98BB6B002B02D10C237B6477E1BB6B1B68002B02D10C237B6470E1FFF7DBFC0346002B0CBF0123002339
S32D00011DC0DBB2002B3CD0534B00221A60514B00225A60504B00229A604E4B0022DA604D4B00221A614B4B0022E5
S32D00011DE85A61FB6A9A68BB6B1B6819461046FFF7ADFB464B40F243421A60444B40F243425A60424B4FF4886232
S32D00011E109A60404B40F24342DA603E4B40F243421A613C4B40F243425A613B4B03F580531B6B394A43F40033B5
S32D00011E3802F58052136329E140F60A237B6425E1BB6B002B02D10C237B641FE1314B5B68C3F30C02BB6B1A6015
S32D00011E6018E1BB6B002B02D10C237B6412E1FFF77DFC0346002B0CBF01230023DBB2002B19D0BB6B1B68B3F54E
S32D00011E88805F02D30C237B6400E1224B5B68214A23F4FF5323F01F0353601E4B5A68BB6B1B68C3F30C031B499F
S32D00011EB013434B60EEE040F60A237B64EAE0BB6B002B02D10C237B64E4E0144B9B6A5B0803F00303FB63FB6BAE
S32D00011ED8002B03D1BB6B00221A60D7E0FB6B012B03D1BB6B01221A60D0E0FB6B102B03D1BB6B02221A60C9E0A8
S32D00011F0005237B64C6E0BB6B002B09D10C237B64C0E000BF00D004400070044000100B40FFF724FC0346002BC0
S32D00011F280CBF01230023DBB2002B31D0BB6B1B68002B0AD1584B9B6A574A23F006039362554B554A9B6A93627D
S32D00011F50A0E0BB6B1B68012B0CD1514B9B6A504A23F0060393624E4B9B6A4D4A43F0020393628FE0BB6B1B686A
S32D00011F78022B0AD1484B9B6A474A23F006039362454B454A9B6A936280E005237B647DE040F60A237B6479E080
S32D00011FA0BB6B002B02D10C237B6473E03C4BDB6A3B4A43F00063D362394BDB6A03F00063002B14BF012300230D
S32D00011FC8DBB2002B00D0F3E7334B1B6B03F08003002B14BF01230023DBB2002B08D02E4B1B6B2D4A43F080030D
S32D00011FF013637B6B00221A60294B5B6A03F48033002B14BF01230023DBB2002B07D07B6B1B68002B06D17B6BC2
S32D0001201801221A6002E07B6B00221A607B6B1A68BB6B1A6032E0BB6B1C221A60BB6B043304221A60BB6B083342
S32D000120404FF41E721A6025E00220FFF7A1FB144B1B6B03F4E003002B14BF01230023DBB2002B07D00E4B1B6BF9
S32D000120680D4A43F4E003136304237B640A4B1B6B094A43F03203136308E040F609237B6404E000BF02E000BFE3
S32D0001209000E000BF7B6C18464837BD4680BD00BF00100B4080B590B000AF0346FB71A64BFB63A64BBB63BB6B07
S32D000120B8A54A1A60FB79002B01D00123A9E1A34B1B78DBB203F00203002B14BF01230023DBB2002B03D09D4BB4
S32D000120E01B78DBB299E19B4B1B78DBB203F00303002B0CBF01230023DBB2002B01D000238BE1BB6B002B03D0BF
S32D00012108BB6B1B68002B01D1002382E1FB6B904A1A60FB6B01225A60BB6B00225A60BB6B00229A60BB6B0022F3
S32D000121301A61BB6B00221A73BB6B00225A73874B03F580531B6B854A43F4003302F580521363002141F20130FB
S32D00012158FFF72CFC0346002B14BF01230023DBB2002B01D0002354E10023BB6207F12803194641F20330FFF7AD
S32D0001218019FC0346002B14BF01230023DBB2002B01D0002341E1BB6A022B08D0BB6A032B05D0BB6A052B02D046
S32D000121A8BB6A062B09D1BB6A032B02D0BB6A062B05D1BB6B01221A7301E0002329E100BF02233B7200237B7202
S32D000121D00023FB6000233B7400237B6107F10803194641F20230FFF7E5FB0346002B14BF01230023DBB2002BAE
S32D000121F801D000230DE103233B7200237B720023FB6000233B7400237B6107F10803194641F20230FFF7CAFB22
S32D000122200346002B14BF01230023DBB2002B01D00023F2E0BB691B0C1B04BA6B136109233B7200237B72BB6B71
S32D000122481B69FB6000233B7400237B6107F10803194641F20230FFF7A9FB0346002B14BF01230023DBB2002B10
S32D0001227001D00023D1E07B6A03F44003002B1ED13B6A1B0A03F00F033B633B6A03F003037B637B6B9A02FB6992
S32D000122989B0D13437B63FB69DB0903F00703FB627B6B5A1CFB6A02339A403B6B093B9A40BB6B9A600CE0BB6BD3
S32D000122C001225A73FB691B0AC3F315037B637B6B01339A02BB6B9A6007233B7200237B72BB6B1B69FB600023E5
S32D000122E83B7400237B6107F10803194641F20230FFF75CFB0346002B14BF01230023DBB2002B01D0002384E067
S32D0001231010233B7200237B724FF40073FB6000233B7400237B6107F10803194641F20230FFF740FB0346002B60
S32D0001233814BF01230023DBB2002B0DD0002368E0A4190020881700209C1700202800002064B8020000700440D3
S32D00012360BB6B1B681B68012B49D137233B7200237B72BB6B1B69FB6000233B7400237B6107F10803194641F25A
S32D000123880230FFF713FB0346002B14BF01230023DBB2002B01D000233BE046233B7200237B720223FB600023D2
S32D000123B03B7400237B6107F10803194641F20230FFF7F8FA0346002B14BF01230023DBB2002B01D0002320E067
S32D000123D80123BB6207F12803194641F20730FFF7E5FA0346002B14BF01230023DBB2002B01D000230DE0094B59
S32D000124001B78DBB223F00103DAB2064B1A70054B1B78DBB203F00303DBB218464037BD4680BD00BF28000020FD
S32D0001242880B489B000AF786039607B687B61364B3B613B69002B01D100235FE03B691B68022B0BD03B691B68C3
S32D00012450032B07D03B691B68072B03D03B691B68082B0BD12B4B5B6A03F00403002B14BF01230023DBB2002BC4
S32D0001247800D0F3E73B68FB61FB69002B3DD0FB69B3F5007F28BF4FF40073FB60FB6803339B08BB61BB69002BC6
S32D000124A02AD01C4B1B6B03F4E003002B14BF01230023DBB2002B09D0164B1B6B154A43F4E00343F0200313634A
S32D000124C800231BE0114B5B6A03F40063002B0CBF01230023DBB2002B00D0F3E70B497B691A1D7A610A6A1A6075
S32D000124F0BB69013BBB61D1E7FA69FB68D31AFB61BEE7012318462437BD4680BC704700BFA017002000100B4011
S32D0001251880B58EB000AFB9607A601A460346FB731346BB73414B7B63FB7B002B02D1BB7B002B01D1042375E054
S32D000125403D4B1B78DBB203F00103002B14BF01230023DBB2002B01D0032367E0BB68002B01D1002362E07B6B27
S32D000125681B7B002B02D17B685B027B60BB7B012B28D111233B7500237B757B68BB6101233B77BB7B3B6207F1A3
S32D000125901403194641F20230FFF70CFA0346002B0CBF01230023DBB2002B38D04FF40071B868FFF739FF0346B4
S32D000125B8002B14BF01230023DBB2002B2BD00023BB7328E012233B7500237B757B68BB6101233B77BB7B3B6203
S32D000125E007F11403194641F20230FFF7E3F90346002B0CBF01230023DBB2002B0FD0BB7B5B021946B868FFF702
S32D000126080FFF0346002B14BF01230023DBB2002B01D00023BB73BB7B002B01D0012300E0002300BF1846383748
S32D00012630BD4680BD881700202800002080B487B000AF786039607B68FB603B687B617B69002B3DD07B69B3F544
S32D00012658007F28BF4FF400733B617A693B69D31A7B613B6903339B083B613B69002BEAD0184B1B6B03F4E003E6
S32D00012680002B14BF01230023DBB2002B0AD0134B1B6B124A43F4E00343F0100313634FF0FF3316E00D4B5B6ABA
S32D000126A803F48063002B0CBF01230023DBB2002B00D0F3E7FB681A1DFA60064A1B6813623B69013B3B61D0E71B
S32D000126D0012318461C37BD4680BC704700100B4080B58EB000AFB9607A601A460346FB731346BB735D4B7B637C
S32D000126F8FB7B002B02D1BB7B002B01D10423ADE0594B1B78DBB203F00103002B14BF01230023DBB2002B01D0CF
S32D0001272003239FE0524B1B78DBB203F00403002B14BF01230023DBB2002B01D0022391E0BB68002B01D1002387
S32D000127488CE07B6B1B7B002B02D17B685B027B60BB7B012B28D118233B7500237B757B68BB6100233B77BB7BFE
S32D000127703B6207F11403194641F20230FFF71AF90346002B0CBF01230023DBB2002B38D04FF40071B868FFF7B1
S32D0001279851FF0346002B14BF01230023DBB2002B2BD00023BB7328E019233B7500237B757B68BB6100233B7755
S32D000127C0BB7B3B6207F11403194641F20230FFF7F1F80346002B0CBF01230023DBB2002B0FD0BB7B5B02194656
S32D000127E8B868FFF727FF0346002B14BF01230023DBB2002B01D00023BB730D233B7500237B757B6B1B69BB61A5
S32D0001281000233B7700233B6207F11403194641F20230FFF7C7F80346002B14BF01230023DBB2002B01D0012341
S32D0001283814E07A6A0D4B1340002B01D001230DE07B6A03F4F853B3F5106F00D0D5E7BB7B002B01D0012300E0D1
S32D00012860002300BF18463837BD4680BD88170020280000200880D9FF80B58CB000AF03463A60FB710B46BB7107
S32D000128883A4BBB62FB79002B01D0042369E0012387F82F30364B1B78DBB203F00103002B14BF01230023DBB233
S32D000128B0002B01D0032358E0BB79032B50D801A252F823F0D5280100DD280100ED280100FD280100002387F833
S32D000128D82F3044E0BB6A9A683B681A60002387F82F303CE03B684FF400721A80002387F82F3034E009233B720D
S32D0001290000237B72BB6A1B69FB6000233B7400237B6107F10803194641F20230FFF74AF80346002B14BF012359
