S01100002E2E2F50726F746575732E73313966
S32D0000C000000000205DC2000011C3000017C300001DC3000023C3000029C3000000000000000000000000000073
S32D0000C028000000002FC3000035C30000000000003BC3000041C3000099E40000A5E40000B1E40000BDE40000C2
S32D0000C050C9E40000D5E40000E1E40000EDE40000F9E4000005E5000011E500001DE5000029E5000035E50000DF
S32D0000C07841E500004DE5000059E5000065E5000071E500007DE5000089E5000095E50000A1E50000ADE5000002
S32D0000C0A0B9E50000C5E50000D1E50000DDE50000E9E50000F5E5000001E600000DE6000019E6000025E6000026
S32D0000C0C831E600003DE6000049E6000055E6000061E600006DE6000079E6000085E6000091E600009DE6000048
S32D0000C0F0A9E60000B9690100B5E60000C1E60000CDE60000D9E60000E5E60000F1E60000FDE6000009E7000047
S32D0000C11815E7000021E700002DE7000039E7000045E7000051E700005DE7000069E7000075E7000081E7000005
S32D0000C1408DE7000099E70000A5E70000B1E7000021400100BDE70000C9E70000D5E70000E1E70000EDE70000AB
S32D0000C168F9E7000005E8000011E800001DE8000029E8000035E8000041E800004DE8000059E8000065E80000C4
S32D0000C19071E800007DE8000089E80000113C0100D13A0100713B01001DE20000B53C010095E80000A1E8000054
S32D0000C1B8ADE8000088D9020000000020FC16000088D902000000FF1F00000000FC160020140700000000FF1F43
S32D0000C1E00000000080B489B000AFF860B9607A60BB68FB61FB68BB6100237B617A697B689A420BD2BA69131DFB
S32D0000C208BB61FB69191DF96112681A607B6904337B61EFE700BF2437BD4680BC704780B485B000AF786039609E
S32D0000C2307B68FB600023BB60BA683B689A4208D2FB681A1DFA6000221A60BB680433BB60F2E700BF1437BD46FE
S32D0000C25880BC704780B586B000AF72B6234B4CF220521A80214B4DF628121A80204B4FF4E9721A801F4B7B615F
S32D0000C2807B691F4A934214D27B691A1D7A611B683B617B691A1D7A611B68FB607B691A1D7A611B68BB60BA68E9
S32D0000C2A8F9683869FFF79AFFE6E77B69134A93420ED27B691A1D7A611B68FB607B691A1D7A611B68BB60B9688B
S32D0000C2D0F868FFF7A8FFECE70B4B7B600B4A7B681A6014F0E7FF62B602F060F801F0EEFEFEE700BF0E2005404D
S32D0000C2F800200540BCC10000D4C10000E4C1000008ED00E000C0000080B400AFFEE780B400AFFEE780B400AFF4
S32D0000C320FEE780B400AFFEE780B400AFFEE780B400AFFEE780B400AFFEE780B400AFFEE780B400AFFEE780B426
S32D0000C34800AFFEE7FFFFFFFFFFFFFFFFFFFFFFFFFFFFFFFFFFFFFFFFFFFFFFFFFFFFFFFFFFFFFFFFFFFFFFFF57
S32D0000C370FFFFFFFFFFFFFFFFFFFFFFFFFFFFFFFFFFFFFFFFFFFFFFFFFFFFFFFFFFFFFFFFFFFFFFFFFFFFFFFFC7
S32D0000C398FFFFFFFFFFFFFFFFFFFFFFFFFFFFFFFFFFFFFFFFFFFFFFFFFFFFFFFFFFFFFFFFFFFFFFFFFFFFFFFF9F
S32D0000C3C0FFFFFFFFFFFFFFFFFFFFFFFFFFFFFFFFFFFFFFFFFFFFFFFFFFFFFFFFFFFFFFFFFFFFFFFFFFFFFFFF77
S32D0000C3E8FFFFFFFFFFFFFFFFFFFFFFFFFFFFFFFFFFFFFFFFFFFFFFFFFFFFFFFFFFFFFFFFFFFFFFFFFEFFFFFF50
S32D0000C41010B5054C237833B9044B13B10448AFF300800123237010BDFC16002000000000F8D7020008B5034B4E
S32D0000C4381BB103490348AFF3008008BD0000000000170020F8D7020080B582B000AF504B1B684FF000011846B2
S32D0000C46013F050FB0346184613F012FD03461946192001F01BFC00237B607B68092B35DC4649474802F098FAF6
S32D0000C4884FF00001454802F093FA3DA1D1E9000106F0D4FF404802F049FA404802F046FA39A1D1E9000106F0D6
S32D0000C4B0C9FF4FF000013A4802F07EFA3A49394802F07AFA30A1D1E9000106F0BBFF344802F030FA334802F0BF
S32D0000C4D82DFA2DA1D1E9000106F0B0FF7B6801337B60C6E72F4807F0F5F8034683F00103DBB2002B08D12C4822
S32D0000C50007F0ECF8034683F00103DBB2002B01D0012300E00023002B15D02649264807F083FF4FF000004FF0DE
S32D0000C528804106F08BFF2349214807F079FF224B01221A702149224808F02EFE1BE021491F4808F029FE2049FA
S32D0000C5501D4808F054FD164807F0C0F803461946194808F056FE1B49174808F048FD0F4807F0B4F8034619460B
S32D0000C578134808F04AFE00BF0837BD4680BD00BF9A9999999999B93F7B14AE47E17A843F000000200000484222
S32D0000C5A04817002040170020000048C234170020301700200000344370170020000070427C1700203CB4020026
S32D0000C5C8681A002044B402004CB4020060B40200B0B588B002AF7A480AF0F0FD78480BF009F803461946774877
S32D0000C5F008F0E9FD764A774977480BF04DF9386100237B617B69022B50DC74496F4808F0C7FD73496D4808F051
S32D0000C618C3FD3A463B1D19466A4808F0DDFB034683F00103DBB2002B11D06C49654808F0E2FC63480BF034F818
S32D0000C64003461946614808F0D1FD4FF00000664906F0F8FEE1E73A463B1D19465B4808F0BFFB0346002B00D043
S32D0000C668F5E757480BF01CF80346184612F0AEFD02460B46CDE900235A4A396954480BF079FA59494F4808F0D3
S32D0000C69087FD4FF00000574906F0D4FE00214B4808F000FB7B6901337B61ABE739694A480BF0D4F9504A4749FE
S32D0000C6B847480BF0EDF8F8604E4B4F4AF96844480BF084FA4D4B4C4AF96841480BF07EFA4B4B494AF9683E485A
S32D0000C6E00BF078FAF9683C480BF0B8F94749374808F085FC414B1B681946344808F076FD4349324808F07BFCDC
S32D0000C7083E4B1B6819462F4808F06CFD3F492D4808F071FC3A4B1B6819462A4808F062FD3A463B1D1946274888
S32D0000C73008F056FB034683F00103DBB2002B09D03549224808F02CFD4FF00000264906F079FEE9E700211D48C7
S32D0000C75808F0A4FA06F098FE02460B461046194613F06EF80346BB6001F01AF8034683F00103DBB2002B1AD011
S32D0000C78006F086FE04460D46B86812F023FD02460B462046294612F0BDFB02460B46104619464FF000021D4B13
S32D0000C7A812F0DEFF0346002B01D0012300E00023002B00D0D8E700BF1837BD46B0BD00BFD01A0020681A002075
S32D0000C7D074B4020078B40200F01A002088B40200A4B40200A8B402000000F83FB8B40200BCB402000000144058
S32D0000C7F8D0B4020014000020D4B402001C00002018000020D8B40200E4B40200F0B40200FCB4020000003E405D
S32D0000C82080B500AF40F28A21154807F0C3FD40F22671134807F0DBFD1249114807F0F4FD4FF40771104807F07C
S32D0000C848B5FD40F607110E4807F0CDFD4FF000010B4807F0E5FD40F2EE210A4807F0A6FD40F61511074807F070
S32D0000C870BEFD0749054807F0D7FD00BF80BD00BF581700200000344364170020701700200000A042FFFFFFFF96
S32D0000C89880B500AF3249334807F0C2FD002000F0CFFF314B1B68184612F090FC4FF000022E4B12F0E3FC024636
S32D0000C8C00B461046194612F077FF034619466FF02C0001F0EBF9284B1B682849184613F011F90346184613F048
S32D0000C8E8D3FA03461946142001F0A2FA1AA1D1E9000106F0A3FD4FF000011A4807F090FD002000F09DFF1C49A9
S32D0000C9101C4808F074FB1C4806F0E0FE03461946184808F076FC1949164808F068FB184806F0D4FE0346194699
S32D0000C938124808F06AFC1549154807F071FD4FF00000144906F07AFD1349114807F068FD00BF80BDAFF30080C1
S32D0000C960333333333333D33F00003443641700200000002000000840040000200000C8424CB50200681A002018
S32D0000C9882817002060B502002C17002000004842581700200000F03F00002A43FFFFFFFF80B582B000AF786009
S32D0000C9B03F4B1B683F49184613F0A4F80346184613F066FA034619466FF0220001F06EF9394B1B683949184655
S32D0000C9D813F094F80346184613F056FA03461946232001F025FA304B1B683349184613F085F80346184613F0AB
S32D0000CA0047FA03461946232001F050F92D492E4807F00AFD284B1B682949184613F072F80346184613F034FAAD
S32D0000CA2803461946192001F003FA4FF07F51192001F0F6F8786801F053FA002000F000FF20491F4807F0ECFC0E
S32D0000CA5015A1D1E9000106F0F5FC154B1B681C49184613F04FF80346184613F011FA034619466FF0270001F09C
S32D0000CA7819F91649164801F09BFF1449154801F097FF4FF00000144906F0D8FC104801F04DFF104801F04AFF68
S32D0000CAA000BF0837BD4680BD9A9999999999C93F00000020000010410400002000003C420000A0410000344320
S32D0000CAC8641700200000BE420000A040000020C248170020401700200000F03F80B582B000AF786022492348FA
S32D0000CAF007F09AFC224B1B68184612F06BFB4FF00002204B12F0BEFB02460B461046194612F052FE0346194626
S32D0000CB186FF0180001F0C6F8194B1B681949184612F0ECFF0346184613F0AEF903461946192001F07DF9FFF7A6
S32D0000CB406FFE00F051FE104B1B681149184612F0D9FF0346184613F09BF903461946192001F00EF9002000F084
S32D0000CB686FFE786800F0CEF800BF0837BD4680BD00003443641700200000002000001240040000200000024371
S32D0000CB900000C84280B582B000AF78604E4B1B68184612F017FB4FF000024C4B12F06AFB02460B461046194664
S32D0000CBB812F0FEFD034619462D2001F073F84FF00000454906F03AFC444B1B684449184612F094FF03461846CF
S32D0000CBE013F056F903461946192001F0C9F84FF000003B4906F026FC374B1B683B49184612F080FF0346184658
S32D0000CC0813F042F9034619463C2001F04BF8304B1B68184612F0DAFA4FF00002324B12F02DFB02460B4610467F
S32D0000CC30194612F0C1FD034619463C2001F036F84FF00000264906F0FDFB264B1B682949184612F057FF034693
S32D0000CC58184613F019F903461946192001F0E8F84FF000001C4906F0E9FB21480AF00AFD03464FF000011846BA
S32D0000CC8013F0FCF80346002B0DD01B480AF0F0FC03464FF00001184613F0F0F80346002B01D0012300E00023B7
S32D0000CCA8002B02D0786801F01BF91249124808F073FA4FF00001114801F07AFE4FF000010F4801F075FE00BFA6
S32D0000CCD00837BD4680BD00BF0000002000002F400000E03F0400002000005C420000A04100C031400000D24262
S32D0000CCF8D01A002090B50200681A0020481700204017002080B582B000AF7860364B1B68184612F05BFA4FF03F
S32D0000CD200002344B12F0AEFA02460B461046194612F042FD034619466FF0180000F0B6FF2D4B1B682D49184698
S32D0000CD4812F0DCFE0346184613F09EF803461946192001F011F8786801F0C2F84FF07F516FF0180000F05CFF6A
S32D0000CD70786801F0B9F84FF07E516FF0180000F053FF1F4806F0AAFC034683F00103DBB2002B08D11B4806F09F
S32D0000CD98A1FC034683F00103DBB2002B01D0012300E00023002B15D01549164807F038FB4FF000004FF080412B
S32D0000CDC006F040FB1249114807F02EFB114B01221A701149114808F0E3F905E0FFF738FB0F490E4808F0DCF927
S32D0000CDE800BF0837BD4680BD0000002000000440040000200000E642341700203017002000003443701700203F
S32D0000CE10000070427C1700203CB40200681A0020A0B5020080B582B000AF78604FF00000944906F007FB944BC3
S32D0000CE381B689449184612F061FE0346184613F023F8034619466FF0180000F02BFF7B68002B0FD18C4B1B6867
S32D0000CE608C49184612F04EFE0346184613F010F803461946192000F0DFFF11E07B68022B0ED1834B1B688349C5
S32D0000CE88184612F03BFE0346184612F0FDFF03461946192000F070FF7B68002B21D100F09FFC774B1B684FF0EF
S32D0000CEB08141184612F026FE0346184612F0E8FF03461946192000F0F1FE714B1B687149184612F017FE034607
S32D0000CED8184612F0D9FF03461946192000F04CFF49E07B68022B37D100F07AFC644B1B684FF08141184612F09E
S32D0000CF0001FE0346184612F0C3FF03461946192000F0CCFE5E4B1B685F49184612F0F2FD0346184612F0B4FF7F
S32D0000CF2803461946192000F083FF554B1B68184612F04CF94FF00002564B12F09FF902460B461046194612F0F4
S32D0000CF5033FC034619466FF0220000F0A7FE0EE0494B1B684E49184612F0CCFD0346184612F08EFF0346194623
S32D0000CF78232000F097FE4949494808F00DF9404B1B68184612F022F94FF00002454B12F075F902460B461046E9
S32D0000CFA0194612F009FC03461946192000F07EFE3F49404807F038FA4FF00000314906F041FA314B1B68184630
S32D0000CFC812F004F94FF00002364B12F057F902460B461046194612F0EBFB034619466FF0180000F05FFE4FF047
S32D0000CFF00001304807F018FA4FF00000214906F021FA214B1B68184612F0E4F84FF00002264B12F037F9024680
S32D0000D0180B461046194612F0CBFB03461946192000F040FE4FF00000214906F007FA21491E4807F0F5F94FF079
S32D0000D04000001F4906F0FEF90F4B1B68184612F0C1F84FF000021B4B12F014F902460B461046194612F0A8FBCE
S32D0000D068034619466FF0180000F01CFE14490F4807F0D6F900BF0837BD4680BD0000E03F0000002000004040FA
S32D0000D0900400002000000C4200001442000004400000A040A8B50200681A0020000016400000BE4258170020A0
S32D0000D0B80000104000008C420000F03F00000C400000344380B500AF3B4B1B78002B0FD03A4B1B683A4918464A
S32D0000D0E012F010FD0346184612F0D2FE034619462D2000F0DBFD14E0324B1B68184612F069F84FF00002314B6B
S32D0000D10812F0BCF802460B461046194612F050FB034619462D2000F0C5FD2B4B1B682B49184612F0EBFC034604
S32D0000D130184612F0ADFE034619462D2000F020FE012000F081FB1F4B1B682349184612F0D9FC0346184612F0FF
S32D0000D1589BFE034619462D2000F0A4FD1A4B1B681C49184612F0CAFC0346184612F08CFE034619462D2000F0FF
S32D0000D180FFFD104B1B68184612F024F84FF00002134B12F077F802460B461046194612F00BFB034619466FF0BE
S32D0000D1A82C0000F07FFD0D480AF024FA03461846FFF734FE00BF80BD7C170020000000200000204100002340F2
S32D0000D1D0040000200000B4420000904100005C4200000C40D01A002080B582B000AF7860514B1B68184611F0E6
S32D0000D1F8EDFF4FF000024F4B12F040F802460B461046194612F0D4FA034619466FF0220000F048FD484B1B6876
S32D0000D2204849184612F06EFC0346184612F030FE03461946192000F0FFFDFFF7F1FA012000F002FB40480AF070
S32D0000D248D9F90346002B0CBF01230023DBB2002B15D0374B1B68184611F0B8FF4FF00002384B12F00BF8024697
S32D0000D2700B461046194612F09FFA034619462D2000F014FD2FE030480AF0B8F90346012B0CBF01230023DBB2B3
S32D0000D298002B0FD0264B1B682B49184612F02EFC0346184612F0F0FD034619462D2000F0F9FC14E01E4B1B681C
S32D0000D2C0184611F087FF4FF00002224B11F0DAFF02460B461046194612F06EFA034619462D2000F0E3FC164BF6
S32D0000D2E81B681B49184612F009FC0346184612F0CBFD03461946192000F09AFD786800F0EFFD0B4B1B68134902
S32D0000D310184612F0F7FB0346184612F0B9FD03461946232000F0C2FC002000F08DFA00BF0837BD4680BD00BF11
S32D0000D33800000020000018400400002000003442D01A002000002D400000704100002F400000DC4200001442AA
S32D0000D36090B583B000AF4FF000033B60864B1B68184611F02FFF4FF00002844B11F082FF02460B4610461946DA
S32D0000D38812F016FA034619466FF0220000F08AFC7D4B1B687D49184612F0B0FB0346184612F072FD03461946EA
S32D0000D3B0192000F0E5FC002000F046FA724B1B68184611F007FF4FF00002734B11F05AFF02460B4610461946A9
S32D0000D3D812F0EEF9034619466FF0220000F062FC694B1B686B49184612F088FB0346184612F04AFD0346194661
S32D0000D400192000F019FD604B1B68184612F040FD03461946192000F049FC4FF00000604906F010F80023FB7169
S32D0000D4285E495F4807F0E7FD5E4806F0C1FC034619465B4807F0D6FE5A4806F0B9FC0246594B1B6801210C460E
S32D0000D4501946104612F0F4FC0346002B01D100231C46E3B2002B01D00123FB714D494E4807F0C5FDFB79194663
S32D0000D4784B4807F0CAFEFB79002B2DD0424B1B684A49184612F03AFB0346184612F0FCFC03461946192000F0EE
S32D0000D4A06FFC394B1B681946184612F023FA0346184612F0EDFC03461946192000F0F6FB334B1B683B491846D9
S32D0000D4C812F01CFB0346184612F0DEFC03461946192000F0ADFC2CE02B4B1B683349184612F00CFB0346184691
S32D0000D4F012F0CEFC03461946192000F09DFC224B1B681946184612F0F5F90346184612F0BFFC034619461920F6
S32D0000D51800F0C8FB1C4B1B682449184612F0EEFA0346184612F0B0FC03461946192000F023FC134B1B681E4906
S32D0000D540184612F0DFFA0346184612F0A1FC034619466FF0180000F0A9FB1849184806F063FF4FF000000E49DC
S32D0000D56805F06CFF4FF07D51192000F059FBFB79184600F023F800BF0C37BD4690BD00BF0000002000002B4032
S32D0000D590040000200000E64200000C400000D2420000E03F1CB60200681A0020241700202400002000005C42EF
S32D0000D5B8000040400000F0415817002080B582B000AF0346FB71FFF727F92C4B1B681946184612F08BF903469E
S32D0000D5E0184612F055FC034619466FF0180000F05DFB254B1B682549184612F083FA0346184612F045FC034694
S32D0000D6081946372000F014FCFB79002B0FD01B4B1B681D49184612F071FA0346184612F033FC034619462D20D9
S32D0000D63000F03CFB0EE0134B1B681649184612F061FA0346184612F023FC034619462D2000F02CFB0C4B1B680E
S32D0000D6580F49184612F052FA0346184612F014FC034619462D2000F087FB0A492D2000F0D7FA00BF0837BD461E
S32D0000D68080BD00BF00000020040000200000C842000010410000E040000048420000204180B500AF354806F07F
S32D0000D6A887FB0246344B1B681946104612F0E2FB0346002B19D1314806F07AFB0246304B1B681946104612F0B5
S32D0000D6D0D5FB0346002B0CD12C4806F06DFB02462B4B1B681946104612F0C8FB0346002B01D0012300E0002312
S32D0000D6F8002B3BD02549264807F04EFD2549244807F079FC1F4806F053FB03461946204807F068FD1C4B1B6869
S32D0000D72019461D4807F062FD1D491B4807F067FC144806F041FB03461946174807F056FD114B1B681946144825
S32D0000D74807F050FD1549124807F055FC094806F02FFB034619460E4807F044FD064B1B6819460B4807F03EFD10
S32D0000D770012300E00023184680BD00BF2017002008000020181700200C0000201C1700201000002024B60200B1
S32D0000D798681A002028B5020034B5020040B5020098B500AF0C4806F003FB02460B4B1B6801210C461946104672
S32D0000D7C012F03EFB0346002B01D100231C46E3B2002B01D0012300E00023184698BD00BF241700202000002070
S32D0000D7E880B582B000AF19237B60FFF755FF034683F00103DBB2002B13D07B68C3F10203184612F027F90346DC
S32D0000D81019460B4801F0D0F8786812F01FF903461946084801F0C8F8E3E7054801F082F8044801F07FF800BFE7
S32D0000D8380837BD4680BD00BF4817002040170020B0B586B000AF78607B68012B40F08E80A34805F03FFF0346B8
S32D0000D860002B07D0A14805F039FF0346002B01D0012300E00023002B08D09D499D4801F09BF89D499D4801F008
S32D0000D88897F8E5E7964805F025FF0346002B0CBF01230023DBB2002B05D04FF00001934801F086F80FE08F48BD
S32D0000D8B005F014FF0346002B0CBF01230023DBB2002B04D04FF000018C4801F075F805F0DFFD02460B461046FE
S32D0000D8D8194611F0B5FF0346BB60814805F0FAFE0346002B05D17F4805F0F4FE0346002B1AD005F0C9FD044699
S32D0000D9000D46B86811F066FC02460B462046294611F000FB02460B46104619464FF00002774B11F021FF0346FE
S32D0000D928002B01D0012300E00023002B00F05C817249734807F05FFB724805F0CBFE034619466F4807F061FCC4
S32D0000D9506F496D4807F053FB6E4805F0BFFE03461946694807F055FC4FF000006A4905F069FDB6E7694809F05A
S32D0000D9787BFE0346184612F087FA0346FB600023FB7500233B6105F07FFD02460B461046194611F055FF03468B
S32D0000D9A0BB605A4805F09AFE0346002B07D0594805F094FE0346002B01D0012300E00023002B00F08280564974
S32D0000D9C84A4800F0F5FF55494A4800F0F1FF05F05BFD04460D46B86811F0F8FB02460B462046294611F092FAB2
S32D0000D9F002460B46104619464FF00002404B11F0D1FE0346002B07D0FB7D83F00103DBB2002B01D0012300E058
S32D0000DA180023002BC1D03F4809F026FE0446F86812F018F80346012215461946204612F021FA0346002B01D1B2
S32D0000DA4000231D46EBB2002B12D0344809F010FE0446F86812F002F803461946204611F047FF0346184612F061
S32D0000DA6813FA03463B6111E0F86811F0F3FF0446284809F0F9FD03461946204611F034FF0346184612F000FACC
S32D0000DA9003463B613B69042B83DC164800F04AFF164800F047FF204B1B682049184612F029F80346184612F0A5
S32D0000DAB8EBF903461946192000F0BAF90123FB756BE7104805F006FE034683F00103DBB2002B29D04FF00001F0
S32D0000DAE0044800F069FF31E030170020341700200000B841481700200000C8C1401700200000084040B60200D9
S32D0000DB08681A00202817002050B602002C1700200000F03FD01A00200000B8C10000C841040000200000204143
S32D0000DB30344805F0D3FD034683F00103DBB2002B04D04FF00001304800F036FF05F0A0FC02460B46104619467E
S32D0000DB5811F076FE0346BB602A4805F0BBFD0346002B05D1254805F0B5FD0346002B1AD005F08AFC04460D46D3
S32D0000DB80B86811F027FB02460B462046294611F0C1F902460B46104619464FF000021C4B11F0E2FD0346002BC1
S32D0000DBA801D0012300E00023002B1DD01749184807F021FA134805F08DFD03461946144807F023FB13491248C4
S32D0000DBD007F015FA0B4805F081FD034619460E4807F017FB4FF000000D4905F02BFCB7E70C4800F09FFE0448D8
S32D0000DBF800F09CFE00BF1837BD46B0BD2C17002040170020281700200000084040B60200681A002050B60200D4
S32D0000DC200000F03F4817002080B582B000AF786039607B68002B14DA786811F00FFF03461946184800F0B8FE08
S32D0000DC487A686FF001039B1A184611F003FF03461946134800F0ACFE12E0786811F0FAFE034619460D4800F0FE
S32D0000DC70A3FE7B68C3F10203184611F0EFFE03461946094800F098FE386805F0BBFB054800F050FE044800F06C
S32D0000DC984DFE00BF0837BD4680BD00BF4017002048170020F0B583B000AF786039602E4806F05CF82D4806F0FD
S32D0000DCC059F8786811F0CAFE034619462A4800F073FE7B68002B0CDA7A686FF001039B1A184611F0BBFE034672
S32D0000DCE81946244800F064FE0AE07B68C3F10203184611F0AFFE034619461E4800F058FE1A4806F021F8044650
S32D0000DD10174806F01DF803462344184611F048FA4FF000024FF0804311F0D6FB02460B4614461D46386811F01E
S32D0000DD383BFA02460B4601210E462046294611F00FFD0346002B01D100231E46F3B2002B00D0D5E7064800F030
S32D0000DD60E9FD064800F0E6FD00BF0C37BD46F0BD381700203C1700204017002048170020F0B583B000AF7860A5
S32D0000DD883960274805F0F2FF264805F0EFFF7B685B42184611F05EFE03461946224800F007FE7B685B4218460E
S32D0000DDB011F054FE034619461E4800F0FDFD1B4805F0C6FF0446184805F0C2FF03462344184611F0EDF94FF049
S32D0000DDD800024FF0804311F07BFB02460B4614461D46386811F0E0F902460B4601210E462046294611F0B4FC3D
S32D0000DE000346002B01D100231E46F3B2002B00D0D5E7074800F08EFD064800F08BFD00BF0C37BD46F0BD00BFCA
S32D0000DE28381700203C1700204017002048170020F0B583B000AF78603960254805F096FF244805F093FF786832
S32D0000DE5011F004FE03461946214800F0ADFD786811F0FCFD034619461E4800F0A5FD1B4805F06EFF044618480D
S32D0000DE7805F06AFF03462344184611F095F94FF000024FF0804311F023FB02460B4614461D46386811F088F9A7
S32D0000DEA002460B4601210E462046294611F05CFC0346002B01D100231E46F3B2002B00D0D5E7074800F036FD7C
S32D0000DEC8064800F033FD00BF0C37BD46F0BD00BF381700203C1700204017002048170020B0B584B000AF786055
S32D0000DEF005F0CEFA02460B461046194611F0A4FC0346FB60584809F0CFFB03464FF00001184611F0A9FF034678
S32D0000DF18002B4ED0524809F0C3FB0346184611F055F904460D46786811F050F94FF000024C4B10F0EBFF02467A
S32D0000DF400B462046294611F00FFC0346002B19D1454809F0A9FB0346184611F03BF904460D46786811F036F970
S32D0000DF684FF000023F4B10F0D3FF02460B462046294611F013FC0346002B1AD005F084FA04460D46F86811F0A1
S32D0000DF9021F902460B462046294610F0BBFF02460B46104619464FF00002314B11F0DCFB0346002B01D00123D5
S32D0000DFB800E00023002B3FD02C492D4807F01BF8274809F06DFB03461946294807F00AF9234809F065FB03461A
S32D0000DFE0012214461946786811F02AFF0346002B01D100231C46E3B2002B05D01F496FF0180000F03DF815E0D4
S32D0000E008174809F04DFB0346012214461946786811F030FF0346002B01D100231C46E3B2002B03D01349192022
S32D0000E03000F026F80AA1D1E9000105F003FA61E70C490D4806F0DBFF074809F02DFB03461946094807F0CAF878
S32D0000E05800BF1037BD46B0BD666666666666D63FD01A00200000F83F0000144060B60200681A0020CDCC4C3D3A
S32D0000E08080B582B000AF78603960786811F0E6FC034619460B4800F08FFC786811F0DEFC03461946084800F00F
S32D0000E0A887FC386805F0AAF9044800F03FFC044800F03CFC00BF0837BD4680BD401700204817002080B500AF8C
S32D0000E0D0FEF782FAFEF7A4FB0E4B1B681846FEF759FDFEF7D9FB0C4B1B681846FEF75CFC0A4B1B681846FEF71F
S32D0000E0F8F5FCFEF7E7FF074B1B681846FFF770F8FFF72AF90023184680BD00BF140000201C000020180000205F
S32D0000E12080B582B000AF786039607B68012B47D13B684FF6FF72934242D10B21224805F02BFE0D21214805F0A2
S32D0000E14827FE0F21204805F023FE1F211F4805F01FFE18211E4805F0E1F907211D4805F0DDF91B211C4805F0C2
S32D0000E170D9F901211B4805F0D5F908211A4805F031FB1021194805F02DFB194A0021194800F092FB164A012128
S32D0000E198174800F08DFB144A0221164800F088FB0321154806F0E6F80721144806F0E2F80021134806F0DEF83F
S32D0000E1C000BF0837BD4680BD181700201C1700202017002024170020281700202C17002030170020341700200B
S32D0000E1E8381700203C1700200000104140170020481700205017002058170020641700207017002080B500AFA4
S32D0000E2104FF6FF710120FFF783FF80BD80B500AF0F4BD3F8A03003F48053002B14BF01230023DBB2002B10D0D5
S32D0000E238094BD3F8A030084A23F48053C2F8A030064809F061FC064B1B68054A23F40053136000BF80BD00BFA4
S32D0000E26000C00440F01A0020C0F00F4080B400AF124B4FF480725A63114B5B69104A43F4005353610E4B1B689D
S32D0000E2880D4A43F4005313600A4B0C4A1A630C4BD3F888310A4A43F08063C2F88831084B9B68074A43F0806377
S32D0000E2B0936000BFBD4680BC704700BF00C00440C0F00F4003010A0000E100E080B400AF334B00225A70324B3D
S32D0000E2D898221A70304B9B79DBB203F01003002B14BF01230023DBB2002B00D0F2E72A4B9B79DBB29B08DBB2C6
S32D0000E30003F00303022B14BF01230023DBB2002B00D0F0E7224B18221A71214B00225A71204B03F580531A462F
S32D0000E3281F4B53641C4B54225A711B4B9B79DBB203F02003002B0CBF01230023DBB2002B00D0F2E7144B9B79D0
S32D0000E350DBB203F04003002B0CBF01230023DBB2002B00D0F2E70E4B1B78DBB20C4A03F03F03DBB213700A4BD5
S32D0000E3789B79DBB29B08DBB203F00303032B14BF01230023DBB2002B00D0F0E700231846BD4680BC704700BFD0
S32D0000E3A000400640007004400000130180B500AF314B03F580539B6B2F4A43F4785302F580529363FFF752FF4F
S32D0000E3C8FFF780FF2B4B58221A602A4B1B684FF47A7202FB03F3284A1360274B1B681A46234B03F580535B6CF4
S32D0000E3F01B0E03F00F030133B2FBF3F31A46214B1A601D4B03F58053DB6B1B4A43F0225302F58052D363184BDC
S32D0000E41803F580531B6B164A43F0006302F580521363174B4FF480721A61642004F0BCFE134B5B69124A23F07B
S32D0000E44010035361104B00221A600F4B10225A610E4806F095FA05F097FD05F0F5FD0C4804F008FF0B4809F0C3
S32D0000E468AFFC4FF4FA6004F0B3FF00BF80BD00BF00700440B4190020B0190020B819002000D00340681A0020AD
S32D0000E490AC1900209C1D002080B500AFFDF753FF00BF80BD80B500AFFDF74DFF00BF80BD80B500AFFDF747FF3C
S32D0000E4B800BF80BD80B500AFFDF741FF00BF80BD80B500AFFDF73BFF00BF80BD80B500AFFDF735FF00BF80BD10
S32D0000E4E080B500AFFDF72FFF00BF80BD80B500AFFDF729FF00BF80BD80B500AFFDF723FF00BF80BD80B500AF36
S32D0000E508FDF71DFF00BF80BD80B500AFFDF717FF00BF80BD80B500AFFDF711FF00BF80BD80B500AFFDF70BFF29
S32D0000E53000BF80BD80B500AFFDF705FF00BF80BD80B500AFFDF7FFFE00BF80BD80B500AFFDF7F9FE00BF80BD4D
S32D0000E55880B500AFFDF7F3FE00BF80BD80B500AFFDF7EDFE00BF80BD80B500AFFDF7E7FE00BF80BD80B500AF74
S32D0000E580FDF7E1FE00BF80BD80B500AFFDF7DBFE00BF80BD80B500AFFDF7D5FE00BF80BD80B500AFFDF7CFFEA5
S32D0000E5A800BF80BD80B500AFFDF7C9FE00BF80BD80B500AFFDF7C3FE00BF80BD80B500AFFDF7BDFE00BF80BD8A
S32D0000E5D080B500AFFDF7B7FE00BF80BD80B500AFFDF7B1FE00BF80BD80B500AFFDF7ABFE00BF80BD80B500AFB0
S32D0000E5F8FDF7A5FE00BF80BD80B500AFFDF79FFE00BF80BD80B500AFFDF799FE00BF80BD80B500AFFDF793FE1D
S32D0000E62000BF80BD80B500AFFDF78DFE00BF80BD80B500AFFDF787FE00BF80BD80B500AFFDF781FE00BF80BDC5
S32D0000E64880B500AFFDF77BFE00BF80BD80B500AFFDF775FE00BF80BD80B500AFFDF76FFE00BF80BD80B500AFEB
S32D0000E670FDF769FE00BF80BD80B500AFFDF763FE00BF80BD80B500AFFDF75DFE00BF80BD80B500AFFDF757FE94
S32D0000E69800BF80BD80B500AFFDF751FE00BF80BD80B500AFFDF74BFE00BF80BD80B500AFFDF745FE00BF80BD01
S32D0000E6C080B500AFFDF73FFE00BF80BD80B500AFFDF739FE00BF80BD80B500AFFDF733FE00BF80BD80B500AF27
S32D0000E6E8FDF72DFE00BF80BD80B500AFFDF727FE00BF80BD80B500AFFDF721FE00BF80BD80B500AFFDF71BFE0C
S32D0000E71000BF80BD80B500AFFDF715FE00BF80BD80B500AFFDF70FFE00BF80BD80B500AFFDF709FE00BF80BD3C
S32D0000E73880B500AFFDF703FE00BF80BD80B500AFFDF7FDFD00BF80BD80B500AFFDF7F7FD00BF80BD80B500AF64
S32D0000E760FDF7F1FD00BF80BD80B500AFFDF7EBFD00BF80BD80B500AFFDF7E5FD00BF80BD80B500AFFDF7DFFD87
S32D0000E78800BF80BD80B500AFFDF7D9FD00BF80BD80B500AFFDF7D3FD00BF80BD80B500AFFDF7CDFD00BF80BD7B
S32D0000E7B080B500AFFDF7C7FD00BF80BD80B500AFFDF7C1FD00BF80BD80B500AFFDF7BBFD00BF80BD80B500AFA1
S32D0000E7D8FDF7B5FD00BF80BD80B500AFFDF7AFFD00BF80BD80B500AFFDF7A9FD00BF80BD80B500AFFDF7A3FDFF
S32D0000E80000BF80BD80B500AFFDF79DFD00BF80BD80B500AFFDF797FD00BF80BD80B500AFFDF791FD00BF80BDB6
S32D0000E82880B500AFFDF78BFD00BF80BD80B500AFFDF785FD00BF80BD80B500AFFDF77FFD00BF80BD80B500AFDC
S32D0000E850FDF779FD00BF80BD80B500AFFDF773FD00BF80BD80B500AFFDF76DFD00BF80BD80B500AFFDF767FD76
S32D0000E87800BF80BD80B500AFFDF761FD00BF80BD80B500AFFDF75BFD00BF80BD80B500AFFDF755FD00BF80BDF2
S32D0000E8A080B500AFFDF74FFD00BF80BD80B500AFFDF749FD00BF80BD80B584B000AFF8600B467A60FB72FB68A5
S32D0000E8C8FA7A1A71FB6800225A711749786811F0D1FA0346002B02D0134B7B600AE04FF07E51786811F0B2FAC3
S32D0000E8F00346002B02D04FF07E537B60786810F069FC09A3D3E9002310F0BCFC02460B461046194610F098FF5C
S32D0000E9180246FB681A60FB6818461037BD4680BDABAAAAAAAAAA20400000404180B582B000AF78607B685B79E1
S32D0000E940002B09D07B6800225A717B6819791E230022034804F0C8FC00BF0837BD4680BDAC19002080B584B06E
S32D0000E96800AF786039603B687F2B02DD7F23FB7308E03B6813F1800F02DA8023FB7301E03B68FB737B685B7971
S32D0000E990FA7B9A4209D07B68FA7B5A717B681979FA7B1E23034804F09FFC00BF1037BD4680BD00BFAC1900201D
S32D0000E9B8B0B584B000AF786039603749386811F03BFA0346002B02D0334B3B6008E03349386811F04FFA03462C
S32D0000E9E0002B01D02F4B3B60386810F0F3FB04460D467B681B68184610F0ECFB4FF00002294B10F069FD0246BF
S32D0000EA080B462046294610F039FC02460B461046194610F015FF03463B604FF00001386811F01EFA0346002BD2
S32D0000EA3010D0386810F0CEFB17A3D3E9002310F021FC02460B461046194610F0B5FE0346FB6018E0386810F07C
S32D0000EA58BDFB4FF00002134B10F010FC02460B46104619464FF000020D4B10F031FD02460B461046194610F0CA
S32D0000EA809BFE0346FB60F9687868FFF76BFF00BF1037BD46B0BD00BF52B81E85EB51F43F0000C8C20000C842A5
S32D0000EAA8000059400000604080B483B000AF03460A46FB711346BB71BB79002B03D1134B00221A7002E0114BEC
S32D0000EAD001221A703823FB710E4B1A78FB791343FB710D4B9B78DBB20B4A43F01003DBB29370094B9B78DBB26C
S32D0000EAF8074A43F02003DBB29370054AFB79137100BF0C37BD4680BC704700BF7D1700200060064080B483B0FA
S32D0000EB2000AF01237B607B68312B04DC00BF7B6801337B60F7E700BF0C37BD4680BC704780B582B000AF034614
S32D0000EB480A46FB711346BB71134B1B7800211846FFF7AAFF00F024F8104AFB79137100F01FF80E4ABB791371DA
S32D0000EB7000F01AF80B4B9B78DBB20A4A23F02003DBB29370074B9B78DBB2064A23F01003DBB29370FFF7C2FFB6
S32D0000EB9800BF0837BD4680BD7E1700200060064080B483B000AF174B1B78002B24D100237B60154BDB78DBB24D
S32D0000EBC003F00203002B0CBF01230023DBB2002B0DD07B6842F21072934203DD0B4B01221A7004E07B68013311
S32D0000EBE87B6000BFE5E7084BDB78DBB2064A43F00203DBB2D37000E000BF0C37BD4680BC704700BF7F170020C1
S32D0000EC100060064080B582B000AF0346FB71FB79184600F05FF800BF0837BD4680BD80B582B000AF03460A465F
S32D0000EC38FB711346BB7100F035F8FB795B00DBB21846FFF7E3FFBB791846FFF7DFFF00F037F800BF0837BD4688
S32D0000EC6080BD80B500AFFF2000F03CF80346184680BD80B584B000AF0346FB7100F016F8FB795B005BB243F064
S32D0000EC8801035BB2DBB21846FFF7C0FFFFF7E5FF0346FB7300F014F8FB7B18461037BD4680BDFFFF80B400AFE4
S32D0000ECB0044B9B68034A43F48013936000BFBD4680BC704740F00F4080B400AF044B5B68034A43F480135360E7
S32D0000ECD800BFBD4680BC704740F00F4080B485B000AF0346FB710023BB73164BDB6A03F00043012B0CBF0123C5
S32D0000ED000023DBB2002B03D0FB7B0133FB73F0E70E4BDB6A0D4A43F00043D3620B4AFB7953630A4BDB6A03F498
S32D0000ED280033002B0CBF01230023DBB2002B00D0F3E7044B9B6BBB73BB7B18461437BD4680BC704700C00A4089
S32D0000ED5080B582B000AF204B03F580531B6B1E4A43F4805302F5805213631C4B4FF480721A651B4B5B691A4A69
S32D0000ED7843F480135361FFF7A3FF164B4FF400725A65144B4FF400729A65124B4FF40072DA65124B124A1A60EB
S32D0000EDA0104B124ADA6000237B607B68092B06DCFF20FFF72FFF7B6801337B60F5E704A1D1E9000104F03EFBBF
S32D0000EDC800BF0837BD4680BD9A9999999999B93F0070044000A0044040F00F4000C00A40000C00800500003E60
S32D0000EDF090B486B000AFF860B9607A60FB68534A93420AD1524B03F580535B6B504A43F4806302F58052536370
S32D0000EE1845E0FB684D4A93420AD14B4B03F580535B6B494A43F4006302F58052536336E0FB68474A93420AD170
S32D0000EE40434B03F580535B6B414A43F4805302F58052536327E0FB68404A93420AD13C4B03F580535B6B3A4A31
S32D0000EE6843F4005302F58052536318E0FB683A4A93420AD1344B03F580539B6A324A43F4806302F58052936241
S32D0000EE9009E02F4B03F580539B6A2D4A43F4006302F580529362FB68DB78DBB223F00C03DAB2FB68DA70FB6851
S32D0000EEB800229A70BB684FF47A7203FB02F27B681B0192FBF3F39CB2FB681B78DBB223F01F03FB75230A9BB25A
S32D0000EEE0DBB203F01F03DAB2FB7D1343DAB2FB681A70E2B2FB685A70BB684FF4FA4203FB02F27B681B0192FBAE
S32D0000EF08F3F39AB263019BB2D31A9CB2FB689B7ADBB223F01F03FB75E3B203F01F03DAB2FB7D1343DAB2FB6820
S32D0000EF309A72FB68DB78DBB243F00C03DAB2FB68DA7000BF1837BD4690BC704700A006400070044000B0064045
S32D0000EF5800C0064000D0064000A00E4080B483B000AF78607B681B79DBB203F02003002B0CBF01230023DBB2AF
S32D0000EF80002B00D0F2E77B68DB79DBB218460C37BD4680BC704780B483B000AF78600B46FB707B681B79DBB286
S32D0000EFA85BB2DB43DBB2DB09DBB2002B00D0F4E77B68FA78DA7100BF0C37BD4680BC704780B487B000AFF86032
S32D0000EFD0B9607A60FB687B61BB683B617B685A1E7A60002B14BF01230023DBB2002B08D03A69531C3B617B6986
S32D0000EFF8591C796112781A70ECE700BF1C37BD4680BC704780B487B000AFF860B9607A60FB687B617B685A1EAE
S32D0000F0207A60002B14BF01230023DBB2002B06D07B695A1C7A61BA68D2B21A70EEE700BF1C37BD4680BC7047D3
S32D0000F04880B489B000AFF860B9607A60FB68FB61BB68BB6100237B617B685A1E7A60002B0FD0FB695A1CFA61C2
S32D0000F0701B781946BB695A1CBA611B78CB1A7B617B69002B01D1012300E00023002B00D0E6E77B69184624370A
S32D0000F098BD4680BC704780B483B000AF786039607B681B78002B09D07B681B781A463B68934203D07B6801331B
S32D0000F0C07B60F1E77B681B7818460C37BD4680BC704780B584B000AF786039607B681B6BFB60FA683B689A4234
S32D0000F0E852D07B681B79002B35D07B6858787B6803F134010123FA6803F0F4FE0346002B14BF01230023DBB2EC
S32D0000F110002B01D001233CE07B6800221A717B685A6A7B681B6A1344FA689A4217D27B68DB78FB72FB7A012B34
S32D0000F13811D97B681B6AFA681344FB607B6858787B6803F134010123FA6803F0CBFEFB7A013BFB72EAE73B68B0
S32D0000F160002B15D07B6858787B6803F1340101233A6803F0D7FD0346002B14BF01230023DBB2002B01D00123EA
S32D0000F18803E07B683A681A63002318461037BD4680BD80B584B000AF786000217868FFF794FF0346FB73FB7BC5
S32D0000F1B0002B40F093807B681B78032B7DD17B685B79002B79D07B6800221A637B6834334FF4007200211846A6
S32D0000F1D8FFF718FF7B68552283F832227B68AA2283F833227B68522283F834207B68522283F835207B686122A1
S32D0000F20083F836207B68412283F837207B68722283F818227B68722283F819227B68412283F81A227B6861223B
S32D0000F22883F81B227B681B69DAB27B6883F81C227B681B699BB21B0A9BB2DAB27B6883F81D227B681B691B0C94
S32D0000F250DAB27B6883F81E227B681B691B0EDAB27B6883F81F227B68DB68DAB27B6883F820227B68DB689BB2E6
S32D0000F2781B0A9BB2DAB27B6883F821227B68DB681B0CDAB27B6883F822227B68DB681B0EDAB27B6883F82322D0
S32D0000F2A07B6858787B6803F134017B685A69012303F01CFE7B6800225A717B685B7800220021184603F0DEFEB4
S32D0000F2C80346002B14BF01230023DBB2002B01D00123FB73FB7B18461037BD4680BD80B483B000AF786039608D
S32D0000F2F03B68023B3B607B68DB69023B3A689A4201D3002308E07B689B781A463B6803FB02F27B68DB6A13444A
S32D0000F31818460C37BD4680BC704780B586B000AF786039603B68012B04D97B68DB693A689A4201D30123B5E0C7
S32D0000F3407B681B78032B7AD0032B00F3AD80012B02D0022B4DD0A7E03B683B613B695B083A6913443B617B68D5
S32D0000F3685A6A3B695B0A134419467868FFF7ADFE0346002B14BF01230023DBB2002B40F088803B69C3F3080390
S32D0000F3907A68134493F83430FB603B6901333B617B685A6A3B695B0A134419467868FFF790FE0346002B14BF47
S32D0000F3B801230023DBB2002B6DD13B69C3F308037A68134493F834301B021A46FB681343FB603B6803F0010332
S32D0000F3E0002B02D0FB681B0960E0FB68C3F30B035CE07B685A6A3B681B0A134419467868FFF767FE0346002B04
S32D0000F40814BF01230023DBB2002B46D13B685B0003F4FF7330337A68134404337B617B6901331B781B021AB243
S32D0000F4307B691B781BB213431BB29BB236E07B685A6A3B68DB09134419467868FFF741FE0346002B14BF012380
S32D0000F4580023DBB2002B22D13B689B0003F4FE7330337A68134404337B617B6903331B781A067B6902331B78EA
S32D0000F4801B0413437A6901321278120213437A691278134323F0704308E000BF04E000BF02E000BF00E000BFCC
S32D0000F4A84FF0FF3318461837BD4680BD80B588B000AFF860B9607A60BB68012B04D9FB68DB69BA689A4202D3CB
S32D0000F4D00223FB77EEE0FB681B78032B00F09780032B00F3DA80012B02D0022B6BD0D4E0BB687B617B695B08A3
S32D0000F4F87A6913447B61FB685A6A7B695B0A13441946F868FFF7E1FD0346FB77FB7F002B40F0C2807B69C3F30A
S32D0000F52008033033FA6813440433BB61BB6803F00103002B0DD0BB691B785BB203F00F035AB27B68DBB21B01C0
S32D0000F5485BB213435BB2DBB201E07B68DBB2BA6913707B6901337B61FB6801221A71FB685A6A7B695B0A1344D5
S32D0000F5701946F868FFF7ADFD0346FB77FB7F002B40F090807B69C3F308033033FA6813440433BB61BB6803F044
S32D0000F5980103002B03D07B681B09DBB20CE0BB691B7823F00F03DAB27B681B0ADBB203F00F03DBB21343DBB251
S32D0000F5C0BA69137073E0FB685A6ABB681B0A13441946F868FFF77DFD0346FB77FB7F002B62D1BB685B0003F427
S32D0000F5E8FF733033FA6813440433BB617B68DAB2BB691A707B689BB21B0A9AB2BB690133D2B21A704FE0FB685E
S32D0000F6105A6ABB68DB0913441946F868FFF759FD0346FB77FB7F002B40D1BB689B0003F4FE733033FA681344EC
S32D0000F6380433BB61BB6903331B781A06BB6902331B781B041343BA690132127812021343BA691278134303F0A3
S32D0000F66070437A6813437B607B68DAB2BB691A707B689BB21B0A9AB2BB690133D2B21A707B681A0CBB69023330
S32D0000F688D2B21A707B681A0EBB690333D2B21A7009E00223FB7706E000BF04E000BF02E000BF00E000BFFB6868
S32D0000F6B001221A71FB7F18462037BD4680BD80B584B000AF786039603B68012B04D97B68DB693A689A4202D360
S32D0000F6D80223FB7338E00023FB737B68DB693A689A4231D239687868FFF717FEB860BB68002B26D0BB68012BE9
S32D0000F70002D10223FB7323E0BB68B3F1FF3F02D10123FB731CE0002239687868FFF7CAFE0346FB73FB7B002B53
S32D0000F72811D17B681B69B3F1FF3F07D07B681B695A1C7B681A617B6801225A71BB683B60CBE700BF00E000BFD7
S32D0000F750FB7B18461037BD4680BD80B586B000AF786039603B68002B0DD17B68DB683B613B69002B04D07B68B1
S32D0000F778DB693A699A4215D301233B6112E039687868FFF7CAFDB860BB68012B01D8012364E07B68DB69BA68D7
S32D0000F7A09A4201D2BB685DE03B683B613B697B617B6901337B617B68DB697A699A4207D302237B617A693B6931
S32D0000F7C89A4201D9002349E079697868FFF7A5FDB860BB68002B0ED0BB68B3F1FF3F02D0BB68012B01D1BB6858
S32D0000F7F038E07A693B699A42DAD1002332E000BF6FF0704279697868FFF754FE0346FB73FB7B002B09D13B68E1
S32D0000F818002B06D07A6939687868FFF747FE0346FB73FB7B002B10D17B687A69DA607B681B69B3F1FF3F10D0C0
S32D0000F8407B681B695A1E7B681A617B6801225A7107E0FB7B012B02D14FF0FF3300E001237B617B69184618374E
S32D0000F868BD4680BD80B487B000AF786039607B685B6A04333B613B685B0A7A6812689278B3FBF2F37B613B69AB
S32D0000F8901A1D3A611B68FB60FB68002B01D1002310E07A69FB689A4207D37A69FB68D31A7B613B6904333B61A5
S32D0000F8B8E9E700BF3B691A687B69134418461C37BD4680BC704780B584B000AF78600B467B807B687A88DA8010
S32D0000F8E07B689B68FB60FB68012B05D07B681B68DB69FA689A4201D3022364E0FB68002B08D17B681B681B78D0
S32D0000F908032B03D17B681B689B6AFB60FB68002B13D17B68FA68DA607B681B681B897A889A4201D302234AE00D
S32D0000F9307B681B689A6A7B881B091A447B681A6135E07B681B689B789BB21B017B817A887B899A421CD37B68B5
S32D0000F9581B68F9681846FFF7E0FCF860FB68B3F1FF3F01D101232AE0FB68012B05D97B681B68DB69FA689A427B
S32D0000F98001D302231FE07A887B89D31A7B80DEE77B68FA68DA607B681B68F9681846FFF7A2FC02467B881B0907
S32D0000F9A81A447B681A617B681B6803F134027B8803F00F035B011A447B685A61002318461037BD4680BD90B538
S32D0000F9D085B000AF786039607B68DB8801333B813B89002B03D07B681B69002B01D10423C4E03B8903F00F03C4
S32D0000F9F8002B40F0B0807B681B695A1C7B681A617B68DB68002B08D17B681B681B893A899A42C0F0A080042351
S32D0000FA20ACE03B891B097A6812689278013A1340002B40F094807B681A687B68DB6819461046FFF76EFCF860E9
S32D0000FA48FB68012B01D8022394E0FB68B3F1FF3F01D101238EE07B681B68DB69FA689A426DD33B68002B01D11E
S32D0000FA70042383E07B681A687B68DB6819461046FFF76BFEF860FB68002B01D1072375E0FB68012B01D1022382
S32D0000FA9870E0FB68B3F1FF3F01D101236AE07B681B6800211846FFF710FB0346002B14BF01230023DBB2002B3F
S32D0000FAC001D001235AE07B681B6834334FF4007200211846FFF79AFA7B681A687B681C68F9681046FFF7FFFBEB
S32D0000FAE8034623630023FB727B681B689B78FA7A9A421CD27B681B6801221A717B681B6800211846FFF7E1FA10
S32D0000FB100346002B14BF01230023DBB2002B01D001232BE07B681B681A6B01321A63FB7A0133FB72DCE77B682A
S32D0000FB381B68196BFA7A7B681B688A1A1A637B68FA68DA607B681B68F9681846FFF7C7FB02467B681A617B68B8
S32D0000FB603A89DA807B681B6803F134023B8903F00F035B011A447B685A61002318461437BD4690BD80B586B022
S32D0000FB8800AF786000217868FFF79DFE0346FB75FB7D002B01D0FB7D3CE07B681A687B681B6919461046FFF7FE
S32D0000FBB090FA0346FB75FB7D002B2BD17B685B693B613B691B78FB73FB7B002B02D10423FB7522E03B690B336E
S32D0000FBD81B7803F00803002B0BD17B689B690B2219463869FFF72CFA0346002B01D1012300E00023002B0BD1C3
S32D0000FC0000217868FFF7E3FE0346FB75FB7D002B03D1C6E700BF00E000BFFB7D18461837BD4680BD80B584B0F5
S32D0000FC2800AF786000217868FFF74DFE0346FB73FB7B002B21D17B681A687B681B6919461046FFF742FA03469F
S32D0000FC50FB73FB7B002B13D17B685B691B78BB73BB7BE52B0DD0BB7B002B0AD001217868FFF7ADFE0346FB7373
S32D0000FC78FB7B002B01D1DEE700BFFB7B002B1FD17B681A687B681B6919461046FFF71DFA0346FB73FB7B002BF0
S32D0000FCA012D17B685B69BB6020220021B868FFF7ADF97B689B690B221946B868FFF784F97B681B6801221A7158
S32D0000FCC8FB7B18461037BD4680BDFFFF80B588B000AF786039603B681B68FB60FB681B782F2B03D0FB681B788E
S32D0000FCF05C2B03D1FB680133FB60F3E77B689B69BB600B222021B868FFF780F90023FB7700233B613B697B61EC
S32D0000FD180823BB61FA687B6913441B782E2B2FD17B695A1C7A61FA6813441B78BB77BB7F2E2B0AD17B69022BBB
S32D0000FD4007D83B695A1C3A61BA681344BA7F1A70EAE7BB7F2F2B07D0BB7F5C2B04D0BB7F202B01D90623A7E0E5
S32D0000FD68FA687B691A443B681A60BB7F202B01D8242200E02022BB680B331A70002397E07B695A1C7A61FA68CA
S32D0000FD9013441B78BB77BB7F202B58D9BB7F2F2B55D0BB7F5C2B52D0BB7F2E2B03D03A69BB699A420FD3BB69C8
S32D0000FDB8082B02D1BB7F2E2B01D0062378E008233B610B23BB61FB7F9B00FB773AE097F91E30002B08DAFB7F1B
S32D0000FDE043F00303FB77BB7F803B354AD35CBB77BB7F19463348FFF752F90346002B14BF01230023DBB2002BDA
S32D0000FE0801D0062354E0BB7F402B07D9BB7F5A2B04D8FB7F43F00203FB770CE0BB7F602B09D9BB7F7A2B06D80A
S32D0000FE30FB7F43F00103FB77BB7F203BBB773B695A1C3A61BA681344BA7F1A709CE7FA687B691A443B681A6085
S32D0000FE58BB7F202B01D8042300E00023BB773B69002B01D1062323E0BB681B78E52B02D1BB6805221A70BB6964
S32D0000FE80082B02D1FB7F9B00FB77FB7F03F00303012B03D1BB7F43F01003BB77FB7F03F00C03042B03D1BB7FE9
S32D0000FEA843F00803BB77BB680B33BA7F1A70002318462037BD4680BD6CB60200ECB6020080B584B000AF7860C8
S32D0000FED039603B681B782F2B03D03B681B785C2B06D13B6801333B607B6800229A6004E07B681B689A697B68D3
S32D0000FEF89A603B681B781F2B09D800217868FFF7E2FC0346FB737B6800225A6169E03B4619467868FFF7DAFE5E
S32D0000FF200346FB73FB7B002B58D17868FFF72AFE0346FB737B689B69DB7ABB73FB7B002B1DD0FB7B042B4BD1C4
S32D0000FF48BB7B03F02003002B0DD07B6800229A607B6800225A610023FB73BB7B03F00403002B3BD135E0BB7B35
S32D0000FF7003F00403002B35D10523FB7332E0BB7B03F00403002B2FD17B685B69BB60BB680B331B7803F0100379
S32D0000FF98002B02D10523FB7323E0BB6815331B781B021AB2BB6814331B781BB213431BB29BB21B04BA681B32F5
S32D0000FFC01278120211B2BA681A32127812B20A4312B292B21A437B689A609CE700BF04E000BF02E000BF00E001
S32D0000FFE800BFFB7B18461037BD4680BD80B582B000AF786039607B6858787B6803F1340101233A6802F08AFE4B
S32D000100100346002B14BF01230023DBB2002B01D003234AE07B6803F2322301331B781B021AB27B6893F83232AB
S32D000100381BB213431BB2214A934201D0022338E07B686A3303331B781A067B686A3302331B781B0413437A6853
S32D000100606A3201321278120213437A6892F86A20134323F07F43144A934201D100231CE07B68863303331B7804
S32D000100881A067B68863302331B781B0413437A68863201321278120213437A6892F88620134323F07F43064A02
S32D000100B0934201D1002300E0012318460837BD4680BD00BF55AAFFFF4641540080B592B000AFF860B9601346EF
S32D000100D8FB71FB681B68FB62FB6A1B78303B3B643B6C092B0BD8FB6A01331B783A2B06D1FB6A0233FB62FB68C8
S32D00010100FA6A1A6002E0A34B1B783B643B6C002B01D00B2367E2A04A3B6C52F82330BB62BB68BA6A1A60BB6AA5
S32D00010128002B01D10C235AE2BB6A1B78002B1AD0BB6A5B78184603F023F8034687F8273097F8273003F0010313
S32D00010150002B0CD1FB79002B07D097F8273003F00403002B01D00A233DE200233BE2BB6A00221A703B6CDAB296
S32D00010178BB6A5A70BB6A5B78184602F095FB034687F8273097F8273003F00103002B01D0032324E2FB79002BCE
S32D000101A007D097F8273003F00403002B01D00A2319E20023FB63F96BB86AFFF71BFF034687F8473097F84730F9
S32D000101C8012B22D1BB6A03F5F9733B623B6A04331B78002B19D03B6A0B331B781A063B6A0A331B781B041343C0
S32D000101F03A6A09321278120213433A6A083212781343FB63F96BB86AFFF7F4FE034687F8473097F84730032B10
S32D0001021801D10123E3E197F84730002B01D00D23DDE1BB6A93F840301B021AB2BB6A93F83F301BB213431BB2F5
S32D00010240B3F5007F01D00D23CDE1BB6A93F84B301B021AB2BB6A93F84A301BB213431BB29BB2BB63BB6B002BCF
S32D0001026812D1BB6A93F85B301A06BB6A93F85A301B041343BA6A92F8592012021343BA6A92F858201343BB634F
S32D00010290BB6ABA6B1A62BB6A93F84430FB77BB6AFA7FDA70FB7F012B04D0FB7F022B01D00D2398E1FA7FBB6BC1
S32D000102B802FB03F3BB63BB6A93F84130FB77BB6AFA7F9A70FB7F002B05D0FA7FFB7F013B1340002B01D00D23A3
S32D000102E081E1BB6A93F846301B021AB2BB6A93F845301BB213431BB29AB2BB6A1A81BB6A1B8903F00F03002B64
S32D0001030801D00D236BE1BB6A93F848301B021AB2BB6A93F847301BB213431BB29BB27B637B6B002B12D1BB6A0D
S32D0001033093F857301A06BB6A93F856301B041343BA6A92F8552012021343BA6A92F8542013437B63BB6A93F82E
S32D0001035843301B021AB2BB6A93F842301BB213431BB2BB83BB8B002B01D10D2337E1BA8BBB6B1A44BB6A1B89AD
S32D000103801B091344BB617A6BBB699A4206D20D2329E100BF86170020801700207A6BBB69D31ABA6A9278B3FBBB
S32D000103A8F2F37B617B69002B01D10D2317E1012387F847307B6940F6F572934202D9022387F847307B694FF6CD
S32D000103D0F572934202D9032387F847307B699A1CBB6ADA61FA6BBB691A44BB6ADA62BA8BFB6B1A44BB6A5A629F
S32D000103F897F84730032B1ED1BB6A1B89002B01D00D23ECE0BB6A93F863301A06BB6A93F862301B041343BA6AB4
S32D0001042092F8612012021343BA6A92F860201A43BB6A9A62BB6ADB699B003B631FE0BB6A1B89002B01D10D23F5
S32D00010448CDE0BB6A5A6ABB6B1A44BB6A9A6297F84730022B03D1BB6ADB695B000AE0BB6ADA6913465B00134422
S32D000104705A08BB6ADB6903F0010313443B63BB6A1A6A3B6B03F2FF135B0A9A4201D20D23A9E0BB6A4FF0FF32EE
S32D000104981A61BB6A0022DA6097F84730032B40F08680BB6A00225A71BB6A93F865301B021AB2BB6A93F864304B
S32D000104C01BB213431BB29BB21A46FB6B1A44BB6A5A61BB6A5878BB6A03F13401BB6A5A69012302F01FFC034627
S32D000104E8002B39D1BB6A93F833321B021AB2BB6A93F832321BB213431BB23B4A93422BD1BB6A93F837301A0621
S32D00010510BB6A93F836301B041343BA6A92F8352012021343BA6A92F834201343314A934216D1BB6A93F81B3238
S32D000105381A06BB6A93F81A321B041343BA6A92F8192212021343BA6A92F818221343284A934201D1012300E055
S32D000105600023002B27D0BB6A93F823321A06BB6A93F822321B041343BA6A92F8212212021343BA6A92F820223E
S32D000105881A43BB6ADA60BB6A93F81F321A06BB6A93F81E321B041343BA6A92F81D2212021343BA6A92F81C22AF
S32D000105B01A43BB6A1A61BB6A97F847201A700F4B1B8801339AB20D4B1A800C4B1A88BB6ADA80BB6A00221A63CF
S32D000105D8BB6A00221A71BB6A00229A61002318464837BD4680BD00BF55AAFFFF5252614172724161841700205D
S32D0001060080B582B000AF78600B467B807B68002B08D07B681B78002B04D07B68DB887A889A4201D0092311E024
S32D000106287B685B78184602F0ABFD034603F00103002B14BF01230023DBB2002B01D0032300E000231846083721
S32D00010650BD4680BD80B485B000AF03463960FB71FB79002B01D00B2316E0FB790D4A52F82330FB60FB68002BF0
S32D0001067802D0FB6800221A703B68002B02D03B6800221A70FB7905493A6841F82320002318461437BD4680BC98
S32D000106A0704700BF8017002080B592B000AFF860B9601346FB71FB6800221A60FB7903F01F03FB71FB7923F027
S32D000106C80103DAB207F11C0107F108031846FFF7F9FC034687F8473007F110037B6397F84730002B09D1BA68BD
S32D000106F007F11C0311461846FFF7E6FB034687F847303B6B3B6497F84730002B05D13B6C002B02D1062387F860
S32D000107184730FB7903F01C03002B00F0B18097F84730002B12D097F84730042B07D107F11C031846FFF772FA72
S32D00010740034687F84730FB7943F00803FB713B6B3B6412E03B6C0B331B7803F01103002B03D0072387F8473059
S32D0001076807E0FB7903F00403002B02D0082387F8473097F84730002B40F0A080FB7903F00803002B00F09A80C7
S32D000107900023FB633B6C0E33FA6BD2B21A70FB6B9BB21B0A9AB23B6C0F33D2B21A70FB6B1A0C3B6C1033D2B249
S32D000107B81A70FB6B1A0E3B6C1133D2B21A703B6C0B3300221A703B6C1C3300221A703B6C1D3300221A703B6C84
S32D000107E01E3300221A703B6C1F3300221A703B6C15331B781B021AB23B6C14331B781BB213431BB29BB21B0400
S32D000108083A6C1B321278120211B23A6C1A32127812B20A4312B292B21343BB633B6C1A3300221A703B6C1B33CF
S32D0001083000221A703B6C143300221A703B6C153300221A70FB6901221A71BB6B002B39D0FB691B6BFB63FB69A0
S32D00010858B96B1846FEF72FFF034687F8473097F84730002B2AD1FB69BA6B013ADA60FB69F96B1846FEF729FC23
S32D00010880034687F847301DE097F84730002B19D13B6C0B331B7803F01003002B03D0042387F847300EE0FB79F7
S32D000108A803F00203002B09D03B6C0B331B7803F00103002B02D0072387F8473097F84730002B0FD1FB7903F021
S32D000108D00803002B03D0FB7943F02003FB71FB691A6BFB68DA61FB683A6C1A6297F84730002B42D1FB68FA7994
S32D000108F89A713B6C15331B781B021AB23B6C14331B781BB213431BB29BB21B043A6C1B321278120211B23A6C84
S32D000109201A32127812B20A4312B292B21A43FB681A613B6C1F331B781A063B6C1E331B781B0413433A6C1D32DD
S32D000109481278120213433A6C1C3212781A43FB68DA60FB6800229A60FB6800229A61FB6800225A62FA69FB680E
S32D000109701A60FB69DA88FB689A8097F8473018464837BD4680BD80B58CB000AFF860B9607A603B60BB683B62B2
S32D000109983B6800221A60FB681A68FB689B8819461046FFF729FE0346FB77FB7F002B01D0FB7F4EE1FB689B7963
S32D000109C05BB2002B01DA022347E1FB689B7903F00103002B01D107233FE1FB68DA68FB689B68D31ABB617A68FD
S32D000109E8BB699A4201D9BB697B607B68002B00F02F81FB689B68C3F30803002B40F0FA80FB689B685B0ADAB206
S32D00010A10FB681B689B78013BDBB21340FB75FB7D002B38D1FB689B68002B03D1FB681B69FB6214E0FB685B6AC1
S32D00010A38002B07D0FB689B681946F868FEF712FFF86208E0FB681A68FB685B6919461046FEF763FCF862FB6A4C
S32D00010A60012B08D8FB689B7963F07F03DAB2FB689A710223F1E0FB6AB3F1FF3F08D1FB689B7963F07F03DAB227
S32D00010A88FB689A710123E4E0FB68FA6A5A61FB681A68FB685B6919461046FEF720FC38613B69002B08D1FB68F1
S32D00010AB09B7963F07F03DAB2FB689A710223CCE0FB7D3A6913443B617B685B0A7B627B6A002B47D0FA7D7B6AAD
S32D00010AD81344FA6812689278934206D9FB681B689B781A46FB7DD31A7B62FB681B6858787B6ADBB23A69396AF5
S32D00010B0002F010F90346002B14BF01230023DBB2002B08D0FB689B7963F07F03DAB2FB689A71012399E0FB6867
S32D00010B289B7903F04003002B14D0FB689A693B69D31A7A6A9A420DD9FB689A693B69D31A5B023A6AD018FB6865
S32D00010B5028334FF400721946FEF736FA7B6A5B02BB6264E0FB689B693A699A4243D0FB689B7903F04003002B6E
S32D00010B7822D0FB681B685878FB6803F12801FB689A69012302F0AEF90346002B14BF01230023DBB2002B08D0E5
S32D00010BA0FB689B7963F07F03DAB2FB689A71012353E0FB689B7923F04003DAB2FB689A71FB681B685878FB68A9
S32D00010BC803F1280101233A6902F0A8F80346002B14BF01230023DBB2002B08D0FB689B7963F07F03DAB2FB682F
S32D00010BF09A71012331E0FB683A699A61FB689B68C3F30803C3F50073BB62BA6A7B689A4201D97B68BB62FB6806
S32D00010C189B68C3F308032833FA681344BA6A1946386AFEF7CDF93A6ABB6A13443B62FB689A68BB6A1A44FB68ED
S32D00010C409A603B681A68BB6A1A443B681A607A68BB6AD31A7B60CCE6002318463037BD4680BD80B58AB000AFFF
S32D00010C68F860B9607A603B60BB68BB613B6800221A60FB681A68FB689B8819461046FFF7BBFC0346FB75FB7DFB
S32D00010C90002B01D0FB7D7EE1FB689B795BB2002B01DA022377E1FB689B7903F00203002B01D107236FE1FB6812
S32D00010CB8DA687B681A44FB68DB689A4201D200237B607B68002B00F05081FB689B68C3F30803002B40F0138152
S32D00010CE0FB689B685B0ADAB2FB681B689B78013BDBB21340BB75BB7D002B49D1FB689B68002B10D1FB681B6973
S32D00010D087B627B6A002B1FD1FB681B6800211846FEF71FFD7862FB687A6A1A6114E0FB685B6A002B07D0FB684C
S32D00010D309B681946F868FEF799FD786208E0FB681A68FB685B6919461046FEF706FD78627B6A002B00F00C8165
S32D00010D587B6A012B08D1FB689B7963F07F03DAB2FB689A71022312E17B6AB3F1FF3F08D1FB689B7963F07F0338
S32D00010D80DAB2FB689A71012305E1FB687A6A5A61FB689B7903F04003002B22D0FB681B685878FB6803F128013E
S32D00010DA8FB689A69012302F09DF80346002B14BF01230023DBB2002B08D0FB689B7963F07F03DAB2FB689A71A7
S32D00010DD00123E0E0FB689B7923F04003DAB2FB689A71FB681A68FB685B6919461046FEF77AFA38613B69002BB7
S32D00010DF808D1FB689B7963F07F03DAB2FB689A710223C4E0BB7D3A6913443B617B685B0AFB61FB69002B49D0CA
S32D00010E20BA7DFB691344FA6812689278934206D9FB681B689B781A46BB7DD31AFB61FB681B685878FB69DBB296
S32D00010E483A69B96902F04EF80346002B14BF01230023DBB2002B08D0FB689B7963F07F03DAB2FB689A710123F6
S32D00010E7091E0FB689A693B69D31AFA699A4215D9FB6803F12800FB689A693B69D31A5B02BA6913444FF40072BC
S32D00010E981946FEF795F8FB689B7923F04003DAB2FB689A71FB695B023B6248E0FB689B693A699A4220D0FB68C4
S32D00010EC09A68FB68DB689A420ED2FB681B685878FB6803F1280101233A6901F023FF0346002B01D0012300E046
S32D00010EE80023002B08D0FB689B7963F07F03DAB2FB689A7101234AE0FB683A699A61FB689B68C3F30803C3F541
S32D00010F1000733B623A6A7B689A4201D97B683B62FB689B68C3F308032833FA6813443A6AB9691846FEF748F851
S32D00010F38FB689B7943F04003DAB2FB689A71BA693B6A1344BB61FB689A683B6A1A44FB689A603B681A683B6AD9
S32D00010F601A443B681A607A683B6AD31A7B60ACE600BFFB689A68FB68DB689A4203D9FB689A68FB68DA60FB681F
S32D00010F889B7943F02003DAB2FB689A71002318462837BD4680BD80B586B000AF78607B681A687B689B881946FA
S32D00010FB01046FFF725FB0346FB75FB7D002B40F0AC807B689B7903F02003002B00F0A5807B689B7903F0400374
S32D00010FD8002B1BD07B681B6858787B6803F128017B689A69012301F07DFF0346002B14BF01230023DBB2002BE1
S32D0001100001D001238AE07B689B7923F04003DAB27B689A717B681A687B68DB6919461046FEF757F80346FB755D
S32D00011028FB7D002B75D17B681B6A3B613B690B331A783B690B3342F02002D2B21A707B68DA683B691C33D2B258
S32D000110501A707B68DB689BB21B0A9AB23B691D33D2B21A707B68DB681A0C3B691E33D2B21A707B68DB681A0E64
S32D000110783B691F33D2B21A707B681A693B691A33D2B21A707B681B699BB21B0A9AB23B691B33D2B21A707B68D8
S32D000110A01B691A0C3B691433D2B21A707B681B691B0C9BB21B0A9AB23B691533D2B21A700023FB603B691633CD
S32D000110C8FA68D2B21A70FB689BB21B0A9AB23B691733D2B21A70FB681A0C3B691833D2B21A70FB681A0E3B69B7
S32D000110F01933D2B21A707B689B7923F02003DAB27B689A717B681B6801221A717B681B681846FEF742F8034680
S32D00011118FB75FB7D18461837BD4680BD80B584B000AF78607868FFF736FF0346FB73FB7B002B02D17B680022A8
S32D000111401A60FB7B18461037BD4680BD80B590B000AF786039607B681A687B689B8819461046FFF74DFA034670
S32D0001116887F83F3097F83F30002B02D097F83F3043E27B689B795BB2002B01DA02233CE27B685B6A002B00F03C
S32D00011190F8803B68B3F1FF3F66D17B685B6AFB62FB6A1A1DFA621B687B6102233B637B681B69BB63BB6B002B07
S32D000111B846D0BB6B3B6100237B633B6B02333B63BB6BFB607B6B01337B637B681B68B96B1846FEF7A2F8B863AB
S32D000111E0BB6B012B08D87B689B7963F07F03DAB27B689A71022304E2BB6BB3F1FF3F08D17B689B7963F07F03B0
S32D00011208DAB27B689A710123F7E1FB680133BA6B9A4200D1D4E73A6B7B699A4209D8FB6A1A1DFA627A6B1A6080
S32D00011230FB6A1A1DFA623A691A607B681B68DB69BA6B9A4200D2B8E77B685B6A3A6B1A603A6B7B699A4203D857
S32D00011258FB6A00221A60CEE1112387F83F30CAE17B68DB683A689A4202D97B68DB683B607B683A689A603B6888
S32D00011280002B00F0BC813B68013B19467868FEF7EDFA02467B685A617B681A687B685B6919461046FEF71FF83A
S32D000112A8B861BB69002B08D17B689B7963F07F03DAB27B689A7102239FE13B68013B5B0A7A6812689278013A06
S32D000112D01340BA691344BB617B689B68C3F30803002B00F08C817B689B69BA699A4200F086817B689B7903F070
S32D000112F84003002B22D07B681B6858787B6803F128017B689A69012301F0ECFD0346002B14BF01230023DBB232
S32D00011320002B08D07B689B7963F07F03DAB27B689A71012365E17B689B7923F04003DAB27B689A717B681B68BE
S32D0001134858787B6803F128010123BA6901F0E6FC0346002B14BF01230023DBB2002B08D07B689B7963F07F03A2
S32D00011370DAB27B689A71012343E17B68BA699A613DE17B68DB683A689A4208D97B689B7903F00203002B02D1FB
S32D000113987B68DB683B607B689B683B6200237B627B687A6A9A603B68002B00F0C1807B681B689B785B02FB61F0
S32D000113C03B6A002B1BD03B685A1EFB69B2FBF3F23B6A591EFB69B1FBF3F39A420FD33B6A5A1EFB695B421A40EA
S32D000113E87B689A607B689B683A68D31A3B607B685B69BB622BE07B681B69BB62BB6A002B22D17B681B680021CC
S32D000114101846FEF7A2F9B862BB6A012B08D17B689B7963F07F03DAB27B689A710223E8E0BB6AB3F1FF3F08D168
S32D000114387B689B7963F07F03DAB27B689A710123DBE07B68BA6A1A617B68BA6A5A61BB6A002B6DD03A68FB6989
S32D000114609A4246D97B689B7903F00203002B0CD07B681B68B96A1846FEF76FF9B862BB6A002B09D1FB693B60E5
S32D0001148833E07B681B68B96A1846FDF746FFB862BB6AB3F1FF3F08D17B689B7963F07F03DAB27B689A7101239E
S32D000114B0A7E0BB6A012B05D97B681B68DB69BA6A9A4208D37B689B7963F07F03DAB27B689A71022395E07B680F
S32D000114D8BA6A5A617B689A68FB691A447B689A603A68FB69D31A3B60B4E77B689A683B681A447B689A603B68F3
S32D00011500C3F30803002B17D07B681B68B96A1846FDF7E9FE78627B6A002B08D17B689B7963F07F03DAB27B6829
S32D000115289A71022369E03B685B0A7A6A13447B627B689B68C3F30803002B4BD07B689B697A6A9A4246D07B686E
S32D000115509B7903F04003002B22D07B681B6858787B6803F128017B689A69012301F0BEFC0346002B14BF0123AF
S32D000115780023DBB2002B08D07B689B7963F07F03DAB27B689A71012337E07B689B7923F04003DAB27B689A7149
S32D000115A07B681B6858787B6803F1280101237A6A01F0B8FB0346002B14BF01230023DBB2002B08D07B689B7925
S32D000115C863F07F03DAB27B689A71012315E07B687A6A9A617B689A687B68DB689A420AD97B689A687B68DA60FE
S32D000115F07B689B7943F02003DAB27B689A7197F83F3018464037BD4680BD80B588B000AFF860B9607A60002368
S32D00011618FB61FB68BB61BB68013BFA699A421BDA07F1100307F1140101227868FFF7A7F93B69012B0DD13B7D1E
S32D00011640FB75BB695A1CBA61FA7D1A70FB690133FB61FB7D0A2B02D0E1E700BF00E000BFBB6900221A70FB6988
S32D00011668002B01D0FB6800E0002318462037BD4680BD80B586B000AF03463960FB71FB793B7301237B6107F17A
S32D00011690100307F10C017A693868FFF7E2FA3B697A699A4201D1012301E04FF0FF3318461837BD4680BD80B5F1
S32D000116B884B000AF786039600023FB607B681B78002B18D07B681B7839681846FFF7D1FF0346B3F1FF3F0CBF77
S32D000116E001230023DBB2002B02D04FF0FF3307E07B6801337B60FB680133FB60E2E7FB6818461037BD4680BDBD
S32D0001170880B485B000AF786039600123FB600023BB600023BB60BA683B689A4208DAFB687A6802FB03F3FB6018
S32D00011730BB680133BB60F2E7FB6818461437BD4680BC7047B0B59AB000AF78613961FA600023BB64BB6C7B64CA
S32D000117587B6CB3F1FF3F00F0F3823B695A1C3A611B7887F84F3097F84F30002B00F0E58297F84F30252B0ED022
S32D0001178097F84F3079691846FFF777FF78647B6CB3F1FF3F00F0CB8201237B64C7E2002387F867300023BB6576
S32D000117A83B695A1C3A611B7887F84F3097F84F30302B09D1012387F867303B695A1C3A611B7887F84F300CE01D
S32D000117D097F84F302D2B08D1022387F867303B695A1C3A611B7887F84F3097F84F302E2B05D13B695A1C3A6138
S32D000117F81B7887F84F3097F84F302F2B15D997F84F30392B11D8BA6D13469B0013445B001A4697F84F301344EE
S32D00011820303BBB653B695A1C3A611B7887F84F30E5E797F84F306C2B03D097F84F304C2B0BD197F8673043F0CA
S32D00011848040387F867303B695A1C3A611B7887F84F3097F84F30002B00F0718297F84F3087F84E3097F84E30DA
S32D00011870602B08D997F84E307A2B04D897F84E30203B87F84E3097F84E30423B162B00F2788101A252F823F034
S32D00011898631B01004D1B0100731B0100831B01009D190100831B0100831B0100831B0100831B0100831B010039
S32D000118C0831B0100831B0100831B01006B1B0100831B0100831B0100831B0100F5180100831B0100731B01007C
S32D000118E8831B0100831B01007B1B0100FB681A1DFA601B68FB620023FB65FA6AFB6D13441B78002B03D0FB6D89
S32D000119100133FB65F5E70023BB6497F8673003F00203002B07D1FB6D5A1CFA65BA6D9A4201D9012300E0002394
S32D00011938002B09D079692020FFF79BFE78647B6CBA6C1344BB64E4E77969F86AFFF7AFFE78647B6CBA6C13447A
S32D00011960BB64FB6D5A1CFA65BA6D9A428CBF01230023DBB2002B09D079692020FFF77DFE78647B6CBA6C134403
S32D00011988BB64EAE77B6CB3F1FF3F00F0CE81BB6C7B64CAE1FB68073323F0070303F10802FA60D3E90023C7E9E6
S32D000119B00E23D7E90E23C7E90C2300237B654FF000024FF00003D7E90E010DF0CDFE0346002B18D079692D205F
S32D000119D8FFF74FFE78647B6CBA6C1344BB64BC6BFB6B83F00045C7E90E453B6B3B607B6B83F000437B60D7E97E
S32D00011A000023C7E90C23D7E90C010DF0D5FE0346002B0ED04FF00002AA4BD7E90C010DF05BFD02460B46C7E925
S32D00011A280C237B6D01337B65E9E77B6D013BFB65FB6DB3F1FF3F35D0FB6D19460A20FFF75FFE034618460DF0D9
S32D00011A50AFFB02460B46D7E90E010DF03DFD02460B46104619460DF0A7FE0346BB62BA6A954B83FB0213991088
S32D00011A78D317C91A0B469B000B445B00D31ABB62BB6A3033BB62BB6ADBB279691846FFF7F0FD78647B6CBA6C6F
S32D00011AA01344BB64FB6D013BFB65C5E779692E20FFF7E3FD78647B6CBA6C1344BB64BB6D002B01D10323BB6521
S32D00011AC801233B663A6EBB6D9A4233D83B6E19460A20FFF715FE034618460DF065FBD7E90E230DF0CBFB024638
S32D00011AF00B46104619460DF05FFE0346BB62BA6A714B83FB02139910D317C91A0B469B000B445B00D31ABB6278
S32D00011B18BB6A3033BB62BB6ADBB279691846FFF7A8FD78647B6CBA6C1344BB643B6E01333B66C7E77B6CB3F156
S32D00011B40FF3F00F0F880BB6C7B64F4E0FB681A1DFA601B68DBB279691846FFF78EFD7864EAE0022387F8663051
S32D00011B6813E0082387F866300FE00A2387F866300BE0102387F8663007E097F84F3079691846FFF776FD78643D
S32D00011B90D2E097F8673003F00403002B04D0FB681A1DFA601B680CE097F84E30442B04D1FB681A1DFA601B682A
S32D00011BB803E0FB681A1DFA601B683B6597F84E30442B0BD13B6D002B08DA3B6D5B423B6597F8673043F00803AE
S32D00011BE087F8673000233B6697F866203B6DB3FBF2F101FB02F29B1A87F84E3097F866303A6DB2FBF3F33B650D
S32D00011C0897F84E30092B0BD997F84F30782B01D1272200E0072297F84E30134487F84E303B6E5A1C3A6697F804
S32D00011C304E203032D2B207F168010B4403F8502C3B6D002B03D03B6E0F2B00D8CCE797F8673003F00803002BA7
S32D00011C5808D03B6E5A1C3A6607F1680213442D2203F8502C3B6EFB6597F8673003F00103002B01D0302300E0F2
S32D00011C80202387F84E300023BB6497F8673003F00203002B07D1FB6D5A1CFA65BA6D9A4201D9012300E0002351
S32D00011CA8002B0FD097F84E3079691846FFF7E1FC78647B6CBA6C1344BB64E2E700002440676666663B6E013BD9
S32D00011CD03B6607F118023B6E13441B7879691846FFF7CBFC78647B6CBA6C1344BB643B6E002B00D0EAE7FB6D66
S32D00011CF85A1CFA65BA6D9A428CBF01230023DBB2002B09D079692020FFF7B3FC78647B6CBA6C1344BB64EAE7CB
S32D00011D207B6CB3F1FF3F07D0BB6C7B6404E000BF02E000BF00E000BFBA6C7B6C1344BB640AE500BF00E000BF3B
S32D00011D487B6CB3F1FF3F01D17B6C00E0BB6C18466837BD46B0BD00BF80B588B000AF7860396080233B610F23B9
S32D00011D70FB604FF0FF337B610223FB61FB69B3F5807F23D80123BB61BB69102B1AD8FB69BA6902FB03F33A6868
S32D00011D9803FB02F27B68D31ABB60BB68002B09DBBB687A699A4205D9BB687B61FB693B61BB69FB60BB69013377
S32D00011DC0BB61E1E7FB695B00FB61D7E71D4BDB6A1C4A23F00803D3621A4BDB6A23F47F2323F47F63BB613B69B5
S32D00011DE85B081B029AB2FB68013B1B01DBB21A43BB691343114A43F46023D3620F4B5B6A03F00803002B0CBF84
S32D00011E1001230023DBB2002B03D00A2001F0DCFAF0E7084BDB6A074A43F00803D362054B1B6B044A43F48013BF
S32D00011E38136300BF2037BD4680BD00BF00100B4080B582B000AF786039607B6800221A60414B424ADA62404BB0
S32D00011E60DB6A03F08073002B14BF01230023DBB2002B00D0F3E73A4B0022C3F8C020384B4FF481325A60364B8B
S32D00011E8828229A62344B4FF001125A643B689B6833491846FFF760FF2F4B5B6A03F00303002B14BF0123002304
S32D00011EB0DBB2002B00D0F3E72C4B40F243421A602A4B40F243425A60284B4FF488629A60264B40F24342DA6017
S32D00011ED8244B40F243421A61224B40F243425A61214B03F580531B6B1F4A43F4003302F580521363184B4FF6E4
S32D00011F00FF721A63164B1B4A5A63154BDB6A144A43F00063D362124BDB6A03F00063002B14BF01230023DBB2A9
S32D00011F28002B00D0F3E70C4B5B6A03F48033002B14BF01230023DBB2002B02D07B6801221A60054B1B6B044A7C
S32D00011F5043F080031363002318460837BD4680BD00100B400080000160CC050000D0044000700440B3007F002F
S32D00011F7880B400AF064B5A6A40F207331340002B14BF01230023DBB21846BD4680BC704700100B4080B485B099
S32D00011FA000AF7860074B1B6B7A681340FB60FB68002B00D1F6E7FB6818461437BD4680BC704700BF00100B40CB
S32D00011FC880B584B000AF78607B681B7803F03F03764A52F82330FB60FB68002B05D17B681B78002B01D001239D
S32D00011FF0DCE0714B1B6B704A43F0800313636E4B5B6A03F00103002B14BF01230023DBB2002B00D0F3E7684A10
S32D000120187B685B689360FB6823F44003FB607B685B789B0503F44003FA681343FB607B685B78022B03D1FB682B
S32D0001204043F40013FB607B685B78042B16D1FB6803F44033B3F5003F08D1FB6823F44033FB60FB6843F440331E
S32D00012068FB6007E0FB6823F44033FB60FB6843F40033FB604E4B5B684D4A9BB253607B68DB68002B2AD0FB68F6
S32D0001209003F44033B3F5403F03D0FB6843F40013FB607B681B7A002B03D0FB6843F01003FB607B68DB68012BE9
S32D000120B803D9FB6843F02003FB607B68DB68B3F1FF3F0BD03A4B5A687B68DB681B04384913434B60FB6843F082
S32D000120E00203FB60344B00221A60334AFB68D3603248FFF753FF0346012B14BF01230023DBB2002B09D02C4BEA
S32D000121081B6B2B4A43F4702343F001031363012348E0274B1B6B03F08003002B14BF01230023DBB2002B07D0A8
S32D00012130214B1B6B204A43F001131363012335E01D4B1B6B03F48033002B14BF01230023DBB2002B08D0184B5E
S32D000121581B6B174A43F0011313634FF0FF3321E0FB6803F44033002B15D0114B1A697B681A61FB6803F440335B
S32D00012180B3F5803F0BD10C4B5A697B685A610A4B9A697B689A61084BDA697B68DA61064B1B6B054A43F00103EE
S32D000121A81363002318461037BD4680BD08B7020000100B4001000E0080B592B000AF7860396000237B643B6823
S32D000121D0BB63994B7B637B6B002B02D140F601235FE3964B3B633B6B002B02D140F60B2357E33B6B1B68FB6239
S32D000121F8FB6A002B02D140F60B234EE37B6841F20932934200F23F837B68B3F5985F08D87B68032B00F01A83E6
S32D000122207B68092B00F0098331E37B68A3F59853013B082B00F22B8301A252F823F000BF6522010051250100B5
S32D00012248AD27010067250100A5250100CB26010013270100552601006F2601007649786BFFF7EEFD78647B6CB5
S32D00012270002B40F01083002387F84330002387F82B30002387F82A30002387F82930002387F84230002387F892
S32D00012298283000233B7200237B720023FB6000233B7400237B6107F108031846FFF788FE0346002B14BF012348
S32D000122C00023DBB2002B02D001237B64E8E240F24C4001F081F808233B7200237B724FF4D573FB6000233B74AD
S32D000122E800237B6107F108031846FFF769FEF863FB6B002B09D1BA69FB689A4202D001237B64C9E2012387F8BF
S32D000123104230012387F8283097F82830002B00F0A58037233B7200237B720023FB6000233B7400237B6107F1AC
S32D0001233808031846FFF744FEF863FB6B002B02D001237B64A8E269233B7200237B720023FB6000233B740023CE
S32D000123607B6107F108031846FFF72EFE0346002B14BF01230023DBB2002B02D001237B648EE2BB6903F44013F6
S32D00012388002B6FD00023FB630A2001F021F8FB6B0133FB6337233B7200237B720023FB6000233B7400237B61A9
S32D000123B007F108031846FFF707FE0346002B14BF01230023DBB2002B02D001237B6428E069233B7200237B7236
S32D000123D897F84230002B02D0184BFB6002E04FF44013FB6000233B7400237B6107F108031846FFF7E5FD0346F4
S32D00012400002B14BF01230023DBB2002B02D001237B6406E0BB69002B03DBFB6B632B00D8B6E77B6C002B40F01D
S32D000124283882FB6B632B0BD9002387F8423019E0A0170020A4190020FCB6020000003040012387F8433097F869
S32D000124504230002B0AD0002387F84230BB6903F08043002B02D0012387F8423097F82A30002B02D07B6B0722F1
S32D000124781A6097F82930002B02D07B6B08221A6097F82B30002B02D07B6B04221A6097F84330002B09D07B6BF3
S32D000124A002221A6097F84230002B02D07B6B03221A6097F82B30002B0DD097F84330002B09D07B6B05221A606D
S32D000124C897F84230002B02D07B6B06221A60924B00221A60904B00225A608F4B00229A608D4B0022DA608C4B2E
S32D000124F000221A618A4B00225A61FB6A9A68FB6A5B6819461046FFF72BFC854B40F243421A60834B40F2434287
S32D000125185A60814B4FF488629A607F4B40F24342DA607D4B40F243421A617B4B40F243425A617A4B03F580536A
S32D000125401B6B784A43F4003302F580521363A7E1B86BFFF739FDF863FB6B002B00F09F8102237B649BE1BB6B02
S32D00012568002B02D10C237B6496E16D4BDB6A1B0A5B0003F4FF73FB63694BDB6A1B0903F00F035A1CFB6B02FB82
S32D0001259003F3FB63FB6A9A68FB6BB2FBF3F2BB6B1A607DE1BB6B002B02D10C237B6477E1BB6B1B68002B02D13A
S32D000125B80C237B6470E1FFF7DBFC0346002B0CBF01230023DBB2002B3CD0534B00221A60514B00225A60504B31
S32D000125E000229A604E4B0022DA604D4B00221A614B4B00225A61FB6A9A68BB6B1B6819461046FFF7ADFB464B1F
S32D0001260840F243421A60444B40F243425A60424B4FF488629A60404B40F24342DA603E4B40F243421A613C4B00
S32D0001263040F243425A613B4B03F580531B6B394A43F4003302F58052136329E140F60A237B6425E1BB6B002B63
S32D0001265802D10C237B641FE1314B5B68C3F30C02BB6B1A6018E1BB6B002B02D10C237B6412E1FFF77DFC0346F9
S32D00012680002B0CBF01230023DBB2002B19D0BB6B1B68B3F5805F02D30C237B6400E1224B5B68214A23F4FF5355
S32D000126A823F01F0353601E4B5A68BB6B1B68C3F30C031B4913434B60EEE040F60A237B64EAE0BB6B002B02D11F
S32D000126D00C237B64E4E0144B9B6A5B0803F00303FB63FB6B002B03D1BB6B00221A60D7E0FB6B012B03D1BB6B81
S32D000126F801221A60D0E0FB6B102B03D1BB6B02221A60C9E005237B64C6E0BB6B002B09D10C237B64C0E000BF3F
S32D0001272000D004400070044000100B40FFF724FC0346002B0CBF01230023DBB2002B31D0BB6B1B68002B0AD163
S32D00012748584B9B6A574A23F006039362554B554A9B6A9362A0E0BB6B1B68012B0CD1514B9B6A504A23F0060346
S32D0001277093624E4B9B6A4D4A43F0020393628FE0BB6B1B68022B0AD1484B9B6A474A23F006039362454B454A6A
S32D000127989B6A936280E005237B647DE040F60A237B6479E0BB6B002B02D10C237B6473E03C4BDB6A3B4A43F0B0
S32D000127C00063D362394BDB6A03F00063002B14BF01230023DBB2002B00D0F3E7334B1B6B03F08003002B14BF14
S32D000127E801230023DBB2002B08D02E4B1B6B2D4A43F0800313637B6B00221A60294B5B6A03F48033002B14BFE6
S32D0001281001230023DBB2002B07D07B6B1B68002B06D17B6B01221A6002E07B6B00221A607B6B1A68BB6B1A6069
S32D0001283832E0BB6B1C221A60BB6B043304221A60BB6B08334FF41E721A6025E00220FFF7A1FB144B1B6B03F441
S32D00012860E003002B14BF01230023DBB2002B07D00E4B1B6B0D4A43F4E003136304237B640A4B1B6B094A43F065
S32D000128883203136308E040F609237B6404E000BF02E000BF00E000BF7B6C18464837BD4680BD00BF00100B404C
S32D000128B080B590B000AF0346FB71A64BFB63A64BBB63BB6BA54A1A60FB79002B01D00123A9E1A34B1B78DBB207
S32D000128D803F00203002B14BF01230023DBB2002B03D09D4B1B78DBB299E19B4B1B78DBB203F00303002B0CBF92
S32D0001290001230023DBB2002B01D000238BE1BB6B002B03D0BB6B1B68002B01D1002382E1FB6B904A1A60FB6BD9
