S01100002E2E2F50726F746575732E73313966
S32D0000C000000000205DC2000011C3000017C300001DC3000023C3000029C3000000000000000000000000000073
S32D0000C028000000002FC3000035C30000000000003BC3000041C30000DDDA0000E9DA0000F5DA000001DB0000D9
S32D0000C0500DDB000019DB000025DB000031DB00003DDB000049DB000055DB000061DB00006DDB000079DB000096
S32D0000C07885DB000091DB00009DDB0000A9DB0000B5DB0000C1DB0000CDDB0000D9DB0000E5DB0000F1DB0000BE
S32D0000C0A0FDDB000009DC000015DC000021DC00002DDC000039DC000045DC000051DC00005DDC000069DC0000DD
S32D0000C0C875DC000081DC00008DDC000099DC0000A5DC0000B1DC0000BDDC0000C9DC0000D5DC0000E1DC000004
S32D0000C0F0EDDC000089330100F9DC000005DD000011DD00001DDD000029DD000035DD000041DD00004DDD00009D
S32D0000C11859DD000065DD000071DD00007DDD000089DD000095DD0000A1DD0000ADDD0000B9DD0000C5DD0000C1
S32D0000C140D1DD0000DDDD0000E9DD0000F5DD0000A109010001DE00000DDE000019DE000025DE000031DE000053
S32D0000C1683DDE000049DE000055DE000061DE00006DDE000079DE000085DE000091DE00009DDE0000A9DE00007F
S32D0000C190B5DE0000C1DE0000CDDE00009105010051040100F104010061D8000035060100D9DE0000E5DE0000D2
S32D0000C1B8F1DE0000ACC4010000000020E8160000ACC401000000FF1F00000000E8160020B80400000000FF1F74
S32D0000C1E00000000080B489B000AFF860B9607A60BB68FB61FB68BB6100237B617A697B689A420BD2BA69131DFB
S32D0000C208BB61FB69191DF96112681A607B6904337B61EFE700BF2437BD4680BC704780B485B000AF786039609E
S32D0000C2307B68FB600023BB60BA683B689A4208D2FB681A1DFA6000221A60BB680433BB60F2E700BF1437BD46FE
S32D0000C25880BC704780B586B000AF72B6234B4CF220521A80214B4DF628121A80204B4FF4E9721A801F4B7B615F
S32D0000C2807B691F4A934214D27B691A1D7A611B683B617B691A1D7A611B68FB607B691A1D7A611B68BB60BA68E9
S32D0000C2A8F9683869FFF79AFFE6E77B69134A93420ED27B691A1D7A611B68FB607B691A1D7A611B68BB60B9688B
S32D0000C2D0F868FFF7A8FFECE70B4B7B600B4A7B681A6009F08BF962B601F082FB00F096FDFEE700BF0E200540F0
S32D0000C2F800200540BCC10000D4C10000E4C1000008ED00E000C0000080B400AFFEE780B400AFFEE780B400AFF4
S32D0000C320FEE780B400AFFEE780B400AFFEE780B400AFFEE780B400AFFEE780B400AFFEE780B400AFFEE780B426
S32D0000C34800AFFEE7FFFFFFFFFFFFFFFFFFFFFFFFFFFFFFFFFFFFFFFFFFFFFFFFFFFFFFFFFFFFFFFFFFFFFFFF57
S32D0000C370FFFFFFFFFFFFFFFFFFFFFFFFFFFFFFFFFFFFFFFFFFFFFFFFFFFFFFFFFFFFFFFFFFFFFFFFFFFFFFFFC7
S32D0000C398FFFFFFFFFFFFFFFFFFFFFFFFFFFFFFFFFFFFFFFFFFFFFFFFFFFFFFFFFFFFFFFFFFFFFFFFFFFFFFFF9F
S32D0000C3C0FFFFFFFFFFFFFFFFFFFFFFFFFFFFFFFFFFFFFFFFFFFFFFFFFFFFFFFFFFFFFFFFFFFFFFFFFFFFFFFF77
S32D0000C3E8FFFFFFFFFFFFFFFFFFFFFFFFFFFFFFFFFFFFFFFFFFFFFFFFFFFFFFFFFFFFFFFFFFFFFFFFFEFFFFFF50
S32D0000C41010B5054C237833B9044B13B10448AFF300800123237010BDE816002000000000ACC4010008B5034BC2
S32D0000C4381BB103490348AFF3008008BD00000000EC160020ACC4010080B500AF40F28A21154804F06BFC40F24E
S32D0000C4602671134804F083FC1249114804F09CFC4FF40771104804F05DFC40F607110E4804F075FC4FF0000160
S32D0000C4880B4804F08DFC40F2EE210A4804F04EFC40F61511074804F066FC0749054804F07FFC00BF80BD00BF1D
S32D0000C4B04417002000003443501700205C1700200000A042FFFFFFFF80B500AF3449354804F06AFC002000F02C
S32D0000C4D8E1FE334B1B68184608F06CF82AA3D3E9002308F0BFF802460B461046194608F053FB034619466FF0A6
S32D0000C5002C0001F011F8294B1B682949184608F0EDFC0346184608F0AFFE03461946192001F0C8F81CA1D1E9EA
S32D0000C528000103F04BFC4FF000011C4804F038FC002000F0AFFE1D491D4805F01CFA1D4803F088FD03461946C6
S32D0000C550194805F047FB1A49174805F010FA194803F07CFD03461946134805F03BFB1649164804F019FC4FF064
S32D0000C5780000154903F022FC1449124804F010FC00BF80BDAFF300803333333333330B40333333333333D33F90
S32D0000C5A0000034435017002000000020040000200000BE424CB90100481A00201417002060B9010018170020EF
S32D0000C5C800004842441700200000F03F00002A4380B500AF3A4B1B683A49184608F082FC0346184608F044FE80
S32D0000C5F0034619466FF0220000F096FF344B1B683449184608F072FC0346184608F034FE03461946232001F07F
S32D0000C6184DF82B4B1B682E49184608F063FC0346184608F025FE03461946232000F078FF2849294804F0B4FBF1
S32D0000C640234B1B682449184608F050FC0346184608F012FE034619460F2001F02BF8002000F01CFE1F491E483A
S32D0000C66804F09EFB14A1D1E9000103F0A7FB144B1B681B49184608F035FC0346184608F0F7FD034619466FF0AB
S32D0000C690270000F049FF1549154801F0B1FC1349144801F0ADFC4FF00000134903F08AFB0F4801F063FC0F4861
S32D0000C6B801F060FC00BF80BD9A9999999999C93F00000020000010410400002000003C420000A0410000344301
S32D0000C6E0501700200000BE420000A040000020C2341700202C1700200000F03F80B500AF1E491F4804F050FBF5
S32D0000C7081E4B1B681E49184608F0ECFB0346184608F0AEFD034619466FF0180000F000FF184B1B681849184676
S32D0000C73008F0DCFB0346184608F09EFD03461946192000F0B7FFFFF783FE00F077FD0F4B1B681049184608F0E4
S32D0000C758C9FB0346184608F08BFD03461946192000F048FF002000F095FD00F099F800BF80BD00BF000034435B
S32D0000C78050170020000000200000A0400400002000000C430000C84280B500AF384B1B68184607F00BFF4FF0FF
S32D0000C7A80002364B07F05EFF02460B461046194608F0F2F9034619462D2000F0B1FE4FF000002F4903F0FAFA29
S32D0000C7D02E4B1B682E49184608F088FB0346184608F04AFD03461946192000F007FF4FF00000254903F0E6FAB2
S32D0000C7F8214B1B68184607F0DDFE1DA3D3E9002307F030FF02460B461046194608F0C4F9034619463C2000F038
S32D0000C82083FE4FF00000184903F0CCFA174B1B681849184608F05AFB0346184608F01CFD03461946192000F096
S32D0000C84835FF4FF000000E4903F0B8FA1049114805F076F94FF000010F4801F0CDFB4FF000010E4801F0C8FBA3
S32D0000C87000BF80BDAFF300800000000000E042400000002000002F400000E03F0400002000005C420000C842A0
S32D0000C898B8B90100481A0020341700202C17002080B500AF1B4B1B68184607F083FE4FF00002194B07F0D6FE9D
S32D0000C8C002460B461046194608F06AF9034619466FF0180000F028FE124B1B681249184608F004FB0346184635
S32D0000C8E808F0C6FC03461946192000F083FE012000F0D0FC0B490C4804F052FA4FF000004FF0804103F05AFACB
S32D0000C9100849074804F048FA00BF80BD0000002000000440040000200000DC42000034435C17002000007042C5
S32D0000C93880B582B000AF78604FF000009C4903F03DFA9C4B1B689C49184608F0CBFA0346184608F08DFC0346BA
S32D0000C96019466FF0180000F0DFFD7B68002B0FD1944B1B689449184608F0B8FA0346184608F07AFC0346194615
S32D0000C988192000F093FE11E07B68022B0ED18B4B1B688B49184608F0A5FA0346184608F067FC034619461920E2
S32D0000C9B000F024FE7B68002B21D100F03FFC7F4B1B684FF08141184608F090FA0346184608F052FC0346194659
S32D0000C9D8192000F0A5FD794B1B687A49184608F081FA0346184608F043FC03461946192000F000FE58E07B68C3
S32D0000CA00022B31D100F01AFC6C4B1B684FF08141184608F06BFA0346184608F02DFC03461946192000F080FDC7
S32D0000CA28664B1B686649184608F05CFA0346184608F01EFC03461946192000F037FE5D4B1B685D49184608F06B
S32D0000CA504DFA0346184608F00FFC034619466FF0220000F061FD23E0564B1B685849184608F03CFA0346184655
S32D0000CA7808F0FEFB03461946192000F017FE4D4B1B68184607F096FD4FF000024F4B07F0E9FD02460B4610460F
S32D0000CAA0194608F07DF803461946232000F03CFD49494A4805F048F8404B1B68184607F07DFD4FF00002464B80
S32D0000CAC807F0D0FD02460B461046194608F064F803461946192000F023FD4049404804F05FF94FF000003249D2
S32D0000CAF003F068F9314B1B68184607F05FFD4FF00002374B07F0B2FD02460B461046194608F046F8034619467F
S32D0000CB186FF0180000F004FD4FF00001304804F03FF94FF00000224903F048F9214B1B68184607F03FFD4FF006
S32D0000CB400002274B07F092FD02460B461046194608F026F803461946192000F0E5FC4FF00000224903F02EF9F3
S32D0000CB6821491F4804F01CF94FF000001F4903F025F9104B1B68184607F01CFD4FF00002124B07F06FFD024678
S32D0000CB900B461046194608F003F8034619466FF0180000F0C1FC14490F4804F0FDF800BF0837BD4680BD00BF18
S32D0000CBB80000E03F00000020000040400400002000000C420000F0410000A04000000C40C8B90100481A0020BD
S32D0000CBE0000016400000BE42441700200000084000008C420000F03F0000344380B500AF2E4B1B682E491846E5
S32D0000CC0808F070F90346184608F032FB034619462D2000F085FC294B1B682949184608F061F90346184608F0B3
S32D0000CC3023FB034619462D2000F0E0FC012000F02DFB1E4B1B682149184608F04FF90346184608F011FB0346D6
S32D0000CC5819462D2000F064FC184B1B681A49184608F040F90346184608F002FB034619462D2000F0BFFC0F4B44
S32D0000CC801B68184607F09AFC4FF00002114B07F0EDFC02460B461046194607F081FF034619466FF02C0000F0B3
S32D0000CCA83FFC0B4807F08EF903461846FFF740FE00BF80BD0000002000002041040000200000B442000090410F
S32D0000CCD000005C4200000C40B01A002080B500AF474B1B68184607F069FC4FF00002454B07F0BCFC02460B4696
S32D0000CCF81046194607F050FF034619466FF0220000F00EFC3E4B1B683E49184608F0EAF80346184608F0ACFAE0
S32D0000CD2003461946192000F0C5FCFFF791FB012000F0B4FA324B1B68184607F03FFC4FF00002334B07F092FC3E
S32D0000CD4802460B461046194607F026FF034619462D2000F0E5FB2A4B1B682C49184608F0C1F80346184608F073
S32D0000CD7083FA03461946192000F09CFC204B1B682549184608F0B2F80346184608F074FA03461946232000F06B
S32D0000CD98C7FB1B4B1B681B49184608F0A3F80346184608F065FA03461946192000F07EFC114B1B681946184688
S32D0000CDC007F08CFF0346184608F056FA03461946232000F0A9FB0C4B1B680C49184608F085F80346184608F0B4
S32D0000CDE847FA03461946192000F004FC002000F051FA00BF80BD00BF00000020000018400400002000003442E3
S32D0000CE1000002D400000DC420000144280B500AF144806F0B7FE134807F0D0F803461946114804F09CFE00F08F
S32D0000CE38E1F9034683F00103DBB2002B00D0F6E7FFF702FBFFF7A4FCFFF73AFBFFF7C0FBFFF750FCFFF7CEFE64
S32D0000CE60FFF73CFF00F00AF800F02EF90023184680BD00BFB01A0020481A002090B583B000AF4FF000033B607D
S32D0000CE88814B1B68184607F095FB4FF000027F4B07F0E8FB02460B461046194607F07CFE034619466FF022007B
S32D0000CEB000F03AFB784B1B687849184608F016F80346184608F0D8F903461946192000F095FB002000F0E2F908
S32D0000CED86D4B1B684FF08141184608F003F80346184608F0C5F9034619466FF0220000F017FB674B1B68684931
S32D0000CF00184607F0F3FF0346184608F0B5F903461946192000F0CEFB5D4B1B68184608F0ABF9034619461920CF
S32D0000CF2800F0FEFA4FF000005C4902F047FF0023FB715B495B4804F01EFD5B4803F0F8FB03461946574804F02E
S32D0000CF5021FE574803F0F0FB0246564B1B6801210C461946104608F05FF90346002B01D100231C46E3B2002BA7
S32D0000CF7801D00123FB714A494A4804F0FCFCFB791946484804F02AFEFB79002B2DD0404B1B684749184607F00B
S32D0000CFA0A5FF0346184608F067F903461946192000F024FB364B1B681946184607F08EFE0346184608F058F99C
S32D0000CFC803461946192000F0ABFA314B1B683849184607F087FF0346184608F049F903461946192000F062FB5B
S32D0000CFF02CE0294B1B683049184607F077FF0346184608F039F903461946192000F052FB1F4B1B681946184633
S32D0000D01807F060FE0346184608F02AF903461946192000F07DFA1A4B1B682149184607F059FF0346184608F0ED
S32D0000D0401BF903461946192000F0D8FA104B1B681A49184607F04AFF0346184608F00CF9034619466FF0180069
S32D0000D06800F05EFA1449154803F09AFE4FF000000A4902F0A3FE4FF08041192000F028FA00BF0C37BD4690BD4B
S32D0000D0900000002000002B40040000200000E6420000D2420000E03F40BA0100481A002010170020180000206C
S32D0000D0B800005C4200004040000048424417002080B500AFFFF7C0F9214B1B681946184607F000FE034618464C
S32D0000D0E008F0CAF8034619466FF0180000F01CFA1A4B1B681A49184607F0F8FE0346184608F0BAF803461946B4
S32D0000D108372000F0D3FA124B1B681449184607F0E9FE0346184608F0ABF8034619462D2000F0FEF90B4B1B6875
S32D0000D1300D49184607F0DAFE0346184608F09CF8034619462D2000F059FA06492D2000F0C3F900BF80BD00BFE0
S32D0000D15800000020040000200000C842000020410000344280B500AF1A4803F0E1FA0246194B1B68194610468C
S32D0000D18008F070F80346002B19D1164803F0D4FA0246154B1B681946104608F063F80346002B0CD1114803F0D4
S32D0000D1A8C7FA0246104B1B681946104608F056F80346002B01D0012300E00023002B05D00A490B4804F0BCFCB9
S32D0000D1D0012300E00023184680BD00BF0C17002008000020041700200C000020081700201000002048BA01006C
S32D0000D1F8481A002098B500AF0C4803F099FA02460B4B1B6801210C461946104608F008F80346002B01D1002306
S32D0000D2201C46E3B2002B01D0012300E00023184698BD00BF101700201400002080B582B000AF19237B60FFF7B6
S32D0000D24891FF034683F00103DBB2002B13D07B68C3F10203184607F0F1FD034619460B4800F0CAFE786807F064
S32D0000D270E9FD03461946084800F0C2FEE3E7054800F07CFE044800F079FE00BF0837BD4680BD00BF3417002066
S32D0000D2982C170020B0B584B000AF78607B68012B7BD17E4802F0D6FE0346002B07D07C4802F0D0FE0346002BBB
S32D0000D2C001D0012300E00023002B08D07749784800F096FE7749784800F092FEE5E7714802F0BCFE0346002B9C
S32D0000D2E80CBF01230023DBB2002B05D04FF000016D4800F081FE0FE0694802F0ABFE0346002B0CBF0123002354
S32D0000D310DBB2002B04D04FF00001674800F070FE02F076FD02460B461046194607F080FC0346FB605B4802F0B7
S32D0000D33891FE0346002B05D1594802F08BFE0346002B1AD002F060FD04460D46F86807F031F902460B46204608
S32D0000D360294606F0CBFF02460B46104619464FF00002524B07F0ECFB0346002B01D0012300E00023002B00F0DF
S32D0000D38883804D494D4804F0DBFB02F03DFD02460B464A4804F00DFCC8E7494802F05AFE0346002B07D04748C7
S32D0000D3B002F054FE0346002B01D0012300E00023002B08D042493A4800F01AFE41493A4800F016FEE5E73C4827
S32D0000D3D802F040FE034683F00103DBB2002B05D04FF00001304800F007FE0DE0354802F031FE034683F00103B2
S32D0000D400DBB2002B04D04FF000012B4800F0F8FD02F0FEFC02460B461046194607F008FC0346FB60284802F09F
S32D0000D42819FE0346002B05D1264802F013FE0346002B1AD002F0E8FC04460D46F86807F0B9F802460B4620462C
S32D0000D450294606F053FF02460B46104619464FF00002164B07F074FB0346002B01D0012300E00023002B0BD02F
S32D0000D4781149124804F064FB02F0C6FC02460B460E4804F096FBC9E7074800F073FD084800F070FD00BF103745
S32D0000D4A0BD46B0BD1C170020201700200000B841341700200000C8C12C1700200000084064BA0100481A00200B
S32D0000D4C814170020181700200000B8C10000C84180B582B000AF78603960786807F0AEFC034619460C4800F026
S32D0000D4F087FD7B685B42184607F0A4FC03461946084800F07DFD386802F03CFC044800F035FD044800F032FD10
S32D0000D51800BF0837BD4680BD2C17002034170020F0B583B000AF786039602E4803F0DEF82D4803F0DBF8786887
S32D0000D54007F080FC034619462A4800F059FD7B68002B0CDA7A686FF001039B1A184607F071FC03461946244826
S32D0000D56800F04AFD0AE07B68C3F10203184607F065FC034619461E4800F03EFD1A4803F0A3F80446174803F05D
S32D0000D5909FF803462344184606F0FEFF4FF000024FF0804307F08CF902460B4614461D46386806F0F1FF0246F2
S32D0000D5B80B4601210E462046294607F0C5FA0346002B01D100231E46F3B2002B00D0D5E7064800F0CFFC064873
S32D0000D5E000F0CCFC00BF0C37BD46F0BD24170020281700202C17002034170020F0B583B000AF786039602748C4
S32D0000D60803F074F8264803F071F87B685B42184607F014FC03461946224800F0EDFC7B685B42184607F00AFC20
S32D0000D630034619461E4800F0E3FC1B4803F048F80446184803F044F803462344184606F0A3FF4FF000024FF05A
S32D0000D658804307F031F902460B4614461D46386806F096FF02460B4601210E462046294607F06AFA0346002B8C
S32D0000D68001D100231E46F3B2002B00D0D5E7074800F074FC064800F071FC00BF0C37BD46F0BD00BF24170020A1
S32D0000D6A8281700202C17002034170020F0B583B000AF78603960254803F018F8244803F015F8786807F0BAFBC7
S32D0000D6D003461946214800F093FC786807F0B2FB034619461E4800F08BFC1B4802F0F0FF0446184802F0ECFFC8
S32D0000D6F803462344184606F04BFF4FF000024FF0804307F0D9F802460B4614461D46386806F03EFF02460B46E9
S32D0000D72001210E462046294607F012FA0346002B01D100231E46F3B2002B00D0D5E7074800F01CFC064800F0CF
S32D0000D74819FC00BF0C37BD46F0BD00BF24170020281700202C1700203417002080B582B000AF786039607B683B
S32D0000D770012B47D13B684FF6FF72934242D10B21224802F0C9FF0D21214802F0C5FF0F21204802F0C1FF1F21DF
S32D0000D7981F4802F0BDFF18211E4802F07FFB07211D4802F07BFB19211C4802F077FB01211B4802F073FB08213E
S32D0000D7C01A4802F0CFFC1021194802F0CBFC194A0021194800F094FB164A0121174800F08FFB144A0221164833
S32D0000D7E800F08AFB0321154803F084FA0721144803F080FA0021134803F07CFA00BF0837BD4680BD041700205D
S32D0000D810081700200C1700201017002014170020181700201C17002020170020241700202817002000001041D2
S32D0000D8382C170020341700203C17002044170020501700205C17002080B500AF4FF6FF710120FFF783FF80BD7D
S32D0000D86080B500AF0F4BD3F8A03003F48053002B14BF01230023DBB2002B10D0094BD3F8A030084A23F48053EF
S32D0000D888C2F8A030064806F0ABFC064B1B68054A23F40053136000BF80BD00BF00C00440D01A0020C0F00F4035
S32D0000D8B080B400AF124B4FF480725A63114B5B69104A43F4005353610E4B1B680D4A43F4005313600A4B0C4A85
S32D0000D8D81A630C4BD3F888310A4A43F08063C2F88831084B9B68074A43F08063936000BFBD4680BC704700BFC9
S32D0000D90000C00440C0F00F4003010A0000E100E080B400AF334B00225A70324B98221A70304B9B79DBB203F00A
S32D0000D9281003002B14BF01230023DBB2002B00D0F2E72A4B9B79DBB29B08DBB203F00303022B14BF0123002392
S32D0000D950DBB2002B00D0F0E7224B18221A71214B00225A71204B03F580531A461F4B53641C4B54225A711B4BFA
S32D0000D9789B79DBB203F02003002B0CBF01230023DBB2002B00D0F2E7144B9B79DBB203F04003002B0CBF0123DC
S32D0000D9A00023DBB2002B00D0F2E70E4B1B78DBB20C4A03F03F03DBB213700A4B9B79DBB29B08DBB203F00303A2
S32D0000D9C8032B14BF01230023DBB2002B00D0F0E700231846BD4680BC704700BF00400640007004400000130106
S32D0000D9F080B500AF314B03F580539B6B2F4A43F4785302F580529363FFF752FFFFF780FF2B4B58221A602A4B03
S32D0000DA181B684FF47A7202FB03F3284A1360274B1B681A46234B03F580535B6C1B0E03F00F030133B2FBF3F30C
S32D0000DA401A46214B1A601D4B03F58053DB6B1B4A43F0225302F58052D363184B03F580531B6B164A43F0006343
S32D0000DA6802F580521363174B4FF480721A61642002F05AF8134B5B69124A23F010035361104B00221A600F4BCE
S32D0000DA9010225A610E4803F033FC02F035FF02F093FF0C4802F0A6F80B4806F0F1FB4FF4FA6002F051F900BFA8
S32D0000DAB880BD00BF0070044094190020901900209819002000D00340481A00208C190020401B002080B500AF70
S32D0000DAE0FEF731FC00BF80BD80B500AFFEF72BFC00BF80BD80B500AFFEF725FC00BF80BD80B500AFFEF71FFC14
S32D0000DB0800BF80BD80B500AFFEF719FC00BF80BD80B500AFFEF713FC00BF80BD80B500AFFEF70DFC00BF80BD47
S32D0000DB3080B500AFFEF707FC00BF80BD80B500AFFEF701FC00BF80BD80B500AFFEF7FBFB00BF80BD80B500AF6E
S32D0000DB58FEF7F5FB00BF80BD80B500AFFEF7EFFB00BF80BD80B500AFFEF7E9FB00BF80BD80B500AFFEF7E3FB8F
S32D0000DB8000BF80BD80B500AFFEF7DDFB00BF80BD80B500AFFEF7D7FB00BF80BD80B500AFFEF7D1FB00BF80BD86
S32D0000DBA880B500AFFEF7CBFB00BF80BD80B500AFFEF7C5FB00BF80BD80B500AFFEF7BFFB00BF80BD80B500AFAC
S32D0000DBD0FEF7B9FB00BF80BD80B500AFFEF7B3FB00BF80BD80B500AFFEF7ADFB00BF80BD80B500AFFEF7A7FB07
S32D0000DBF800BF80BD80B500AFFEF7A1FB00BF80BD80B500AFFEF79BFB00BF80BD80B500AFFEF795FB00BF80BDC2
S32D0000DC2080B500AFFEF78FFB00BF80BD80B500AFFEF789FB00BF80BD80B500AFFEF783FB00BF80BD80B500AFE7
S32D0000DC48FEF77DFB00BF80BD80B500AFFEF777FB00BF80BD80B500AFFEF771FB00BF80BD80B500AFFEF76BFB7E
S32D0000DC7000BF80BD80B500AFFEF765FB00BF80BD80B500AFFEF75FFB00BF80BD80B500AFFEF759FB00BF80BDFD
S32D0000DC9880B500AFFEF753FB00BF80BD80B500AFFEF74DFB00BF80BD80B500AFFEF747FB00BF80BD80B500AF23
S32D0000DCC0FEF741FB00BF80BD80B500AFFEF73BFB00BF80BD80B500AFFEF735FB00BF80BD80B500AFFEF72FFBF6
S32D0000DCE800BF80BD80B500AFFEF729FB00BF80BD80B500AFFEF723FB00BF80BD80B500AFFEF71DFB00BF80BD39
S32D0000DD1080B500AFFEF717FB00BF80BD80B500AFFEF711FB00BF80BD80B500AFFEF70BFB00BF80BD80B500AF5E
S32D0000DD38FEF705FB00BF80BD80B500AFFEF7FFFA00BF80BD80B500AFFEF7F9FA00BF80BD80B500AFFEF7F3FA70
S32D0000DD6000BF80BD80B500AFFEF7EDFA00BF80BD80B500AFFEF7E7FA00BF80BD80B500AFFEF7E1FA00BF80BD77
S32D0000DD8880B500AFFEF7DBFA00BF80BD80B500AFFEF7D5FA00BF80BD80B500AFFEF7CFFA00BF80BD80B500AF9D
S32D0000DDB0FEF7C9FA00BF80BD80B500AFFEF7C3FA00BF80BD80B500AFFEF7BDFA00BF80BD80B500AFFEF7B7FAE9
S32D0000DDD800BF80BD80B500AFFEF7B1FA00BF80BD80B500AFFEF7ABFA00BF80BD80B500AFFEF7A5FA00BF80BDB3
S32D0000DE0080B500AFFEF79FFA00BF80BD80B500AFFEF799FA00BF80BD80B500AFFEF793FA00BF80BD80B500AFD8
S32D0000DE28FEF78DFA00BF80BD80B500AFFEF787FA00BF80BD80B500AFFEF781FA00BF80BD80B500AFFEF77BFA60
S32D0000DE5000BF80BD80B500AFFEF775FA00BF80BD80B500AFFEF76FFA00BF80BD80B500AFFEF769FA00BF80BDEE
S32D0000DE7880B500AFFEF763FA00BF80BD80B500AFFEF75DFA00BF80BD80B500AFFEF757FA00BF80BD80B500AF14
S32D0000DEA0FEF751FA00BF80BD80B500AFFEF74BFA00BF80BD80B500AFFEF745FA00BF80BD80B500AFFEF73FFAD8
S32D0000DEC800BF80BD80B500AFFEF739FA00BF80BD80B500AFFEF733FA00BF80BD80B500AFFEF72DFA00BF80BD2A
S32D0000DEF080B500AFFEF727FA00BF80BDFFFFFFFF80B584B000AFF8600B467A60FB72FB68FA7A1A71FB68002223
S32D0000DF185A711749786807F0A1F90346002B02D0134B7B600AE04FF07E51786807F082F90346002B02D04FF0F1
S32D0000DF407E537B60786806F039FB09A3D3E9002306F08CFB02460B461046194606F068FE0246FB681A60FB68C3
S32D0000DF6818461037BD4680BDABAAAAAAAAAA20400000404180B582B000AF78607B685B79002B09D07B6800221A
S32D0000DF905A717B6819791E230022034801F064FE00BF0837BD4680BD8C19002080B584B000AF786039603B68F3
S32D0000DFB87F2B02DD7F23FB7308E03B6813F1800F02DA8023FB7301E03B68FB737B685B79FA7B9A4209D07B68E1
S32D0000DFE0FA7B5A717B681979FA7B1E23034801F03BFE00BF1037BD4680BD00BF8C190020B0B584B000AF786049
S32D0000E00839603749386807F00BF90346002B02D0334B3B6008E03349386807F01FF90346002B01D02F4B3B606A
S32D0000E030386806F0C3FA04460D467B681B68184606F0BCFA4FF00002294B06F039FC02460B462046294606F01E
S32D0000E05809FB02460B461046194606F0E5FD03463B604FF00001386807F0EEF80346002B10D0386806F09EFA4D
S32D0000E08017A3D3E9002306F0F1FA02460B461046194606F085FD0346FB6018E0386806F08DFA4FF00002134BDA
S32D0000E0A806F0E0FA02460B46104619464FF000020D4B06F001FC02460B461046194606F06BFD0346FB60F968EF
S32D0000E0D07868FFF76BFF00BF1037BD46B0BD00BF52B81E85EB51F43F0000C8C20000C8420000594000006040C4
S32D0000E0F880B483B000AF03460A46FB711346BB71BB79002B03D1134B00221A7002E0114B01221A703823FB716B
S32D0000E1200E4B1A78FB791343FB710D4B9B78DBB20B4A43F01003DBB29370094B9B78DBB2074A43F02003DBB265
S32D0000E1489370054AFB79137100BF0C37BD4680BC704700BF681700200060064080B483B000AF01237B607B686B
S32D0000E170312B04DC00BF7B6801337B60F7E700BF0C37BD4680BC704780B582B000AF03460A46FB711346BB711E
S32D0000E198134B1B7800211846FFF7AAFF00F024F8104AFB79137100F01FF80E4ABB79137100F01AF80B4B9B786A
S32D0000E1C0DBB20A4A23F02003DBB29370074B9B78DBB2064A23F01003DBB29370FFF7C2FF00BF0837BD4680BD9D
S32D0000E1E8691700200060064080B483B000AF174B1B78002B24D100237B60154BDB78DBB203F00203002B0CBF6C
S32D0000E21001230023DBB2002B0DD07B6842F21072934203DD0B4B01221A7004E07B6801337B6000BFE5E7084BFF
S32D0000E238DB78DBB2064A43F00203DBB2D37000E000BF0C37BD4680BC704700BF6A1700200060064080B582B03B
S32D0000E26000AF0346FB71FB79184600F05FF800BF0837BD4680BD80B582B000AF03460A46FB711346BB7100F045
S32D0000E28835F8FB795B00DBB21846FFF7E3FFBB791846FFF7DFFF00F037F800BF0837BD4680BD80B500AFFF20E3
S32D0000E2B000F03CF80346184680BD80B584B000AF0346FB7100F016F8FB795B005BB243F001035BB2DBB2184662
S32D0000E2D8FFF7C0FFFFF7E5FF0346FB7300F014F8FB7B18461037BD4680BDFFFF80B400AF044B9B68034A43F4C4
S32D0000E3008013936000BFBD4680BC704740F00F4080B400AF044B5B68034A43F48013536000BFBD4680BC7047C1
S32D0000E32840F00F4080B485B000AF0346FB710023BB73164BDB6A03F00043012B0CBF01230023DBB2002B03D085
S32D0000E350FB7B0133FB73F0E70E4BDB6A0D4A43F00043D3620B4AFB7953630A4BDB6A03F40033002B0CBF0123B3
S32D0000E3780023DBB2002B00D0F3E7044B9B6BBB73BB7B18461437BD4680BC704700C00A4080B582B000AF204B0F
S32D0000E3A003F580531B6B1E4A43F4805302F5805213631C4B4FF480721A651B4B5B691A4A43F480135361FFF730
S32D0000E3C8A3FF164B4FF400725A65144B4FF400729A65124B4FF40072DA65124B124A1A60104B124ADA60002305
S32D0000E3F07B607B68092B06DCFF20FFF72FFF7B6801337B60F5E704A1D1E9000101F0DAFC00BF0837BD4680BDB5
S32D0000E4189A9999999999B93F0070044000A0044040F00F4000C00A40000C00800500003E90B486B000AFF860D6
S32D0000E440B9607A60FB68534A93420AD1524B03F580535B6B504A43F4806302F58052536345E0FB684D4A9342B6
S32D0000E4680AD14B4B03F580535B6B494A43F4006302F58052536336E0FB68474A93420AD1434B03F580535B6BFF
S32D0000E490414A43F4805302F58052536327E0FB68404A93420AD13C4B03F580535B6B3A4A43F4005302F58052B7
S32D0000E4B8536318E0FB683A4A93420AD1344B03F580539B6A324A43F4806302F58052936209E02F4B03F5805320
S32D0000E4E09B6A2D4A43F4006302F580529362FB68DB78DBB223F00C03DAB2FB68DA70FB6800229A70BB684FF4A7
S32D0000E5087A7203FB02F27B681B0192FBF3F39CB2FB681B78DBB223F01F03FB75230A9BB2DBB203F01F03DAB277
S32D0000E530FB7D1343DAB2FB681A70E2B2FB685A70BB684FF4FA4203FB02F27B681B0192FBF3F39AB263019BB2B2
S32D0000E558D31A9CB2FB689B7ADBB223F01F03FB75E3B203F01F03DAB2FB7D1343DAB2FB689A72FB68DB78DBB26E
S32D0000E58043F00C03DAB2FB68DA7000BF1837BD4690BC704700A006400070044000B0064000C0064000D0064032
S32D0000E5A800A00E4080B483B000AF78607B681B79DBB203F02003002B0CBF01230023DBB2002B00D0F2E77B68CE
S32D0000E5D0DB79DBB218460C37BD4680BC704780B483B000AF78600B46FB707B681B79DBB25BB2DB43DBB2DB095B
S32D0000E5F8DBB2002B00D0F4E77B68FA78DA7100BF0C37BD4680BC704780B487B000AFF860B9607A60FB687B6156
S32D0000E6207B685A1E7A60002B14BF01230023DBB2002B06D07B695A1C7A61BA68D2B21A70EEE700BF1C37BD4675
S32D0000E64880BC704780B584B000AF786039607B681B6BFB60FA683B689A4252D07B681B79002B35D07B68587807
S32D0000E6707B6803F134010123FA6801F0F7F80346002B14BF01230023DBB2002B01D001233CE07B6800221A7123
S32D0000E6987B685A6A7B681B6A1344FA689A4217D27B68DB78FB72FB7A012B11D97B681B6AFA681344FB607B683A
S32D0000E6C058787B6803F134010123FA6801F0CEF8FB7A013BFB72EAE73B68002B15D07B6858787B6803F13401B2
S32D0000E6E801233A6800F0DAFF0346002B14BF01230023DBB2002B01D0012303E07B683A681A630023184610378D
S32D0000E710BD4680BD80B584B000AF786000217868FFF794FF0346FB73FB7B002B40F093807B681B78032B7DD194
S32D0000E7387B685B79002B79D07B6800221A637B6834334FF4007200211846FFF75DFF7B68552283F832227B682A
S32D0000E760AA2283F833227B68522283F834207B68522283F835207B68612283F836207B68412283F837207B6870
S32D0000E788722283F818227B68722283F819227B68412283F81A227B68612283F81B227B681B69DAB27B6883F881
S32D0000E7B01C227B681B699BB21B0A9BB2DAB27B6883F81D227B681B691B0CDAB27B6883F81E227B681B691B0E66
S32D0000E7D8DAB27B6883F81F227B68DB68DAB27B6883F820227B68DB689BB21B0A9BB2DAB27B6883F821227B68A1
S32D0000E800DB681B0CDAB27B6883F822227B68DB681B0EDAB27B6883F823227B6858787B6803F134017B685A696F
S32D0000E828012301F01FF87B6800225A717B685B7800220021184601F0E1F80346002B14BF01230023DBB2002B5F
S32D0000E85001D00123FB73FB7B18461037BD4680BD80B582B000AF78600B467B807B68002B08D07B681B78002B1B
S32D0000E87804D07B68DB887A889A4201D0092311E07B685B78184601F03BF9034603F00103002B14BF01230023CE
S32D0000E8A0DBB2002B01D0032300E0002318460837BD4680BD80B586B000AF78607B681A687B689B8819461046A9
S32D0000E8C8FFF7CAFF0346FB75FB7D002B40F0AC807B689B7903F02003002B00F0A5807B689B7903F04003002B06
S32D0000E8F01BD07B681B6858787B6803F128017B689A69012300F0B2FF0346002B14BF01230023DBB2002B01D017
S32D0000E91801238AE07B689B7923F04003DAB27B689A717B681A687B68DB6919461046FFF789FE0346FB75FB7D8D
S32D0000E940002B75D17B681B6A3B613B690B331A783B690B3342F02002D2B21A707B68DA683B691C33D2B21A7056
S32D0000E9687B68DB689BB21B0A9AB23B691D33D2B21A707B68DB681A0C3B691E33D2B21A707B68DB681A0E3B695A
S32D0000E9901F33D2B21A707B681A693B691A33D2B21A707B681B699BB21B0A9AB23B691B33D2B21A707B681B6908
S32D0000E9B81A0C3B691433D2B21A707B681B691B0C9BB21B0A9AB23B691533D2B21A700023FB603B691633FA68FF
S32D0000E9E0D2B21A70FB689BB21B0A9AB23B691733D2B21A70FB681A0C3B691833D2B21A70FB681A0E3B691933DD
S32D0000EA08D2B21A707B689B7923F02003DAB27B689A717B681B6801221A717B681B681846FFF774FE0346FB7532
S32D0000EA30FB7D18461837BD4680BD80B584B000AF78607868FFF736FF0346FB73FB7B002B02D17B6800221A60AE
S32D0000EA58FB7B18461037BD4680BDFFFF80B588B000AF7860396080233B610F23FB604FF0FF337B610223FB6110
S32D0000EA80FB69B3F5807F23D80123BB61BB69102B1AD8FB69BA6902FB03F33A6803FB02F27B68D31ABB60BB68B5
S32D0000EAA8002B09DBBB687A699A4205D9BB687B61FB693B61BB69FB60BB690133BB61E1E7FB695B00FB61D7E7DE
S32D0000EAD01D4BDB6A1C4A23F00803D3621A4BDB6A23F47F2323F47F63BB613B695B081B029AB2FB68013B1B010F
S32D0000EAF8DBB21A43BB691343114A43F46023D3620F4B5B6A03F00803002B0CBF01230023DBB2002B03D00A2033
S32D0000EB2001F01AF9F0E7084BDB6A074A43F00803D362054B1B6B044A43F48013136300BF2037BD4680BD00BF17
S32D0000EB4800100B4080B582B000AF786039607B6800221A60414B424ADA62404BDB6A03F08073002B14BF012312
S32D0000EB700023DBB2002B00D0F3E73A4B0022C3F8C020384B4FF481325A60364B28229A62344B4FF001125A6427
S32D0000EB983B689B6833491846FFF760FF2F4B5B6A03F00303002B14BF01230023DBB2002B00D0F3E72C4B40F2F2
S32D0000EBC043421A602A4B40F243425A60284B4FF488629A60264B40F24342DA60244B40F243421A61224B40F206
S32D0000EBE843425A61214B03F580531B6B1F4A43F4003302F580521363184B4FF6FF721A63164B1B4A5A63154B77
S32D0000EC10DB6A144A43F00063D362124BDB6A03F00063002B14BF01230023DBB2002B00D0F3E70C4B5B6A03F4B6
S32D0000EC388033002B14BF01230023DBB2002B02D07B6801221A60054B1B6B044A43F0800313630023184608379C
S32D0000EC60BD4680BD00100B400080000160CC050000D0044000700440B3007F0080B400AF064B5A6A40F20733DB
S32D0000EC881340002B14BF01230023DBB21846BD4680BC704700100B4080B485B000AF7860074B1B6B7A6813408D
S32D0000ECB0FB60FB68002B00D1F6E7FB6818461437BD4680BC704700BF00100B4080B584B000AF78607B681B781D
S32D0000ECD803F03F03764A52F82330FB60FB68002B05D17B681B78002B01D00123DCE0714B1B6B704A43F08003B9
S32D0000ED0013636E4B5B6A03F00103002B14BF01230023DBB2002B00D0F3E7684A7B685B689360FB6823F440034B
S32D0000ED28FB607B685B789B0503F44003FA681343FB607B685B78022B03D1FB6843F40013FB607B685B78042B1B
S32D0000ED5016D1FB6803F44033B3F5003F08D1FB6823F44033FB60FB6843F44033FB6007E0FB6823F44033FB6042
S32D0000ED78FB6843F40033FB604E4B5B684D4A9BB253607B68DB68002B2AD0FB6803F44033B3F5403F03D0FB68DD
S32D0000EDA043F40013FB607B681B7A002B03D0FB6843F01003FB607B68DB68012B03D9FB6843F02003FB607B6801
S32D0000EDC8DB68B3F1FF3F0BD03A4B5A687B68DB681B04384913434B60FB6843F00203FB60344B00221A60334A81
S32D0000EDF0FB68D3603248FFF753FF0346012B14BF01230023DBB2002B09D02C4B1B6B2B4A43F4702343F001030A
S32D0000EE181363012348E0274B1B6B03F08003002B14BF01230023DBB2002B07D0214B1B6B204A43F001131363AF
S32D0000EE40012335E01D4B1B6B03F48033002B14BF01230023DBB2002B08D0184B1B6B174A43F0011313634FF0B8
S32D0000EE68FF3321E0FB6803F44033002B15D0114B1A697B681A61FB6803F44033B3F5803F0BD10C4B5A697B6822
S32D0000EE905A610A4B9A697B689A61084BDA697B68DA61064B1B6B054A43F001031363002318461037BD4680BDD4
S32D0000EEB884BA010000100B4001000E0080B592B000AF7860396000237B643B68BB63994B7B637B6B002B02D183
S32D0000EEE040F601235FE3964B3B633B6B002B02D140F60B2357E33B6B1B68FB62FB6A002B02D140F60B234EE329
S32D0000EF087B6841F20932934200F23F837B68B3F5985F08D87B68032B00F01A837B68092B00F0098331E37B6877
S32D0000EF30A3F59853013B082B00F22B8301A252F823F000BF69EF000055F20000B1F400006BF20000A9F2000026
S32D0000EF58CFF3000017F4000059F3000073F300007649786BFFF7EEFD78647B6C002B40F01083002387F84330C3
S32D0000EF80002387F82B30002387F82A30002387F82930002387F84230002387F8283000233B7200237B7200235E
S32D0000EFA8FB6000233B7400237B6107F108031846FFF788FE0346002B14BF01230023DBB2002B02D001237B6417
S32D0000EFD0E8E240F24C4000F0BFFE08233B7200237B724FF4D573FB6000233B7400237B6107F108031846FFF7E8
S32D0000EFF869FEF863FB6B002B09D1BA69FB689A4202D001237B64C9E2012387F84230012387F8283097F82830E5
S32D0000F020002B00F0A58037233B7200237B720023FB6000233B7400237B6107F108031846FFF744FEF863FB6BC2
S32D0000F048002B02D001237B64A8E269233B7200237B720023FB6000233B7400237B6107F108031846FFF72EFEF5
S32D0000F0700346002B14BF01230023DBB2002B02D001237B648EE2BB6903F44013002B6FD00023FB630A2000F074
S32D0000F0985FFEFB6B0133FB6337233B7200237B720023FB6000233B7400237B6107F108031846FFF707FE0346EA
S32D0000F0C0002B14BF01230023DBB2002B02D001237B6428E069233B7200237B7297F84230002B02D0184BFB6043
S32D0000F0E802E04FF44013FB6000233B7400237B6107F108031846FFF7E5FD0346002B14BF01230023DBB2002BD7
S32D0000F11002D001237B6406E0BB69002B03DBFB6B632B00D8B6E77B6C002B40F03882FB6B632B0BD9002387F80A
S32D0000F138423019E0801700208419002078BA010000003040012387F8433097F84230002B0AD0002387F84230F7
S32D0000F160BB6903F08043002B02D0012387F8423097F82A30002B02D07B6B07221A6097F82930002B02D07B6B5B
S32D0000F18808221A6097F82B30002B02D07B6B04221A6097F84330002B09D07B6B02221A6097F84230002B02D0C0
S32D0000F1B07B6B03221A6097F82B30002B0DD097F84330002B09D07B6B05221A6097F84230002B02D07B6B062221
S32D0000F1D81A60924B00221A60904B00225A608F4B00229A608D4B0022DA608C4B00221A618A4B00225A61FB6AAA
S32D0000F2009A68FB6A5B6819461046FFF72BFC854B40F243421A60834B40F243425A60814B4FF488629A607F4BE7
S32D0000F22840F24342DA607D4B40F243421A617B4B40F243425A617A4B03F580531B6B784A43F4003302F580528A
S32D0000F2501363A7E1B86BFFF739FDF863FB6B002B00F09F8102237B649BE1BB6B002B02D10C237B6496E16D4B66
S32D0000F278DB6A1B0A5B0003F4FF73FB63694BDB6A1B0903F00F035A1CFB6B02FB03F3FB63FB6A9A68FB6BB2FB13
S32D0000F2A0F3F2BB6B1A607DE1BB6B002B02D10C237B6477E1BB6B1B68002B02D10C237B6470E1FFF7DBFC0346B7
S32D0000F2C8002B0CBF01230023DBB2002B3CD0534B00221A60514B00225A60504B00229A604E4B0022DA604D4B21
S32D0000F2F000221A614B4B00225A61FB6A9A68BB6B1B6819461046FFF7ADFB464B40F243421A60444B40F2434275
S32D0000F3185A60424B4FF488629A60404B40F24342DA603E4B40F243421A613C4B40F243425A613B4B03F58053D8
S32D0000F3401B6B394A43F4003302F58052136329E140F60A237B6425E1BB6B002B02D10C237B641FE1314B5B682A
S32D0000F368C3F30C02BB6B1A6018E1BB6B002B02D10C237B6412E1FFF77DFC0346002B0CBF01230023DBB2002B48
S32D0000F39019D0BB6B1B68B3F5805F02D30C237B6400E1224B5B68214A23F4FF5323F01F0353601E4B5A68BB6B35
S32D0000F3B81B68C3F30C031B4913434B60EEE040F60A237B64EAE0BB6B002B02D10C237B64E4E0144B9B6A5B08E3
S32D0000F3E003F00303FB63FB6B002B03D1BB6B00221A60D7E0FB6B012B03D1BB6B01221A60D0E0FB6B102B03D17C
S32D0000F408BB6B02221A60C9E005237B64C6E0BB6B002B09D10C237B64C0E000BF00D004400070044000100B4001
S32D0000F430FFF724FC0346002B0CBF01230023DBB2002B31D0BB6B1B68002B0AD1584B9B6A574A23F00603936250
S32D0000F458554B554A9B6A9362A0E0BB6B1B68012B0CD1514B9B6A504A23F0060393624E4B9B6A4D4A43F0020362
S32D0000F48093628FE0BB6B1B68022B0AD1484B9B6A474A23F006039362454B454A9B6A936280E005237B647DE032
S32D0000F4A840F60A237B6479E0BB6B002B02D10C237B6473E03C4BDB6A3B4A43F00063D362394BDB6A03F00063DB
S32D0000F4D0002B14BF01230023DBB2002B00D0F3E7334B1B6B03F08003002B14BF01230023DBB2002B08D02E4B9F
S32D0000F4F81B6B2D4A43F0800313637B6B00221A60294B5B6A03F48033002B14BF01230023DBB2002B07D07B6B9E
S32D0000F5201B68002B06D17B6B01221A6002E07B6B00221A607B6B1A68BB6B1A6032E0BB6B1C221A60BB6B0433FC
S32D0000F54804221A60BB6B08334FF41E721A6025E00220FFF7A1FB144B1B6B03F4E003002B14BF01230023DBB2FD
S32D0000F570002B07D00E4B1B6B0D4A43F4E003136304237B640A4B1B6B094A43F03203136308E040F609237B646A
S32D0000F59804E000BF02E000BF00E000BF7B6C18464837BD4680BD00BF00100B4080B489B000AF786039607B68D4
S32D0000F5C07B61364B3B613B69002B01D100235FE03B691B68022B0BD03B691B68032B07D03B691B68072B03D09A
S32D0000F5E83B691B68082B0BD12B4B5B6A03F00403002B14BF01230023DBB2002B00D0F3E73B68FB61FB69002B55
S32D0000F6103DD0FB69B3F5007F28BF4FF40073FB60FB6803339B08BB61BB69002B2AD01C4B1B6B03F4E003002BA9
S32D0000F63814BF01230023DBB2002B09D0164B1B6B154A43F4E00343F02003136300231BE0114B5B6A03F4006334
S32D0000F660002B0CBF01230023DBB2002B00D0F3E70B497B691A1D7A610A6A1A60BB69013BBB61D1E7FA69FB68AB
S32D0000F688D31AFB61BEE7012318462437BD4680BC704700BF8017002000100B4080B58EB000AFB9607A601A464D
S32D0000F6B00346FB731346BB73414B7B63FB7B002B02D1BB7B002B01D1042375E03D4B1B78DBB203F00103002B97
S32D0000F6D814BF01230023DBB2002B01D0032367E0BB68002B01D1002362E07B6B1B7B002B02D17B685B027B60DA
S32D0000F700BB7B012B28D111233B7500237B757B68BB6101233B77BB7B3B6207F11403194641F20230FFF7CEFB4F
S32D0000F7280346002B0CBF01230023DBB2002B38D04FF40071B868FFF739FF0346002B14BF01230023DBB2002B25
S32D0000F7502BD00023BB7328E012233B7500237B757B68BB6101233B77BB7B3B6207F11403194641F20230FFF7CE
S32D0000F778A5FB0346002B0CBF01230023DBB2002B0FD0BB7B5B021946B868FFF70FFF0346002B14BF0123002302
S32D0000F7A0DBB2002B01D00023BB73BB7B002B01D0012300E0002300BF18463837BD4680BD6C1700201C0000205D
S32D0000F7C880B487B000AF786039607B68FB603B687B617B69002B3DD07B69B3F5007F28BF4FF400733B617A6988
S32D0000F7F03B69D31A7B613B6903339B083B613B69002BEAD0184B1B6B03F4E003002B14BF01230023DBB2002B1C
S32D0000F8180AD0134B1B6B124A43F4E00343F0100313634FF0FF3316E00D4B5B6A03F48063002B0CBF0123002337
S32D0000F840DBB2002B00D0F3E7FB681A1DFA60064A1B6813623B69013B3B61D0E7012318461C37BD4680BC7047FE
S32D0000F86800100B4080B58EB000AFB9607A601A460346FB731346BB735D4B7B63FB7B002B02D1BB7B002B01D137
S32D0000F8900423ADE0594B1B78DBB203F00103002B14BF01230023DBB2002B01D003239FE0524B1B78DBB203F0B8
S32D0000F8B80403002B14BF01230023DBB2002B01D0022391E0BB68002B01D100238CE07B6B1B7B002B02D17B68AB
S32D0000F8E05B027B60BB7B012B28D118233B7500237B757B68BB6100233B77BB7B3B6207F11403194641F20230EF
S32D0000F908FFF7DCFA0346002B0CBF01230023DBB2002B38D04FF40071B868FFF751FF0346002B14BF0123002317
S32D0000F930DBB2002B2BD00023BB7328E019233B7500237B757B68BB6100233B77BB7B3B6207F11403194641F256
S32D0000F9580230FFF7B3FA0346002B0CBF01230023DBB2002B0FD0BB7B5B021946B868FFF727FF0346002B14BF1A
S32D0000F98001230023DBB2002B01D00023BB730D233B7500237B757B6B1B69BB6100233B7700233B6207F114031B
S32D0000F9A8194641F20230FFF789FA0346002B14BF01230023DBB2002B01D0012314E07A6A0D4B1340002B01D03A
S32D0000F9D001230DE07B6A03F4F853B3F5106F00D0D5E7BB7B002B01D0012300E0002300BF18463837BD4680BDF9
S32D0000F9F86C1700201C0000200880D9FF80B58CB000AF03463A60FB710B46BB713A4BBB62FB79002B01D004237D
S32D0000FA2069E0012387F82F30364B1B78DBB203F00103002B14BF01230023DBB2002B01D0032358E0BB79032B47
S32D0000FA4850D801A252F823F061FA000069FA000079FA000089FA0000002387F82F3044E0BB6A9A683B681A604B
S32D0000FA70002387F82F303CE03B684FF400721A80002387F82F3034E009233B7200237B72BB6A1B69FB60002334
S32D0000FA983B7400237B6107F10803194641F20230FFF70CFA0346002B14BF01230023DBB2002B01D001231AE09A
S32D0000FAC07B6A03F44003002B0CD13B6A9B0C03F07F035A1C7B6A1B0A03F00303013B9A403B681A60002387F8E2
S32D0000FAE82F3002E0042387F82F3097F82F3018463037BD4680BD00BF6C1700201C00002080B483B000AF0346BA
S32D0000FB10FB71FB79002B01D0012302E0034B1B78DBB218460C37BD4680BC70471C00002080B483B000AF7860B6
S32D0000FB38164B03F580539B6B144A43F0010302F580529363124A7B689360114B05225A600F4B1B680E4A43F042
S32D0000FB60010313600C4B1B6803F08003002B0CBF01230023DBB2002B00D0F3E7064B1B68054A23F00103136064
S32D0000FB8800BF0C37BD4680BC704700BF007004400000044080B582B000AF786039607B68012B07D13B684FF64A
S32D0000FBB0FF72934202D1034800F00EF800BF0837BD4680BD8C19002080B500AF4FF6FF710120FFF7E3FF80BDFB
S32D0000FBD880B483B000AF78607B6800221A707B6818460C37BD4680BC7047FFFF80B582B000AF78607B681B78A6
S32D0000FC0083F00103DBB2002B21D0134B03F580531A464FF400639362104B4FF440721A620E4B4FF440725A62BC
S32D0000FC280D4B1B68DA0F13445B104FF4614219460A48FEF7FDFB642000F08AF87B6801221A70012300E00023F7
S32D0000FC5018460837BD4680BD0070044000D004409019002000B00E4080B582B000AF7860084611461A460346DE
S32D0000FC78FB700B46BB7013467B707F210E48FEF7AAFC08210C48FEF7A6FCFB7819460A48FEF7A1FCBB78194646
S32D0000FCA00748FEF79CFC7B7819460548FEF797FCFF210348FEF793FC00BF0837BD4680BD00B00E4080B487B09D
S32D0000FCC800AFF860B9607A60FB681F4AA2FB03239B09BA6813447B61FB681B4AA2FB031292094FF47A7101FB4D
S32D0000FCF002F29B1AFB60FB68DB03154AA2FB03239B097A6813443B613B69DB0B7A6913447B613B69C3F30E03FB
S32D0000FD183B610E4B1B687A699A4209D80B4B1B687A699A4206D1094B5B683A699A4201D9012300E00023002B74
S32D0000FD4000D0EAE700BF1C37BD4680BC704700BFD34D621000D0034080B584B000AF7860074B1B68FB60064B17
S32D0000FD685B68BB607B68BA68F9681846FFF7A6FF00BF1037BD4680BD00D0034080B584B000AF78600B4B1B680E
S32D0000FD90FB600A4B5B68BB600949786805F0A6F80346184605F08EFA0346BA68F9681846FFF788FF00BF103721
S32D0000FDB8BD4680BD00D0034000007A4480B584B000AFC7E900010E4B1B68FB600C4B5B68BB604FF000020B4B40
S32D0000FDE0D7E9000104F042FC02460B461046194604F0FEFE0346BA68F9681846FFF762FF00BF1037BD4680BDFD
S32D0000FE0800D0034000408F4080B584B000AF134B1B68FB60114B5B68BB60F86804F0A8FB02460B46C7E90023B9
S32D0000FE30B86804F0A1FB4FF000020B4B04F040FD02460B46D7E9000104F05AFA02460B46C7E90023D7E900233B
S32D0000FE58104619461037BD4680BD00BF00D003400000E04080B483B000AF0B4B1B684FF47A7202FB03F37B6062
S32D0000FE80074B5B684FF47A7202FB03F3DB0B7A6813447B607B6818460C37BD4680BC704700D0034080B582B02F
S32D0000FEA800AF78600B46FB70FB781946786800F005F87B6818460837BD4680BD80B483B000AF78600B46FB70E0
S32D0000FED07B68FA781A707B681B781A46534B9B5C042B00F29E8001A252F823F001FF00003BFF000075FF0000CD
S32D0000FEF8AFFF0000E9FF00004B4A7B681B7819464A4B53F8213040F2031142F82310484B5A697B681B781946CD
S32D0000FF20444B53F8213003F01F03012101FA03F3DB43414913404B6173E0404A7B681B7819463C4B53F82130E4
S32D0000FF4840F2031142F823103B4B5A697B681B781946364B53F8213003F01F03012101FA03F3DB433449134087
S32D0000FF704B6156E0334A7B681B7819462D4B53F8213040F2031142F823102F4B5A697B681B781946274B53F899
S32D0000FF98213003F01F03012101FA03F3DB43284913404B6139E0274A7B681B7819461F4B53F8213040F2031189
S32D0000FFC042F82310224B5A697B681B781946194B53F8213003F01F03012101FA03F3DB431B4913404B611CE0FC
S32D0000FFE81A4A7B681B781946104B53F8213040F2031142F82310164B5A697B681B7819460A4B53F8213003F02B
S32D000100101F03012101FA03F3DB430F4913404B6100BF00BF0C37BD4680BC704784BB010000900440C8BB0100C8
S32D0001003800F00F4000A0044040F00F4000B0044080F00F4000C00440C0F00F4000D0044000F10F4080B485B084
S32D0001006000AF78600023FB607B681B781A46364B9B5C042B5CD801A252F823F091000100B1000100D1000100A5
S32D00010088F1000100110101002E4B1B697A68127811462D4A52F8212002F01F02012101FA02F21340FB603FE091
S32D000100B0284B1B697A6812781146254A52F8212002F01F02012101FA02F21340FB602FE0214B1B697A68127830
S32D000100D811461D4A52F8212002F01F02012101FA02F21340FB601FE01A4B1B697A6812781146154A52F8212049
S32D0001010002F01F02012101FA02F21340FB600FE0134B1B697A68127811460D4A52F8212002F01F02012101FA58
S32D0001012802F21340FB6000BFFB68002B14BF01230023DBB218461437BD4680BC704700BF84BB010000F00F4035
S32D00010150C8BB010040F00F4080F00F40C0F00F4000F10F4080B584B000AF78600B46FB700B23FB73FA7BFB784F
S32D000101781946786800F094F87B6818461037BD4680BDFFFF80B485B000AF78607B68103B002B00DA1F335B11F6
S32D000101A0FB60FB68022B53D0FB68022B75DCFB68002B03D0FB68012B25D06EE0394BD3F880217B68103B594255
S32D000101C803F01F0301F01F0158BF4B42012101FA03F332491343C1F88031304B1A687B68103B594203F01F0315
S32D000101F001F01F0158BF4B42012101FA03F3294913430B6049E0274BD3F884217B68103B594203F01F0301F00B
S32D000102181F0158BF4B42012101FA03F31F491343C1F884311D4B5A687B68103B594203F01F0301F01F0158BF84
S32D000102404B42012101FA03F3164913434B6024E0144BD3F888217B68103B594203F01F0301F01F0158BF4B4225
S32D00010268012101FA03F30D491343C1F888310B4B9A687B68103B594203F01F0301F01F0158BF4B42012101FA2E
S32D0001029003F3044913438B6000BF00BF1437BD4680BC704700E100E080B584B000AF78600B46FB701346BB700B
S32D000102B87B68FA781A70BB78FB737B681B781A46574B9B5C042B00F2A68001A252F823F0ED02010039030100B4
S32D000102E0850301001D040100D1030100FB7B1B0403F470234D497A68127810464C4A52F8202043F4897343F072
S32D00010308010341F82230494B5A697B681B781946454B53F8213003F01F03012101FA03F3DB43424913404B610F
S32D000103306720FFF72BFF72E0FB7B1B0403F470233D497A6812781046394A52F8202043F4897343F0010341F88E
S32D000103582230384B5A697B681B781946324B53F8213003F01F03012101FA03F3DB43314913404B616820FFF7B3
S32D0001038005FF4CE0FB7B1B0403F470232C497A6812781046264A52F8202043F4897343F0010341F82230274B67
S32D000103A85A697B681B7819461F4B53F8213003F01F03012101FA03F3DB43204913404B616920FFF7DFFE26E078
S32D000103D0FB7B1B0403F470231B497A6812781046134A52F8202043F4897343F0010341F82230164B5A697B68D6
S32D000103F81B7819460C4B53F8213003F01F03012101FA03F3DB430F4913404B616B20FFF7B9FE00E000BF00BFBE
S32D000104201037BD4680BD00BF84BB010000900440C8BB010000F00F4000A0044040F00F4000B0044080F00F407A
S32D0001044800D0044000F10F40B0B48BB000AF234B3C1D1D460FCD0FC495E80F0084E80F0000237B627B6A072BEC
S32D0001047032DC1D4BD3F8A0207B6A9B0007F128010B4453F8243C012101FA03F31340002B14BF01230023DBB289
S32D00010498002B19D0134A7B6A52F823305A1C11497B6A41F823200E4BD3F8A0207B6A9B0007F128010B4453F8F2
S32D000104C0243C012101FA03F307491340C1F8A0307B6A01337B62C9E700BF2C37BD46B0BC704700BFCCBC010038
S32D000104E800A00440BC190020B0B489B000AF234B3C1D1D460FCD0FC495E8030084E803000023FB61FB69052BE5
S32D0001051032DC1D4BD3F8A020FB699B0007F120010B4453F81C3C012101FA03F31340002B14BF01230023DBB279
S32D00010538002B19D0FB690833124A52F823200132104941F823200E4BD3F8A020FB699B0007F120010B4453F85A
S32D000105601C3C012101FA03F307491340C1F8A030FB690133FB61C9E700BF2437BD46B0BC704700BFECBC010089
S32D0001058800B00440BC190020B0B48DB000AF244B3C461D460FCD0FC40FCD0FC495E8070084E807000023FB62E2
S32D000105B0FB6A0A2B32DC1D4BD3F8A020FB6A9B0007F130010B4453F8303C012101FA03F31340002B14BF0123CA
S32D000105D80023DBB2002B19D0FB6A0E33124A52F823200132104941F823200E4BD3F8A020FB6A9B0007F130018C
S32D000106000B4453F8303C012101FA03F307491340C1F8A030FB6A0133FB62C9E700BF3437BD46B0BC704700BFD1
S32D0001062804BD010000900440BC190020B0B487B000AF224B3C461D460FCD0FC42B68236000237B617B69042BA5
S32D0001065032DC1D4BD3F8A0207B699B0007F118010B4453F8183C012101FA03F31340002B14BF01230023DBB2C4
S32D00010678002B19D07B691933124A52F823200132104941F823200E4BD3F8A0207B699B0007F118010B4453F810
S32D000106A0183C012101FA03F307491340C1F8A0307B6901337B61C9E700BF1C37BD46B0BC704700BF30BD01000F
S32D000106C800D00440BC19002080B483B000AF78607B681B781A46044B53F8223018460C37BD4680BC704700BFF4
S32D000106F0BC19002080B483B000AF78607B681B781946044B002243F8212000BF0C37BD4680BC7047BC19002049
S32D0001071880B483B000AF78600B46FB707B68FA781A707B6818460C37BD4680BC7047FFFF80B586B000AF7860BF
S32D000107407B681B781A463E4B53F822303B617B681B781A463B4B9B5CFB733B69DBB203F01F03DAB2384B1A7250
S32D000107683B69DBB203F01F03DAB2354B5A72354B1022C3F88820FB7B002B13D13049324800F05AFA304B1B6875
S32D0001079003F08003802B14BF01230023DBB2002B00D0F3E72A4B1B697B6112E02649294800F046FA274B1B68D1
S32D000107B803F08003802B14BF01230023DBB2002B00D0F3E7214B1B697B611E4BD3F888311C4A43F01003C2F856
S32D000107E088311A4B9B68194A43F0100393607B699BB2184603F0C0FE0DA3D3E9002303F035FF02460B46104648
S32D0001080819460BA3D3E9002304F056F802460B461046194604F008FA0346BB60BB6818461837BD4680BD00BF1C
S32D00010830A4703D0AD7A30A4000000000E0FFEF4048BC0100A4BB01009C19002000E100E000B0034000B00B4083
S32D0001085880B586B000AF78607B681B781A46234B53F822303B617B681B781A46204B9B5CFB733B69DBB203F038
S32D000108801F03DAB21D4B1A723B69DBB203F01F03DAB21A4B5A72FB7B002B13D11749184800F0CEF9164B1B68C4
S32D000108A803F08003802B14BF01230023DBB2002B00D0F3E7104B1B697B6112E00D490F4800F0BAF90D4B1B68AC
S32D000108D003F08003802B14BF01230023DBB2002B00D0F3E7074B1B697B617B6918461837BD4680BD48BC0100D4
S32D000108F8A4BB0100AC19002000B0034000B00B4098B500AF204B5C221A701F4B10225A701D4B41F234225A80FE
S32D000109201B4B45F278629A80194B10229A71184B0722DA71164B4FF4C022DA60144B1F221A72134B1F225A7248
S32D000109481149124800F078F90F49114800F074F90F4800F0D2F80D4800F0CFF80A490C4800F06AF908490948A4
S32D0001097000F066F9094A064B14460FCB84E80F00064B5C221A70054B0422DA7100BF98BD9C19002000B00340C0
S32D0001099800B00B40AC19002080B500AF064B1B680133054A136000F03DF8044B0122C3F80C2100BF80BD00BF68
S32D000109C0401A00200070034080B500AF0C4B01221A600C4800F01AF8094B0322C3F80821094BD3F88831084A26
S32D000109E843F01003C2F88831054B9B68044A43F01003936000BF80BD00700340A086010000E100E080B483B04F
S32D00010A1000AF7860044A7B68C2F8003100BF0C37BD4680BC704700BF0070034080B584B000AF174B1B68FB6052
S32D00010A38FB68002B24D0FB685B78FB71FB689B68184600F023F80346BB71BB79002B13D0FB685B68012B0FDDA7
S32D00010A60FB689B681B69BB60BB68002B08D0BB685B685A1CBB685A60BB681B69BB60F3E7FB68DB68FB60D7E7A8
S32D00010A8800BF1037BD4680BD3C1A002080B584B000AF78607868FFF7DBFEF8607B689B695B78FB72FB7A002BC5
S32D00010AB00FD17B68DB68FA689A420ADD7B689B6901225A707B685B685A1C7B685A60012313E0FB7A012B0FD1C7
S32D00010AD87B689B68FA689A420ADA7B689B6900225A707B685B685A1C7B685A60012300E0002318461037BD468C
S32D00010B0080BD80B485B000AF78607B681B6A23F040027B681A627B685B6A23F00B027B685A627B685B6A43F03B
S32D00010B2807027B685A627B685B6A43F080027B685A627B681B6803F08003002B0CBF01230023DBB2002B00D059
S32D00010B50F3E77B685B6A03F04003402B0CBF01230023DBB2002B01D0012364E00023FB817B68DB6CFB817B6828
S32D00010B789B6C9AB2FB891344FB817B685B6C9AB2FB891344FB817B681B6C9AB2FB891344FB817B68DB6B9AB2D5
S32D00010BA0FB891344FB817B689B6B9AB2FB891344FB81FB895B08FB81FB896FEA43436FEA5343FB81FA897B68AC
S32D00010BC8DA620023FB817B68DB6EFB817B689B6E9AB2FB891344FB817B685B6E9AB2FB891344FB817B681B6E31
S32D00010BF09AB2FB891344FB817B68DB6D9AB2FB891344FB817B689B6D9AB2FB891344FB81FB895B08FB81FB89F0
S32D00010C186FEA43436FEA5343FB81FA897B681A637B685B6A23F080027B685A62002318461437BD4680BC7047E2
S32D00010C4080B483B000AF786039603B681B781A467B689A603B685B781A467B68DA603B685B881A467B689A61D4
S32D00010C683B689B881A467B68DA613B689B791A467B681A623B68DB791A467B685A623B68DA687B681A653B68C3
S32D00010C901B7A1A467B681A603B685B7A1A467B685A6000BF0C37BD4680BC704780B483B000AF78607B68184647
S32D00010CB80C37BD4680BC704780B582B000AF786039607B68012B07D13B684FF6FF72934202D10348FFF7E6FF3F
S32D00010CE000BF0837BD4680BD441A002080B500AF4FF6FF710120FFF7E3FF80BD80B483B000AF78600B46FB70B0
S32D00010D087B68FA781A707B684FF4FA725A807B6840F6C4129A807B68034A9A607B6818460C37BD4680BC7047C4
S32D00010D30000080BF80B483B000AF786039603B68B3F5FA7F04DB3B6840F6C412934204DD7B684FF4FA725A805A
S32D00010D5804E03B689AB27B685A8000BF00BF0C37BD4680BC704780B483B000AF786039603B68B3F5FA7F04DBFB
S32D00010D803B6840F6C412934204DD7B6840F6C4129A8004E03B689AB27B689A8000BF00BF0C37BD4680BC70474F
S32D00010DA82DE9904385B000AF786039604FF00001386804F035FA0346002B02D04FF000033B603249386804F0A9
S32D00010DD049FA0346002B01D02E4B3B607B689B681946386804F016FA0346002B00D04BE07B683A689A607B689E
S32D00010DF85C887B689B881A467B685B88D31A184603F0C6FB4FF00002214B03F055FD02460B46904699463868DD
S32D00010E2003F0CCFB02460B464046494603F01EFC02460B461046194603F0DAFE03469BB22344FB81FB897B732A
S32D00010E48FB891B0A9BB23B737F211248FDF7C3FB05211048FDF7BFFB7B681B7819460D48FDF7B9FB3B7B194618
S32D00010E700A48FDF7B4FB7B7B19460848FDF7AFFBFF210648FDF7ABFB00BF1437BD46BDE8908300BF0000344318
S32D00010E980080664000B00E4080B582B000AF7860B84B4FF48072DA60B74B4FF480729A64B54B4FF480721A64BF
S32D00010EC0B34B4FF480725A64B14B4FF48072DA60B04B5B69AF4A43F008035361AE4B5B69AD4A43F480235361BB
S32D00010EE8AB4B5B69AA4A43F480335361A84B5B69A74A43F400335361A54B1B68A44A43F008031360A24B5B6906
S32D00010F10A14A43F0080353619E4B1B689D4A43F0080313609A4B4FF480725A62984B4FF480721A62954B4FF444
S32D00010F3880721A61934B4FF480725A61914B4FF480729A618F4B4FF48072DA618D4B4FF480721A638B4B4FF456
S32D00010F6080725A63894B4FF480729A63874B4FF48072DA63854B4FF480721A64834B4FF480725A64814B4FF416
S32D00010F8880729A647F4B4FF48072DA64814B4FF480721A607F4B4FF480729A607D4B4FF48072DA607B4B4FF459
S32D00010FB080721A61784B5B69774A43F440735361744B5B69734A43F47F2343F0F0035361734B5B69724A43F05B
S32D00010FD81D035361E221786800F02AFE1D21786800F0CCFE0221786800F0C8FE0421786800F0C4FEE0217868F2
S32D0001100000F01AFE0121786800F0BCFE6420FEF7A3FEE021786800F00FFE0321786800F0B1FE0121786800F080
S32D0001102807FE0120FEF794FEE621786800F000FE0121786800F0A2FEA021786800F09EFEFF21786800F09AFED0
S32D00011050B021786800F0F0FD1C21786800F092FE0F21786800F08EFE0121786800F08AFE3F21786800F086FE8C
S32D000110780021786800F082FEEF21786800F07EFE0021786800F07AFEB421786800F0D0FD0121786800F072FE3F
S32D000110A09921786800F06EFE0021786800F06AFE4521786800F066FE0221786800F062FE0021786800F05EFE98
S32D000110C80021786800F05AFE0021786800F056FEB621786800F0ACFD0121786800F04EFE0921786800F04AFE9B
S32D000110F00021786800F046FE0E21786800F042FE0221786800F03EFE0021786800F03AFE0021786800F036FEE0
S32D00011118BA21786800F08CFD0F21786800F02EFE6420FEF715FE3A21786800F081FD6021786800F023FE2A2156
S32D00011140786800F079FD0021786800F01BFE0021786800F017FE0121786800F013FE3F21786800F00FFE2B219E
S32D00011168786800F065FD0021786800F007FE0021786800F003FE0021786800F0FFFDEF2178680BE000B0044082
S32D0001119000A0044080F00F4040F00F4000C00440C0F00F4000F0EEFD3621786800F044FD0021786800F0E6FDF4
S32D000111B8F021786800F03CFD0421786800F0DEFDB821786800F034FD0F21786800F0D6FD0121786800F0D2FDB0
S32D000111E0314B1B68304A43F0080313606420FEF7B3FD3621786800F01FFD0021786800F0C1FDF021786800F0BA
S32D0001120817FD0421786800F0B9FD0121786800F0BCF91E226F21786800F082F8AF225621786800F0DBF800212B
S32D00011230786800F00AFA012301221C49786800F02BFA2921786800F0F7FC6420FEF784FDBE21786800F0F0FC78
S32D000112580E21786800F092FDF021786800F08EFD0121786800F08AFD0021786800F086FD0021786800F082FD10
S32D000112800F21786800F07EFD786800F028FA0121786800F0DAF90021786800F0AFF900BF0837BD4680BD00BF77
S32D000112A840F00F4044BD010080B582B000AF78607B680022DA617B6801221A627B680E225A607B681A229A6000
S32D000112D07B6800225A617B6800229A617B684FF4A072DA607B68F0221A617B6800221A70786801F07BFA7B6895
S32D000112F818460837BD4680BD80B582B000AF7860064B1B78002B05D1044B01221A707868FFF7C2FD00BF083788
S32D00011320BD4680BD8C1A002080B58AB002AFF860B9607A607E23009362237A68B968F86800F00FFF40F24E7320
S32D000113483B610023FB61FA693B699A4240DA0023BB61214AFB6913441B781A46BB69934232DAFB6901331C4A03
S32D00011370D35C002B06D1FF23FB75FF23BB75FF237B7512E0FB690133154AD35C012B06D1D423FB750023BB7552
S32D0001139826237B7505E0B523FB75BA23BB75B0237B757B7DBA7DF97DF86800F0C9F80246FB68DA61F86801F003
S32D000113C015FAF86801F04EF9BB690133BB61C4E7FB690233FB61BAE700BF2037BD4680BD2000002080B58AB09D
S32D000113E802AFF860B9607A602723009395237A68B968F86800F0B1FE40F2E6333B610023FB61FA693B699A42FA
S32D0001141040DA0023BB61214AFB6913441B781A46BB69934232DAFB6901331C4AD35C002B06D1FF23FB75FF2353
S32D00011438BB75FF237B7512E0FB690133154AD35C012B06D10023FB750023BB7500237B7505E0D423FB750023C0
S32D00011460BB7526237B757B7DBA7DF97DF86800F06BF80246FB68DA61F86801F0B7F9F86801F0F0F8BB69013324
S32D00011488BB61C4E7FB690233FB61BAE700BF2037BD4680BD7007002080B485B000AF78600B46FB70FB78062B9B
S32D000114B029D801A252F823F0DD140100D5140100E3140100EB140100F3140100F9140100011501006FF07F43EA
S32D000114D8FB6014E00023FB6011E04FF47F03FB600DE04FF47F43FB6009E0FF23FB6006E04FF41903FB6002E0D2
S32D00011500044BFB6000BFFB6818461437BD4680BC704700BF9999990080B584B000AF786039603B681B0CFB7306
S32D000115283B681B0ABB733B687B737B7BBA7BF97B786800F005F8034618461037BD4680BD80B487B000AF786081
S32D00011550084611461A460346FB700B46BB7013467B70FB789B08DBB27B61BB789B08DBB23B617B789B08DBB252
S32D00011578FB607B691A033B699B011A43FB68134318461C37BD4680BC704780B582B000AF78600B46FB70FB78CE
S32D000115A019467868FFF77CFF03461946786800F004F800BF0837BD4680BD80B582B000AF7860396039687868B2
S32D000115C8FFF7A6FF02467B681A62786801F00AF9786800F06BFC00BF0837BD4680BD80B582B000AF786078689B
S32D000115F000F060FC00BF0837BD4680BD80B582B000AF78600B46FB70FB7819467868FFF747FF03461946786822
S32D0001161800F004F800BF0837BD4680BD80B582B000AF7860396039687868FFF771FF02467B681A62786801F093
S32D00011640D5F800BF0837BD4680BD80B582B000AF78600B46FB70FB7819467868FFF720FF03461946786800F087
S32D0001166804F800BF0837BD4680BD80B582B000AF7860396039687868FFF74AFF02467B68DA61786801F0AEF8F5
S32D0001169000BF0837BD4680BD80B586B000AFF860B9607A603B6000237B617B69BA6813441B78002B0FD07B6910
S32D000116B8BA6813441B783A687968F86800F08CFE7B680C337B607B6901337B61E9E700BF1837BD4680BD80B556
S32D000116E082B000AF7860FCF757FE67210120FCF7C2FD00210220FCF7BEFDA0210320FCF7BAFD50210420FCF778
S32D00011708B6FD20210520FCF7B2FD20210620FCF7AEFD77210720FCF7AAFD00210820FCF7A6FD00210920FCF77D
S32D00011730A2FD00210A20FCF79EFD04210B20FCF79AFD7B684FF0FF32DA637B684FF0FF321A6400BF0837BD46D6
S32D0001175880BDFFFFFFFFFFFF80B586B000AFF860B9607A600020FCF7A4FD0346FB75FB7D03F00203002B00F0CE
S32D00011780CE80FCF7B7FDE020FCF768FD0220FEF7E3FAFCF7BDFD0120FEF7DEFAFCF7AAFDA520FCF75BFD012093
S32D000117A8FEF7D6FAFCF77DFD03469BB21B02BB82FCF777FD03469AB2BB8A1343BB82FCF770FD03469BB21B0209
S32D000117D07B82FCF76AFD03469AB27B8A13437B82BB8A1B09BB827B8A1B097B82FCF790FDFB68DB6BB3F1FF3FCF
S32D000117F834D1FB681B6CB3F1FF3F2FD1BA8AFB68DA637A8AFB681A647B8AC3F57F630F337B82BB8A184602F0B5
S32D00011820BBFE49A3D3E9002302F020FF02460B461046194603F0FCF90246BB681A607B8A184602F0A9FE42A308
S32D00011848D3E9002302F00EFF02460B461046194603F0EAF902467B681A605AE0FB68DA6BBB8AD31A1946F868F7
S32D0001187000F074F80346632B0CDCFB681A6C7B8AD31A1946F86800F069F80346632B01DC012300E00023002B3D
S32D000118982FD0BA8AFB68DA637A8AFB681A647B8AC3F57F630F337B82BB8A184602F070FE23A3D3E9002302F0E1
S32D000118C0D5FE02460B461046194603F0B1F90246BB681A607B8A184602F05EFE1CA3D3E9002302F0C3FE02460C
S32D000118E80B461046194603F09FF902467B681A600FE0BB68164A1A607B68154A1A60FB684FF0FF32DA63FB6880
S32D000119104FF0FF321A64002310E001230EE0BB680D4A1A607B680C4A1A60FB684FF0FF32DA63FB684FF0FF320B
S32D000119381A64002318461837BD4680BDAFF30080144001144001B43F1EE0011EE001AE3F000080BF80B483B0A2
S32D0001196000AF786039603B68002B02DA3B685B423B603B6818460C37BD4680BC704780B584B000AF78603960F0
S32D000119880023FB60786800F054FBFB683A6813441B78002B12D07B6859697B689869FB683A6813441B780246D7
S32D000119B0786800F0FBFC786800F053FBFB680133FB60E6E700BF1037BD4680BD80B590B000AF7860396007F191
S32D000119D80C033A680649184604F0FEFC07F10C0319467868FFF7C7FF00BF4037BD4680BD50BD010080B592B097
S32D00011A0000AF786039604FF00001386803F020FC0346002B1FD0386803F02EFC03467B64786C03F00FFA034637
S32D00011A281946386803F054F903461F49184603F059FA0346184603F01BFC03463B6407F10C003B6C7A6C19496F
S32D00011A5004F0C6FC22E03B6883F000433B60386803F00AFC03467B64786C03F0EBF903461946386803F030F9DB
S32D00011A7803460D49184603F035FA0346184603F0F7FB03463B6407F10C003B6C7A6C084904F0A2FC07F10C0331
S32D00011AA019467868FFF76BFF00BF4837BD4680BD00007A4460BD010054BD010080B584B000AFF860C7E90023C9
S32D00011AC8D7E9000103F0B0F803461946F868FFF791FF00BF1037BD4680BDFFFF80B582B000AF78600B46FB7017
S32D00011AF0FB78002B04D006497868FFF740FF03E004497868FFF73BFF00BF0837BD4680BD68BD010070BD01001F
S32D00011B1880B582B000AF78600B46FB70786800F088FA7B6859697B689A69FB78786800F039FC786800F091FA44
S32D00011B4000BF0837BD4680BD80B582B000AF78603960786800F071FA39687868FFF70FFF786800F055FA00BF13
S32D00011B680837BD4680BD80B582B000AF78603960786800F05EFA39687868FFF723FF786800F042FA00BF08377D
S32D00011B90BD4680BD80B582B000AF78603960786800F04BFA39687868FFF728FF786800F02FFA00BF0837BD46B2
S32D00011BB880BD80B584B000AFF860C7E90023F86800F037FAD7E90023F868FFF773FFF86800F01AFA00BF1037E8
S32D00011BE0BD4680BD80B582B000AF78600B46FB70786800F022FAFB7819467868FFF772FF786800F005FA00BF59
S32D00011C080837BD4680BD80B582B000AF78600B46FB70786800F00DFAFB7819467868FFF777FF786800F0F0F9D6
S32D00011C3000BF0837BD4680BD80B483B000AF78600B46FB704D4B1B684C4A23F0080313604B4B1B684A4A23F497
S32D00011C5880231360484B1B68474A43F480331360454B1B68444A23F440731360414B1B68404A23F4435323F00C
S32D00011C80300313603E4B1A68FB785B0203F400733B4913430B603A4B1A68FB785B101B0203F480733649134344
S32D00011CA80B60344B1A68FB789B101B0103F01003304913430B602F4B1A68FB78DB105B0103F020032B49134391
S32D00011CD00B602A4B1A68FB781B119B0103F04003264913430B60254B1A68FB785B11DB01DBB2224913430B607C
S32D00011CF8204B1A68FB789B111B0303F480531D4913430B601B4B1A6897F90330DB115BB25B0303F400531749F6
S32D00011D2013430B60164B1B68154A23F400331360134B1B68124A43F4003313600F4B1B680E4A43F008031360D3
S32D00011D480D4B1B680C4A43F440731360094B1B68084A43F4435343F030031360064B1B68054A43F4802313609F
S32D00011D7000BF0C37BD4680BC704700BF80F00F4040F00F4080B483B000AF78600B46FB70464B1B68454A23F0EF
S32D00011D9808031360444B1B68434A43F480331360414B1B68404A43F4802313603E4B1B683D4A23F440731360EC
S32D00011DC03A4B1B68394A23F4435323F030031360374B1A68FB785B0203F40073344913430B60334B1A68FB7814
S32D00011DE85B101B0203F480732F4913430B602D4B1A68FB789B101B0103F01003294913430B60284B1A68FB784C
S32D00011E10DB105B0103F02003244913430B60234B1A68FB781B119B0103F040031F4913430B601E4B1A68FB7830
S32D00011E385B11DB01DBB21B4913430B60194B1A68FB789B111B0303F48053164913430B60144B1A6897F90330D0
S32D00011E60DB115BB25B0303F40053104913430B600F4B1B680E4A23F4003313600C4B1B680B4A43F4003313609A
S32D00011E88084B1B68074A43F008031360064B1B68054A23F48023136000BF0C37BD4680BC704700BF80F00F408D
S32D00011EB040F00F4080B586B000AF78607B6800225A617B6800229A617B681B6AFB60FB68FB72FB681B0ABB728A
S32D00011ED8FB681B0CDBB203F003037B722A217868FFF7A6FE00217868FFF748FF00217868FFF744FF012178689F
S32D00011F00FFF740FF3F217868FFF73CFF2B217868FFF792FE00217868FFF734FF00217868FFF730FF0021786809
S32D00011F28FFF72CFFEF217868FFF728FF2C217868FFF77EFE314B1B68304A23F4407313602F4B1B682E4A23F47B
S32D00011F507F2323F0F00313602C4B1B682B4A23F01D031360274B1A687B681B6B254913430B60254B1A687B68D1
S32D00011F785B6B234913430B60224B1A687B689B6B204913430B601E4B1B681D4A23F0080313601A4B1B68194A16
S32D00011FA043F48023136000237B617B69EF2B19D800233B613B69B3F5A07F0FD2114B1B68104A23F400331360D6
S32D00011FC80E4B1B680D4A43F4003313603B6901333B61EBE77B6901337B61E2E7084B1B68074A43F008031360FF
S32D00011FF0044B1B68034A23F48023136000BF1837BD4680BD40F00F4080F00F40C0F00F4080B483B000AF7860FD
S32D000120187B689B69002B07DD7B685B695A1C7B685A617B6800229A6100BF0C37BD4680BC704780B582B000AFDA
S32D0001204078607B685A697B685B689A4205DB7B6800225A617868FFF72DFF00BF0837BD4680BD80B582B000AF7B
S32D0001206878607B689B695A1C7B689A617B689A697B689B689A4205D17868FFF7C5FF7868FFF7D7FF00BF083774
S32D00012090BD4680BD80B586B002AFF860B9607A600123009301237A68B968F86800F059F8F86800F0D7FA00BF1B
S32D000120B81037BD4680BD80B485B000AF786039607B681B68FB603B681A687B681A603B68FA681A6000BF14371D
S32D000120E0BD4680BC704780B586B002AFF860B9607A603B60BA683B681A447B68009313467A68B968F86800F094
S32D00012108ABF8BA683B68D118BA683B68D0187A68BB691344009303467A68F86800F09CF8BA683B68D1187A681B
S32D00012130BB69D0187A68BB6913440093BB680246F86800F08DF87A68BB691A447B680093BB68B968F86800F0D6
S32D0001215883F800BF1037BD4680BD80B588B000AFF860B9607A603B60FB681B78022B03D0FB681B78032B11D199
S32D000121807B68FB61BA6AFB691344013BBB61FB68DA68BB68D31A3B613B683A69D31A01337B610DE0BB68FB61BA
S32D000121A83A68FB691344013BBB617B687B61BA6A7B691344013B3B612A21F868FFF738FDFB691B0ADBB203F07E
S32D000121D00F03DBB21946F868FFF7D4FDFB69DBB21946F868FFF7CEFDBB691B0ADBB203F00F03DBB21946F86823
S32D000121F8FFF7C4FDBB69DBB21946F868FFF7BEFD2B21F868FFF714FD7B691B0ADBB203F00F03DBB21946F86846
S32D00012220FFF7B0FD7B69DBB21946F868FFF7AAFD3B691B0ADBB203F00F03DBB21946F868FFF7A0FD3B69DBB2B4
S32D000122481946F868FFF79AFD2C21F868FFF7F0FC00BF2037BD4680BD90B58BB000AFF860B9607A603B603A687F
S32D00012270BB68D31A1946F868FFF770FBF861BA6B7B68D31A1946F868FFF768FBB861BA69FB699A42CCBF01237E
S32D000122980023FB75FB7D002B0CD03A1D07F1080311461846FFF707FF3B4607F138011846FFF701FFBA683B682F
S32D000122C09A420CDD3A4607F1080311461846FFF7F6FE3B1D07F138011846FFF7F0FE3A68BB689A4206D1BB68A2
S32D000122E87A681946F868FFF7D1FE55E0BA6B7B68D31A184602F0A2FD04463A68BB68D31A184602F09BFD03461B
S32D000123101946204602F09EFE03463B617B68184602F090FD03467B62BB683B623B683A6A9A4235DCFB7D002BE9
S32D0001233814D0786A02F03EF94FF00002184B01F0DBFF02460B461046194602F025FC03463A6A1946F868FFF715
S32D0001236099FE13E0786A02F029F94FF000020E4B01F0C6FF02460B461046194602F010FC03461A46396AF86886
S32D00012388FFF784FE3969786A02F0A4FC03467B623B6A01333B62C5E72C37BD4690BD00BF0000E03F80B584B056
S32D000123B000AFF860B9607A60FB707A6813465B0013449B00991CBA6813461B011344DA1CFB78F86800F004F8B9
S32D000123D800BF1037BD4680BD80B58EB002AFF860B9607A60FB70FB780A2B06D1F868FFF720FEF868FFF708FE67
S32D00012400F2E0FB787D2B02D8FB781F2B01D82023FB70FB78203BFB70112300930C237A68B968F868FFF79DFE7F
S32D00012428FA7813469B0013446F4AD35C3B75FA7813469B00134401336B4AD35C7B75FA7813469B001344023379
S32D00012450674AD35CBB75FA7813469B0013440333634AD35CFB75FA7813469B00134404335F4AD35C3B7600236E
S32D00012478BB62BB6A062B00F3A180F86800F050F9F86800F0B3F8002387F82F3000237B627B6A042B35DC07F1FC
S32D000124A014027B6A13441B7803F00103002B14BF01230023FB76FB7E002B11D097F82F3083F00103DBB2002BD9
S32D000124C803D0F86800F0CAF802E0F86800F08EF8F86800F08BF80DE097F82F30002B03D0F86800F01DF902E054
S32D000124F0F86800F07FF8F86800F07CF8FB7E87F82F307B6A01337B62C6E797F82F30002B03D0F86800F008F9FB
S32D0001251802E0F86800F06AF8F86800F067F8002387F82F3000233B623B6A042B42DC07F114023B6A13441B7801
S32D0001254003F00103002B14BF01230023BB76BB7E002B11D097F82F3083F00103DBB2002B03D0F86800F07EF804
S32D0001256802E0F86800F042F8F86800F03FF80DE097F82F30002B03D0F86800F0D1F802E0F86800F033F8F868A2
S32D0001259000F030F8BB7E87F82F3007F114023B6A13441B785B08D9B207F114023B6A13440A461A703B6A0133A5
S32D000125B83B62B9E7BB6A0133BB625AE7F86800F0AFF8002387F82F300123FB61FB69232B06DCF86800F00AF8A2
S32D000125E0FB690133FB61F5E73037BD4680BD00BF580B002080B483B000AF7860174B1B68164A43F48033136083
S32D00012608154B1B68144A23F008031360114B1B68104A43F4802313600E4B1B680D4A23F4003313600B4B1B6882
S32D000126300A4A43F400331360094B1B68084A43F008031360054B1B68044A23F48023136000BF0C37BD4680BCE1
S32D00012658704700BF40F00F4080F00F4080B483B000AF78602B4B1B682A4A43F480331360294B1B68284A23F06B
S32D0001268008031360254B1B68244A43F480231360224B1B68214A23F440731360204B1B681F4A23F47F2323F044
S32D000126A8F00313601D4B1B681C4A23F01D031360184B1A687B685B6A164913430B60164B1A687B689B6A1449D1
S32D000126D013430B60134B1A687B68DB6A114913430B600E4B1B680D4A23F4003313600B4B1B680A4A43F4003370
S32D000126F81360094B1B68084A43F008031360054B1B68044A23F48023136000BF0C37BD4680BC704740F00F40A1
S32D0001272080F00F40C0F00F4080B483B000AF78602B4B1B682A4A43F480331360294B1B68284A23F0080313601A
S32D00012748254B1B68244A43F480231360224B1B68214A23F440731360204B1B681F4A23F47F2323F0F003136093
S32D000127701D4B1B681C4A23F01D031360184B1A687B681B6B164913430B60164B1A687B685B6B144913430B602B
S32D00012798134B1A687B689B6B114913430B600E4B1B680D4A23F4003313600B4B1B680A4A43F400331360094BE0
S32D000127C01B68084A43F008031360054B1B68044A23F48023136000BF0C37BD4680BC704740F00F4080F00F40E0
S32D000127E8C0F00F4080B485B000AF78607B681B6AFB60FB68FB72FB681B0ABB72FB681B0CDBB203F003037B728E
S32D000128107B6800225A627B6800229A627B680022DA627B6800221A637B6800225A637B6800229A637B681A6BE8
S32D00012838FB7A5B0203F400731A437B681A637B681A6BFB7A5B101B0203F480731A437B681A637B685A6BFB7A4F
S32D000128609B101B0103F010031A437B685A637B685A6BFB7ADB105B0103F020031A437B685A637B685A6BFB7AEB
S32D000128881B119B0103F040031A437B685A637B685A6BFB7A5B11DB01DBB21A437B685A637B685A6BFB7A9B116E
S32D000128B01B0303F480531A437B685A637B685A6B97F90B30DB115BB25B0303F400531A437B685A637B685A6B5B
S32D000128D8BB7A9B0303F480431A437B685A637B685A6BBB7A5B10DB039BB21A437B685A637B685A6BBB7A9B104F
S32D000129001B0403F480331A437B685A637B685A6BBB7ADB105B0403F400331A437B685A637B685A6BBB7A1B118B
