S01100002E2E2F50726F746575732E73313966
S32D0000C000000000205DC2000011C3000017C300001DC3000023C3000029C3000000000000000000000000000073
S32D0000C028000000002FC3000035C30000000000003BC3000041C3000081CE00008DCE000099CE0000A5CE00007A
S32D0000C050B1CE0000BDCE0000C9CE0000D5CE0000E1CE0000EDCE0000F9CE000005CF000011CF00001DCF0000AD
S32D0000C07829CF000035CF000041CF00004DCF000059CF000065CF000071CF00007DCF000089CF000095CF0000CE
S32D0000C0A0A1CF0000ADCF0000B9CF0000C5CF0000D1CF0000DDCF0000E9CF0000F5CF000001D000000DD00000F4
S32D0000C0C819D0000025D0000031D000003DD0000049D0000055D0000061D000006DD0000079D0000085D0000014
S32D0000C0F091D00000351801009DD00000A9D00000B5D00000C1D00000CDD00000D9D00000E5D00000F1D00000BB
S32D0000C118FDD0000009D1000015D1000021D100002DD1000039D1000045D1000051D100005DD1000069D10000D2
S32D0000C14075D1000081D100008DD1000099D1000061FB0000A5D10000B1D10000BDD10000C9D10000D5D100004F
S32D0000C168E1D10000EDD10000F9D1000005D2000011D200001DD2000029D2000035D2000041D200004DD2000092
S32D0000C19059D2000065D2000071D2000071F8000031F70000D1F7000005CC000015F900007DD2000089D20000FA
S32D0000C1B895D20000403A01000000002064150000403A01000000FF1F0000000064150020B00400000000FF1FDA
S32D0000C1E00000000080B489B000AFF860B9607A60BB68FB61FB68BB6100237B617A697B689A420BD2BA69131DFB
S32D0000C208BB61FB69191DF96112681A607B6904337B61EFE700BF2437BD4680BC704780B485B000AF786039609E
S32D0000C2307B68FB600023BB60BA683B689A4208D2FB681A1DFA6000221A60BB680433BB60F2E700BF1437BD46FE
S32D0000C25880BC704780B586B000AF72B6234B4CF220521A80214B4DF628121A80204B4FF4E9721A801F4B7B615F
S32D0000C2807B691F4A934214D27B691A1D7A611B683B617B691A1D7A611B68FB607B691A1D7A611B68BB60BA68E9
S32D0000C2A8F9683869FFF79AFFE6E77B69134A93420ED27B691A1D7A611B68FB607B691A1D7A611B68BB60B9688B
S32D0000C2D0F868FFF7A8FFECE70B4B7B600B4A7B681A6006F099FC62B600F054FD00F0E2F9FEE700BF0E200540C7
S32D0000C2F800200540BCC10000D4C10000E4C1000008ED00E000C0000080B400AFFEE780B400AFFEE780B400AFF4
S32D0000C320FEE780B400AFFEE780B400AFFEE780B400AFFEE780B400AFFEE780B400AFFEE780B400AFFEE780B426
S32D0000C34800AFFEE7FFFFFFFFFFFFFFFFFFFFFFFFFFFFFFFFFFFFFFFFFFFFFFFFFFFFFFFFFFFFFFFFFFFFFFFF57
S32D0000C370FFFFFFFFFFFFFFFFFFFFFFFFFFFFFFFFFFFFFFFFFFFFFFFFFFFFFFFFFFFFFFFFFFFFFFFFFFFFFFFFC7
S32D0000C398FFFFFFFFFFFFFFFFFFFFFFFFFFFFFFFFFFFFFFFFFFFFFFFFFFFFFFFFFFFFFFFFFFFFFFFFFFFFFFFF9F
S32D0000C3C0FFFFFFFFFFFFFFFFFFFFFFFFFFFFFFFFFFFFFFFFFFFFFFFFFFFFFFFFFFFFFFFFFFFFFFFFFFFFFFFF77
S32D0000C3E8FFFFFFFFFFFFFFFFFFFFFFFFFFFFFFFFFFFFFFFFFFFFFFFFFFFFFFFFFFFFFFFFFFFFFFFFFEFFFFFF50
S32D0000C41010B5054C237833B9044B13B10448AFF300800123237010BD6415002000000000403A010008B5034B3D
S32D0000C4381BB103490348AFF3008008BD0000000068150020403A010080B500AF40F28A21154803F04BFD40F2E9
S32D0000C4602671134803F063FD1249114803F07CFD4FF40771104803F03DFD40F607110E4803F055FD4FF00001E0
S32D0000C4880B4803F06DFD40F2EE210A4803F02EFD40F61511074803F046FD0749054803F05FFD00BF80BD00BF9D
S32D0000C4B0C015002000003443CC150020D81500200000A04280B500AF2A492B4803F04CFD002000F0FBF8294B85
S32D0000C4D81B682949184606F0AFF90346184606F071FB034619466FF0180000F0EBF94FF000011F4803F034FD7E
S32D0000C500204B1B682049184606F09AF90346184606F05CFB03461946192000F09DFA002000F0D4F819491A48D3
S32D0000C52804F0ECF9194802F005FF03461946164804F039FA1649144804F0E0F9154802F0F9FE034619461048BA
S32D0000C55004F02DFA1249134803F006FD4FF000004FF0804102F0BAFD0F490E4803F0FCFC00BF80BD0000344302
S32D0000C578CC1500200000002000004040040000200000BE42E4350100C418002090150020F835010094150020FE
S32D0000C5A000004842C015002000002A4380B500AF354B1B68184605F0ABFC4FF00002334B05F0FEFC02460B4659
S32D0000C5C81046194605F092FF03461946192000F079F94FF000002C4902F07CFD2B4B1B682B49184606F028F9C6
S32D0000C5F00346184606F0EAFA03461946192000F0CFF94FF00000224902F068FD1E4B1B68184605F07DFC4FF00B
S32D0000C6180002204B05F0D0FC02460B461046194605F064FF034619463C2000F04BF94FF00000154902F04EFD0E
S32D0000C640144B1B681649184606F0FAF80346184606F0BCFA03461946192000F0FDF94FF000000B4902F03AFD6F
S32D0000C6680E490F4804F08CF94FF000010D4800F093FE4FF000010C4800F08EFE00BF80BD0000002000802E404D
S32D0000C690000008400400002000004842004042400000BE4250360100C4180020B0150020A815002080B500AF9B
S32D0000C6B8FFF7CAFEFFF776FFFFF700FF0023184680BDFFFFB0B584B000AF78607B68012B6BD1714802F02EFE38
S32D0000C6E00346002B05D16F4802F028FE0346002B01D0012300E00023002B08D06A496B4800F04EFE6A496B489C
S32D0000C70800F04AFEE5E7644802F014FE0346002B0CBF01230023DBB2002B03D0614800F0F9FD0DE05D4802F02B
S32D0000C73005FE0346002B0CBF01230023DBB2002B02D05C4800F0EAFD02F0EEFC02460B461046194605F016FF19
S32D0000C7580346FB60504802F0EDFD0346002B05D14E4802F0E7FD0346002B1AD002F0D8FC04460D46F86805F0CF
S32D0000C780C7FB02460B462046294605F061FA02460B46104619464FF00002474B05F082FE0346002B01D001230C
S32D0000C7A800E00023002B6CD0D4E7424802F0C2FD0346002B05D1404802F0BCFD0346002B01D0012300E000231A
S32D0000C7D0002B08D03B49354800F0E2FD3A49354800F0DEFDE5E7354802F0A8FD0346002B0CBF01230023DBB2AA
S32D0000C7F8002B03D02B4800F08DFD0DE02E4802F099FD0346002B0CBF01230023DBB2002B02D0264800F07EFD54
S32D0000C82002F082FC02460B461046194605F0AAFE0346FB60214802F081FD0346002B05D11F4802F07BFD0346AE
S32D0000C848002B1AD002F06CFC04460D46F86805F05BFB02460B462046294605F0F5F902460B46104619464FF02D
S32D0000C8700002114B05F016FE0346002B01D0012300E00023002B00D0D4E7084800F046FD084800F043FD00BF4F
S32D0000C8981037BD46B0BD00BF981500209C1500200000B841B01500200000C8C1A8150020000014409015002001
S32D0000C8C0941500200000B8C10000C841F0B583B000AF786039602E4803F07CF82D4803F079F8786805F058FF25
S32D0000C8E8034619462A4800F057FD7B68002B0CDA7A686FF001039B1A184605F049FF03461946244800F048FDF2
S32D0000C9100AE07B68C3F10203184605F03DFF034619461E4800F03CFD1A4803F041F80446174803F03DF8034605
S32D0000C9382344184605F0D6FA4FF000024FF0804305F064FC02460B4614461D46386805F0C9FA02460B46012146
S32D0000C9600E462046294605F09DFD0346002B01D100231E46F3B2002B00D0D5E7064800F0CDFC064800F0CAFCBD
S32D0000C98800BF0C37BD46F0BDA0150020A4150020A8150020B0150020F0B583B000AF78603960274803F012F8FB
S32D0000C9B0264803F00FF87B685B42184605F0ECFE03461946224800F0EBFC7B685B42184605F0E2FE03461946F0
S32D0000C9D81E4800F0E1FC1B4802F0E6FF0446184802F0E2FF03462344184605F07BFA4FF000024FF0804305F097
S32D0000CA0009FC02460B4614461D46386805F06EFA02460B4601210E462046294605F042FD0346002B01D100232F
S32D0000CA281E46F3B2002B00D0D5E7074800F072FC064800F06FFC00BF0C37BD46F0BD00BFA0150020A4150020AB
S32D0000CA50A8150020B0150020F0B583B000AF78603960254802F0B6FF244802F0B3FF786805F092FE03461946CD
S32D0000CA78214800F091FC786805F08AFE034619461E4800F089FC1B4802F08EFF0446184802F08AFF0346234413
S32D0000CAA0184605F023FA4FF000024FF0804305F0B1FB02460B4614461D46386805F016FA02460B4601210E460A
S32D0000CAC82046294605F0EAFC0346002B01D100231E46F3B2002B00D0D5E7074800F01AFC064800F017FC00BF02
S32D0000CAF00C37BD46F0BD00BFA0150020A4150020A8150020B015002080B582B000AF786039607B68012B47D148
S32D0000CB183B684FF6FF72934242D10B21224802F067FF0D21214802F063FF0F21204802F05FFF1F211F4802F054
S32D0000CB405BFF18211E4802F01DFB07211D4802F019FB19211C4802F015FB01211B4802F011FB08211A4802F091
S32D0000CB686DFC1021194802F069FC194A0021194800F092FB164A0121174800F08DFB144A0221164800F088FB40
S32D0000CB900321154803F092F90721144803F08EF90021134803F08AF900BF0837BD4680BD8015002084150020DC
S32D0000CBB8881500208C1500209015002094150020981500209C150020A0150020A415002000001041A8150020C9
S32D0000CBE0B0150020B8150020C0150020CC150020D815002080B500AF4FF6FF710120FFF783FF80BD80B500AFFF
S32D0000CC080F4BD3F8A03003F48053002B14BF01230023DBB2002B10D0094BD3F8A030084A23F48053C2F8A030AD
S32D0000CC30064804F083FF064B1B68054A23F40053136000BF80BD00BF00C004404C190020C0F00F4080B400AFEC
S32D0000CC58124B4FF480725A63114B5B69104A43F4005353610E4B1B680D4A43F4005313600A4B0C4A1A630C4BF8
S32D0000CC80D3F888310A4A43F08063C2F88831084B9B68074A43F08063936000BFBD4680BC704700BF00C00440FD
S32D0000CCA8C0F00F4003010A0000E100E080B400AF334B00225A70324B98221A70304B9B79DBB203F01003002B35
S32D0000CCD014BF01230023DBB2002B00D0F2E72A4B9B79DBB29B08DBB203F00303022B14BF01230023DBB2002B7D
S32D0000CCF800D0F0E7224B18221A71214B00225A71204B03F580531A461F4B53641C4B54225A711B4B9B79DBB276
S32D0000CD2003F02003002B0CBF01230023DBB2002B00D0F2E7144B9B79DBB203F04003002B0CBF01230023DBB231
S32D0000CD48002B00D0F2E70E4B1B78DBB20C4A03F03F03DBB213700A4B9B79DBB29B08DBB203F00303032B14BFB5
S32D0000CD7001230023DBB2002B00D0F0E700231846BD4680BC704700BF00400640007004400000130180B500AF87
S32D0000CD98314B03F580539B6B2F4A43F4785302F580529363FFF752FFFFF780FF2B4B58221A602A4B1B684FF485
S32D0000CDC07A7202FB03F3284A1360274B1B681A46234B03F580535B6C1B0E03F00F030133B2FBF3F31A46214B6B
S32D0000CDE81A601D4B03F58053DB6B1B4A43F0225302F58052D363184B03F580531B6B164A43F0006302F58052AB
S32D0000CE101363174B4FF480721A61642002F034F8134B5B69124A23F010035361104B00221A600F4B10225A6134
S32D0000CE380E4803F041FB02F043FE02F0A1FE0C4802F080F80B4804F0C9FE4FF4FA6002F02BF900BF80BD00BF49
S32D0000CE6000700440101800200C1800201418002000D00340C418002008180020BC19002080B500AFFFF75FFAA1
S32D0000CE8800BF80BD80B500AFFFF759FA00BF80BD80B500AFFFF753FA00BF80BD80B500AFFFF74DFA00BF80BD17
S32D0000CEB080B500AFFFF747FA00BF80BD80B500AFFFF741FA00BF80BD80B500AFFFF73BFA00BF80BD80B500AF3D
S32D0000CED8FFF735FA00BF80BD80B500AFFFF72FFA00BF80BD80B500AFFFF729FA00BF80BD80B500AFFFF723FA1C
S32D0000CF0000BF80BD80B500AFFFF71DFA00BF80BD80B500AFFFF717FA00BF80BD80B500AFFFF711FA00BF80BD52
S32D0000CF2880B500AFFFF70BFA00BF80BD80B500AFFFF705FA00BF80BD80B500AFFFF7FFF900BF80BD80B500AF79
S32D0000CF50FFF7F9F900BF80BD80B500AFFFF7F3F900BF80BD80B500AFFFF7EDF900BF80BD80B500AFFFF7E7F997
S32D0000CF7800BF80BD80B500AFFFF7E1F900BF80BD80B500AFFFF7DBF900BF80BD80B500AFFFF7D5F900BF80BD91
S32D0000CFA080B500AFFFF7CFF900BF80BD80B500AFFFF7C9F900BF80BD80B500AFFFF7C3F900BF80BD80B500AFB7
S32D0000CFC8FFF7BDF900BF80BD80B500AFFFF7B7F900BF80BD80B500AFFFF7B1F900BF80BD80B500AFFFF7ABF90F
S32D0000CFF000BF80BD80B500AFFFF7A5F900BF80BD80B500AFFFF79FF900BF80BD80B500AFFFF799F900BF80BDCD
S32D0000D01880B500AFFFF793F900BF80BD80B500AFFFF78DF900BF80BD80B500AFFFF787F900BF80BD80B500AFF2
S32D0000D040FFF781F900BF80BD80B500AFFFF77BF900BF80BD80B500AFFFF775F900BF80BD80B500AFFFF76FF986
S32D0000D06800BF80BD80B500AFFFF769F900BF80BD80B500AFFFF763F900BF80BD80B500AFFFF75DF900BF80BD08
S32D0000D09080B500AFFFF757F900BF80BD80B500AFFFF751F900BF80BD80B500AFFFF74BF900BF80BD80B500AF2E
S32D0000D0B8FFF745F900BF80BD80B500AFFFF73FF900BF80BD80B500AFFFF739F900BF80BD80B500AFFFF733F9FE
S32D0000D0E000BF80BD80B500AFFFF72DF900BF80BD80B500AFFFF727F900BF80BD80B500AFFFF721F900BF80BD44
S32D0000D10880B500AFFFF71BF900BF80BD80B500AFFFF715F900BF80BD80B500AFFFF70FF900BF80BD80B500AF69
S32D0000D130FFF709F900BF80BD80B500AFFFF703F900BF80BD80B500AFFFF7FDF800BF80BD80B500AFFFF7F7F877
S32D0000D15800BF80BD80B500AFFFF7F1F800BF80BD80B500AFFFF7EBF800BF80BD80B500AFFFF7E5F800BF80BD82
S32D0000D18080B500AFFFF7DFF800BF80BD80B500AFFFF7D9F800BF80BD80B500AFFFF7D3F800BF80BD80B500AFA8
S32D0000D1A8FFF7CDF800BF80BD80B500AFFFF7C7F800BF80BD80B500AFFFF7C1F800BF80BD80B500AFFFF7BBF8F1
S32D0000D1D000BF80BD80B500AFFFF7B5F800BF80BD80B500AFFFF7AFF800BF80BD80B500AFFFF7A9F800BF80BDBE
S32D0000D1F880B500AFFFF7A3F800BF80BD80B500AFFFF79DF800BF80BD80B500AFFFF797F800BF80BD80B500AFE4
S32D0000D220FFF791F800BF80BD80B500AFFFF78BF800BF80BD80B500AFFFF785F800BF80BD80B500AFFFF77FF868
S32D0000D24800BF80BD80B500AFFFF779F800BF80BD80B500AFFFF773F800BF80BD80B500AFFFF76DF800BF80BDF9
S32D0000D27080B500AFFFF767F800BF80BD80B500AFFFF761F800BF80BD80B500AFFFF75BF800BF80BD80B500AF1F
S32D0000D298FFF755F800BF80BD80B584B000AFF8600B467A60FB72FB68FA7A1A71FB6800225A711749786805F03A
S32D0000D2C07BFC0346002B02D0134B7B600AE04FF07E51786805F05CFC0346002B02D04FF07E537B60786804F020
S32D0000D2E813FE09A3D3E9002304F066FE02460B461046194605F042F90246FB681A60FB6818461037BD4680BD39
S32D0000D310ABAAAAAAAAAA20400000404180B582B000AF78607B685B79002B09D07B6800225A717B6819791E23E2
S32D0000D3380022034801F040FE00BF0837BD4680BD0818002080B584B000AF786039603B687F2B02DD7F23FB73E8
S32D0000D36008E03B6813F1800F02DA8023FB7301E03B68FB737B685B79FA7B9A4209D07B68FA7B5A717B68197929
S32D0000D388FA7B1E23034801F017FE00BF1037BD4680BD00BF08180020B0B584B000AF786039603749386805F05D
S32D0000D3B0E5FB0346002B02D0334B3B6008E03349386805F0F9FB0346002B01D02F4B3B60386804F09DFD044651
S32D0000D3D80D467B681B68184604F096FD4FF00002294B04F013FF02460B462046294604F0E3FD02460B4610469D
S32D0000D400194605F0BFF803463B604FF00001386805F0C8FB0346002B10D0386804F078FD17A3D3E9002304F08D
S32D0000D428CBFD02460B461046194605F05FF80346FB6018E0386804F067FD4FF00002134B04F0BAFD02460B46FD
S32D0000D450104619464FF000020D4B04F0DBFE02460B461046194605F045F80346FB60F9687868FFF76BFF00BF0F
S32D0000D4781037BD46B0BD00BF52B81E85EB51F43F0000C8C20000C842000059400000604080B483B000AF0346C8
S32D0000D4A00A46FB711346BB71BB79002B03D1134B00221A7002E0114B01221A703823FB710E4B1A78FB79134379
S32D0000D4C8FB710D4B9B78DBB20B4A43F01003DBB29370094B9B78DBB2074A43F02003DBB29370054AFB79137135
S32D0000D4F000BF0C37BD4680BC704700BFE41500200060064080B483B000AF01237B607B68312B04DC00BF7B68C2
S32D0000D51801337B60F7E700BF0C37BD4680BC704780B582B000AF03460A46FB711346BB71134B1B7800211846F0
S32D0000D540FFF7AAFF00F024F8104AFB79137100F01FF80E4ABB79137100F01AF80B4B9B78DBB20A4A23F0200327
S32D0000D568DBB29370074B9B78DBB2064A23F01003DBB29370FFF7C2FF00BF0837BD4680BDE51500200060064058
S32D0000D59080B483B000AF174B1B78002B24D100237B60154BDB78DBB203F00203002B0CBF01230023DBB2002B17
S32D0000D5B80DD07B6842F21072934203DD0B4B01221A7004E07B6801337B6000BFE5E7084BDB78DBB2064A43F000
S32D0000D5E00203DBB2D37000E000BF0C37BD4680BC704700BFE61500200060064080B582B000AF0346FB71FB79B1
S32D0000D608184600F03BF800BF0837BD4680BD80B582B000AF03460A46FB711346BB7100F011F8FB795B00DBB240
S32D0000D6301846FFF7E3FFBB791846FFF7DFFF00F013F800BF0837BD4680BDFFFF80B400AF044B9B68034A43F440
S32D0000D6588013936000BFBD4680BC704740F00F4080B400AF044B5B68034A43F48013536000BFBD4680BC704776
S32D0000D68040F00F4080B485B000AF0346FB710023BB73164BDB6A03F00043012B0CBF01230023DBB2002B03D03A
S32D0000D6A8FB7B0133FB73F0E70E4BDB6A0D4A43F00043D3620B4AFB7953630A4BDB6A03F40033002B0CBF012368
S32D0000D6D00023DBB2002B00D0F3E7044B9B6BBB73BB7B18461437BD4680BC704700C00A4080B582B000AF204BC4
S32D0000D6F803F580531B6B1E4A43F4805302F5805213631C4B4FF480721A651B4B5B691A4A43F480135361FFF7E5
S32D0000D720A3FF164B4FF400725A65144B4FF400729A65124B4FF40072DA65124B124A1A60104B124ADA600023B9
S32D0000D7487B607B68092B06DCFF20FFF753FF7B6801337B60F5E704A1D1E9000101F0BAFC00BF0837BD4680BD65
S32D0000D7709A9999999999B93F0070044000A0044040F00F4000C00A40000C00800500003E90B486B000AFF8608B
S32D0000D798B9607A60FB68534A93420AD1524B03F580535B6B504A43F4806302F58052536345E0FB684D4A93426B
S32D0000D7C00AD14B4B03F580535B6B494A43F4006302F58052536336E0FB68474A93420AD1434B03F580535B6BB4
S32D0000D7E8414A43F4805302F58052536327E0FB68404A93420AD13C4B03F580535B6B3A4A43F4005302F580526C
S32D0000D810536318E0FB683A4A93420AD1344B03F580539B6A324A43F4806302F58052936209E02F4B03F58053D4
S32D0000D8389B6A2D4A43F4006302F580529362FB68DB78DBB223F00C03DAB2FB68DA70FB6800229A70BB684FF45B
S32D0000D8607A7203FB02F27B681B0192FBF3F39CB2FB681B78DBB223F01F03FB75230A9BB2DBB203F01F03DAB22C
S32D0000D888FB7D1343DAB2FB681A70E2B2FB685A70BB684FF4FA4203FB02F27B681B0192FBF3F39AB263019BB267
S32D0000D8B0D31A9CB2FB689B7ADBB223F01F03FB75E3B203F01F03DAB2FB7D1343DAB2FB689A72FB68DB78DBB223
S32D0000D8D843F00C03DAB2FB68DA7000BF1837BD4690BC704700A006400070044000B0064000C0064000D00640E7
S32D0000D90000A00E4080B483B000AF78607B681B79DBB203F02003002B0CBF01230023DBB2002B00D0F2E77B6882
S32D0000D928DB79DBB218460C37BD4680BC704780B483B000AF78600B46FB707B681B79DBB25BB2DB43DBB2DB090F
S32D0000D950DBB2002B00D0F4E77B68FA78DA7100BF0C37BD4680BC704780B487B000AFF860B9607A60FB687B610A
S32D0000D9787B685A1E7A60002B14BF01230023DBB2002B06D07B695A1C7A61BA68D2B21A70EEE700BF1C37BD462A
S32D0000D9A080BC704780B584B000AF786039607B681B6BFB60FA683B689A4252D07B681B79002B35D07B685878BC
S32D0000D9C87B6803F134010123FA6801F0F7F80346002B14BF01230023DBB2002B01D001233CE07B6800221A71D8
S32D0000D9F07B685A6A7B681B6A1344FA689A4217D27B68DB78FB72FB7A012B11D97B681B6AFA681344FB607B68EF
S32D0000DA1858787B6803F134010123FA6801F0CEF8FB7A013BFB72EAE73B68002B15D07B6858787B6803F1340166
S32D0000DA4001233A6800F0DAFF0346002B14BF01230023DBB2002B01D0012303E07B683A681A6300231846103741
S32D0000DA68BD4680BD80B584B000AF786000217868FFF794FF0346FB73FB7B002B40F093807B681B78032B7DD149
S32D0000DA907B685B79002B79D07B6800221A637B6834334FF4007200211846FFF75DFF7B68552283F832227B68DF
S32D0000DAB8AA2283F833227B68522283F834207B68522283F835207B68612283F836207B68412283F837207B6825
S32D0000DAE0722283F818227B68722283F819227B68412283F81A227B68612283F81B227B681B69DAB27B6883F836
S32D0000DB081C227B681B699BB21B0A9BB2DAB27B6883F81D227B681B691B0CDAB27B6883F81E227B681B691B0E1A
S32D0000DB30DAB27B6883F81F227B68DB68DAB27B6883F820227B68DB689BB21B0A9BB2DAB27B6883F821227B6855
S32D0000DB58DB681B0CDAB27B6883F822227B68DB681B0EDAB27B6883F823227B6858787B6803F134017B685A6924
S32D0000DB80012301F01FF87B6800225A717B685B7800220021184601F0E1F80346002B14BF01230023DBB2002B14
S32D0000DBA801D00123FB73FB7B18461037BD4680BD80B582B000AF78600B467B807B68002B08D07B681B78002BD0
S32D0000DBD004D07B68DB887A889A4201D0092311E07B685B78184601F03BF9034603F00103002B14BF0123002383
S32D0000DBF8DBB2002B01D0032300E0002318460837BD4680BD80B586B000AF78607B681A687B689B88194610465E
S32D0000DC20FFF7CAFF0346FB75FB7D002B40F0AC807B689B7903F02003002B00F0A5807B689B7903F04003002BBA
S32D0000DC481BD07B681B6858787B6803F128017B689A69012300F0B2FF0346002B14BF01230023DBB2002B01D0CB
S32D0000DC7001238AE07B689B7923F04003DAB27B689A717B681A687B68DB6919461046FFF789FE0346FB75FB7D42
S32D0000DC98002B75D17B681B6A3B613B690B331A783B690B3342F02002D2B21A707B68DA683B691C33D2B21A700B
S32D0000DCC07B68DB689BB21B0A9AB23B691D33D2B21A707B68DB681A0C3B691E33D2B21A707B68DB681A0E3B690F
S32D0000DCE81F33D2B21A707B681A693B691A33D2B21A707B681B699BB21B0A9AB23B691B33D2B21A707B681B69BD
S32D0000DD101A0C3B691433D2B21A707B681B691B0C9BB21B0A9AB23B691533D2B21A700023FB603B691633FA68B3
S32D0000DD38D2B21A70FB689BB21B0A9AB23B691733D2B21A70FB681A0C3B691833D2B21A70FB681A0E3B69193391
S32D0000DD60D2B21A707B689B7923F02003DAB27B689A717B681B6801221A717B681B681846FFF774FE0346FB75E7
S32D0000DD88FB7D18461837BD4680BD80B584B000AF78607868FFF736FF0346FB73FB7B002B02D17B6800221A6063
S32D0000DDB0FB7B18461037BD4680BDFFFF80B588B000AF7860396080233B610F23FB604FF0FF337B610223FB61C5
S32D0000DDD8FB69B3F5807F23D80123BB61BB69102B1AD8FB69BA6902FB03F33A6803FB02F27B68D31ABB60BB686A
S32D0000DE00002B09DBBB687A699A4205D9BB687B61FB693B61BB69FB60BB690133BB61E1E7FB695B00FB61D7E792
S32D0000DE281D4BDB6A1C4A23F00803D3621A4BDB6A23F47F2323F47F63BB613B695B081B029AB2FB68013B1B01C3
S32D0000DE50DBB21A43BB691343114A43F46023D3620F4B5B6A03F00803002B0CBF01230023DBB2002B03D00A20E7
S32D0000DE7801F01AF9F0E7084BDB6A074A43F00803D362054B1B6B044A43F48013136300BF2037BD4680BD00BFCC
S32D0000DEA000100B4080B582B000AF786039607B6800221A60414B424ADA62404BDB6A03F08073002B14BF0123C7
S32D0000DEC80023DBB2002B00D0F3E73A4B0022C3F8C020384B4FF481325A60364B28229A62344B4FF001125A64DC
S32D0000DEF03B689B6833491846FFF760FF2F4B5B6A03F00303002B14BF01230023DBB2002B00D0F3E72C4B40F2A7
S32D0000DF1843421A602A4B40F243425A60284B4FF488629A60264B40F24342DA60244B40F243421A61224B40F2BA
S32D0000DF4043425A61214B03F580531B6B1F4A43F4003302F580521363184B4FF6FF721A63164B1B4A5A63154B2B
S32D0000DF68DB6A144A43F00063D362124BDB6A03F00063002B14BF01230023DBB2002B00D0F3E70C4B5B6A03F46B
S32D0000DF908033002B14BF01230023DBB2002B02D07B6801221A60054B1B6B044A43F08003136300231846083751
S32D0000DFB8BD4680BD00100B400080000160CC050000D0044000700440B3007F0080B400AF064B5A6A40F2073390
S32D0000DFE01340002B14BF01230023DBB21846BD4680BC704700100B4080B485B000AF7860074B1B6B7A68134042
S32D0000E008FB60FB68002B00D1F6E7FB6818461437BD4680BC704700BF00100B4080B584B000AF78607B681B78D1
S32D0000E03003F03F03764A52F82330FB60FB68002B05D17B681B78002B01D00123DCE0714B1B6B704A43F080036D
S32D0000E05813636E4B5B6A03F00103002B14BF01230023DBB2002B00D0F3E7684A7B685B689360FB6823F4400300
S32D0000E080FB607B685B789B0503F44003FA681343FB607B685B78022B03D1FB6843F40013FB607B685B78042BD0
S32D0000E0A816D1FB6803F44033B3F5003F08D1FB6823F44033FB60FB6843F44033FB6007E0FB6823F44033FB60F7
S32D0000E0D0FB6843F40033FB604E4B5B684D4A9BB253607B68DB68002B2AD0FB6803F44033B3F5403F03D0FB6892
S32D0000E0F843F40013FB607B681B7A002B03D0FB6843F01003FB607B68DB68012B03D9FB6843F02003FB607B68B6
S32D0000E120DB68B3F1FF3F0BD03A4B5A687B68DB681B04384913434B60FB6843F00203FB60344B00221A60334A35
S32D0000E148FB68D3603248FFF753FF0346012B14BF01230023DBB2002B09D02C4B1B6B2B4A43F4702343F00103BE
S32D0000E1701363012348E0274B1B6B03F08003002B14BF01230023DBB2002B07D0214B1B6B204A43F00113136364
S32D0000E198012335E01D4B1B6B03F48033002B14BF01230023DBB2002B08D0184B1B6B174A43F0011313634FF06D
S32D0000E1C0FF3321E0FB6803F44033002B15D0114B1A697B681A61FB6803F44033B3F5803F0BD10C4B5A697B68D7
S32D0000E1E85A610A4B9A697B689A61084BDA697B68DA61064B1B6B054A43F001031363002318461037BD4680BD89
S32D0000E210FC36010000100B4001000E0080B592B000AF7860396000237B643B68BB63994B7B637B6B002B02D143
S32D0000E23840F601235FE3964B3B633B6B002B02D140F60B2357E33B6B1B68FB62FB6A002B02D140F60B234EE3DD
S32D0000E2607B6841F20932934200F23F837B68B3F5985F08D87B68032B00F01A837B68092B00F0098331E37B682C
S32D0000E288A3F59853013B082B00F22B8301A252F823F000BFC1E20000ADE5000009E80000C3E5000001E6000062
S32D0000E2B027E700006FE70000B1E60000CBE600007649786BFFF7EEFD78647B6C002B40F01083002387F843304B
S32D0000E2D8002387F82B30002387F82A30002387F82930002387F84230002387F8283000233B7200237B72002313
S32D0000E300FB6000233B7400237B6107F108031846FFF788FE0346002B14BF01230023DBB2002B02D001237B64CB
S32D0000E328E8E240F24C4000F0BFFE08233B7200237B724FF4D573FB6000233B7400237B6107F108031846FFF79C
S32D0000E35069FEF863FB6B002B09D1BA69FB689A4202D001237B64C9E2012387F84230012387F8283097F8283099
S32D0000E378002B00F0A58037233B7200237B720023FB6000233B7400237B6107F108031846FFF744FEF863FB6B77
S32D0000E3A0002B02D001237B64A8E269233B7200237B720023FB6000233B7400237B6107F108031846FFF72EFEAA
S32D0000E3C80346002B14BF01230023DBB2002B02D001237B648EE2BB6903F44013002B6FD00023FB630A2000F029
S32D0000E3F05FFEFB6B0133FB6337233B7200237B720023FB6000233B7400237B6107F108031846FFF707FE03469F
S32D0000E418002B14BF01230023DBB2002B02D001237B6428E069233B7200237B7297F84230002B02D0184BFB60F7
S32D0000E44002E04FF44013FB6000233B7400237B6107F108031846FFF7E5FD0346002B14BF01230023DBB2002B8B
S32D0000E46802D001237B6406E0BB69002B03DBFB6B632B00D8B6E77B6C002B40F03882FB6B632B0BD9002387F8BF
S32D0000E490423019E0FC15002000180020F036010000003040012387F8433097F84230002B0AD0002387F84230C3
S32D0000E4B8BB6903F08043002B02D0012387F8423097F82A30002B02D07B6B07221A6097F82930002B02D07B6B10
S32D0000E4E008221A6097F82B30002B02D07B6B04221A6097F84330002B09D07B6B02221A6097F84230002B02D075
S32D0000E5087B6B03221A6097F82B30002B0DD097F84330002B09D07B6B05221A6097F84230002B02D07B6B0622D5
S32D0000E5301A60924B00221A60904B00225A608F4B00229A608D4B0022DA608C4B00221A618A4B00225A61FB6A5E
S32D0000E5589A68FB6A5B6819461046FFF72BFC854B40F243421A60834B40F243425A60814B4FF488629A607F4B9C
S32D0000E58040F24342DA607D4B40F243421A617B4B40F243425A617A4B03F580531B6B784A43F4003302F580523F
S32D0000E5A81363A7E1B86BFFF739FDF863FB6B002B00F09F8102237B649BE1BB6B002B02D10C237B6496E16D4B1B
S32D0000E5D0DB6A1B0A5B0003F4FF73FB63694BDB6A1B0903F00F035A1CFB6B02FB03F3FB63FB6A9A68FB6BB2FBC8
S32D0000E5F8F3F2BB6B1A607DE1BB6B002B02D10C237B6477E1BB6B1B68002B02D10C237B6470E1FFF7DBFC03466C
S32D0000E620002B0CBF01230023DBB2002B3CD0534B00221A60514B00225A60504B00229A604E4B0022DA604D4BD5
S32D0000E64800221A614B4B00225A61FB6A9A68BB6B1B6819461046FFF7ADFB464B40F243421A60444B40F2434229
S32D0000E6705A60424B4FF488629A60404B40F24342DA603E4B40F243421A613C4B40F243425A613B4B03F580538D
S32D0000E6981B6B394A43F4003302F58052136329E140F60A237B6425E1BB6B002B02D10C237B641FE1314B5B68DF
S32D0000E6C0C3F30C02BB6B1A6018E1BB6B002B02D10C237B6412E1FFF77DFC0346002B0CBF01230023DBB2002BFD
S32D0000E6E819D0BB6B1B68B3F5805F02D30C237B6400E1224B5B68214A23F4FF5323F01F0353601E4B5A68BB6BEA
S32D0000E7101B68C3F30C031B4913434B60EEE040F60A237B64EAE0BB6B002B02D10C237B64E4E0144B9B6A5B0897
S32D0000E73803F00303FB63FB6B002B03D1BB6B00221A60D7E0FB6B012B03D1BB6B01221A60D0E0FB6B102B03D130
S32D0000E760BB6B02221A60C9E005237B64C6E0BB6B002B09D10C237B64C0E000BF00D004400070044000100B40B6
S32D0000E788FFF724FC0346002B0CBF01230023DBB2002B31D0BB6B1B68002B0AD1584B9B6A574A23F00603936205
S32D0000E7B0554B554A9B6A9362A0E0BB6B1B68012B0CD1514B9B6A504A23F0060393624E4B9B6A4D4A43F0020317
S32D0000E7D893628FE0BB6B1B68022B0AD1484B9B6A474A23F006039362454B454A9B6A936280E005237B647DE0E7
S32D0000E80040F60A237B6479E0BB6B002B02D10C237B6473E03C4BDB6A3B4A43F00063D362394BDB6A03F000638F
S32D0000E828002B14BF01230023DBB2002B00D0F3E7334B1B6B03F08003002B14BF01230023DBB2002B08D02E4B53
S32D0000E8501B6B2D4A43F0800313637B6B00221A60294B5B6A03F48033002B14BF01230023DBB2002B07D07B6B52
S32D0000E8781B68002B06D17B6B01221A6002E07B6B00221A607B6B1A68BB6B1A6032E0BB6B1C221A60BB6B0433B1
S32D0000E8A004221A60BB6B08334FF41E721A6025E00220FFF7A1FB144B1B6B03F4E003002B14BF01230023DBB2B2
S32D0000E8C8002B07D00E4B1B6B0D4A43F4E003136304237B640A4B1B6B094A43F03203136308E040F609237B641F
S32D0000E8F004E000BF02E000BF00E000BF7B6C18464837BD4680BD00BF00100B4080B489B000AF786039607B6889
S32D0000E9187B61364B3B613B69002B01D100235FE03B691B68022B0BD03B691B68032B07D03B691B68072B03D04E
S32D0000E9403B691B68082B0BD12B4B5B6A03F00403002B14BF01230023DBB2002B00D0F3E73B68FB61FB69002B09
S32D0000E9683DD0FB69B3F5007F28BF4FF40073FB60FB6803339B08BB61BB69002B2AD01C4B1B6B03F4E003002B5E
S32D0000E99014BF01230023DBB2002B09D0164B1B6B154A43F4E00343F02003136300231BE0114B5B6A03F40063E9
S32D0000E9B8002B0CBF01230023DBB2002B00D0F3E70B497B691A1D7A610A6A1A60BB69013BBB61D1E7FA69FB6860
S32D0000E9E0D31AFB61BEE7012318462437BD4680BC704700BFFC15002000100B4080B58EB000AFB9607A601A4688
S32D0000EA080346FB731346BB73414B7B63FB7B002B02D1BB7B002B01D1042375E03D4B1B78DBB203F00103002B4B
S32D0000EA3014BF01230023DBB2002B01D0032367E0BB68002B01D1002362E07B6B1B7B002B02D17B685B027B608E
S32D0000EA58BB7B012B28D111233B7500237B757B68BB6101233B77BB7B3B6207F11403194641F20230FFF7CEFB04
S32D0000EA800346002B0CBF01230023DBB2002B38D04FF40071B868FFF739FF0346002B14BF01230023DBB2002BDA
S32D0000EAA82BD00023BB7328E012233B7500237B757B68BB6101233B77BB7B3B6207F11403194641F20230FFF783
S32D0000EAD0A5FB0346002B0CBF01230023DBB2002B0FD0BB7B5B021946B868FFF70FFF0346002B14BF01230023B7
S32D0000EAF8DBB2002B01D00023BB73BB7B002B01D0012300E0002300BF18463837BD4680BDE815002008000020AC
S32D0000EB2080B487B000AF786039607B68FB603B687B617B69002B3DD07B69B3F5007F28BF4FF400733B617A693C
S32D0000EB483B69D31A7B613B6903339B083B613B69002BEAD0184B1B6B03F4E003002B14BF01230023DBB2002BD0
S32D0000EB700AD0134B1B6B124A43F4E00343F0100313634FF0FF3316E00D4B5B6A03F48063002B0CBF01230023EC
S32D0000EB98DBB2002B00D0F3E7FB681A1DFA60064A1B6813623B69013B3B61D0E7012318461C37BD4680BC7047B3
S32D0000EBC000100B4080B58EB000AFB9607A601A460346FB731346BB735D4B7B63FB7B002B02D1BB7B002B01D1EC
S32D0000EBE80423ADE0594B1B78DBB203F00103002B14BF01230023DBB2002B01D003239FE0524B1B78DBB203F06D
S32D0000EC100403002B14BF01230023DBB2002B01D0022391E0BB68002B01D100238CE07B6B1B7B002B02D17B685F
S32D0000EC385B027B60BB7B012B28D118233B7500237B757B68BB6100233B77BB7B3B6207F11403194641F20230A3
S32D0000EC60FFF7DCFA0346002B0CBF01230023DBB2002B38D04FF40071B868FFF751FF0346002B14BF01230023CC
S32D0000EC88DBB2002B2BD00023BB7328E019233B7500237B757B68BB6100233B77BB7B3B6207F11403194641F20B
S32D0000ECB00230FFF7B3FA0346002B0CBF01230023DBB2002B0FD0BB7B5B021946B868FFF727FF0346002B14BFCF
S32D0000ECD801230023DBB2002B01D00023BB730D233B7500237B757B6B1B69BB6100233B7700233B6207F11403D0
S32D0000ED00194641F20230FFF789FA0346002B14BF01230023DBB2002B01D0012314E07A6A0D4B1340002B01D0EE
S32D0000ED2801230DE07B6A03F4F853B3F5106F00D0D5E7BB7B002B01D0012300E0002300BF18463837BD4680BDAD
S32D0000ED50E8150020080000200880D9FF80B58CB000AF03463A60FB710B46BB713A4BBB62FB79002B01D00423CB
S32D0000ED7869E0012387F82F30364B1B78DBB203F00103002B14BF01230023DBB2002B01D0032358E0BB79032BFC
S32D0000EDA050D801A252F823F0B9ED0000C1ED0000D1ED0000E1ED0000002387F82F3044E0BB6A9A683B681A60D4
S32D0000EDC8002387F82F303CE03B684FF400721A80002387F82F3034E009233B7200237B72BB6A1B69FB600023E9
S32D0000EDF03B7400237B6107F10803194641F20230FFF70CFA0346002B14BF01230023DBB2002B01D001231AE04F
S32D0000EE187B6A03F44003002B0CD13B6A9B0C03F07F035A1C7B6A1B0A03F00303013B9A403B681A60002387F896
S32D0000EE402F3002E0042387F82F3097F82F3018463037BD4680BD00BFE81500200800002080B483B000AF034608
S32D0000EE68FB71FB79002B01D0012302E0034B1B78DBB218460C37BD4680BC70470800002080B483B000AF78607F
S32D0000EE90164B03F580539B6B144A43F0010302F580529363124A7B689360114B05225A600F4B1B680E4A43F0F7
S32D0000EEB8010313600C4B1B6803F08003002B0CBF01230023DBB2002B00D0F3E7064B1B68054A23F00103136019
S32D0000EEE000BF0C37BD4680BC704700BF007004400000044080B582B000AF786039607B68012B07D13B684FF6FF
S32D0000EF08FF72934202D1034800F00EF800BF0837BD4680BD0818002080B500AF4FF6FF710120FFF7E3FF80BD34
S32D0000EF3080B483B000AF78607B6800221A707B6818460C37BD4680BC7047FFFF80B582B000AF78607B681B785A
S32D0000EF5883F00103DBB2002B21D0134B03F580531A464FF400639362104B4FF440721A620E4B4FF440725A6271
S32D0000EF800D4B1B68DA0F13445B104FF4614219460A48FEF7FDFB642000F08AF87B6801221A70012300E00023AC
S32D0000EFA818460837BD4680BD0070044000D004400C18002000B00E4080B582B000AF7860084611461A46034618
S32D0000EFD0FB700B46BB7013467B707F210E48FEF7AAFC08210C48FEF7A6FCFB7819460A48FEF7A1FCBB781946FB
S32D0000EFF80748FEF79CFC7B7819460548FEF797FCFF210348FEF793FC00BF0837BD4680BD00B00E4080B487B052
S32D0000F02000AFF860B9607A60FB681F4AA2FB03239B09BA6813447B61FB681B4AA2FB031292094FF47A7101FB01
S32D0000F04802F29B1AFB60FB68DB03154AA2FB03239B097A6813443B613B69DB0B7A6913447B613B69C3F30E03AF
S32D0000F0703B610E4B1B687A699A4209D80B4B1B687A699A4206D1094B5B683A699A4201D9012300E00023002B29
S32D0000F09800D0EAE700BF1C37BD4680BC704700BFD34D621000D0034080B584B000AF7860074B1B68FB60064BCC
S32D0000F0C05B68BB607B68BA68F9681846FFF7A6FF00BF1037BD4680BD00D0034080B584B000AFC7E900010E4B6A
S32D0000F0E81B68FB600C4B5B68BB604FF000020B4BD7E9000102F060FF02460B461046194603F01CFA0346BA687C
S32D0000F110F9681846FFF782FF00BF1037BD4680BD00D0034000408F4080B584B000AF134B1B68FB60114B5B68C0
S32D0000F138BB60F86802F0C6FE02460B46C7E90023B86802F0BFFE4FF000020B4B03F05EF802460B46D7E9000103
S32D0000F16002F078FD02460B46C7E90023D7E90023104619461037BD4680BD00BF00D003400000E04080B582B036
S32D0000F18800AF78600B46FB70FB781946786800F005F87B6818460837BD4680BD80B483B000AF78600B46FB700D
S32D0000F1B07B68FA781A707B681B781A46534B9B5C042B00F29E8001A252F823F0E1F100001BF2000055F2000082
S32D0000F1D88FF20000C9F200004B4A7B681B7819464A4B53F8213040F2031142F82310484B5A697B681B78194654
S32D0000F200444B53F8213003F01F03012101FA03F3DB43414913404B6173E0404A7B681B7819463C4B53F8213011
S32D0000F22840F2031142F823103B4B5A697B681B781946364B53F8213003F01F03012101FA03F3DB4334491340B4
S32D0000F2504B6156E0334A7B681B7819462D4B53F8213040F2031142F823102F4B5A697B681B781946274B53F8C6
S32D0000F278213003F01F03012101FA03F3DB43284913404B6139E0274A7B681B7819461F4B53F8213040F20311B6
S32D0000F2A042F82310224B5A697B681B781946194B53F8213003F01F03012101FA03F3DB431B4913404B611CE029
S32D0000F2C81A4A7B681B781946104B53F8213040F2031142F82310164B5A697B681B7819460A4B53F8213003F058
S32D0000F2F01F03012101FA03F3DB430F4913404B6100BF00BF0C37BD4680BC7047FC37010000900440403801000E
S32D0000F31800F00F4000A0044040F00F4000B0044080F00F4000C00440C0F00F4000D0044000F10F4080B485B0B2
S32D0000F34000AF78600023FB607B681B781A46364B9B5C042B5CD801A252F823F071F3000091F30000B1F300005D
S32D0000F368D1F30000F1F300002E4B1B697A68127811462D4A52F8212002F01F02012101FA02F21340FB603FE01C
S32D0000F390284B1B697A6812781146254A52F8212002F01F02012101FA02F21340FB602FE0214B1B697A6812785E
S32D0000F3B811461D4A52F8212002F01F02012101FA02F21340FB601FE01A4B1B697A6812781146154A52F8212077
S32D0000F3E002F01F02012101FA02F21340FB600FE0134B1B697A68127811460D4A52F8212002F01F02012101FA87
S32D0000F40802F21340FB6000BFFB68002B14BF01230023DBB218461437BD4680BC704700BFFC37010000F00F406F
S32D0000F4304038010040F00F4080F00F40C0F00F4000F10F4080B584B000AF78600B46FB700B23FB73FA7BFB7888
S32D0000F4581946786800F094F87B6818461037BD4680BDFFFF80B485B000AF78607B68103B002B00DA1F335B1124
S32D0000F480FB60FB68022B53D0FB68022B75DCFB68002B03D0FB68012B25D06EE0394BD3F880217B68103B594283
S32D0000F4A803F01F0301F01F0158BF4B42012101FA03F332491343C1F88031304B1A687B68103B594203F01F0343
S32D0000F4D001F01F0158BF4B42012101FA03F3294913430B6049E0274BD3F884217B68103B594203F01F0301F039
S32D0000F4F81F0158BF4B42012101FA03F31F491343C1F884311D4B5A687B68103B594203F01F0301F01F0158BFB3
S32D0000F5204B42012101FA03F3164913434B6024E0144BD3F888217B68103B594203F01F0301F01F0158BF4B4253
S32D0000F548012101FA03F30D491343C1F888310B4B9A687B68103B594203F01F0301F01F0158BF4B42012101FA5C
S32D0000F57003F3044913438B6000BF00BF1437BD4680BC704700E100E080B584B000AF78600B46FB701346BB7039
S32D0000F5987B68FA781A70BB78FB737B681B781A46574B9B5C042B00F2A68001A252F823F0CDF5000019F600003E
S32D0000F5C065F60000FDF60000B1F60000FB7B1B0403F470234D497A68127810464C4A52F8202043F4897343F02B
S32D0000F5E8010341F82230494B5A697B681B781946454B53F8213003F01F03012101FA03F3DB43424913404B613E
S32D0000F6106720FFF72BFF72E0FB7B1B0403F470233D497A6812781046394A52F8202043F4897343F0010341F8BC
S32D0000F6382230384B5A697B681B781946324B53F8213003F01F03012101FA03F3DB43314913404B616820FFF7E1
S32D0000F66005FF4CE0FB7B1B0403F470232C497A6812781046264A52F8202043F4897343F0010341F82230274B95
S32D0000F6885A697B681B7819461F4B53F8213003F01F03012101FA03F3DB43204913404B616920FFF7DFFE26E0A6
S32D0000F6B0FB7B1B0403F470231B497A6812781046134A52F8202043F4897343F0010341F82230164B5A697B6804
S32D0000F6D81B7819460C4B53F8213003F01F03012101FA03F3DB430F4913404B616B20FFF7B9FE00E000BF00BFEC
S32D0000F7001037BD4680BD00BFFC370100009004404038010000F00F4000A0044040F00F4000B0044080F00F40BF
S32D0000F72800D0044000F10F40B0B48BB000AF234B3C1D1D460FCD0FC495E80F0084E80F0000237B627B6A072B1A
S32D0000F75032DC1D4BD3F8A0207B6A9B0007F128010B4453F8243C012101FA03F31340002B14BF01230023DBB2B7
S32D0000F778002B19D0134A7B6A52F823305A1C11497B6A41F823200E4BD3F8A0207B6A9B0007F128010B4453F820
S32D0000F7A0243C012101FA03F307491340C1F8A0307B6A01337B62C9E700BF2C37BD46B0BC704700BF4439010071
S32D0000F7C800A0044038180020B0B489B000AF234B3C1D1D460FCD0FC495E8030084E803000023FB61FB69052B98
S32D0000F7F032DC1D4BD3F8A020FB699B0007F120010B4453F81C3C012101FA03F31340002B14BF01230023DBB2A8
S32D0000F818002B19D0FB690833124A52F823200132104941F823200E4BD3F8A020FB699B0007F120010B4453F888
S32D0000F8401C3C012101FA03F307491340C1F8A030FB690133FB61C9E700BF2437BD46B0BC704700BF64390100C2
S32D0000F86800B0044038180020B0B48DB000AF244B3C461D460FCD0FC40FCD0FC495E8070084E807000023FB6295
S32D0000F890FB6A0A2B32DC1D4BD3F8A020FB6A9B0007F130010B4453F8303C012101FA03F31340002B14BF0123F8
S32D0000F8B80023DBB2002B19D0FB6A0E33124A52F823200132104941F823200E4BD3F8A020FB6A9B0007F13001BA
S32D0000F8E00B4453F8303C012101FA03F307491340C1F8A030FB6A0133FB62C9E700BF3437BD46B0BC704700BF00
S32D0000F9087C3901000090044038180020B0B487B000AF224B3C461D460FCD0FC42B68236000237B617B69042B64
S32D0000F93032DC1D4BD3F8A0207B699B0007F118010B4453F8183C012101FA03F31340002B14BF01230023DBB2F2
S32D0000F958002B19D07B691933124A52F823200132104941F823200E4BD3F8A0207B699B0007F118010B4453F83E
S32D0000F980183C012101FA03F307491340C1F8A0307B6901337B61C9E700BF1C37BD46B0BC704700BFA839010049
S32D0000F9A800D004403818002080B483B000AF78607B681B781A46044B53F8223018460C37BD4680BC704700BFA7
S32D0000F9D03818002080B483B000AF78607B681B781946044B002243F8212000BF0C37BD4680BC70473818002081
S32D0000F9F880B483B000AF78600B46FB707B68FA781A707B6818460C37BD4680BC7047FFFF80B586B000AF7860EE
S32D0000FA207B681B781A46234B53F822303B617B681B781A46204B9B5CFB733B69DBB203F01F03DAB21D4B1A72CF
S32D0000FA483B69DBB203F01F03DAB21A4B5A72FB7B002B13D11749184800F0CEF9164B1B6803F08003802B14BFB9
S32D0000FA7001230023DBB2002B00D0F3E7104B1B697B6112E00D490F4800F0BAF90D4B1B6803F08003802B14BFF3
S32D0000FA9801230023DBB2002B00D0F3E7074B1B697B617B6918461837BD4680BDC03801001C3801002818002066
S32D0000FAC000B0034000B00B4098B500AF204B5C221A701F4B10225A701D4B41F234225A801B4B45F278629A80F9
S32D0000FAE8194B10229A71184B0722DA71164B4FF4C022DA60144B1F221A72134B1F225A721149124800F078F90C
S32D0000FB100F49114800F074F90F4800F0D2F80D4800F0CFF80A490C4800F06AF90849094800F066F9094A064B0D
S32D0000FB3814460FCB84E80F00064B5C221A70054B0422DA7100BF98BD1818002000B0034000B00B402818002024
S32D0000FB6080B500AF064B1B680133054A136000F03DF8044B0122C3F80C2100BF80BD00BFBC18002000700340E8
S32D0000FB8880B500AF0C4B01221A600C4800F01AF8094B0322C3F80821094BD3F88831084A43F01003C2F88831E1
S32D0000FBB0054B9B68044A43F01003936000BF80BD00700340A086010000E100E080B483B000AF7860044A7B6897
S32D0000FBD8C2F8003100BF0C37BD4680BC704700BF0070034080B584B000AF174B1B68FB60FB68002B24D0FB686D
S32D0000FC005B78FB71FB689B68184600F023F80346BB71BB79002B13D0FB685B68012B0FDDFB689B681B69BB60CE
S32D0000FC28BB68002B08D0BB685B685A1CBB685A60BB681B69BB60F3E7FB68DB68FB60D7E700BF1037BD4680BDAE
S32D0000FC50B818002080B584B000AF78607868FFF7DBFEF8607B689B695B78FB72FB7A002B0FD17B68DB68FA6870
S32D0000FC789A420ADD7B689B6901225A707B685B685A1C7B685A60012313E0FB7A012B0FD17B689B68FA689A4252
S32D0000FCA00ADA7B689B6900225A707B685B685A1C7B685A60012300E0002318461037BD4680BD80B485B000AFA2
S32D0000FCC878607B681B6A23F040027B681A627B685B6A23F00B027B685A627B685B6A43F007027B685A627B684D
S32D0000FCF05B6A43F080027B685A627B681B6803F08003002B0CBF01230023DBB2002B00D0F3E77B685B6A03F0B7
S32D0000FD184003402B0CBF01230023DBB2002B01D0012364E00023FB817B68DB6CFB817B689B6C9AB2FB891344B6
S32D0000FD40FB817B685B6C9AB2FB891344FB817B681B6C9AB2FB891344FB817B68DB6B9AB2FB891344FB817B6810
S32D0000FD689B6B9AB2FB891344FB81FB895B08FB81FB896FEA43436FEA5343FB81FA897B68DA620023FB817B686F
S32D0000FD90DB6EFB817B689B6E9AB2FB891344FB817B685B6E9AB2FB891344FB817B681B6E9AB2FB891344FB8193
S32D0000FDB87B68DB6D9AB2FB891344FB817B689B6D9AB2FB891344FB81FB895B08FB81FB896FEA43436FEA53430C
S32D0000FDE0FB81FA897B681A637B685B6A23F080027B685A62002318461437BD4680BC704780B483B000AF78600A
S32D0000FE0839603B681B781A467B689A603B685B781A467B68DA603B685B881A467B689A613B689B881A467B6800
S32D0000FE30DA613B689B791A467B681A623B68DB791A467B685A623B68DA687B681A653B681B7A1A467B681A60C1
S32D0000FE583B685B7A1A467B685A6000BF0C37BD4680BC704780B483B000AF78607B6818460C37BD4680BC7047A7
S32D0000FE8080B582B000AF786039607B68012B07D13B684FF6FF72934202D10348FFF7E6FF00BF0837BD4680BD81
S32D0000FEA8C018002080B500AF4FF6FF710120FFF7E3FF80BD80B483B000AF78600B46FB707B68FA781A707B68F9
S32D0000FED04FF4FA725A807B6840F6C4129A807B68034A9A607B6818460C37BD4680BC7047000080BF80B483B028
S32D0000FEF800AF786039603B68B3F5FA7F04DB3B6840F6C412934204DD7B684FF4FA725A8004E03B689AB27B6892
S32D0000FF205A8000BF00BF0C37BD4680BC704780B483B000AF786039603B68B3F5FA7F04DB3B6840F6C412934274
S32D0000FF4804DD7B6840F6C4129A8004E03B689AB27B689A8000BF00BF0C37BD4680BC70472DE9904385B000AF4D
S32D0000FF70786039604FF00001386802F0FFFD0346002B02D04FF000033B603249386802F013FE0346002B01D09E
S32D0000FF982E4B3B607B689B681946386802F0E0FD0346002B00D04BE07B683A689A607B685C887B689B881A4658
S32D0000FFC07B685B88D31A184601F090FF4FF00002214B02F01FF902460B4690469946386801F096FF02460B46BE
S32D0000FFE84046494601F0E8FF02460B461046194602F0A4FA03469BB22344FB81FB897B73FB891B0A9BB23B7391
S32D000100107F211248FDF78FFC05211048FDF78BFC7B681B7819460D48FDF785FC3B7B19460A48FDF780FC7B7BE3
S32D0001003819460848FDF77BFCFF210648FDF777FC00BF1437BD46BDE8908300BF000034430080664000B00E408B
S32D0001006080B582B000AF7860B84B4FF48072DA60B74B4FF480729A64B54B4FF480721A64B34B4FF480725A6438
S32D00010088B14B4FF48072DA60B04B5B69AF4A43F008035361AE4B5B69AD4A43F480235361AB4B5B69AA4A43F40D
S32D000100B080335361A84B5B69A74A43F400335361A54B1B68A44A43F008031360A24B5B69A14A43F00803536154
S32D000100D89E4B1B689D4A43F0080313609A4B4FF480725A62984B4FF480721A62954B4FF480721A61934B4FF4DA
S32D0001010080725A61914B4FF480729A618F4B4FF48072DA618D4B4FF480721A638B4B4FF480725A63894B4FF464
S32D0001012880729A63874B4FF48072DA63854B4FF480721A64834B4FF480725A64814B4FF480729A647F4B4FF425
S32D000101508072DA64814B4FF480721A607F4B4FF480729A607D4B4FF48072DA607B4B4FF480721A61784B5B69A8
S32D00010178774A43F440735361744B5B69734A43F47F2343F0F0035361734B5B69724A43F01D035361E2217868DE
S32D000101A000F01AFC1D21786800F0BCFC0221786800F0B8FC0421786800F0B4FCE021786800F00AFC012178683F
S32D000101C800F0ACFC6420FEF76FFFE021786800F0FFFB0321786800F0A1FC0121786800F0F7FB0120FEF760FFD4
S32D000101F0E621786800F0F0FB0121786800F092FCA021786800F08EFCFF21786800F08AFCB021786800F0E0FB91
S32D000102181C21786800F082FC0F21786800F07EFC0121786800F07AFC3F21786800F076FC0021786800F072FC49
S32D00010240EF21786800F06EFC0021786800F06AFCB421786800F0C0FB0121786800F062FC9921786800F05EFC5A
S32D000102680021786800F05AFC4521786800F056FC0221786800F052FC0021786800F04EFC0021786800F04AFCE5
S32D000102900021786800F046FCB621786800F09CFB0121786800F03EFC0921786800F03AFC0021786800F036FC4F
S32D000102B80E21786800F032FC0221786800F02EFC0021786800F02AFC0021786800F026FCBA21786800F07CFB81
S32D000102E00F21786800F01EFC6420FEF7E1FE3A21786800F071FB6021786800F013FC2A21786800F069FB0021E6
S32D00010308786800F00BFC0021786800F007FC0121786800F003FC3F21786800F0FFFB2B21786800F055FB002153
S32D00010330786800F0F7FB0021786800F0F3FB0021786800F0EFFBEF2178680BE000B0044000A0044080F00F40B0
S32D0001035840F00F4000C00440C0F00F4000F0DEFB3621786800F034FB0021786800F0D6FBF021786800F02CFB0B
S32D000103800421786800F0CEFBB821786800F024FB0F21786800F0C6FB0121786800F0C2FB314B1B68304A43F0AC
S32D000103A8080313606420FEF77FFE3621786800F00FFB0021786800F0B1FBF021786800F007FB0421786800F00C
S32D000103D0A9FB0121786800F0BCF91E226F21786800F082F8AF225621786800F0DBF80021786800F0FFF90123A1
S32D000103F801221C49786800F020FA2921786800F0E7FA6420FEF750FEBE21786800F0E0FA0E21786800F082FB9D
S32D00010420F021786800F07EFB0121786800F07AFB0021786800F076FB0021786800F072FB0F21786800F06EFBC3
S32D00010448786800F01DFA0121786800F0CFF90021786800F0A4F900BF0837BD4680BD00BF40F00F40BC390100E4
S32D0001047080B582B000AF78607B680022DA617B6801221A627B680E225A607B681A229A607B6800225A617B6824
S32D0001049800229A617B684FF4A072DA607B68F0221A617B6800221A70786800F05FFF7B6818460837BD4680BDB9
S32D000104C080B582B000AF7860064B1B78002B05D1044B01221A707868FFF7C2FD00BF0837BD4680BD081900202A
S32D000104E880B58AB002AFF860B9607A607E23009362237A68B968F86800F098FC40F24E733B610023FB61FA6969
S32D000105103B699A4240DA0023BB61214AFB6913441B781A46BB69934232DAFB6901331C4AD35C002B06D1FF2374
S32D00010538FB75FF23BB75FF237B7512E0FB690133154AD35C012B06D1D423FB750023BB7526237B7505E0B523F5
S32D00010560FB75BA23BB75B0237B757B7DBA7DF97DF86800F0C9F80246FB68DA61F86800F0F9FEF86800F032FEC9
S32D00010588BB690133BB61C4E7FB690233FB61BAE700BF2037BD4680BD0C00002080B58AB002AFF860B9607A60A2
S32D000105B02723009395237A68B968F86800F03AFC40F2E6333B610023FB61FA693B699A4240DA0023BB61214AF1
S32D000105D8FB6913441B781A46BB69934232DAFB6901331C4AD35C002B06D1FF23FB75FF23BB75FF237B7512E02A
S32D00010600FB690133154AD35C012B06D10023FB750023BB7500237B7505E0D423FB750023BB7526237B757B7DD9
S32D00010628BA7DF97DF86800F06BF80246FB68DA61F86800F09BFEF86800F0D4FDBB690133BB61C4E7FB6902339B
S32D00010650FB61BAE700BF2037BD4680BD5C07002080B485B000AF78600B46FB70FB78062B29D801A252F823F054
S32D000106789D06010095060100A3060100AB060100B3060100B9060100C10601006FF07F43FB6014E00023FB6087
S32D000106A011E04FF47F03FB600DE04FF47F43FB6009E0FF23FB6006E04FF41903FB6002E0044BFB6000BFFB6819
S32D000106C818461437BD4680BC704700BF9999990080B584B000AF786039603B681B0CFB733B681B0ABB733B6880
S32D000106F07B737B7BBA7BF97B786800F005F8034618461037BD4680BD80B487B000AF7860084611461A46034613
S32D00010718FB700B46BB7013467B70FB789B08DBB27B61BB789B08DBB23B617B789B08DBB2FB607B691A033B69E6
S32D000107409B011A43FB68134318461C37BD4680BC704780B582B000AF78600B46FB70FB7819467868FFF77CFF64
S32D0001076803461946786800F004F800BF0837BD4680BD80B582B000AF7860396039687868FFF7A6FF02467B68E2
S32D000107901A62786800F0EEFD786800F05BFA00BF0837BD4680BD80B582B000AF78600B46FB70FB781946786844
S32D000107B8FFF752FF03461946786800F004F800BF0837BD4680BD80B582B000AF7860396039687868FFF77CFFA0
S32D000107E002467B681A62786800F0C4FD00BF0837BD4680BD80B582B000AF78600B46FB70FB7819467868FFF722
S32D000108082BFF03461946786800F004F800BF0837BD4680BD80B582B000AF7860396039687868FFF755FF02464B
S32D000108307B68DA61786800F09DFD00BF0837BD4680BD80B586B000AFF860B9607A603B6000237B617B69BA68CE
S32D0001085813441B78002B0FD07B69BA6813441B783A687968F86800F07BFB7B680C337B607B6901337B61E9E783
S32D0001088000BF1837BD4680BD80B582B000AF7860FCF72EFF67210120FCF7BDFE00210220FCF7B9FEA0210320C5
S32D000108A8FCF7B5FE50210420FCF7B1FE20210520FCF7ADFE20210620FCF7A9FE77210720FCF7A5FE00210820A1
S32D000108D0FCF7A1FE00210920FCF79DFE00210A20FCF799FE04210B20FCF795FE7B684FF0FF32DA637B684FF032
S32D000108F8FF321A6400BF0837BD4680BD80B584B000AF786039600023FB60786800F061FAFB683A6813441B78C3
S32D00010920002B12D07B6859697B689869FB683A6813441B780246786800F0FBFA786800F060FAFB680133FB60FA
S32D00010948E6E700BF1037BD4680BDFFFF80B582B000AF78600B46FB70FB78002B04D006497868FFF7CBFF03E081
S32D0001097004497868FFF7C6FF00BF0837BD4680BDE0390100E839010080B582B000AF78603960786800F021FA84
S32D0001099839687868FFF7B2FF786800F005FA00BF0837BD4680BD80B582B000AF78600B46FB70786800F00DFA7A
S32D000109C0FB7819467868FFF7C5FF786800F0F0F900BF0837BD4680BD80B483B000AF78600B46FB704D4B1B68E0
S32D000109E84C4A23F0080313604B4B1B684A4A23F480231360484B1B68474A43F480331360454B1B68444A23F423
S32D00010A1040731360414B1B68404A23F4435323F0300313603E4B1A68FB785B0203F400733B4913430B603A4B83
S32D00010A381A68FB785B101B0203F48073364913430B60344B1A68FB789B101B0103F01003304913430B602F4BF3
S32D00010A601A68FB78DB105B0103F020032B4913430B602A4B1A68FB781B119B0103F04003264913430B60254BD8
S32D00010A881A68FB785B11DB01DBB2224913430B60204B1A68FB789B111B0303F480531D4913430B601B4B1A6846
S32D00010AB097F90330DB115BB25B0303F40053174913430B60164B1B68154A23F400331360134B1B68124A43F41E
S32D00010AD8003313600F4B1B680E4A43F0080313600D4B1B680C4A43F440731360094B1B68084A43F4435343F0AC
S32D00010B0030031360064B1B68054A43F48023136000BF0C37BD4680BC704700BF80F00F4040F00F4080B483B054
S32D00010B2800AF78600B46FB70464B1B68454A23F008031360444B1B68434A43F480331360414B1B68404A43F45B
S32D00010B50802313603E4B1B683D4A23F4407313603A4B1B68394A23F4435323F030031360374B1A68FB785B02CB
S32D00010B7803F40073344913430B60334B1A68FB785B101B0203F480732F4913430B602D4B1A68FB789B101B0154
S32D00010BA003F01003294913430B60284B1A68FB78DB105B0103F02003244913430B60234B1A68FB781B119B01CF
S32D00010BC803F040031F4913430B601E4B1A68FB785B11DB01DBB21B4913430B60194B1A68FB789B111B0303F42D
S32D00010BF08053164913430B60144B1A6897F90330DB115BB25B0303F40053104913430B600F4B1B680E4A23F438
S32D00010C18003313600C4B1B680B4A43F400331360084B1B68074A43F008031360064B1B68054A23F480231360D3
S32D00010C4000BF0C37BD4680BC704700BF80F00F4040F00F4080B586B000AF78607B6800225A617B6800229A61DE
S32D00010C687B681B6AFB60FB68FB72FB681B0ABB72FB681B0CDBB203F003037B722A217868FFF7A6FE0021786852
S32D00010C90FFF748FF00217868FFF744FF01217868FFF740FF3F217868FFF73CFF2B217868FFF792FE0021786863
S32D00010CB8FFF734FF00217868FFF730FF00217868FFF72CFFEF217868FFF728FF2C217868FFF77EFE314B1B68F1
S32D00010CE0304A23F4407313602F4B1B682E4A23F47F2323F0F00313602C4B1B682B4A23F01D031360274B1A687E
S32D00010D087B681B6B254913430B60254B1A687B685B6B234913430B60224B1A687B689B6B204913430B601E4BF1
S32D00010D301B681D4A23F0080313601A4B1B68194A43F48023136000237B617B69EF2B19D800233B613B69B3F588
S32D00010D58A07F0FD2114B1B68104A23F4003313600E4B1B680D4A43F4003313603B6901333B61EBE77B69013308
S32D00010D807B61E2E7084B1B68074A43F008031360044B1B68034A23F48023136000BF1837BD4680BD40F00F40AE
S32D00010DA880F00F40C0F00F4080B483B000AF78607B689B69002B07DD7B685B695A1C7B685A617B6800229A61BF
S32D00010DD000BF0C37BD4680BC704780B582B000AF78607B685A697B685B689A4205DB7B6800225A617868FFF770
S32D00010DF82DFF00BF0837BD4680BD80B582B000AF78607B689B695A1C7B689A617B689A697B689B689A4205D1BB
S32D00010E207868FFF7C5FF7868FFF7D7FF00BF0837BD4680BD80B588B000AFF860B9607A603B60FB681B78022BFA
S32D00010E4803D0FB681B78032B11D17B68FB61BA6AFB691344013BBB61FB68DA68BB68D31A3B613B683A69D31AA8
S32D00010E7001337B610DE0BB68FB613A68FB691344013BBB617B687B61BA6A7B691344013B3B612A21F868FFF78B
S32D00010E989FFDFB691B0ADBB203F00F03DBB21946F868FFF73BFEFB69DBB21946F868FFF735FEBB691B0ADBB24A
S32D00010EC003F00F03DBB21946F868FFF72BFEBB69DBB21946F868FFF725FE2B21F868FFF77BFD7B691B0ADBB25A
S32D00010EE803F00F03DBB21946F868FFF717FE7B69DBB21946F868FFF711FE3B691B0ADBB203F00F03DBB2194603
S32D00010F10F868FFF707FE3B69DBB21946F868FFF701FE2C21F868FFF757FD00BF2037BD4680BD80B584B000AF0D
S32D00010F38F860B9607A60FB707A6813465B0013449B00991CBA6813461B011344DA1CFB78F86800F005F800BF34
S32D00010F601037BD4680BDFFFF80B58EB002AFF860B9607A60FB70FB780A2B06D1F868FFF72CFFF868FFF714FF9A
S32D00010F88F2E0FB787D2B02D8FB781F2B01D82023FB70FB78203BFB70112300930C237A68B968F868FFF742FF66
S32D00010FB0FA7813469B0013446F4AD35C3B75FA7813469B00134401336B4AD35C7B75FA7813469B001344023306
S32D00010FD8674AD35CBB75FA7813469B0013440333634AD35CFB75FA7813469B00134404335F4AD35C3B760023FB
S32D00011000BB62BB6A062B00F3A180F86800F050F9F86800F0B3F8002387F82F3000237B627B6A042B35DC07F188
S32D0001102814027B6A13441B7803F00103002B14BF01230023FB76FB7E002B11D097F82F3083F00103DBB2002B65
S32D0001105003D0F86800F0CAF802E0F86800F08EF8F86800F08BF80DE097F82F30002B03D0F86800F01DF902E0E0
S32D00011078F86800F07FF8F86800F07CF8FB7E87F82F307B6A01337B62C6E797F82F30002B03D0F86800F008F987
S32D000110A002E0F86800F06AF8F86800F067F8002387F82F3000233B623B6A042B42DC07F114023B6A13441B788E
S32D000110C803F00103002B14BF01230023BB76BB7E002B11D097F82F3083F00103DBB2002B03D0F86800F07EF891
S32D000110F002E0F86800F042F8F86800F03FF80DE097F82F30002B03D0F86800F0D1F802E0F86800F033F8F8682F
S32D0001111800F030F8BB7E87F82F3007F114023B6A13441B785B08D9B207F114023B6A13440A461A703B6A013331
S32D000111403B62B9E7BB6A0133BB625AE7F86800F0AFF8002387F82F300123FB61FB69232B06DCF86800F00AF82E
S32D00011168FB690133FB61F5E73037BD4680BD00BF440B002080B483B000AF7860174B1B68164A43F48033136023
S32D00011190154B1B68144A23F008031360114B1B68104A43F4802313600E4B1B680D4A23F4003313600B4B1B680F
S32D000111B80A4A43F400331360094B1B68084A43F008031360054B1B68044A23F48023136000BF0C37BD4680BC6E
S32D000111E0704700BF40F00F4080F00F4080B483B000AF78602B4B1B682A4A43F480331360294B1B68284A23F0F8
S32D0001120808031360254B1B68244A43F480231360224B1B68214A23F440731360204B1B681F4A23F47F2323F0D0
S32D00011230F00313601D4B1B681C4A23F01D031360184B1A687B685B6A164913430B60164B1A687B689B6A14495D
S32D0001125813430B60134B1A687B68DB6A114913430B600E4B1B680D4A23F4003313600B4B1B680A4A43F40033FC
S32D000112801360094B1B68084A43F008031360054B1B68044A23F48023136000BF0C37BD4680BC704740F00F402D
S32D000112A880F00F40C0F00F4080B483B000AF78602B4B1B682A4A43F480331360294B1B68284A23F008031360A7
S32D000112D0254B1B68244A43F480231360224B1B68214A23F440731360204B1B681F4A23F47F2323F0F003136020
S32D000112F81D4B1B681C4A23F01D031360184B1A687B681B6B164913430B60164B1A687B685B6B144913430B60B8
S32D00011320134B1A687B689B6B114913430B600E4B1B680D4A23F4003313600B4B1B680A4A43F400331360094B6C
S32D000113481B68084A43F008031360054B1B68044A23F48023136000BF0C37BD4680BC704740F00F4080F00F406C
S32D00011370C0F00F4080B485B000AF78607B681B6AFB60FB68FB72FB681B0ABB72FB681B0CDBB203F003037B721A
S32D000113987B6800225A627B6800229A627B680022DA627B6800221A637B6800225A637B6800229A637B681A6B75
S32D000113C0FB7A5B0203F400731A437B681A637B681A6BFB7A5B101B0203F480731A437B681A637B685A6BFB7ADC
S32D000113E89B101B0103F010031A437B685A637B685A6BFB7ADB105B0103F020031A437B685A637B685A6BFB7A78
S32D000114101B119B0103F040031A437B685A637B685A6BFB7A5B11DB01DBB21A437B685A637B685A6BFB7A9B11FA
S32D000114381B0303F480531A437B685A637B685A6B97F90B30DB115BB25B0303F400531A437B685A637B685A6BE7
S32D00011460BB7A9B0303F480431A437B685A637B685A6BBB7A5B10DB039BB21A437B685A637B685A6BBB7A9B10DB
S32D000114881B0403F480331A437B685A637B685A6BBB7ADB105B0403F400331A437B685A637B685A6BBB7A1B1118
S32D000114B09B0403F480231A437B685A637B685A6BBB7A5B11DB0403F400231A437B685A637B689A6BBB7A9B11CF
S32D000114D803F001031A437B689A637B689A6B97F90A30DB115BB29B0003F004031A437B689A637B689A6B7B7A57
S32D00011500DB0003F008031A437B689A637B689A6B7B7A5B101B0103F010031A437B689A637B68DB69FB60FB681A
S32D00011528FB72FB681B0ABB72FB681B0CDBB203F003037B727B685A6AFB7A5B0203F400731A437B685A627B68B3
S32D000115505A6AFB7A5B101B0203F480731A437B685A627B689A6AFB7A9B101B0103F010031A437B689A627B687D
S32D000115789A6AFB7ADB105B0103F020031A437B689A627B689A6AFB7A1B119B0103F040031A437B689A627B68B9
S32D000115A09A6AFB7A5B11DB01DBB21A437B689A627B689A6AFB7A9B111B0303F480531A437B689A627B689A6A7F
S32D000115C897F90B30DB115BB25B0303F400531A437B689A627B689A6ABB7A9B0303F480431A437B689A627B68B9
S32D000115F09A6ABB7A5B10DB039BB21A437B689A627B689A6ABB7A9B101B0403F480331A437B689A627B689A6A0E
S32D00011618BB7ADB105B0403F400331A437B689A627B689A6ABB7A1B119B0403F480231A437B689A627B689A6A1A
S32D00011640BB7A5B11DB0403F400231A437B689A627B68DA6ABB7A9B1103F001031A437B68DA627B68DA6A97F973
S32D000116680A30DB115BB29B0003F004031A437B68DA627B68DA6A7B7ADB0003F008031A437B68DA627B68DA6A77
S32D000116907B7A5B101B0103F010031A437B68DA6200BF1437BD4680BC7047FFFF80B582B000AF786039607B68C5
S32D000116B8012B07D13B684FF6FF72934202D10348FEF7D2FE00BF0837BD4680BDC418002080B500AF4FF6FF711B
S32D000116E00120FFF7E3FF80BD80B582B000AF7860164B03F580535B6B144A43F0400302F580525363124B4FF4D2
S32D0001170800725A62104B4FF400721A620F4B14225A700E4B1B7ADBB20C4A43F00103DBB213720A4B80229A7083
S32D0001173002212B20FBF7F8FE3D212A20FBF7F4FE7B6818460837BD4680BD00BF0070044000C0044000600640CB
S32D0001175880B582B000AF786039607B68012B07D13B684FF6FF72934202D10348FFF7B8FF00BF0837BD4680BDBD
S32D000117800C19002080B500AF4FF6FF710120FFF7E3FF80BD80B582B000AF78600B46FB707B68FA781146184672
S32D000117A8FEF726F97B6818460837BD4680BDFFFF80B582B000AF786039607B68012B08D13B684FF6FF729342A3
S32D000117D003D120210348FFF7DDFF00BF0837BD4680BD00BF1019002080B500AF4FF6FF710120FFF7E1FF80BDA5
S32D000117F880B483B000AF78607B6800221A707B6818460C37BD4680BC7047FFFF80B483B000AF78603960044AF8
S32D000118203B68136000BF0C37BD4680BC704700BF1419002080B582B000AF3248FCF762F80346FB71304AFB79FF
S32D000118481370304B01221A702F4B1B78022B33D0022B4FDC002B02D0012B14D04AE0FB79FF2B44D1284B0122B1
S32D000118701A70284B00221A70264B1B785A1CD1B2244A11701946244AFB79535433E0214B1B785A1CD1B21F4A58
S32D00011898117019461E4AFB7953541C4B1B780D2B27D11C4B1B68194A1278114618489847154B02221A701CE01D
S32D000118C0FB79FF2B10D1124B01221A70114B00221A70104B1B785A1CD1B20E4A117019460D4AFB79535409E0EE
S32D000118E80A4B00221A70084B00221A7002E000BF00E000BF00BF0837BD4680BD00A006402B1900202A190020A6
S32D000119102919002028190020181900201419002080B582B000AF78607B681846FFF764FF7B6811491846FFF72E
S32D000119386DFF7B684FF0FF325A600E4B4FF000021A600D4B4FF000021A600C4B4FF000021A600B4B00221A60DC
S32D000119600A4B00221A700A4B00221A707B6818460837BD4680BD00BF95190100381900203C19002040190020C9
S32D0001198844190020481900204919002080B582B000AF78600B46FB70424B1B78002B7DD07B6801331B781B02A7
S32D000119B07A68023212781344184600F0EDFE03463B49184600F0F0FF03463A49184600F02DFE03461A46384B5D
S32D000119D81A607B6803331B781B027A68043212781344184600F0D4FE03462F49184600F0D7FF03462D49184682
S32D00011A0000F014FE03461A462C4B1A607B6805331B781B027A68063212781344184600F0BBFE0346224918463C
S32D00011A2800F0BEFF03462149184600F0FBFD03461A46214B1A607B6807331B781A067B6808331B781B041A435D
S32D00011A507B6809331B781B0213437A680A32127813431A46174B1A607B68DA7A164B1A707B680C331B78AA2B5C
S32D00011A780CBF01230023DAB2124B1A70124B01221A70104B1B78002B08D0104800F052F80F4B1B680E4A23F4E1
S32D00011AA00053136000BF0837BD4680BD34190020000020410000C844381900203C19002040190020441900205D
S32D00011AC848190020491900204A1900204C190020C0F00F4080B582B000AF786039607B68012B07D13B684FF68F
S32D00011AF0FF72934202D10348FFF712FF00BF0837BD4680BD2C19002080B500AF4FF6FF710120FFF7E3FF80BDEA
S32D00011B1880B483B000AF7860054B00221A60044B00225A607B6818460C37BD4680BC70474C19002080B584B031
S32D00011B4000AF7860154B1B68002B21D00023FB60124B5B68FA689A4214DA114AFB6852F82330002B0AD00E4A6E
S32D00011B68FB6852F823301846FCF70FF903461A460A4B1A70FB680133FB60E5E7054B00225A60044B00221A6098
S32D00011B90044B1B7818461037BD4680BD4C190020581900205419002080B582B000AF786039607B68012B07D14E
S32D00011BB83B684FF6FF72934202D10348FFF7A8FF00BF0837BD4680BD4C19002080B500AF4FF6FF710120FFF7A2
S32D00011BE0E3FF80BD80B483B000AF78600A4B03F580531B6B084A43F0010302F580521363064B5B68054A43F0C5
S32D00011C083203536000BF0C37BD4680BC704700BF0070044000000A4038B5084C4FF41E652846E56001F01CF851
S32D00011C30A06020B10023C0E90053606038BDE060606038BDC019002081F0004102E000BF83F0004330B54FEACB
S32D00011C5841044FEA430594EA050F08BF90EA020F1FBF54EA000C55EA020C7FEA645C7FEA655C00F0E2804FEA60
S32D00011C805454D4EB5555B8BF6D420CDD2C4480EA020281EA030382EA000083EA010180EA020281EA0303362DA9
S32D00011CA888BF30BD11F0004F4FEA01314FF4801C4CEA113102D0404261EB410113F0004F4FEA03334CEA1333A8
S32D00011CD002D0524263EB430394EA050F00F0A780A4F10104D5F1200E0DDB02FA0EFC22FA05F2801841F10001E8
S32D00011CF803FA0EF2801843FA05F359410EE0A5F120050EF1200E012A03FA0EFC28BF4CF0020C43FA05F3C01813
S32D00011D2051EBE37101F0004507D54FF0000EDCF1000C7EEB00006EEB0101B1F5801F1BD3B1F5001F0CD34908E0
S32D00011D485FEA30004FEA3C0C04F101044FEA445212F5800F80F09A80BCF1004F08BF5FEA500C50F1000041EBB4
S32D00011D70045141EA050130BD5FEA4C0C404141EB0101013C28BFB1F5801FE9D291F0000F04BF01460020B1FAF8
S32D00011D9881F308BF2033A3F10B03B3F120020CDA0C3208DD02F1140CC2F10C0201FA0CF021FA02F10CE002F165
S32D00011DC01402D8BFC2F1200C01FA02F120FA0CFCDCBF41EA0C019040E41AA2BF01EB0451294330BD6FEA04045B
S32D00011DE81F3C1CDA0C340EDC04F11404C4F1200220FA04F001FA02F340EA030021FA04F345EA030130BDC4F15B
S32D00011E100C04C4F1200220FA02F001FA04F340EA0300294630BD21FA04F0294630BD94F0000F83F4801306BF68
S32D00011E3881F480110134013D4EE77FEA645C18BF7FEA655C29D094EA050F08BF90EA020F05D054EA000C04BFE4
S32D00011E601946104630BD91EA030F1EBF0021002030BD5FEA545C05D14000494128BF41F0004130BD14F58004AD
S32D00011E883CBF01F5801130BD01F0004545F0FE4141F470014FF0000030BD7FEA645C1ABF194610467FEA655C5F
S32D00011EB01CBF0B46024650EA013406BF52EA033591EA030F41F4002130BD00BF90F0000F04BF0021704730B549
S32D00011ED84FF4806404F132044FF000054FF0000150E700BF90F0000F04BF0021704730B54FF4806404F13204AE
S32D00011F0010F0004548BF40424FF000013EE700BF42004FEAE2014FEA31014FEA02701FBF12F07F4393F07F4F59
S32D00011F2881F06051704732F07F4208BF704793F07F4F04BF41F40021704730B54FF4607401F0004521F00041AB
S32D00011F501CE700BF50EA010208BF704730B54FF000050AE050EA010208BF704730B511F0004502D5404261EB47
S32D00011F7841014FF4806404F132045FEA915C3FF4D8AE4FF003025FEADC0C18BF03325FEADC0C18BF033202EB0C
S32D00011FA0DC02C2F1200300FA03FC20FA02F001FA03FE40EA0E0021FA02F11444BDE600BF70B54FF0FF0C4CF4AE
S32D00011FC8E06C1CEA11541DBF1CEA135594EA0C0F95EA0C0F00F0DEF82C4481EA030621EA4C5123EA4C5350EA7E
S32D00011FF0013518BF52EA033541F4801143F4801338D0A0FB02CE4FF00005E1FB02E506F00042E0FB03E54FF0FD
S32D000120180006E1FB03569CF0000F18BF4EF0010EA4F1FF04B6F5007F64F5407404D25FEA4E0E6D4146EB06066A
S32D0001204042EAC62141EA55514FEAC52040EA5E504FEACE2EB4F1FD0C88BFBCF5E06F1ED8BEF1004F08BF5FEA69
S32D00012068500E50F1000041EB045170BD06F0004646EA010140EA020081EA0301B4EB5C04C2BFD4EB0C0541EA78
S32D00012090045170BD41F480114FF0000E013C00F3AB8014F1360FDEBF002001F0004170BDC4F10004203C35DAA7
S32D000120B80C341BDC04F11404C4F1200500FA05F320FA04F001FA05F240EA020001F0004221F0004110EBD370FA
S32D000120E021FA04F642EB06015EEA430E08BF20EAD37070BDC4F10C04C4F1200500FA04F320FA05F001FA04F21E
S32D0001210840EA020001F0004110EBD37041F100015EEA430E08BF20EAD37070BDC4F1200500FA05F24EEA020EEC
S32D0001213020FA04F301FA05F243EA020321FA04F001F0004121FA04F220EA020000EBD3705EEA430E08BF20EA55
S32D00012158D37070BD94F0000F0FD101F00046400041EB010111F4801F08BF013CF7D041EA060195F0000F18BFC4
S32D00012180704703F00046520043EB030313F4801F08BF013DF7D043EA0603704794EA0C0F0CEA135518BF95EA0E
S32D000121A80C0F0CD050EA410618BF52EA4306D1D181EA030101F000414FF0000070BD50EA410606BF104619468A
S32D000121D052EA430619D094EA0C0F02D150EA013613D195EA0C0F05D152EA03361CBF104619460AD181EA0301F2
S32D000121F801F0004141F0FE4141F470014FF0000070BD41F0FE4141F4780170BD70B54FF0FF0C4CF4E06C1CEAB8
S32D0001222011541DBF1CEA135594EA0C0F95EA0C0F00F0A7F8A4EB050481EA030E52EA03354FEA013100F0888033
S32D000122484FEA03334FF0805545EA131343EA12634FEA022245EA111545EA10654FEA00260EF000419D4208BF53
S32D00012270964244F1FD0404F5407402D25B084FEA3202B61A65EB03055B084FEA32024FF480104FF4002CB6EB05
S32D00012298020E75EB030E22BFB61A754640EA0C005B084FEA3202B6EB020E75EB030E22BFB61A754640EA5C0010
S32D000122C05B084FEA3202B6EB020E75EB030E22BFB61A754640EA9C005B084FEA3202B6EB020E75EB030E22BFF8
S32D000122E8B61A754640EADC0055EA060E18D04FEA051545EA16754FEA06164FEAC30343EA52734FEAC2025FEA62
S32D000123101C1CC0D111F4801F0BD141EA00014FF000004FF0004CB6E711F4801F04BF01430020B4F1FD0C88BF02
S32D00012338BCF5E06F3FF6AFAEB5EB030C04BFB6EB020C5FEA500C50F1000041EB045170BD0EF0004E4EEA113169
S32D0001236014EB5C04C2BFD4EB0C0541EA045170BD41F480114FF0000E013C90E645EA060E8DE60CEA135594EA99
S32D000123880C0F08BF95EA0C0F3FF43BAF94EA0C0F0AD150EA01347FF434AF95EA0C0F7FF425AF104619462CE7AB
S32D000123B095EA0C0F06D152EA03353FF4FDAE1046194622E750EA410618BF52EA43067FF4C5AE50EA41047FF4C8
S32D000123D80DAF52EA43057FF4EBAE12E74FF0FF3C06E000BF4FF0010C02E000BF4FF0010C4DF804CD4FEA410C9D
S32D000124007FEA6C5C4FEA430C18BF7FEA6C5C1BD001B050EA410C0CBF52EA430C91EA030F02BF90EA020F00207A
S32D00012428704710F1000F91EA030F58BF994208BF90422CBFD8176FEAE37040F0010070474FEA410C7FEA6C5C81
S32D0001245002D150EA013C07D14FEA430C7FEA6C5CD6D152EA033CD3D05DF8040B704700BF8446104662468C4649
S32D000124781946634600E000BF01B5FFF7B7FF002848BF10F1000F01BD4DF808EDFFF7F4FF0CBF012000205DF8AB
S32D000124A008FB00BF4DF808EDFFF7EAFF34BF012000205DF808FB00BF4DF808EDFFF7E0FF94BF012000205DF8EF
S32D000124C808FB00BF4DF808EDFFF7CEFF94BF012000205DF808FB00BF4DF808EDFFF7C4FF34BF012000205DF8FF
S32D000124F008FB00BF4FEA410212F5001215D211D56FF47873B3EB625212D94FEAC12343F0004343EA505311F0AA
S32D00012518004F23FA02F018BF404270474FF00000704750EA013005D111F0004008BF6FF0004070474FF0000052
S32D00012540704700BF4A0011D212F5001211D20DD56FF47873B3EB62520ED44FEAC12343F0004343EA505323FAE9
S32D0001256802F070474FF00000704750EA013002D14FF0FF3070474FF0000070474FEA4102B2F1E04324BFB3F57F
S32D00012590001CDCF1FE5C0DD901F0004C4FEAC0024CEA5070B2F1004F40EB830008BF20F00100704711F0804FC6
S32D000125B821D113F13872BCBF01F00040704741F480114FEA5252C2F11802C2F1200C10FA0CF320FA02F018BFB6
S32D000125E040F001004FEAC1234FEAD32303FA0CFC40EA0C0023FA02F34FEA4303CCE77FEA625307D150EA01336C
S32D000126081EBF4FF0FE4040F44000704701F0004040F0FE4040F40000704700BF80F0004002E000BF81F00041D2
S32D0001263042001FBF5FEA410392EA030F7FEA226C7FEA236C6AD04FEA1262D2EB1363C1BFD21841404840414043
S32D00012658B8BF5B42192B88BF704710F0004F40F4000020F07F4018BF404211F0004F41F4000121F07F4118BF24
S32D00012680494292EA030F3FD0A2F1010241FA03FC10EB0C00C3F1200301FA03F100F0004302D5494260EB400046
S32D000126A8B0F5000F13D3B0F1807F06D340084FEA310102F10102FE2A51D2B1F1004F40EBC25008BF20F00100F6
S32D000126D040EA03007047490040EB0000013A28BFB0F5000FEDD2B0FA80FCACF1080CB2EB0C0200FA0CF0AABF0D
S32D000126F800EBC25052421843BCBFD0401843704792F0000F81F4000106BF80F400000132013BB5E74FEA410362
S32D000127207FEA226C18BF7FEA236C21D092EA030F04D092F0000F08BF0846704790EA010F1CBF0020704712F0D6
S32D000127487F4F04D1400028BF40F00040704712F100723CBF00F50000704700F0004343F0FE4040F400007047C6
S32D000127707FEA226216BF08467FEA23630146420206BF5FEA412390EA010F40F4800070474FF0000304E000BF64
S32D0001279810F0004348BF40425FEA000C08BF704743F0964301464FF000001CE050EA010208BF70474FF00003E8
S32D000127C00AE000BF50EA010208BF704711F0004302D5404261EB41015FEA010C02BF84460146002043F0B643E7
S32D000127E808BFA3F18053A3F50003BCFA8CF2083AA3EBC25310DB01FA02FC634400FA02FCC2F12002BCF1004F8C
S32D0001281020FA02F243EB020008BF20F00100704702F1200201FA02FCC2F1200250EA4C0021FA02F243EB020024
S32D0001283808BF20EADC7070474FF0FF0C1CEAD0521EBF1CEAD15392EA0C0F93EA0C0F6FD01A4480EA010C40029F
S32D0001286018BF5FEA41211ED04FF0006343EA501043EA5111A0FB01310CF00040B1F5000F3EBF490041EAD371A8
S32D000128885B0040EA010062F17F02FD2A1DD8B3F1004F40EBC25008BF20F00100704790F0000F0CF0004C08BF4E
S32D000128B049024CEA502040EA51207F3AC2BFD2F1FF0340EAC250704740F400004FF00003013A5DDC12F1190F66
S32D000128D8DCBF00F000407047C2F10002410021FA02F1C2F1200200FA02FC5FEA310040F1000053EA4C0308BF80
S32D0001290020EADC70704792F0000F00F0004C02BF400010F4000F013AF9D040EA0C0093F0000F01F0004C02BFF0
